{
	"src/core/UserOperationLib.sol": {
		"UserOperationLib": {
			"abi": [
				{
					"inputs": [],
					"name": "PAYMASTER_DATA_OFFSET",
					"outputs": [
						{
							"internalType": "uint256",
							"name": "",
							"type": "uint256"
						}
					],
					"stateMutability": "view",
					"type": "function"
				},
				{
					"inputs": [],
					"name": "PAYMASTER_POSTOP_GAS_OFFSET",
					"outputs": [
						{
							"internalType": "uint256",
							"name": "",
							"type": "uint256"
						}
					],
					"stateMutability": "view",
					"type": "function"
				},
				{
					"inputs": [],
					"name": "PAYMASTER_VALIDATION_GAS_OFFSET",
					"outputs": [
						{
							"internalType": "uint256",
							"name": "",
							"type": "uint256"
						}
					],
					"stateMutability": "view",
					"type": "function"
				}
			],
			"devdoc": {
				"kind": "dev",
				"methods": {},
				"version": 1
			},
			"evm": {
				"assembly": "    /* \"src/core/UserOperationLib.sol\":287:5053  library UserOperationLib {... */\n  dataSize(sub_0)\n  dataOffset(sub_0)\n  0x0b\n  dup3\n  dup3\n  dup3\n  codecopy\n  dup1\n  mload\n  0x00\n  byte\n  0x73\n  eq\n  tag_1\n  jumpi\n  mstore(0x00, 0x4e487b7100000000000000000000000000000000000000000000000000000000)\n  mstore(0x04, 0x00)\n  revert(0x00, 0x24)\ntag_1:\n  mstore(0x00, address)\n  0x73\n  dup2\n  mstore8\n  dup3\n  dup2\n  return\nstop\n\nsub_0: assembly {\n        /* \"src/core/UserOperationLib.sol\":287:5053  library UserOperationLib {... */\n      eq(address, deployTimeAddress())\n      mstore(0x40, 0x80)\n      jumpi(tag_1, lt(calldatasize, 0x04))\n      shr(0xe0, calldataload(0x00))\n      dup1\n      0x25093e1b\n      eq\n      tag_2\n      jumpi\n      dup1\n      0xb29a8ff4\n      eq\n      tag_3\n      jumpi\n      dup1\n      0xede31502\n      eq\n      tag_4\n      jumpi\n    tag_1:\n      revert(0x00, 0x00)\n        /* \"src/core/UserOperationLib.sol\":385:441  uint256 public constant PAYMASTER_POSTOP_GAS_OFFSET = 36 */\n    tag_2:\n      tag_5\n      tag_6\n      jump\t// in\n    tag_5:\n      mload(0x40)\n      tag_7\n      swap2\n      swap1\n      tag_8\n      jump\t// in\n    tag_7:\n      mload(0x40)\n      dup1\n      swap2\n      sub\n      swap1\n      return\n        /* \"src/core/UserOperationLib.sol\":319:379  uint256 public constant PAYMASTER_VALIDATION_GAS_OFFSET = 20 */\n    tag_3:\n      tag_9\n      tag_10\n      jump\t// in\n    tag_9:\n      mload(0x40)\n      tag_11\n      swap2\n      swap1\n      tag_8\n      jump\t// in\n    tag_11:\n      mload(0x40)\n      dup1\n      swap2\n      sub\n      swap1\n      return\n        /* \"src/core/UserOperationLib.sol\":447:497  uint256 public constant PAYMASTER_DATA_OFFSET = 52 */\n    tag_4:\n      tag_12\n      tag_13\n      jump\t// in\n    tag_12:\n      mload(0x40)\n      tag_14\n      swap2\n      swap1\n      tag_8\n      jump\t// in\n    tag_14:\n      mload(0x40)\n      dup1\n      swap2\n      sub\n      swap1\n      return\n        /* \"src/core/UserOperationLib.sol\":385:441  uint256 public constant PAYMASTER_POSTOP_GAS_OFFSET = 36 */\n    tag_6:\n        /* \"src/core/UserOperationLib.sol\":439:441  36 */\n      0x24\n        /* \"src/core/UserOperationLib.sol\":385:441  uint256 public constant PAYMASTER_POSTOP_GAS_OFFSET = 36 */\n      dup2\n      jump\t// out\n        /* \"src/core/UserOperationLib.sol\":319:379  uint256 public constant PAYMASTER_VALIDATION_GAS_OFFSET = 20 */\n    tag_10:\n        /* \"src/core/UserOperationLib.sol\":377:379  20 */\n      0x14\n        /* \"src/core/UserOperationLib.sol\":319:379  uint256 public constant PAYMASTER_VALIDATION_GAS_OFFSET = 20 */\n      dup2\n      jump\t// out\n        /* \"src/core/UserOperationLib.sol\":447:497  uint256 public constant PAYMASTER_DATA_OFFSET = 52 */\n    tag_13:\n        /* \"src/core/UserOperationLib.sol\":495:497  52 */\n      0x34\n        /* \"src/core/UserOperationLib.sol\":447:497  uint256 public constant PAYMASTER_DATA_OFFSET = 52 */\n      dup2\n      jump\t// out\n        /* \"#utility.yul\":7:84   */\n    tag_15:\n        /* \"#utility.yul\":44:51   */\n      0x00\n        /* \"#utility.yul\":73:78   */\n      dup2\n        /* \"#utility.yul\":62:78   */\n      swap1\n      pop\n        /* \"#utility.yul\":7:84   */\n      swap2\n      swap1\n      pop\n      jump\t// out\n        /* \"#utility.yul\":90:216   */\n    tag_16:\n        /* \"#utility.yul\":185:209   */\n      tag_20\n        /* \"#utility.yul\":203:208   */\n      dup2\n        /* \"#utility.yul\":185:209   */\n      tag_15\n      jump\t// in\n    tag_20:\n        /* \"#utility.yul\":180:183   */\n      dup3\n        /* \"#utility.yul\":173:210   */\n      mstore\n        /* \"#utility.yul\":90:216   */\n      pop\n      pop\n      jump\t// out\n        /* \"#utility.yul\":222:460   */\n    tag_8:\n        /* \"#utility.yul\":323:327   */\n      0x00\n        /* \"#utility.yul\":361:363   */\n      0x20\n        /* \"#utility.yul\":350:359   */\n      dup3\n        /* \"#utility.yul\":346:364   */\n      add\n        /* \"#utility.yul\":338:364   */\n      swap1\n      pop\n        /* \"#utility.yul\":374:453   */\n      tag_22\n        /* \"#utility.yul\":450:451   */\n      0x00\n        /* \"#utility.yul\":439:448   */\n      dup4\n        /* \"#utility.yul\":435:452   */\n      add\n        /* \"#utility.yul\":426:432   */\n      dup5\n        /* \"#utility.yul\":374:453   */\n      tag_16\n      jump\t// in\n    tag_22:\n        /* \"#utility.yul\":222:460   */\n      swap3\n      swap2\n      pop\n      pop\n      jump\t// out\n\n    auxdata: 0xa264697066735822122002dc84df22ddf5fa7a0f986d8a8a26a75a0a408c90d75de36f9066a1543aaed464736f6c634300081e0033\n}\n",
				"bytecode": {
					"linkReferences": {},
					"object": "61010a61004d600b8282823980515f1a6073146041577f4e487b71000000000000000000000000000000000000000000000000000000005f525f60045260245ffd5b305f52607381538281f3fe73000000000000000000000000000000000000000030146080604052600436106046575f3560e01c806325093e1b14604a578063b29a8ff4146064578063ede3150214607e575b5f5ffd5b60506098565b604051605b919060bd565b60405180910390f35b606a609d565b6040516075919060bd565b60405180910390f35b608460a2565b604051608f919060bd565b60405180910390f35b602481565b601481565b603481565b5f819050919050565b60b78160a7565b82525050565b5f60208201905060ce5f83018460b0565b9291505056fea264697066735822122002dc84df22ddf5fa7a0f986d8a8a26a75a0a408c90d75de36f9066a1543aaed464736f6c634300081e0033",
					"opcodes": "PUSH2 0x10A PUSH2 0x4D PUSH1 0xB DUP3 DUP3 DUP3 CODECOPY DUP1 MLOAD PUSH0 BYTE PUSH1 0x73 EQ PUSH1 0x41 JUMPI PUSH32 0x4E487B7100000000000000000000000000000000000000000000000000000000 PUSH0 MSTORE PUSH0 PUSH1 0x4 MSTORE PUSH1 0x24 PUSH0 REVERT JUMPDEST ADDRESS PUSH0 MSTORE PUSH1 0x73 DUP2 MSTORE8 DUP3 DUP2 RETURN INVALID PUSH20 0x0 ADDRESS EQ PUSH1 0x80 PUSH1 0x40 MSTORE PUSH1 0x4 CALLDATASIZE LT PUSH1 0x46 JUMPI PUSH0 CALLDATALOAD PUSH1 0xE0 SHR DUP1 PUSH4 0x25093E1B EQ PUSH1 0x4A JUMPI DUP1 PUSH4 0xB29A8FF4 EQ PUSH1 0x64 JUMPI DUP1 PUSH4 0xEDE31502 EQ PUSH1 0x7E JUMPI JUMPDEST PUSH0 PUSH0 REVERT JUMPDEST PUSH1 0x50 PUSH1 0x98 JUMP JUMPDEST PUSH1 0x40 MLOAD PUSH1 0x5B SWAP2 SWAP1 PUSH1 0xBD JUMP JUMPDEST PUSH1 0x40 MLOAD DUP1 SWAP2 SUB SWAP1 RETURN JUMPDEST PUSH1 0x6A PUSH1 0x9D JUMP JUMPDEST PUSH1 0x40 MLOAD PUSH1 0x75 SWAP2 SWAP1 PUSH1 0xBD JUMP JUMPDEST PUSH1 0x40 MLOAD DUP1 SWAP2 SUB SWAP1 RETURN JUMPDEST PUSH1 0x84 PUSH1 0xA2 JUMP JUMPDEST PUSH1 0x40 MLOAD PUSH1 0x8F SWAP2 SWAP1 PUSH1 0xBD JUMP JUMPDEST PUSH1 0x40 MLOAD DUP1 SWAP2 SUB SWAP1 RETURN JUMPDEST PUSH1 0x24 DUP2 JUMP JUMPDEST PUSH1 0x14 DUP2 JUMP JUMPDEST PUSH1 0x34 DUP2 JUMP JUMPDEST PUSH0 DUP2 SWAP1 POP SWAP2 SWAP1 POP JUMP JUMPDEST PUSH1 0xB7 DUP2 PUSH1 0xA7 JUMP JUMPDEST DUP3 MSTORE POP POP JUMP JUMPDEST PUSH0 PUSH1 0x20 DUP3 ADD SWAP1 POP PUSH1 0xCE PUSH0 DUP4 ADD DUP5 PUSH1 0xB0 JUMP JUMPDEST SWAP3 SWAP2 POP POP JUMP INVALID LOG2 PUSH5 0x6970667358 0x22 SLT KECCAK256 MUL 0xDC DUP5 0xDF 0x22 0xDD CREATE2 STATICCALL PUSH27 0xF986D8A8A26A75A0A408C90D75DE36F9066A1543AAED464736F6C PUSH4 0x4300081E STOP CALLER "
				},
				"gasEstimates": {
					"creation": {
						"codeDepositCost": "53200",
						"executionCost": "128",
						"totalCost": "53328"
					},
					"external": {
						"PAYMASTER_DATA_OFFSET()": "331",
						"PAYMASTER_POSTOP_GAS_OFFSET()": "287",
						"PAYMASTER_VALIDATION_GAS_OFFSET()": "309"
					},
					"internal": {
						"encode(struct PackedUserOperation calldata,bytes32)": "infinite",
						"gasPrice(struct PackedUserOperation calldata)": "infinite",
						"hash(struct PackedUserOperation calldata,bytes32)": "infinite",
						"unpackCallGasLimit(struct PackedUserOperation calldata)": "infinite",
						"unpackHigh128(bytes32)": "infinite",
						"unpackLow128(bytes32)": "infinite",
						"unpackMaxFeePerGas(struct PackedUserOperation calldata)": "infinite",
						"unpackMaxPriorityFeePerGas(struct PackedUserOperation calldata)": "infinite",
						"unpackPaymasterStaticFields(bytes calldata)": "infinite",
						"unpackPaymasterVerificationGasLimit(struct PackedUserOperation calldata)": "infinite",
						"unpackPostOpGasLimit(struct PackedUserOperation calldata)": "infinite",
						"unpackUints(bytes32)": "infinite",
						"unpackVerificationGasLimit(struct PackedUserOperation calldata)": "infinite"
					}
				},
				"methodIdentifiers": {
					"PAYMASTER_DATA_OFFSET()": "ede31502",
					"PAYMASTER_POSTOP_GAS_OFFSET()": "25093e1b",
					"PAYMASTER_VALIDATION_GAS_OFFSET()": "b29a8ff4"
				}
			},
			"storageLayout": {
				"storage": [],
				"types": null
			},
			"userdoc": {
				"kind": "user",
				"methods": {},
				"notice": "Utility functions helpful when working with UserOperation structs.",
				"version": 1
			}
		}
	}
}