{
	"data": {
		"bytecode": {
			"linkReferences": {},
			"object": "6101806040523073ffffffffffffffffffffffffffffffffffffffff1660809081525034801561002d575f5ffd5b50604051613acd380380613acd833981810160405281019061004f91906103d2565b7f33e4b41198cc5b8053630ed667ea7c0c4c873f7fc8d9a478b5d7259cec0a4a005f1b3073ffffffffffffffffffffffffffffffffffffffff1660a081815250504660c081815250506060806100a96101db60201b60201c565b6100c4576100bb6101df60201b60201c565b80925081935050505b5f6100d36101db60201b60201c565b6100e45782805190602001206100e8565b5f5f1b5b90505f6100f96101db60201b60201c565b61010a57828051906020012061010e565b5f5f1b5b90508160e081815250508061010081815250505f6101306101db60201b60201c565b61017a576040517f8b73c3c69bb8fe3d512ecc4cf759cc79239f7b179b0ffacaa9a75d522b39400f815283602082015282604082015246606082015230608082015260a081209150505b8061012081815250505050505050806101608181525050508073ffffffffffffffffffffffffffffffffffffffff166101408173ffffffffffffffffffffffffffffffffffffffff16815250506101d561025660201b60201c565b50610438565b5f90565b6060806040518060400160405280601081526020017f436f7264796c696e654163636f756e740000000000000000000000000000000081525091506040518060400160405280600181526020017f320000000000000000000000000000000000000000000000000000000000000081525090509091565b5f61026561035460201b60201c565b9050805f0160089054906101000a900460ff16156102af576040517ff92ee8a900000000000000000000000000000000000000000000000000000000815260040160405180910390fd5b67ffffffffffffffff8016815f015f9054906101000a900467ffffffffffffffff1667ffffffffffffffff16146103515767ffffffffffffffff815f015f6101000a81548167ffffffffffffffff021916908367ffffffffffffffff1602179055507fc7f505b2f371ae2175ee4913f4499e1f2633a7b5936321eed1cdaeb6115181d267ffffffffffffffff604051610348919061041f565b60405180910390a15b50565b5f5f6101605190508091505090565b5f5ffd5b5f73ffffffffffffffffffffffffffffffffffffffff82169050919050565b5f61039082610367565b9050919050565b5f6103a182610386565b9050919050565b6103b181610397565b81146103bb575f5ffd5b50565b5f815190506103cc816103a8565b92915050565b5f602082840312156103e7576103e6610363565b5b5f6103f4848285016103be565b91505092915050565b5f67ffffffffffffffff82169050919050565b610419816103fd565b82525050565b5f6020820190506104325f830184610410565b92915050565b60805160a05160c05160e0516101005161012051610140516101605161362c6104a15f395f6119d101525f8181610ebf0152611aca01525f6112d201525f611d2a01525f611d0701525f611d9901525f611dbd01525f8181610cfe0152610de3015261362c5ff3fe60806040526004361061014e575f3560e01c80634f1ef286116100b5578063bc197c811161006e578063bc197c8114610481578063c399ec88146104bd578063c4d66de8146104e7578063d087d2881461050f578063f23a6e6114610539578063f2fde38b1461057557610155565b80634f1ef2861461038f57806352d1902d146103ab57806384b0196e146103d55780638da5cb5b14610405578063b0d691fe1461042f578063b61d27f61461045957610155565b806334fcd5be1161010757806334fcd5be146102ad57806347e1da2a146102d55780634847be6f146102fd5780634a58db191461032d5780634c8c9ea1146103375780634d44560d1461036757610155565b806301ffc9a7146101595780630a1028c414610195578063150b7a02146101d15780631626ba7e1461020d57806318dfb3c71461024957806319822f7c1461027157610155565b3661015557005b5f5ffd5b348015610164575f5ffd5b5061017f600480360381019061017a9190612338565b61059d565b60405161018c919061237d565b60405180910390f35b3480156101a0575f5ffd5b506101bb60048036038101906101b691906124d2565b6106d6565b6040516101c89190612531565b60405180910390f35b3480156101dc575f5ffd5b506101f760048036038101906101f29190612634565b61073b565b60405161020491906126c7565b60405180910390f35b348015610218575f5ffd5b50610233600480360381019061022e919061270a565b61074f565b60405161024091906126c7565b60405180910390f35b348015610254575f5ffd5b5061026f600480360381019061026a9190612811565b6107a8565b005b34801561027c575f5ffd5b50610297600480360381019061029291906128b2565b6108ae565b6040516102a4919061292d565b60405180910390f35b3480156102b8575f5ffd5b506102d360048036038101906102ce919061299b565b6108e0565b005b3480156102e0575f5ffd5b506102fb60048036038101906102f69190612a3b565b610a10565b005b61031760048036038101906103129190612aeb565b610b44565b6040516103249190612b6b565b60405180910390f35b610335610b78565b005b610351600480360381019061034c9190612b84565b610be9565b60405161035e9190612b6b565b60405180910390f35b348015610372575f5ffd5b5061038d60048036038101906103889190612c1c565b610c1b565b005b6103a960048036038101906103a49190612c5a565b610cfb565b005b3480156103b6575f5ffd5b506103bf610ddf565b6040516103cc9190612531565b60405180910390f35b3480156103e0575f5ffd5b506103e9610e41565b6040516103fc9796959493929190612e08565b60405180910390f35b348015610410575f5ffd5b50610419610e8c565b6040516104269190612b6b565b60405180910390f35b34801561043a575f5ffd5b50610443610ebc565b6040516104509190612ee5565b60405180910390f35b348015610464575f5ffd5b5061047f600480360381019061047a9190612efe565b610ee3565b005b34801561048c575f5ffd5b506104a760048036038101906104a29190612f6f565b610f3f565b6040516104b491906126c7565b60405180910390f35b3480156104c8575f5ffd5b506104d1610f56565b6040516104de919061292d565b60405180910390f35b3480156104f2575f5ffd5b5061050d60048036038101906105089190613046565b610fdb565b005b34801561051a575f5ffd5b5061052361115c565b604051610530919061292d565b60405180910390f35b348015610544575f5ffd5b5061055f600480360381019061055a9190613071565b6111e3565b60405161056c91906126c7565b60405180910390f35b348015610580575f5ffd5b5061059b60048036038101906105969190613046565b6111f8565b005b5f7f150b7a02000000000000000000000000000000000000000000000000000000007bffffffffffffffffffffffffffffffffffffffffffffffffffffffff1916827bffffffffffffffffffffffffffffffffffffffffffffffffffffffff1916148061066757507f4e2312e0000000000000000000000000000000000000000000000000000000007bffffffffffffffffffffffffffffffffffffffffffffffffffffffff1916827bffffffffffffffffffffffffffffffffffffffffffffffffffffffff1916145b806106cf57507f01ffc9a7000000000000000000000000000000000000000000000000000000007bffffffffffffffffffffffffffffffffffffffffffffffffffffffff1916827bffffffffffffffffffffffffffffffffffffffffffffffffffffffff1916145b9050919050565b5f5f7fcb7d198b374e49569d08ee524f815a8372822602507550536005b62725c079488380519060200120604051602001610712929190613107565b604051602081830303815290604052805190602001209050610733816112b3565b915050919050565b5f63150b7a0260e01b905095945050505050565b5f61078261077b856040516020016107679190612531565b6040516020818303038152906040526106d6565b848461132f565b1561079657631626ba7e60e01b90506107a1565b63ffffffff60e01b90505b9392505050565b6107b06114d5565b8181905084849050146107ef576040517fa24a13a600000000000000000000000000000000000000000000000000000000815260040160405180910390fd5b5f8484905090505f5f90505b818110156108a65761089b8686838181106108195761081861312e565b5b905060200201602081019061082e9190613046565b5f8686858181106108425761084161312e565b5b90506020028101906108549190613167565b8080601f0160208091040260200160405190810160405280939291908181526020018383808284375f81840152601f19601f82011690508083019250505050505050611599565b8060010190506107fb565b505050505050565b5f6108b76115bb565b6108c18484611632565b90506108d0846020013561183a565b6108d98261183d565b9392505050565b6108e86118b1565b5f8282905090505f5f90505b81811015610a0a57368484838181106109105761090f61312e565b5b905060200281019061092291906131c9565b90505f610997825f01602081019061093a9190613046565b836020013584806040019061094f9190613167565b8080601f0160208091040260200160405190810160405280939291908181526020018383808284375f81840152601f19601f820116905080830192505050505050505a6118bb565b9050806109fb57600184036109b3576109ae6118d2565b6109fa565b826109bd5f6118e5565b6040517f5a1546750000000000000000000000000000000000000000000000000000000081526004016109f1929190613242565b60405180910390fd5b5b505080806001019150506108f4565b50505050565b610a186114d5565b8181905086869050141580610a335750838390508686905014155b15610a6a576040517fa24a13a600000000000000000000000000000000000000000000000000000000815260040160405180910390fd5b5f8686905090505f5f90505b81811015610b3a57610b2f888883818110610a9457610a9361312e565b5b9050602002016020810190610aa99190613046565b878784818110610abc57610abb61312e565b5b90506020020135868685818110610ad657610ad561312e565b5b9050602002810190610ae89190613167565b8080601f0160208091040260200160405190810160405280939291908181526020018383808284375f81840152601f19601f82011690508083019250505050505050611599565b806001019050610a76565b5050505050505050565b5f610b4d6114d5565b604051838086833783818389f5925082610b6e57637e16b8cd5f526004601cfd5b5050949350505050565b610b80610ebc565b73ffffffffffffffffffffffffffffffffffffffff1663b760faf934306040518363ffffffff1660e01b8152600401610bb99190612b6b565b5f604051808303818588803b158015610bd0575f5ffd5b505af1158015610be2573d5f5f3e3d5ffd5b5050505050565b5f610bf26114d5565b6040518280858337808287f0925082610c1257637e16b8cd5f526004601cfd5b50509392505050565b610c236114d5565b5f73ffffffffffffffffffffffffffffffffffffffff168273ffffffffffffffffffffffffffffffffffffffff1603610c88576040517f8579befe00000000000000000000000000000000000000000000000000000000815260040160405180910390fd5b610c90610ebc565b73ffffffffffffffffffffffffffffffffffffffff1663205c287883836040518363ffffffff1660e01b8152600401610cca92919061327f565b5f604051808303815f87803b158015610ce1575f5ffd5b505af1158015610cf3573d5f5f3e3d5ffd5b505050505050565b5f7f00000000000000000000000000000000000000000000000000000000000000009050308103610d3357639f03a0265f526004601cfd5b610d3c8461191d565b8360601b60601c93506352d1902d6001527f360894a13ba1a3210667c828492db98dca3e2076cc3735a920a3ca505d382bbc80602060016004601d895afa5114610d8e576355299b496001526004601dfd5b847fbc7cd75a20ee27fd9adebab32041f755214dbc6bffa90cc0225b39da2e5c2d3b5f38a28481558215610dd857604051838582375f388583895af4610dd6573d5f823e3d81fd5b505b5050505050565b5f5f7f00000000000000000000000000000000000000000000000000000000000000009050308114610e1857639f03a0265f526004601cfd5b7f360894a13ba1a3210667c828492db98dca3e2076cc3735a920a3ca505d382bbc5f1b91505090565b5f6060805f5f5f60607f0f000000000000000000000000000000000000000000000000000000000000009650610e75611928565b809650819750505046935030925090919293949596565b5f610e9561199f565b5f015f9054906101000a900473ffffffffffffffffffffffffffffffffffffffff16905090565b5f7f0000000000000000000000000000000000000000000000000000000000000000905090565b610eeb6114d5565b610f39848484848080601f0160208091040260200160405190810160405280939291908181526020018383808284375f81840152601f19601f82011690508083019250505050505050611599565b50505050565b5f63bc197c8160e01b905098975050505050505050565b5f610f5f610ebc565b73ffffffffffffffffffffffffffffffffffffffff166370a08231306040518263ffffffff1660e01b8152600401610f979190612b6b565b602060405180830381865afa158015610fb2573d5f5f3e3d5ffd5b505050506040513d601f19601f82011682018060405250810190610fd691906132ba565b905090565b5f610fe46119cd565b90505f815f0160089054906101000a900460ff161590505f825f015f9054906101000a900467ffffffffffffffff1690505f5f8267ffffffffffffffff1614801561102c5750825b90505f60018367ffffffffffffffff1614801561105f57505f3073ffffffffffffffffffffffffffffffffffffffff163b145b90508115801561106d575080155b156110a4576040517ff92ee8a900000000000000000000000000000000000000000000000000000000815260040160405180910390fd5b6001855f015f6101000a81548167ffffffffffffffff021916908367ffffffffffffffff16021790555083156110f1576001855f0160086101000a81548160ff0219169083151502179055505b6110fa866119f9565b8315611154575f855f0160086101000a81548160ff0219169083151502179055507fc7f505b2f371ae2175ee4913f4499e1f2633a7b5936321eed1cdaeb6115181d2600160405161114b9190613331565b60405180910390a15b505050505050565b5f611165610ebc565b73ffffffffffffffffffffffffffffffffffffffff166335567e1a305f6040518363ffffffff1660e01b815260040161119f9291906133a6565b602060405180830381865afa1580156111ba573d5f5f3e3d5ffd5b505050506040513d601f19601f820116820180604052508101906111de91906132ba565b905090565b5f63f23a6e6160e01b90509695505050505050565b6112006114d5565b5f73ffffffffffffffffffffffffffffffffffffffff168173ffffffffffffffffffffffffffffffffffffffff16148061126557503073ffffffffffffffffffffffffffffffffffffffff168173ffffffffffffffffffffffffffffffffffffffff16145b156112a757806040517fb20f76e300000000000000000000000000000000000000000000000000000000815260040161129e9190612b6b565b60405180910390fd5b6112b081611b88565b50565b5f6112bc611cc9565b156112d0576112c9611ccd565b905061130c565b7f000000000000000000000000000000000000000000000000000000000000000090506112fb611d95565b1561130b57611308611ccd565b90505b5b6719010000000000005f5280601a5281603a52604260182090505f603a52919050565b5f600183839050101561136e576040517f60cd402d00000000000000000000000000000000000000000000000000000000815260040160405180910390fd5b5f83835f8181106113825761138161312e565b5b9050013560f81c60f81b60f81c90505f60028111156113a4576113a36133cd565b5b60ff168160ff16036114165761140e85858560019080926113c793929190613402565b8080601f0160208091040260200160405190810160405280939291908181526020018383808284375f81840152601f19601f82011690508083019250505050505050611ded565b9150506114ce565b6001600281111561142a576114296133cd565b5b60ff168160ff160361149c57611494858585600190809261144d93929190613402565b8080601f0160208091040260200160405190810160405280939291908181526020018383808284375f81840152601f19601f82011690508083019250505050505050611e43565b9150506114ce565b6040517f60cd402d00000000000000000000000000000000000000000000000000000000815260040160405180910390fd5b9392505050565b6114dd610ebc565b73ffffffffffffffffffffffffffffffffffffffff163373ffffffffffffffffffffffffffffffffffffffff161415801561154457503073ffffffffffffffffffffffffffffffffffffffff163373ffffffffffffffffffffffffffffffffffffffff1614155b80156115555750611553611e5e565b155b1561159757336040517f4a0bfec100000000000000000000000000000000000000000000000000000000815260040161158e9190612b6b565b60405180910390fd5b565b5f5f82516020840185875af1806115b5576040513d5f823e3d81fd5b50505050565b6115c3610ebc565b73ffffffffffffffffffffffffffffffffffffffff163373ffffffffffffffffffffffffffffffffffffffff1614611630576040517f08c379a000000000000000000000000000000000000000000000000000000000815260040161162790613486565b60405180910390fd5b565b5f6001838061010001906116469190613167565b90501015611680576040517f60cd402d00000000000000000000000000000000000000000000000000000000815260040160405180910390fd5b5f838061010001906116929190613167565b5f8181106116a3576116a261312e565b5b9050013560f81c60f81b60f81c90505f60028111156116c5576116c46133cd565b5b60ff168160ff1603611760575f6116db84611e9a565b90505f858061010001906116ef9190613167565b600190809261170093929190613402565b8080601f0160208091040260200160405190810160405280939291908181526020018383808284375f81840152601f19601f8201169050808301925050505050505090506117566117518383611ded565b611ecd565b9350505050611834565b60016002811115611774576117736133cd565b5b60ff168160ff1603611802575f848061010001906117929190613167565b60019080926117a393929190613402565b8080601f0160208091040260200160405190810160405280939291908181526020018383808284375f81840152601f19601f8201169050808301925050505050505090506117f96117f48583611e43565b611ecd565b92505050611834565b6040517f60cd402d00000000000000000000000000000000000000000000000000000000815260040160405180910390fd5b92915050565b50565b5f81146118ae575f3373ffffffffffffffffffffffffffffffffffffffff1682604051611869906134d1565b5f6040518083038185875af1925050503d805f81146118a3576040519150601f19603f3d011682016040523d82523d5f602084013e6118a8565b606091505b50509050505b50565b6118b96115bb565b565b5f5f5f845160208601878987f19050949350505050565b6118e36118de5f6118e5565b611ee3565b565b60603d5f8311156118fd57828111156118fc578290505b5b604051602082018101604052818152815f602083013e8092505050919050565b6119256114d5565b50565b6060806040518060400160405280601081526020017f436f7264796c696e654163636f756e740000000000000000000000000000000081525091506040518060400160405280600181526020017f320000000000000000000000000000000000000000000000000000000000000081525090509091565b5f5f7f691ec1a18226d004c07c9f8e5c4a6ff15a7b38db267cf7e3c945aef8be5122005f1b90508091505090565b5f5f7f000000000000000000000000000000000000000000000000000000000000000090508091505090565b5f73ffffffffffffffffffffffffffffffffffffffff168173ffffffffffffffffffffffffffffffffffffffff1603611a69575f6040517fb20f76e3000000000000000000000000000000000000000000000000000000008152600401611a609190612b6b565b60405180910390fd5b80611a7261199f565b5f015f6101000a81548173ffffffffffffffffffffffffffffffffffffffff021916908373ffffffffffffffffffffffffffffffffffffffff1602179055508073ffffffffffffffffffffffffffffffffffffffff167f000000000000000000000000000000000000000000000000000000000000000073ffffffffffffffffffffffffffffffffffffffff167f0229a086fedde78ca61e563436df91ea4f3a3d4c8f8c6f113faf69bc73999fe560405160405180910390a38073ffffffffffffffffffffffffffffffffffffffff165f73ffffffffffffffffffffffffffffffffffffffff167f8be0079c531659141344cd1fd0a4f28419497f9722a3daafe3b4186f6b6457e060405160405180910390a350565b5f611b9161199f565b90505f815f015f9054906101000a900473ffffffffffffffffffffffffffffffffffffffff1690508073ffffffffffffffffffffffffffffffffffffffff168373ffffffffffffffffffffffffffffffffffffffff1603611c2957826040517fb20f76e3000000000000000000000000000000000000000000000000000000008152600401611c209190612b6b565b60405180910390fd5b82825f015f6101000a81548173ffffffffffffffffffffffffffffffffffffffff021916908373ffffffffffffffffffffffffffffffffffffffff1602179055508273ffffffffffffffffffffffffffffffffffffffff168173ffffffffffffffffffffffffffffffffffffffff167f8be0079c531659141344cd1fd0a4f28419497f9722a3daafe3b4186f6b6457e060405160405180910390a3505050565b5f90565b5f5f611cd7611cc9565b15611d05575f5f611ce6611928565b9150915081805190602001209350808051906020012092505050611d4c565b7f000000000000000000000000000000000000000000000000000000000000000091507f000000000000000000000000000000000000000000000000000000000000000090505b6040517f8b73c3c69bb8fe3d512ecc4cf759cc79239f7b179b0ffacaa9a75d522b39400f815282602082015281604082015246606082015230608082015260a081209250505090565b5f5f7f000000000000000000000000000000000000000000000000000000000000000090505f7f0000000000000000000000000000000000000000000000000000000000000000905080301482461416159250505090565b5f5f611e028385611eeb90919063ffffffff16565b9050611e0c610e8c565b73ffffffffffffffffffffffffffffffffffffffff168173ffffffffffffffffffffffffffffffffffffffff161491505092915050565b5f611e56611e4f610e8c565b8484611f15565b905092915050565b5f611e67610e8c565b73ffffffffffffffffffffffffffffffffffffffff163373ffffffffffffffffffffffffffffffffffffffff1614905090565b5f7f19457468657265756d205369676e6564204d6573736167653a0a3332000000005f5281601c52603c5f209050919050565b5f81611eda576001611edc565b5f5b9050919050565b805160208201fd5b5f5f5f5f611ef98686612034565b925092509250611f098282612089565b82935050505092915050565b5f5f5f8573ffffffffffffffffffffffffffffffffffffffff168585604051602401611f429291906134e5565b604051602081830303815290604052631626ba7e60e01b6020820180517bffffffffffffffffffffffffffffffffffffffffffffffffffffffff8381831617835250505050604051611f949190613543565b5f60405180830381855afa9150503d805f8114611fcc576040519150601f19603f3d011682016040523d82523d5f602084013e611fd1565b606091505b5091509150818015611fe557506020815110155b80156120295750631626ba7e60e01b7bffffffffffffffffffffffffffffffffffffffffffffffffffffffff191681806020019051810190612027919061356d565b145b925050509392505050565b5f5f5f6041845103612074575f5f5f602087015192506040870151915060608701515f1a9050612066888285856121eb565b955095509550505050612082565b5f600285515f1b9250925092505b9250925092565b5f600381111561209c5761209b6133cd565b5b8260038111156120af576120ae6133cd565b5b03156121e757600160038111156120c9576120c86133cd565b5b8260038111156120dc576120db6133cd565b5b03612113576040517ff645eedf00000000000000000000000000000000000000000000000000000000815260040160405180910390fd5b60026003811115612127576121266133cd565b5b82600381111561213a576121396133cd565b5b0361217e57805f1c6040517ffce698f7000000000000000000000000000000000000000000000000000000008152600401612175919061292d565b60405180910390fd5b600380811115612191576121906133cd565b5b8260038111156121a4576121a36133cd565b5b036121e657806040517fd78bce0c0000000000000000000000000000000000000000000000000000000081526004016121dd9190612531565b60405180910390fd5b5b5050565b5f5f5f7f7fffffffffffffffffffffffffffffff5d576e7357a4501ddfe92f46681b20a0845f1c1115612227575f6003859250925092506122c8565b5f6001888888886040515f815260200160405260405161224a94939291906135b3565b6020604051602081039080840390855afa15801561226a573d5f5f3e3d5ffd5b5050506020604051035190505f73ffffffffffffffffffffffffffffffffffffffff168173ffffffffffffffffffffffffffffffffffffffff16036122bb575f60015f5f1b935093509350506122c8565b805f5f5f1b935093509350505b9450945094915050565b5f604051905090565b5f5ffd5b5f5ffd5b5f7fffffffff0000000000000000000000000000000000000000000000000000000082169050919050565b612317816122e3565b8114612321575f5ffd5b50565b5f813590506123328161230e565b92915050565b5f6020828403121561234d5761234c6122db565b5b5f61235a84828501612324565b91505092915050565b5f8115159050919050565b61237781612363565b82525050565b5f6020820190506123905f83018461236e565b92915050565b5f5ffd5b5f5ffd5b5f601f19601f8301169050919050565b7f4e487b71000000000000000000000000000000000000000000000000000000005f52604160045260245ffd5b6123e48261239e565b810181811067ffffffffffffffff82111715612403576124026123ae565b5b80604052505050565b5f6124156122d2565b905061242182826123db565b919050565b5f67ffffffffffffffff8211156124405761243f6123ae565b5b6124498261239e565b9050602081019050919050565b828183375f83830152505050565b5f61247661247184612426565b61240c565b9050828152602081018484840111156124925761249161239a565b5b61249d848285612456565b509392505050565b5f82601f8301126124b9576124b8612396565b5b81356124c9848260208601612464565b91505092915050565b5f602082840312156124e7576124e66122db565b5b5f82013567ffffffffffffffff811115612504576125036122df565b5b612510848285016124a5565b91505092915050565b5f819050919050565b61252b81612519565b82525050565b5f6020820190506125445f830184612522565b92915050565b5f73ffffffffffffffffffffffffffffffffffffffff82169050919050565b5f6125738261254a565b9050919050565b61258381612569565b811461258d575f5ffd5b50565b5f8135905061259e8161257a565b92915050565b5f819050919050565b6125b6816125a4565b81146125c0575f5ffd5b50565b5f813590506125d1816125ad565b92915050565b5f5ffd5b5f5ffd5b5f5f83601f8401126125f4576125f3612396565b5b8235905067ffffffffffffffff811115612611576126106125d7565b5b60208301915083600182028301111561262d5761262c6125db565b5b9250929050565b5f5f5f5f5f6080868803121561264d5761264c6122db565b5b5f61265a88828901612590565b955050602061266b88828901612590565b945050604061267c888289016125c3565b935050606086013567ffffffffffffffff81111561269d5761269c6122df565b5b6126a9888289016125df565b92509250509295509295909350565b6126c1816122e3565b82525050565b5f6020820190506126da5f8301846126b8565b92915050565b6126e981612519565b81146126f3575f5ffd5b50565b5f81359050612704816126e0565b92915050565b5f5f5f60408486031215612721576127206122db565b5b5f61272e868287016126f6565b935050602084013567ffffffffffffffff81111561274f5761274e6122df565b5b61275b868287016125df565b92509250509250925092565b5f5f83601f84011261277c5761277b612396565b5b8235905067ffffffffffffffff811115612799576127986125d7565b5b6020830191508360208202830111156127b5576127b46125db565b5b9250929050565b5f5f83601f8401126127d1576127d0612396565b5b8235905067ffffffffffffffff8111156127ee576127ed6125d7565b5b60208301915083602082028301111561280a576128096125db565b5b9250929050565b5f5f5f5f60408587031215612829576128286122db565b5b5f85013567ffffffffffffffff811115612846576128456122df565b5b61285287828801612767565b9450945050602085013567ffffffffffffffff811115612875576128746122df565b5b612881878288016127bc565b925092505092959194509250565b5f5ffd5b5f61012082840312156128a9576128a861288f565b5b81905092915050565b5f5f5f606084860312156128c9576128c86122db565b5b5f84013567ffffffffffffffff8111156128e6576128e56122df565b5b6128f286828701612893565b9350506020612903868287016126f6565b9250506040612914868287016125c3565b9150509250925092565b612927816125a4565b82525050565b5f6020820190506129405f83018461291e565b92915050565b5f5f83601f84011261295b5761295a612396565b5b8235905067ffffffffffffffff811115612978576129776125d7565b5b602083019150836020820283011115612994576129936125db565b5b9250929050565b5f5f602083850312156129b1576129b06122db565b5b5f83013567ffffffffffffffff8111156129ce576129cd6122df565b5b6129da85828601612946565b92509250509250929050565b5f5f83601f8401126129fb576129fa612396565b5b8235905067ffffffffffffffff811115612a1857612a176125d7565b5b602083019150836020820283011115612a3457612a336125db565b5b9250929050565b5f5f5f5f5f5f60608789031215612a5557612a546122db565b5b5f87013567ffffffffffffffff811115612a7257612a716122df565b5b612a7e89828a01612767565b9650965050602087013567ffffffffffffffff811115612aa157612aa06122df565b5b612aad89828a016129e6565b9450945050604087013567ffffffffffffffff811115612ad057612acf6122df565b5b612adc89828a016127bc565b92509250509295509295509295565b5f5f5f5f60608587031215612b0357612b026122db565b5b5f612b10878288016125c3565b945050602085013567ffffffffffffffff811115612b3157612b306122df565b5b612b3d878288016125df565b93509350506040612b50878288016126f6565b91505092959194509250565b612b6581612569565b82525050565b5f602082019050612b7e5f830184612b5c565b92915050565b5f5f5f60408486031215612b9b57612b9a6122db565b5b5f612ba8868287016125c3565b935050602084013567ffffffffffffffff811115612bc957612bc86122df565b5b612bd5868287016125df565b92509250509250925092565b5f612beb8261254a565b9050919050565b612bfb81612be1565b8114612c05575f5ffd5b50565b5f81359050612c1681612bf2565b92915050565b5f5f60408385031215612c3257612c316122db565b5b5f612c3f85828601612c08565b9250506020612c50858286016125c3565b9150509250929050565b5f5f5f60408486031215612c7157612c706122db565b5b5f612c7e86828701612590565b935050602084013567ffffffffffffffff811115612c9f57612c9e6122df565b5b612cab868287016125df565b92509250509250925092565b5f7fff0000000000000000000000000000000000000000000000000000000000000082169050919050565b612ceb81612cb7565b82525050565b5f81519050919050565b5f82825260208201905092915050565b8281835e5f83830152505050565b5f612d2382612cf1565b612d2d8185612cfb565b9350612d3d818560208601612d0b565b612d468161239e565b840191505092915050565b5f81519050919050565b5f82825260208201905092915050565b5f819050602082019050919050565b612d83816125a4565b82525050565b5f612d948383612d7a565b60208301905092915050565b5f602082019050919050565b5f612db682612d51565b612dc08185612d5b565b9350612dcb83612d6b565b805f5b83811015612dfb578151612de28882612d89565b9750612ded83612da0565b925050600181019050612dce565b5085935050505092915050565b5f60e082019050612e1b5f83018a612ce2565b8181036020830152612e2d8189612d19565b90508181036040830152612e418188612d19565b9050612e50606083018761291e565b612e5d6080830186612b5c565b612e6a60a0830185612522565b81810360c0830152612e7c8184612dac565b905098975050505050505050565b5f819050919050565b5f612ead612ea8612ea38461254a565b612e8a565b61254a565b9050919050565b5f612ebe82612e93565b9050919050565b5f612ecf82612eb4565b9050919050565b612edf81612ec5565b82525050565b5f602082019050612ef85f830184612ed6565b92915050565b5f5f5f5f60608587031215612f1657612f156122db565b5b5f612f2387828801612590565b9450506020612f34878288016125c3565b935050604085013567ffffffffffffffff811115612f5557612f546122df565b5b612f61878288016125df565b925092505092959194509250565b5f5f5f5f5f5f5f5f60a0898b031215612f8b57612f8a6122db565b5b5f612f988b828c01612590565b9850506020612fa98b828c01612590565b975050604089013567ffffffffffffffff811115612fca57612fc96122df565b5b612fd68b828c016129e6565b9650965050606089013567ffffffffffffffff811115612ff957612ff86122df565b5b6130058b828c016129e6565b9450945050608089013567ffffffffffffffff811115613028576130276122df565b5b6130348b828c016125df565b92509250509295985092959890939650565b5f6020828403121561305b5761305a6122db565b5b5f61306884828501612590565b91505092915050565b5f5f5f5f5f5f60a0878903121561308b5761308a6122db565b5b5f61309889828a01612590565b96505060206130a989828a01612590565b95505060406130ba89828a016125c3565b94505060606130cb89828a016125c3565b935050608087013567ffffffffffffffff8111156130ec576130eb6122df565b5b6130f889828a016125df565b92509250509295509295509295565b5f60408201905061311a5f830185612522565b6131276020830184612522565b9392505050565b7f4e487b71000000000000000000000000000000000000000000000000000000005f52603260045260245ffd5b5f5ffd5b5f5ffd5b5f5ffd5b5f5f833560016020038436030381126131835761318261315b565b5b80840192508235915067ffffffffffffffff8211156131a5576131a461315f565b5b6020830192506001820236038313156131c1576131c0613163565b5b509250929050565b5f823560016060038336030381126131e4576131e361315b565b5b80830191505092915050565b5f81519050919050565b5f82825260208201905092915050565b5f613214826131f0565b61321e81856131fa565b935061322e818560208601612d0b565b6132378161239e565b840191505092915050565b5f6040820190506132555f83018561291e565b8181036020830152613267818461320a565b90509392505050565b61327981612be1565b82525050565b5f6040820190506132925f830185613270565b61329f602083018461291e565b9392505050565b5f815190506132b4816125ad565b92915050565b5f602082840312156132cf576132ce6122db565b5b5f6132dc848285016132a6565b91505092915050565b5f819050919050565b5f67ffffffffffffffff82169050919050565b5f61331b613316613311846132e5565b612e8a565b6132ee565b9050919050565b61332b81613301565b82525050565b5f6020820190506133445f830184613322565b92915050565b5f819050919050565b5f77ffffffffffffffffffffffffffffffffffffffffffffffff82169050919050565b5f61339061338b6133868461334a565b612e8a565b613353565b9050919050565b6133a081613376565b82525050565b5f6040820190506133b95f830185612b5c565b6133c66020830184613397565b9392505050565b7f4e487b71000000000000000000000000000000000000000000000000000000005f52602160045260245ffd5b5f5ffd5b5f5ffd5b5f5f85851115613415576134146133fa565b5b83861115613426576134256133fe565b5b6001850283019150848603905094509492505050565b7f6163636f756e743a206e6f742066726f6d20456e747279506f696e74000000005f82015250565b5f613470601c83612cfb565b915061347b8261343c565b602082019050919050565b5f6020820190508181035f83015261349d81613464565b9050919050565b5f81905092915050565b50565b5f6134bc5f836134a4565b91506134c7826134ae565b5f82019050919050565b5f6134db826134b1565b9150819050919050565b5f6040820190506134f85f830185612522565b818103602083015261350a818461320a565b90509392505050565b5f61351d826131f0565b61352781856134a4565b9350613537818560208601612d0b565b80840191505092915050565b5f61354e8284613513565b915081905092915050565b5f81519050613567816126e0565b92915050565b5f60208284031215613582576135816122db565b5b5f61358f84828501613559565b91505092915050565b5f60ff82169050919050565b6135ad81613598565b82525050565b5f6080820190506135c65f830187612522565b6135d360208301866135a4565b6135e06040830185612522565b6135ed6060830184612522565b9594505050505056fea2646970667358221220582c39a42fa74dbd951f0ee0bf20a36b3ba83f830ed6dd14b982d82fe08d3a7a64736f6c634300081e0033",
			"opcodes": "PUSH2 0x180 PUSH1 0x40 MSTORE ADDRESS PUSH20 0xFFFFFFFFFFFFFFFFFFFFFFFFFFFFFFFFFFFFFFFF AND PUSH1 0x80 SWAP1 DUP2 MSTORE POP CALLVALUE DUP1 ISZERO PUSH2 0x2D JUMPI PUSH0 PUSH0 REVERT JUMPDEST POP PUSH1 0x40 MLOAD PUSH2 0x3ACD CODESIZE SUB DUP1 PUSH2 0x3ACD DUP4 CODECOPY DUP2 DUP2 ADD PUSH1 0x40 MSTORE DUP2 ADD SWAP1 PUSH2 0x4F SWAP2 SWAP1 PUSH2 0x3D2 JUMP JUMPDEST PUSH32 0x33E4B41198CC5B8053630ED667EA7C0C4C873F7FC8D9A478B5D7259CEC0A4A00 PUSH0 SHL ADDRESS PUSH20 0xFFFFFFFFFFFFFFFFFFFFFFFFFFFFFFFFFFFFFFFF AND PUSH1 0xA0 DUP2 DUP2 MSTORE POP POP CHAINID PUSH1 0xC0 DUP2 DUP2 MSTORE POP POP PUSH1 0x60 DUP1 PUSH2 0xA9 PUSH2 0x1DB PUSH1 0x20 SHL PUSH1 0x20 SHR JUMP JUMPDEST PUSH2 0xC4 JUMPI PUSH2 0xBB PUSH2 0x1DF PUSH1 0x20 SHL PUSH1 0x20 SHR JUMP JUMPDEST DUP1 SWAP3 POP DUP2 SWAP4 POP POP POP JUMPDEST PUSH0 PUSH2 0xD3 PUSH2 0x1DB PUSH1 0x20 SHL PUSH1 0x20 SHR JUMP JUMPDEST PUSH2 0xE4 JUMPI DUP3 DUP1 MLOAD SWAP1 PUSH1 0x20 ADD KECCAK256 PUSH2 0xE8 JUMP JUMPDEST PUSH0 PUSH0 SHL JUMPDEST SWAP1 POP PUSH0 PUSH2 0xF9 PUSH2 0x1DB PUSH1 0x20 SHL PUSH1 0x20 SHR JUMP JUMPDEST PUSH2 0x10A JUMPI DUP3 DUP1 MLOAD SWAP1 PUSH1 0x20 ADD KECCAK256 PUSH2 0x10E JUMP JUMPDEST PUSH0 PUSH0 SHL JUMPDEST SWAP1 POP DUP2 PUSH1 0xE0 DUP2 DUP2 MSTORE POP POP DUP1 PUSH2 0x100 DUP2 DUP2 MSTORE POP POP PUSH0 PUSH2 0x130 PUSH2 0x1DB PUSH1 0x20 SHL PUSH1 0x20 SHR JUMP JUMPDEST PUSH2 0x17A JUMPI PUSH1 0x40 MLOAD PUSH32 0x8B73C3C69BB8FE3D512ECC4CF759CC79239F7B179B0FFACAA9A75D522B39400F DUP2 MSTORE DUP4 PUSH1 0x20 DUP3 ADD MSTORE DUP3 PUSH1 0x40 DUP3 ADD MSTORE CHAINID PUSH1 0x60 DUP3 ADD MSTORE ADDRESS PUSH1 0x80 DUP3 ADD MSTORE PUSH1 0xA0 DUP2 KECCAK256 SWAP2 POP POP JUMPDEST DUP1 PUSH2 0x120 DUP2 DUP2 MSTORE POP POP POP POP POP POP POP DUP1 PUSH2 0x160 DUP2 DUP2 MSTORE POP POP POP DUP1 PUSH20 0xFFFFFFFFFFFFFFFFFFFFFFFFFFFFFFFFFFFFFFFF AND PUSH2 0x140 DUP2 PUSH20 0xFFFFFFFFFFFFFFFFFFFFFFFFFFFFFFFFFFFFFFFF AND DUP2 MSTORE POP POP PUSH2 0x1D5 PUSH2 0x256 PUSH1 0x20 SHL PUSH1 0x20 SHR JUMP JUMPDEST POP PUSH2 0x438 JUMP JUMPDEST PUSH0 SWAP1 JUMP JUMPDEST PUSH1 0x60 DUP1 PUSH1 0x40 MLOAD DUP1 PUSH1 0x40 ADD PUSH1 0x40 MSTORE DUP1 PUSH1 0x10 DUP2 MSTORE PUSH1 0x20 ADD PUSH32 0x436F7264796C696E654163636F756E7400000000000000000000000000000000 DUP2 MSTORE POP SWAP2 POP PUSH1 0x40 MLOAD DUP1 PUSH1 0x40 ADD PUSH1 0x40 MSTORE DUP1 PUSH1 0x1 DUP2 MSTORE PUSH1 0x20 ADD PUSH32 0x3200000000000000000000000000000000000000000000000000000000000000 DUP2 MSTORE POP SWAP1 POP SWAP1 SWAP2 JUMP JUMPDEST PUSH0 PUSH2 0x265 PUSH2 0x354 PUSH1 0x20 SHL PUSH1 0x20 SHR JUMP JUMPDEST SWAP1 POP DUP1 PUSH0 ADD PUSH1 0x8 SWAP1 SLOAD SWAP1 PUSH2 0x100 EXP SWAP1 DIV PUSH1 0xFF AND ISZERO PUSH2 0x2AF JUMPI PUSH1 0x40 MLOAD PUSH32 0xF92EE8A900000000000000000000000000000000000000000000000000000000 DUP2 MSTORE PUSH1 0x4 ADD PUSH1 0x40 MLOAD DUP1 SWAP2 SUB SWAP1 REVERT JUMPDEST PUSH8 0xFFFFFFFFFFFFFFFF DUP1 AND DUP2 PUSH0 ADD PUSH0 SWAP1 SLOAD SWAP1 PUSH2 0x100 EXP SWAP1 DIV PUSH8 0xFFFFFFFFFFFFFFFF AND PUSH8 0xFFFFFFFFFFFFFFFF AND EQ PUSH2 0x351 JUMPI PUSH8 0xFFFFFFFFFFFFFFFF DUP2 PUSH0 ADD PUSH0 PUSH2 0x100 EXP DUP2 SLOAD DUP2 PUSH8 0xFFFFFFFFFFFFFFFF MUL NOT AND SWAP1 DUP4 PUSH8 0xFFFFFFFFFFFFFFFF AND MUL OR SWAP1 SSTORE POP PUSH32 0xC7F505B2F371AE2175EE4913F4499E1F2633A7B5936321EED1CDAEB6115181D2 PUSH8 0xFFFFFFFFFFFFFFFF PUSH1 0x40 MLOAD PUSH2 0x348 SWAP2 SWAP1 PUSH2 0x41F JUMP JUMPDEST PUSH1 0x40 MLOAD DUP1 SWAP2 SUB SWAP1 LOG1 JUMPDEST POP JUMP JUMPDEST PUSH0 PUSH0 PUSH2 0x160 MLOAD SWAP1 POP DUP1 SWAP2 POP POP SWAP1 JUMP JUMPDEST PUSH0 PUSH0 REVERT JUMPDEST PUSH0 PUSH20 0xFFFFFFFFFFFFFFFFFFFFFFFFFFFFFFFFFFFFFFFF DUP3 AND SWAP1 POP SWAP2 SWAP1 POP JUMP JUMPDEST PUSH0 PUSH2 0x390 DUP3 PUSH2 0x367 JUMP JUMPDEST SWAP1 POP SWAP2 SWAP1 POP JUMP JUMPDEST PUSH0 PUSH2 0x3A1 DUP3 PUSH2 0x386 JUMP JUMPDEST SWAP1 POP SWAP2 SWAP1 POP JUMP JUMPDEST PUSH2 0x3B1 DUP2 PUSH2 0x397 JUMP JUMPDEST DUP2 EQ PUSH2 0x3BB JUMPI PUSH0 PUSH0 REVERT JUMPDEST POP JUMP JUMPDEST PUSH0 DUP2 MLOAD SWAP1 POP PUSH2 0x3CC DUP2 PUSH2 0x3A8 JUMP JUMPDEST SWAP3 SWAP2 POP POP JUMP JUMPDEST PUSH0 PUSH1 0x20 DUP3 DUP5 SUB SLT ISZERO PUSH2 0x3E7 JUMPI PUSH2 0x3E6 PUSH2 0x363 JUMP JUMPDEST JUMPDEST PUSH0 PUSH2 0x3F4 DUP5 DUP3 DUP6 ADD PUSH2 0x3BE JUMP JUMPDEST SWAP2 POP POP SWAP3 SWAP2 POP POP JUMP JUMPDEST PUSH0 PUSH8 0xFFFFFFFFFFFFFFFF DUP3 AND SWAP1 POP SWAP2 SWAP1 POP JUMP JUMPDEST PUSH2 0x419 DUP2 PUSH2 0x3FD JUMP JUMPDEST DUP3 MSTORE POP POP JUMP JUMPDEST PUSH0 PUSH1 0x20 DUP3 ADD SWAP1 POP PUSH2 0x432 PUSH0 DUP4 ADD DUP5 PUSH2 0x410 JUMP JUMPDEST SWAP3 SWAP2 POP POP JUMP JUMPDEST PUSH1 0x80 MLOAD PUSH1 0xA0 MLOAD PUSH1 0xC0 MLOAD PUSH1 0xE0 MLOAD PUSH2 0x100 MLOAD PUSH2 0x120 MLOAD PUSH2 0x140 MLOAD PUSH2 0x160 MLOAD PUSH2 0x362C PUSH2 0x4A1 PUSH0 CODECOPY PUSH0 PUSH2 0x19D1 ADD MSTORE PUSH0 DUP2 DUP2 PUSH2 0xEBF ADD MSTORE PUSH2 0x1ACA ADD MSTORE PUSH0 PUSH2 0x12D2 ADD MSTORE PUSH0 PUSH2 0x1D2A ADD MSTORE PUSH0 PUSH2 0x1D07 ADD MSTORE PUSH0 PUSH2 0x1D99 ADD MSTORE PUSH0 PUSH2 0x1DBD ADD MSTORE PUSH0 DUP2 DUP2 PUSH2 0xCFE ADD MSTORE PUSH2 0xDE3 ADD MSTORE PUSH2 0x362C PUSH0 RETURN INVALID PUSH1 0x80 PUSH1 0x40 MSTORE PUSH1 0x4 CALLDATASIZE LT PUSH2 0x14E JUMPI PUSH0 CALLDATALOAD PUSH1 0xE0 SHR DUP1 PUSH4 0x4F1EF286 GT PUSH2 0xB5 JUMPI DUP1 PUSH4 0xBC197C81 GT PUSH2 0x6E JUMPI DUP1 PUSH4 0xBC197C81 EQ PUSH2 0x481 JUMPI DUP1 PUSH4 0xC399EC88 EQ PUSH2 0x4BD JUMPI DUP1 PUSH4 0xC4D66DE8 EQ PUSH2 0x4E7 JUMPI DUP1 PUSH4 0xD087D288 EQ PUSH2 0x50F JUMPI DUP1 PUSH4 0xF23A6E61 EQ PUSH2 0x539 JUMPI DUP1 PUSH4 0xF2FDE38B EQ PUSH2 0x575 JUMPI PUSH2 0x155 JUMP JUMPDEST DUP1 PUSH4 0x4F1EF286 EQ PUSH2 0x38F JUMPI DUP1 PUSH4 0x52D1902D EQ PUSH2 0x3AB JUMPI DUP1 PUSH4 0x84B0196E EQ PUSH2 0x3D5 JUMPI DUP1 PUSH4 0x8DA5CB5B EQ PUSH2 0x405 JUMPI DUP1 PUSH4 0xB0D691FE EQ PUSH2 0x42F JUMPI DUP1 PUSH4 0xB61D27F6 EQ PUSH2 0x459 JUMPI PUSH2 0x155 JUMP JUMPDEST DUP1 PUSH4 0x34FCD5BE GT PUSH2 0x107 JUMPI DUP1 PUSH4 0x34FCD5BE EQ PUSH2 0x2AD JUMPI DUP1 PUSH4 0x47E1DA2A EQ PUSH2 0x2D5 JUMPI DUP1 PUSH4 0x4847BE6F EQ PUSH2 0x2FD JUMPI DUP1 PUSH4 0x4A58DB19 EQ PUSH2 0x32D JUMPI DUP1 PUSH4 0x4C8C9EA1 EQ PUSH2 0x337 JUMPI DUP1 PUSH4 0x4D44560D EQ PUSH2 0x367 JUMPI PUSH2 0x155 JUMP JUMPDEST DUP1 PUSH4 0x1FFC9A7 EQ PUSH2 0x159 JUMPI DUP1 PUSH4 0xA1028C4 EQ PUSH2 0x195 JUMPI DUP1 PUSH4 0x150B7A02 EQ PUSH2 0x1D1 JUMPI DUP1 PUSH4 0x1626BA7E EQ PUSH2 0x20D JUMPI DUP1 PUSH4 0x18DFB3C7 EQ PUSH2 0x249 JUMPI DUP1 PUSH4 0x19822F7C EQ PUSH2 0x271 JUMPI PUSH2 0x155 JUMP JUMPDEST CALLDATASIZE PUSH2 0x155 JUMPI STOP JUMPDEST PUSH0 PUSH0 REVERT JUMPDEST CALLVALUE DUP1 ISZERO PUSH2 0x164 JUMPI PUSH0 PUSH0 REVERT JUMPDEST POP PUSH2 0x17F PUSH1 0x4 DUP1 CALLDATASIZE SUB DUP2 ADD SWAP1 PUSH2 0x17A SWAP2 SWAP1 PUSH2 0x2338 JUMP JUMPDEST PUSH2 0x59D JUMP JUMPDEST PUSH1 0x40 MLOAD PUSH2 0x18C SWAP2 SWAP1 PUSH2 0x237D JUMP JUMPDEST PUSH1 0x40 MLOAD DUP1 SWAP2 SUB SWAP1 RETURN JUMPDEST CALLVALUE DUP1 ISZERO PUSH2 0x1A0 JUMPI PUSH0 PUSH0 REVERT JUMPDEST POP PUSH2 0x1BB PUSH1 0x4 DUP1 CALLDATASIZE SUB DUP2 ADD SWAP1 PUSH2 0x1B6 SWAP2 SWAP1 PUSH2 0x24D2 JUMP JUMPDEST PUSH2 0x6D6 JUMP JUMPDEST PUSH1 0x40 MLOAD PUSH2 0x1C8 SWAP2 SWAP1 PUSH2 0x2531 JUMP JUMPDEST PUSH1 0x40 MLOAD DUP1 SWAP2 SUB SWAP1 RETURN JUMPDEST CALLVALUE DUP1 ISZERO PUSH2 0x1DC JUMPI PUSH0 PUSH0 REVERT JUMPDEST POP PUSH2 0x1F7 PUSH1 0x4 DUP1 CALLDATASIZE SUB DUP2 ADD SWAP1 PUSH2 0x1F2 SWAP2 SWAP1 PUSH2 0x2634 JUMP JUMPDEST PUSH2 0x73B JUMP JUMPDEST PUSH1 0x40 MLOAD PUSH2 0x204 SWAP2 SWAP1 PUSH2 0x26C7 JUMP JUMPDEST PUSH1 0x40 MLOAD DUP1 SWAP2 SUB SWAP1 RETURN JUMPDEST CALLVALUE DUP1 ISZERO PUSH2 0x218 JUMPI PUSH0 PUSH0 REVERT JUMPDEST POP PUSH2 0x233 PUSH1 0x4 DUP1 CALLDATASIZE SUB DUP2 ADD SWAP1 PUSH2 0x22E SWAP2 SWAP1 PUSH2 0x270A JUMP JUMPDEST PUSH2 0x74F JUMP JUMPDEST PUSH1 0x40 MLOAD PUSH2 0x240 SWAP2 SWAP1 PUSH2 0x26C7 JUMP JUMPDEST PUSH1 0x40 MLOAD DUP1 SWAP2 SUB SWAP1 RETURN JUMPDEST CALLVALUE DUP1 ISZERO PUSH2 0x254 JUMPI PUSH0 PUSH0 REVERT JUMPDEST POP PUSH2 0x26F PUSH1 0x4 DUP1 CALLDATASIZE SUB DUP2 ADD SWAP1 PUSH2 0x26A SWAP2 SWAP1 PUSH2 0x2811 JUMP JUMPDEST PUSH2 0x7A8 JUMP JUMPDEST STOP JUMPDEST CALLVALUE DUP1 ISZERO PUSH2 0x27C JUMPI PUSH0 PUSH0 REVERT JUMPDEST POP PUSH2 0x297 PUSH1 0x4 DUP1 CALLDATASIZE SUB DUP2 ADD SWAP1 PUSH2 0x292 SWAP2 SWAP1 PUSH2 0x28B2 JUMP JUMPDEST PUSH2 0x8AE JUMP JUMPDEST PUSH1 0x40 MLOAD PUSH2 0x2A4 SWAP2 SWAP1 PUSH2 0x292D JUMP JUMPDEST PUSH1 0x40 MLOAD DUP1 SWAP2 SUB SWAP1 RETURN JUMPDEST CALLVALUE DUP1 ISZERO PUSH2 0x2B8 JUMPI PUSH0 PUSH0 REVERT JUMPDEST POP PUSH2 0x2D3 PUSH1 0x4 DUP1 CALLDATASIZE SUB DUP2 ADD SWAP1 PUSH2 0x2CE SWAP2 SWAP1 PUSH2 0x299B JUMP JUMPDEST PUSH2 0x8E0 JUMP JUMPDEST STOP JUMPDEST CALLVALUE DUP1 ISZERO PUSH2 0x2E0 JUMPI PUSH0 PUSH0 REVERT JUMPDEST POP PUSH2 0x2FB PUSH1 0x4 DUP1 CALLDATASIZE SUB DUP2 ADD SWAP1 PUSH2 0x2F6 SWAP2 SWAP1 PUSH2 0x2A3B JUMP JUMPDEST PUSH2 0xA10 JUMP JUMPDEST STOP JUMPDEST PUSH2 0x317 PUSH1 0x4 DUP1 CALLDATASIZE SUB DUP2 ADD SWAP1 PUSH2 0x312 SWAP2 SWAP1 PUSH2 0x2AEB JUMP JUMPDEST PUSH2 0xB44 JUMP JUMPDEST PUSH1 0x40 MLOAD PUSH2 0x324 SWAP2 SWAP1 PUSH2 0x2B6B JUMP JUMPDEST PUSH1 0x40 MLOAD DUP1 SWAP2 SUB SWAP1 RETURN JUMPDEST PUSH2 0x335 PUSH2 0xB78 JUMP JUMPDEST STOP JUMPDEST PUSH2 0x351 PUSH1 0x4 DUP1 CALLDATASIZE SUB DUP2 ADD SWAP1 PUSH2 0x34C SWAP2 SWAP1 PUSH2 0x2B84 JUMP JUMPDEST PUSH2 0xBE9 JUMP JUMPDEST PUSH1 0x40 MLOAD PUSH2 0x35E SWAP2 SWAP1 PUSH2 0x2B6B JUMP JUMPDEST PUSH1 0x40 MLOAD DUP1 SWAP2 SUB SWAP1 RETURN JUMPDEST CALLVALUE DUP1 ISZERO PUSH2 0x372 JUMPI PUSH0 PUSH0 REVERT JUMPDEST POP PUSH2 0x38D PUSH1 0x4 DUP1 CALLDATASIZE SUB DUP2 ADD SWAP1 PUSH2 0x388 SWAP2 SWAP1 PUSH2 0x2C1C JUMP JUMPDEST PUSH2 0xC1B JUMP JUMPDEST STOP JUMPDEST PUSH2 0x3A9 PUSH1 0x4 DUP1 CALLDATASIZE SUB DUP2 ADD SWAP1 PUSH2 0x3A4 SWAP2 SWAP1 PUSH2 0x2C5A JUMP JUMPDEST PUSH2 0xCFB JUMP JUMPDEST STOP JUMPDEST CALLVALUE DUP1 ISZERO PUSH2 0x3B6 JUMPI PUSH0 PUSH0 REVERT JUMPDEST POP PUSH2 0x3BF PUSH2 0xDDF JUMP JUMPDEST PUSH1 0x40 MLOAD PUSH2 0x3CC SWAP2 SWAP1 PUSH2 0x2531 JUMP JUMPDEST PUSH1 0x40 MLOAD DUP1 SWAP2 SUB SWAP1 RETURN JUMPDEST CALLVALUE DUP1 ISZERO PUSH2 0x3E0 JUMPI PUSH0 PUSH0 REVERT JUMPDEST POP PUSH2 0x3E9 PUSH2 0xE41 JUMP JUMPDEST PUSH1 0x40 MLOAD PUSH2 0x3FC SWAP8 SWAP7 SWAP6 SWAP5 SWAP4 SWAP3 SWAP2 SWAP1 PUSH2 0x2E08 JUMP JUMPDEST PUSH1 0x40 MLOAD DUP1 SWAP2 SUB SWAP1 RETURN JUMPDEST CALLVALUE DUP1 ISZERO PUSH2 0x410 JUMPI PUSH0 PUSH0 REVERT JUMPDEST POP PUSH2 0x419 PUSH2 0xE8C JUMP JUMPDEST PUSH1 0x40 MLOAD PUSH2 0x426 SWAP2 SWAP1 PUSH2 0x2B6B JUMP JUMPDEST PUSH1 0x40 MLOAD DUP1 SWAP2 SUB SWAP1 RETURN JUMPDEST CALLVALUE DUP1 ISZERO PUSH2 0x43A JUMPI PUSH0 PUSH0 REVERT JUMPDEST POP PUSH2 0x443 PUSH2 0xEBC JUMP JUMPDEST PUSH1 0x40 MLOAD PUSH2 0x450 SWAP2 SWAP1 PUSH2 0x2EE5 JUMP JUMPDEST PUSH1 0x40 MLOAD DUP1 SWAP2 SUB SWAP1 RETURN JUMPDEST CALLVALUE DUP1 ISZERO PUSH2 0x464 JUMPI PUSH0 PUSH0 REVERT JUMPDEST POP PUSH2 0x47F PUSH1 0x4 DUP1 CALLDATASIZE SUB DUP2 ADD SWAP1 PUSH2 0x47A SWAP2 SWAP1 PUSH2 0x2EFE JUMP JUMPDEST PUSH2 0xEE3 JUMP JUMPDEST STOP JUMPDEST CALLVALUE DUP1 ISZERO PUSH2 0x48C JUMPI PUSH0 PUSH0 REVERT JUMPDEST POP PUSH2 0x4A7 PUSH1 0x4 DUP1 CALLDATASIZE SUB DUP2 ADD SWAP1 PUSH2 0x4A2 SWAP2 SWAP1 PUSH2 0x2F6F JUMP JUMPDEST PUSH2 0xF3F JUMP JUMPDEST PUSH1 0x40 MLOAD PUSH2 0x4B4 SWAP2 SWAP1 PUSH2 0x26C7 JUMP JUMPDEST PUSH1 0x40 MLOAD DUP1 SWAP2 SUB SWAP1 RETURN JUMPDEST CALLVALUE DUP1 ISZERO PUSH2 0x4C8 JUMPI PUSH0 PUSH0 REVERT JUMPDEST POP PUSH2 0x4D1 PUSH2 0xF56 JUMP JUMPDEST PUSH1 0x40 MLOAD PUSH2 0x4DE SWAP2 SWAP1 PUSH2 0x292D JUMP JUMPDEST PUSH1 0x40 MLOAD DUP1 SWAP2 SUB SWAP1 RETURN JUMPDEST CALLVALUE DUP1 ISZERO PUSH2 0x4F2 JUMPI PUSH0 PUSH0 REVERT JUMPDEST POP PUSH2 0x50D PUSH1 0x4 DUP1 CALLDATASIZE SUB DUP2 ADD SWAP1 PUSH2 0x508 SWAP2 SWAP1 PUSH2 0x3046 JUMP JUMPDEST PUSH2 0xFDB JUMP JUMPDEST STOP JUMPDEST CALLVALUE DUP1 ISZERO PUSH2 0x51A JUMPI PUSH0 PUSH0 REVERT JUMPDEST POP PUSH2 0x523 PUSH2 0x115C JUMP JUMPDEST PUSH1 0x40 MLOAD PUSH2 0x530 SWAP2 SWAP1 PUSH2 0x292D JUMP JUMPDEST PUSH1 0x40 MLOAD DUP1 SWAP2 SUB SWAP1 RETURN JUMPDEST CALLVALUE DUP1 ISZERO PUSH2 0x544 JUMPI PUSH0 PUSH0 REVERT JUMPDEST POP PUSH2 0x55F PUSH1 0x4 DUP1 CALLDATASIZE SUB DUP2 ADD SWAP1 PUSH2 0x55A SWAP2 SWAP1 PUSH2 0x3071 JUMP JUMPDEST PUSH2 0x11E3 JUMP JUMPDEST PUSH1 0x40 MLOAD PUSH2 0x56C SWAP2 SWAP1 PUSH2 0x26C7 JUMP JUMPDEST PUSH1 0x40 MLOAD DUP1 SWAP2 SUB SWAP1 RETURN JUMPDEST CALLVALUE DUP1 ISZERO PUSH2 0x580 JUMPI PUSH0 PUSH0 REVERT JUMPDEST POP PUSH2 0x59B PUSH1 0x4 DUP1 CALLDATASIZE SUB DUP2 ADD SWAP1 PUSH2 0x596 SWAP2 SWAP1 PUSH2 0x3046 JUMP JUMPDEST PUSH2 0x11F8 JUMP JUMPDEST STOP JUMPDEST PUSH0 PUSH32 0x150B7A0200000000000000000000000000000000000000000000000000000000 PUSH28 0xFFFFFFFFFFFFFFFFFFFFFFFFFFFFFFFFFFFFFFFFFFFFFFFFFFFFFFFF NOT AND DUP3 PUSH28 0xFFFFFFFFFFFFFFFFFFFFFFFFFFFFFFFFFFFFFFFFFFFFFFFFFFFFFFFF NOT AND EQ DUP1 PUSH2 0x667 JUMPI POP PUSH32 0x4E2312E000000000000000000000000000000000000000000000000000000000 PUSH28 0xFFFFFFFFFFFFFFFFFFFFFFFFFFFFFFFFFFFFFFFFFFFFFFFFFFFFFFFF NOT AND DUP3 PUSH28 0xFFFFFFFFFFFFFFFFFFFFFFFFFFFFFFFFFFFFFFFFFFFFFFFFFFFFFFFF NOT AND EQ JUMPDEST DUP1 PUSH2 0x6CF JUMPI POP PUSH32 0x1FFC9A700000000000000000000000000000000000000000000000000000000 PUSH28 0xFFFFFFFFFFFFFFFFFFFFFFFFFFFFFFFFFFFFFFFFFFFFFFFFFFFFFFFF NOT AND DUP3 PUSH28 0xFFFFFFFFFFFFFFFFFFFFFFFFFFFFFFFFFFFFFFFFFFFFFFFFFFFFFFFF NOT AND EQ JUMPDEST SWAP1 POP SWAP2 SWAP1 POP JUMP JUMPDEST PUSH0 PUSH0 PUSH32 0xCB7D198B374E49569D08EE524F815A8372822602507550536005B62725C07948 DUP4 DUP1 MLOAD SWAP1 PUSH1 0x20 ADD KECCAK256 PUSH1 0x40 MLOAD PUSH1 0x20 ADD PUSH2 0x712 SWAP3 SWAP2 SWAP1 PUSH2 0x3107 JUMP JUMPDEST PUSH1 0x40 MLOAD PUSH1 0x20 DUP2 DUP4 SUB SUB DUP2 MSTORE SWAP1 PUSH1 0x40 MSTORE DUP1 MLOAD SWAP1 PUSH1 0x20 ADD KECCAK256 SWAP1 POP PUSH2 0x733 DUP2 PUSH2 0x12B3 JUMP JUMPDEST SWAP2 POP POP SWAP2 SWAP1 POP JUMP JUMPDEST PUSH0 PUSH4 0x150B7A02 PUSH1 0xE0 SHL SWAP1 POP SWAP6 SWAP5 POP POP POP POP POP JUMP JUMPDEST PUSH0 PUSH2 0x782 PUSH2 0x77B DUP6 PUSH1 0x40 MLOAD PUSH1 0x20 ADD PUSH2 0x767 SWAP2 SWAP1 PUSH2 0x2531 JUMP JUMPDEST PUSH1 0x40 MLOAD PUSH1 0x20 DUP2 DUP4 SUB SUB DUP2 MSTORE SWAP1 PUSH1 0x40 MSTORE PUSH2 0x6D6 JUMP JUMPDEST DUP5 DUP5 PUSH2 0x132F JUMP JUMPDEST ISZERO PUSH2 0x796 JUMPI PUSH4 0x1626BA7E PUSH1 0xE0 SHL SWAP1 POP PUSH2 0x7A1 JUMP JUMPDEST PUSH4 0xFFFFFFFF PUSH1 0xE0 SHL SWAP1 POP JUMPDEST SWAP4 SWAP3 POP POP POP JUMP JUMPDEST PUSH2 0x7B0 PUSH2 0x14D5 JUMP JUMPDEST DUP2 DUP2 SWAP1 POP DUP5 DUP5 SWAP1 POP EQ PUSH2 0x7EF JUMPI PUSH1 0x40 MLOAD PUSH32 0xA24A13A600000000000000000000000000000000000000000000000000000000 DUP2 MSTORE PUSH1 0x4 ADD PUSH1 0x40 MLOAD DUP1 SWAP2 SUB SWAP1 REVERT JUMPDEST PUSH0 DUP5 DUP5 SWAP1 POP SWAP1 POP PUSH0 PUSH0 SWAP1 POP JUMPDEST DUP2 DUP2 LT ISZERO PUSH2 0x8A6 JUMPI PUSH2 0x89B DUP7 DUP7 DUP4 DUP2 DUP2 LT PUSH2 0x819 JUMPI PUSH2 0x818 PUSH2 0x312E JUMP JUMPDEST JUMPDEST SWAP1 POP PUSH1 0x20 MUL ADD PUSH1 0x20 DUP2 ADD SWAP1 PUSH2 0x82E SWAP2 SWAP1 PUSH2 0x3046 JUMP JUMPDEST PUSH0 DUP7 DUP7 DUP6 DUP2 DUP2 LT PUSH2 0x842 JUMPI PUSH2 0x841 PUSH2 0x312E JUMP JUMPDEST JUMPDEST SWAP1 POP PUSH1 0x20 MUL DUP2 ADD SWAP1 PUSH2 0x854 SWAP2 SWAP1 PUSH2 0x3167 JUMP JUMPDEST DUP1 DUP1 PUSH1 0x1F ADD PUSH1 0x20 DUP1 SWAP2 DIV MUL PUSH1 0x20 ADD PUSH1 0x40 MLOAD SWAP1 DUP2 ADD PUSH1 0x40 MSTORE DUP1 SWAP4 SWAP3 SWAP2 SWAP1 DUP2 DUP2 MSTORE PUSH1 0x20 ADD DUP4 DUP4 DUP1 DUP3 DUP5 CALLDATACOPY PUSH0 DUP2 DUP5 ADD MSTORE PUSH1 0x1F NOT PUSH1 0x1F DUP3 ADD AND SWAP1 POP DUP1 DUP4 ADD SWAP3 POP POP POP POP POP POP POP PUSH2 0x1599 JUMP JUMPDEST DUP1 PUSH1 0x1 ADD SWAP1 POP PUSH2 0x7FB JUMP JUMPDEST POP POP POP POP POP POP JUMP JUMPDEST PUSH0 PUSH2 0x8B7 PUSH2 0x15BB JUMP JUMPDEST PUSH2 0x8C1 DUP5 DUP5 PUSH2 0x1632 JUMP JUMPDEST SWAP1 POP PUSH2 0x8D0 DUP5 PUSH1 0x20 ADD CALLDATALOAD PUSH2 0x183A JUMP JUMPDEST PUSH2 0x8D9 DUP3 PUSH2 0x183D JUMP JUMPDEST SWAP4 SWAP3 POP POP POP JUMP JUMPDEST PUSH2 0x8E8 PUSH2 0x18B1 JUMP JUMPDEST PUSH0 DUP3 DUP3 SWAP1 POP SWAP1 POP PUSH0 PUSH0 SWAP1 POP JUMPDEST DUP2 DUP2 LT ISZERO PUSH2 0xA0A JUMPI CALLDATASIZE DUP5 DUP5 DUP4 DUP2 DUP2 LT PUSH2 0x910 JUMPI PUSH2 0x90F PUSH2 0x312E JUMP JUMPDEST JUMPDEST SWAP1 POP PUSH1 0x20 MUL DUP2 ADD SWAP1 PUSH2 0x922 SWAP2 SWAP1 PUSH2 0x31C9 JUMP JUMPDEST SWAP1 POP PUSH0 PUSH2 0x997 DUP3 PUSH0 ADD PUSH1 0x20 DUP2 ADD SWAP1 PUSH2 0x93A SWAP2 SWAP1 PUSH2 0x3046 JUMP JUMPDEST DUP4 PUSH1 0x20 ADD CALLDATALOAD DUP5 DUP1 PUSH1 0x40 ADD SWAP1 PUSH2 0x94F SWAP2 SWAP1 PUSH2 0x3167 JUMP JUMPDEST DUP1 DUP1 PUSH1 0x1F ADD PUSH1 0x20 DUP1 SWAP2 DIV MUL PUSH1 0x20 ADD PUSH1 0x40 MLOAD SWAP1 DUP2 ADD PUSH1 0x40 MSTORE DUP1 SWAP4 SWAP3 SWAP2 SWAP1 DUP2 DUP2 MSTORE PUSH1 0x20 ADD DUP4 DUP4 DUP1 DUP3 DUP5 CALLDATACOPY PUSH0 DUP2 DUP5 ADD MSTORE PUSH1 0x1F NOT PUSH1 0x1F DUP3 ADD AND SWAP1 POP DUP1 DUP4 ADD SWAP3 POP POP POP POP POP POP POP GAS PUSH2 0x18BB JUMP JUMPDEST SWAP1 POP DUP1 PUSH2 0x9FB JUMPI PUSH1 0x1 DUP5 SUB PUSH2 0x9B3 JUMPI PUSH2 0x9AE PUSH2 0x18D2 JUMP JUMPDEST PUSH2 0x9FA JUMP JUMPDEST DUP3 PUSH2 0x9BD PUSH0 PUSH2 0x18E5 JUMP JUMPDEST PUSH1 0x40 MLOAD PUSH32 0x5A15467500000000000000000000000000000000000000000000000000000000 DUP2 MSTORE PUSH1 0x4 ADD PUSH2 0x9F1 SWAP3 SWAP2 SWAP1 PUSH2 0x3242 JUMP JUMPDEST PUSH1 0x40 MLOAD DUP1 SWAP2 SUB SWAP1 REVERT JUMPDEST JUMPDEST POP POP DUP1 DUP1 PUSH1 0x1 ADD SWAP2 POP POP PUSH2 0x8F4 JUMP JUMPDEST POP POP POP POP JUMP JUMPDEST PUSH2 0xA18 PUSH2 0x14D5 JUMP JUMPDEST DUP2 DUP2 SWAP1 POP DUP7 DUP7 SWAP1 POP EQ ISZERO DUP1 PUSH2 0xA33 JUMPI POP DUP4 DUP4 SWAP1 POP DUP7 DUP7 SWAP1 POP EQ ISZERO JUMPDEST ISZERO PUSH2 0xA6A JUMPI PUSH1 0x40 MLOAD PUSH32 0xA24A13A600000000000000000000000000000000000000000000000000000000 DUP2 MSTORE PUSH1 0x4 ADD PUSH1 0x40 MLOAD DUP1 SWAP2 SUB SWAP1 REVERT JUMPDEST PUSH0 DUP7 DUP7 SWAP1 POP SWAP1 POP PUSH0 PUSH0 SWAP1 POP JUMPDEST DUP2 DUP2 LT ISZERO PUSH2 0xB3A JUMPI PUSH2 0xB2F DUP9 DUP9 DUP4 DUP2 DUP2 LT PUSH2 0xA94 JUMPI PUSH2 0xA93 PUSH2 0x312E JUMP JUMPDEST JUMPDEST SWAP1 POP PUSH1 0x20 MUL ADD PUSH1 0x20 DUP2 ADD SWAP1 PUSH2 0xAA9 SWAP2 SWAP1 PUSH2 0x3046 JUMP JUMPDEST DUP8 DUP8 DUP5 DUP2 DUP2 LT PUSH2 0xABC JUMPI PUSH2 0xABB PUSH2 0x312E JUMP JUMPDEST JUMPDEST SWAP1 POP PUSH1 0x20 MUL ADD CALLDATALOAD DUP7 DUP7 DUP6 DUP2 DUP2 LT PUSH2 0xAD6 JUMPI PUSH2 0xAD5 PUSH2 0x312E JUMP JUMPDEST JUMPDEST SWAP1 POP PUSH1 0x20 MUL DUP2 ADD SWAP1 PUSH2 0xAE8 SWAP2 SWAP1 PUSH2 0x3167 JUMP JUMPDEST DUP1 DUP1 PUSH1 0x1F ADD PUSH1 0x20 DUP1 SWAP2 DIV MUL PUSH1 0x20 ADD PUSH1 0x40 MLOAD SWAP1 DUP2 ADD PUSH1 0x40 MSTORE DUP1 SWAP4 SWAP3 SWAP2 SWAP1 DUP2 DUP2 MSTORE PUSH1 0x20 ADD DUP4 DUP4 DUP1 DUP3 DUP5 CALLDATACOPY PUSH0 DUP2 DUP5 ADD MSTORE PUSH1 0x1F NOT PUSH1 0x1F DUP3 ADD AND SWAP1 POP DUP1 DUP4 ADD SWAP3 POP POP POP POP POP POP POP PUSH2 0x1599 JUMP JUMPDEST DUP1 PUSH1 0x1 ADD SWAP1 POP PUSH2 0xA76 JUMP JUMPDEST POP POP POP POP POP POP POP POP JUMP JUMPDEST PUSH0 PUSH2 0xB4D PUSH2 0x14D5 JUMP JUMPDEST PUSH1 0x40 MLOAD DUP4 DUP1 DUP7 DUP4 CALLDATACOPY DUP4 DUP2 DUP4 DUP10 CREATE2 SWAP3 POP DUP3 PUSH2 0xB6E JUMPI PUSH4 0x7E16B8CD PUSH0 MSTORE PUSH1 0x4 PUSH1 0x1C REVERT JUMPDEST POP POP SWAP5 SWAP4 POP POP POP POP JUMP JUMPDEST PUSH2 0xB80 PUSH2 0xEBC JUMP JUMPDEST PUSH20 0xFFFFFFFFFFFFFFFFFFFFFFFFFFFFFFFFFFFFFFFF AND PUSH4 0xB760FAF9 CALLVALUE ADDRESS PUSH1 0x40 MLOAD DUP4 PUSH4 0xFFFFFFFF AND PUSH1 0xE0 SHL DUP2 MSTORE PUSH1 0x4 ADD PUSH2 0xBB9 SWAP2 SWAP1 PUSH2 0x2B6B JUMP JUMPDEST PUSH0 PUSH1 0x40 MLOAD DUP1 DUP4 SUB DUP2 DUP6 DUP9 DUP1 EXTCODESIZE ISZERO DUP1 ISZERO PUSH2 0xBD0 JUMPI PUSH0 PUSH0 REVERT JUMPDEST POP GAS CALL ISZERO DUP1 ISZERO PUSH2 0xBE2 JUMPI RETURNDATASIZE PUSH0 PUSH0 RETURNDATACOPY RETURNDATASIZE PUSH0 REVERT JUMPDEST POP POP POP POP POP JUMP JUMPDEST PUSH0 PUSH2 0xBF2 PUSH2 0x14D5 JUMP JUMPDEST PUSH1 0x40 MLOAD DUP3 DUP1 DUP6 DUP4 CALLDATACOPY DUP1 DUP3 DUP8 CREATE SWAP3 POP DUP3 PUSH2 0xC12 JUMPI PUSH4 0x7E16B8CD PUSH0 MSTORE PUSH1 0x4 PUSH1 0x1C REVERT JUMPDEST POP POP SWAP4 SWAP3 POP POP POP JUMP JUMPDEST PUSH2 0xC23 PUSH2 0x14D5 JUMP JUMPDEST PUSH0 PUSH20 0xFFFFFFFFFFFFFFFFFFFFFFFFFFFFFFFFFFFFFFFF AND DUP3 PUSH20 0xFFFFFFFFFFFFFFFFFFFFFFFFFFFFFFFFFFFFFFFF AND SUB PUSH2 0xC88 JUMPI PUSH1 0x40 MLOAD PUSH32 0x8579BEFE00000000000000000000000000000000000000000000000000000000 DUP2 MSTORE PUSH1 0x4 ADD PUSH1 0x40 MLOAD DUP1 SWAP2 SUB SWAP1 REVERT JUMPDEST PUSH2 0xC90 PUSH2 0xEBC JUMP JUMPDEST PUSH20 0xFFFFFFFFFFFFFFFFFFFFFFFFFFFFFFFFFFFFFFFF AND PUSH4 0x205C2878 DUP4 DUP4 PUSH1 0x40 MLOAD DUP4 PUSH4 0xFFFFFFFF AND PUSH1 0xE0 SHL DUP2 MSTORE PUSH1 0x4 ADD PUSH2 0xCCA SWAP3 SWAP2 SWAP1 PUSH2 0x327F JUMP JUMPDEST PUSH0 PUSH1 0x40 MLOAD DUP1 DUP4 SUB DUP2 PUSH0 DUP8 DUP1 EXTCODESIZE ISZERO DUP1 ISZERO PUSH2 0xCE1 JUMPI PUSH0 PUSH0 REVERT JUMPDEST POP GAS CALL ISZERO DUP1 ISZERO PUSH2 0xCF3 JUMPI RETURNDATASIZE PUSH0 PUSH0 RETURNDATACOPY RETURNDATASIZE PUSH0 REVERT JUMPDEST POP POP POP POP POP POP JUMP JUMPDEST PUSH0 PUSH32 0x0 SWAP1 POP ADDRESS DUP2 SUB PUSH2 0xD33 JUMPI PUSH4 0x9F03A026 PUSH0 MSTORE PUSH1 0x4 PUSH1 0x1C REVERT JUMPDEST PUSH2 0xD3C DUP5 PUSH2 0x191D JUMP JUMPDEST DUP4 PUSH1 0x60 SHL PUSH1 0x60 SHR SWAP4 POP PUSH4 0x52D1902D PUSH1 0x1 MSTORE PUSH32 0x360894A13BA1A3210667C828492DB98DCA3E2076CC3735A920A3CA505D382BBC DUP1 PUSH1 0x20 PUSH1 0x1 PUSH1 0x4 PUSH1 0x1D DUP10 GAS STATICCALL MLOAD EQ PUSH2 0xD8E JUMPI PUSH4 0x55299B49 PUSH1 0x1 MSTORE PUSH1 0x4 PUSH1 0x1D REVERT JUMPDEST DUP5 PUSH32 0xBC7CD75A20EE27FD9ADEBAB32041F755214DBC6BFFA90CC0225B39DA2E5C2D3B PUSH0 CODESIZE LOG2 DUP5 DUP2 SSTORE DUP3 ISZERO PUSH2 0xDD8 JUMPI PUSH1 0x40 MLOAD DUP4 DUP6 DUP3 CALLDATACOPY PUSH0 CODESIZE DUP6 DUP4 DUP10 GAS DELEGATECALL PUSH2 0xDD6 JUMPI RETURNDATASIZE PUSH0 DUP3 RETURNDATACOPY RETURNDATASIZE DUP2 REVERT JUMPDEST POP JUMPDEST POP POP POP POP POP JUMP JUMPDEST PUSH0 PUSH0 PUSH32 0x0 SWAP1 POP ADDRESS DUP2 EQ PUSH2 0xE18 JUMPI PUSH4 0x9F03A026 PUSH0 MSTORE PUSH1 0x4 PUSH1 0x1C REVERT JUMPDEST PUSH32 0x360894A13BA1A3210667C828492DB98DCA3E2076CC3735A920A3CA505D382BBC PUSH0 SHL SWAP2 POP POP SWAP1 JUMP JUMPDEST PUSH0 PUSH1 0x60 DUP1 PUSH0 PUSH0 PUSH0 PUSH1 0x60 PUSH32 0xF00000000000000000000000000000000000000000000000000000000000000 SWAP7 POP PUSH2 0xE75 PUSH2 0x1928 JUMP JUMPDEST DUP1 SWAP7 POP DUP2 SWAP8 POP POP POP CHAINID SWAP4 POP ADDRESS SWAP3 POP SWAP1 SWAP2 SWAP3 SWAP4 SWAP5 SWAP6 SWAP7 JUMP JUMPDEST PUSH0 PUSH2 0xE95 PUSH2 0x199F JUMP JUMPDEST PUSH0 ADD PUSH0 SWAP1 SLOAD SWAP1 PUSH2 0x100 EXP SWAP1 DIV PUSH20 0xFFFFFFFFFFFFFFFFFFFFFFFFFFFFFFFFFFFFFFFF AND SWAP1 POP SWAP1 JUMP JUMPDEST PUSH0 PUSH32 0x0 SWAP1 POP SWAP1 JUMP JUMPDEST PUSH2 0xEEB PUSH2 0x14D5 JUMP JUMPDEST PUSH2 0xF39 DUP5 DUP5 DUP5 DUP5 DUP1 DUP1 PUSH1 0x1F ADD PUSH1 0x20 DUP1 SWAP2 DIV MUL PUSH1 0x20 ADD PUSH1 0x40 MLOAD SWAP1 DUP2 ADD PUSH1 0x40 MSTORE DUP1 SWAP4 SWAP3 SWAP2 SWAP1 DUP2 DUP2 MSTORE PUSH1 0x20 ADD DUP4 DUP4 DUP1 DUP3 DUP5 CALLDATACOPY PUSH0 DUP2 DUP5 ADD MSTORE PUSH1 0x1F NOT PUSH1 0x1F DUP3 ADD AND SWAP1 POP DUP1 DUP4 ADD SWAP3 POP POP POP POP POP POP POP PUSH2 0x1599 JUMP JUMPDEST POP POP POP POP JUMP JUMPDEST PUSH0 PUSH4 0xBC197C81 PUSH1 0xE0 SHL SWAP1 POP SWAP9 SWAP8 POP POP POP POP POP POP POP POP JUMP JUMPDEST PUSH0 PUSH2 0xF5F PUSH2 0xEBC JUMP JUMPDEST PUSH20 0xFFFFFFFFFFFFFFFFFFFFFFFFFFFFFFFFFFFFFFFF AND PUSH4 0x70A08231 ADDRESS PUSH1 0x40 MLOAD DUP3 PUSH4 0xFFFFFFFF AND PUSH1 0xE0 SHL DUP2 MSTORE PUSH1 0x4 ADD PUSH2 0xF97 SWAP2 SWAP1 PUSH2 0x2B6B JUMP JUMPDEST PUSH1 0x20 PUSH1 0x40 MLOAD DUP1 DUP4 SUB DUP2 DUP7 GAS STATICCALL ISZERO DUP1 ISZERO PUSH2 0xFB2 JUMPI RETURNDATASIZE PUSH0 PUSH0 RETURNDATACOPY RETURNDATASIZE PUSH0 REVERT JUMPDEST POP POP POP POP PUSH1 0x40 MLOAD RETURNDATASIZE PUSH1 0x1F NOT PUSH1 0x1F DUP3 ADD AND DUP3 ADD DUP1 PUSH1 0x40 MSTORE POP DUP2 ADD SWAP1 PUSH2 0xFD6 SWAP2 SWAP1 PUSH2 0x32BA JUMP JUMPDEST SWAP1 POP SWAP1 JUMP JUMPDEST PUSH0 PUSH2 0xFE4 PUSH2 0x19CD JUMP JUMPDEST SWAP1 POP PUSH0 DUP2 PUSH0 ADD PUSH1 0x8 SWAP1 SLOAD SWAP1 PUSH2 0x100 EXP SWAP1 DIV PUSH1 0xFF AND ISZERO SWAP1 POP PUSH0 DUP3 PUSH0 ADD PUSH0 SWAP1 SLOAD SWAP1 PUSH2 0x100 EXP SWAP1 DIV PUSH8 0xFFFFFFFFFFFFFFFF AND SWAP1 POP PUSH0 PUSH0 DUP3 PUSH8 0xFFFFFFFFFFFFFFFF AND EQ DUP1 ISZERO PUSH2 0x102C JUMPI POP DUP3 JUMPDEST SWAP1 POP PUSH0 PUSH1 0x1 DUP4 PUSH8 0xFFFFFFFFFFFFFFFF AND EQ DUP1 ISZERO PUSH2 0x105F JUMPI POP PUSH0 ADDRESS PUSH20 0xFFFFFFFFFFFFFFFFFFFFFFFFFFFFFFFFFFFFFFFF AND EXTCODESIZE EQ JUMPDEST SWAP1 POP DUP2 ISZERO DUP1 ISZERO PUSH2 0x106D JUMPI POP DUP1 ISZERO JUMPDEST ISZERO PUSH2 0x10A4 JUMPI PUSH1 0x40 MLOAD PUSH32 0xF92EE8A900000000000000000000000000000000000000000000000000000000 DUP2 MSTORE PUSH1 0x4 ADD PUSH1 0x40 MLOAD DUP1 SWAP2 SUB SWAP1 REVERT JUMPDEST PUSH1 0x1 DUP6 PUSH0 ADD PUSH0 PUSH2 0x100 EXP DUP2 SLOAD DUP2 PUSH8 0xFFFFFFFFFFFFFFFF MUL NOT AND SWAP1 DUP4 PUSH8 0xFFFFFFFFFFFFFFFF AND MUL OR SWAP1 SSTORE POP DUP4 ISZERO PUSH2 0x10F1 JUMPI PUSH1 0x1 DUP6 PUSH0 ADD PUSH1 0x8 PUSH2 0x100 EXP DUP2 SLOAD DUP2 PUSH1 0xFF MUL NOT AND SWAP1 DUP4 ISZERO ISZERO MUL OR SWAP1 SSTORE POP JUMPDEST PUSH2 0x10FA DUP7 PUSH2 0x19F9 JUMP JUMPDEST DUP4 ISZERO PUSH2 0x1154 JUMPI PUSH0 DUP6 PUSH0 ADD PUSH1 0x8 PUSH2 0x100 EXP DUP2 SLOAD DUP2 PUSH1 0xFF MUL NOT AND SWAP1 DUP4 ISZERO ISZERO MUL OR SWAP1 SSTORE POP PUSH32 0xC7F505B2F371AE2175EE4913F4499E1F2633A7B5936321EED1CDAEB6115181D2 PUSH1 0x1 PUSH1 0x40 MLOAD PUSH2 0x114B SWAP2 SWAP1 PUSH2 0x3331 JUMP JUMPDEST PUSH1 0x40 MLOAD DUP1 SWAP2 SUB SWAP1 LOG1 JUMPDEST POP POP POP POP POP POP JUMP JUMPDEST PUSH0 PUSH2 0x1165 PUSH2 0xEBC JUMP JUMPDEST PUSH20 0xFFFFFFFFFFFFFFFFFFFFFFFFFFFFFFFFFFFFFFFF AND PUSH4 0x35567E1A ADDRESS PUSH0 PUSH1 0x40 MLOAD DUP4 PUSH4 0xFFFFFFFF AND PUSH1 0xE0 SHL DUP2 MSTORE PUSH1 0x4 ADD PUSH2 0x119F SWAP3 SWAP2 SWAP1 PUSH2 0x33A6 JUMP JUMPDEST PUSH1 0x20 PUSH1 0x40 MLOAD DUP1 DUP4 SUB DUP2 DUP7 GAS STATICCALL ISZERO DUP1 ISZERO PUSH2 0x11BA JUMPI RETURNDATASIZE PUSH0 PUSH0 RETURNDATACOPY RETURNDATASIZE PUSH0 REVERT JUMPDEST POP POP POP POP PUSH1 0x40 MLOAD RETURNDATASIZE PUSH1 0x1F NOT PUSH1 0x1F DUP3 ADD AND DUP3 ADD DUP1 PUSH1 0x40 MSTORE POP DUP2 ADD SWAP1 PUSH2 0x11DE SWAP2 SWAP1 PUSH2 0x32BA JUMP JUMPDEST SWAP1 POP SWAP1 JUMP JUMPDEST PUSH0 PUSH4 0xF23A6E61 PUSH1 0xE0 SHL SWAP1 POP SWAP7 SWAP6 POP POP POP POP POP POP JUMP JUMPDEST PUSH2 0x1200 PUSH2 0x14D5 JUMP JUMPDEST PUSH0 PUSH20 0xFFFFFFFFFFFFFFFFFFFFFFFFFFFFFFFFFFFFFFFF AND DUP2 PUSH20 0xFFFFFFFFFFFFFFFFFFFFFFFFFFFFFFFFFFFFFFFF AND EQ DUP1 PUSH2 0x1265 JUMPI POP ADDRESS PUSH20 0xFFFFFFFFFFFFFFFFFFFFFFFFFFFFFFFFFFFFFFFF AND DUP2 PUSH20 0xFFFFFFFFFFFFFFFFFFFFFFFFFFFFFFFFFFFFFFFF AND EQ JUMPDEST ISZERO PUSH2 0x12A7 JUMPI DUP1 PUSH1 0x40 MLOAD PUSH32 0xB20F76E300000000000000000000000000000000000000000000000000000000 DUP2 MSTORE PUSH1 0x4 ADD PUSH2 0x129E SWAP2 SWAP1 PUSH2 0x2B6B JUMP JUMPDEST PUSH1 0x40 MLOAD DUP1 SWAP2 SUB SWAP1 REVERT JUMPDEST PUSH2 0x12B0 DUP2 PUSH2 0x1B88 JUMP JUMPDEST POP JUMP JUMPDEST PUSH0 PUSH2 0x12BC PUSH2 0x1CC9 JUMP JUMPDEST ISZERO PUSH2 0x12D0 JUMPI PUSH2 0x12C9 PUSH2 0x1CCD JUMP JUMPDEST SWAP1 POP PUSH2 0x130C JUMP JUMPDEST PUSH32 0x0 SWAP1 POP PUSH2 0x12FB PUSH2 0x1D95 JUMP JUMPDEST ISZERO PUSH2 0x130B JUMPI PUSH2 0x1308 PUSH2 0x1CCD JUMP JUMPDEST SWAP1 POP JUMPDEST JUMPDEST PUSH8 0x1901000000000000 PUSH0 MSTORE DUP1 PUSH1 0x1A MSTORE DUP2 PUSH1 0x3A MSTORE PUSH1 0x42 PUSH1 0x18 KECCAK256 SWAP1 POP PUSH0 PUSH1 0x3A MSTORE SWAP2 SWAP1 POP JUMP JUMPDEST PUSH0 PUSH1 0x1 DUP4 DUP4 SWAP1 POP LT ISZERO PUSH2 0x136E JUMPI PUSH1 0x40 MLOAD PUSH32 0x60CD402D00000000000000000000000000000000000000000000000000000000 DUP2 MSTORE PUSH1 0x4 ADD PUSH1 0x40 MLOAD DUP1 SWAP2 SUB SWAP1 REVERT JUMPDEST PUSH0 DUP4 DUP4 PUSH0 DUP2 DUP2 LT PUSH2 0x1382 JUMPI PUSH2 0x1381 PUSH2 0x312E JUMP JUMPDEST JUMPDEST SWAP1 POP ADD CALLDATALOAD PUSH1 0xF8 SHR PUSH1 0xF8 SHL PUSH1 0xF8 SHR SWAP1 POP PUSH0 PUSH1 0x2 DUP2 GT ISZERO PUSH2 0x13A4 JUMPI PUSH2 0x13A3 PUSH2 0x33CD JUMP JUMPDEST JUMPDEST PUSH1 0xFF AND DUP2 PUSH1 0xFF AND SUB PUSH2 0x1416 JUMPI PUSH2 0x140E DUP6 DUP6 DUP6 PUSH1 0x1 SWAP1 DUP1 SWAP3 PUSH2 0x13C7 SWAP4 SWAP3 SWAP2 SWAP1 PUSH2 0x3402 JUMP JUMPDEST DUP1 DUP1 PUSH1 0x1F ADD PUSH1 0x20 DUP1 SWAP2 DIV MUL PUSH1 0x20 ADD PUSH1 0x40 MLOAD SWAP1 DUP2 ADD PUSH1 0x40 MSTORE DUP1 SWAP4 SWAP3 SWAP2 SWAP1 DUP2 DUP2 MSTORE PUSH1 0x20 ADD DUP4 DUP4 DUP1 DUP3 DUP5 CALLDATACOPY PUSH0 DUP2 DUP5 ADD MSTORE PUSH1 0x1F NOT PUSH1 0x1F DUP3 ADD AND SWAP1 POP DUP1 DUP4 ADD SWAP3 POP POP POP POP POP POP POP PUSH2 0x1DED JUMP JUMPDEST SWAP2 POP POP PUSH2 0x14CE JUMP JUMPDEST PUSH1 0x1 PUSH1 0x2 DUP2 GT ISZERO PUSH2 0x142A JUMPI PUSH2 0x1429 PUSH2 0x33CD JUMP JUMPDEST JUMPDEST PUSH1 0xFF AND DUP2 PUSH1 0xFF AND SUB PUSH2 0x149C JUMPI PUSH2 0x1494 DUP6 DUP6 DUP6 PUSH1 0x1 SWAP1 DUP1 SWAP3 PUSH2 0x144D SWAP4 SWAP3 SWAP2 SWAP1 PUSH2 0x3402 JUMP JUMPDEST DUP1 DUP1 PUSH1 0x1F ADD PUSH1 0x20 DUP1 SWAP2 DIV MUL PUSH1 0x20 ADD PUSH1 0x40 MLOAD SWAP1 DUP2 ADD PUSH1 0x40 MSTORE DUP1 SWAP4 SWAP3 SWAP2 SWAP1 DUP2 DUP2 MSTORE PUSH1 0x20 ADD DUP4 DUP4 DUP1 DUP3 DUP5 CALLDATACOPY PUSH0 DUP2 DUP5 ADD MSTORE PUSH1 0x1F NOT PUSH1 0x1F DUP3 ADD AND SWAP1 POP DUP1 DUP4 ADD SWAP3 POP POP POP POP POP POP POP PUSH2 0x1E43 JUMP JUMPDEST SWAP2 POP POP PUSH2 0x14CE JUMP JUMPDEST PUSH1 0x40 MLOAD PUSH32 0x60CD402D00000000000000000000000000000000000000000000000000000000 DUP2 MSTORE PUSH1 0x4 ADD PUSH1 0x40 MLOAD DUP1 SWAP2 SUB SWAP1 REVERT JUMPDEST SWAP4 SWAP3 POP POP POP JUMP JUMPDEST PUSH2 0x14DD PUSH2 0xEBC JUMP JUMPDEST PUSH20 0xFFFFFFFFFFFFFFFFFFFFFFFFFFFFFFFFFFFFFFFF AND CALLER PUSH20 0xFFFFFFFFFFFFFFFFFFFFFFFFFFFFFFFFFFFFFFFF AND EQ ISZERO DUP1 ISZERO PUSH2 0x1544 JUMPI POP ADDRESS PUSH20 0xFFFFFFFFFFFFFFFFFFFFFFFFFFFFFFFFFFFFFFFF AND CALLER PUSH20 0xFFFFFFFFFFFFFFFFFFFFFFFFFFFFFFFFFFFFFFFF AND EQ ISZERO JUMPDEST DUP1 ISZERO PUSH2 0x1555 JUMPI POP PUSH2 0x1553 PUSH2 0x1E5E JUMP JUMPDEST ISZERO JUMPDEST ISZERO PUSH2 0x1597 JUMPI CALLER PUSH1 0x40 MLOAD PUSH32 0x4A0BFEC100000000000000000000000000000000000000000000000000000000 DUP2 MSTORE PUSH1 0x4 ADD PUSH2 0x158E SWAP2 SWAP1 PUSH2 0x2B6B JUMP JUMPDEST PUSH1 0x40 MLOAD DUP1 SWAP2 SUB SWAP1 REVERT JUMPDEST JUMP JUMPDEST PUSH0 PUSH0 DUP3 MLOAD PUSH1 0x20 DUP5 ADD DUP6 DUP8 GAS CALL DUP1 PUSH2 0x15B5 JUMPI PUSH1 0x40 MLOAD RETURNDATASIZE PUSH0 DUP3 RETURNDATACOPY RETURNDATASIZE DUP2 REVERT JUMPDEST POP POP POP POP JUMP JUMPDEST PUSH2 0x15C3 PUSH2 0xEBC JUMP JUMPDEST PUSH20 0xFFFFFFFFFFFFFFFFFFFFFFFFFFFFFFFFFFFFFFFF AND CALLER PUSH20 0xFFFFFFFFFFFFFFFFFFFFFFFFFFFFFFFFFFFFFFFF AND EQ PUSH2 0x1630 JUMPI PUSH1 0x40 MLOAD PUSH32 0x8C379A000000000000000000000000000000000000000000000000000000000 DUP2 MSTORE PUSH1 0x4 ADD PUSH2 0x1627 SWAP1 PUSH2 0x3486 JUMP JUMPDEST PUSH1 0x40 MLOAD DUP1 SWAP2 SUB SWAP1 REVERT JUMPDEST JUMP JUMPDEST PUSH0 PUSH1 0x1 DUP4 DUP1 PUSH2 0x100 ADD SWAP1 PUSH2 0x1646 SWAP2 SWAP1 PUSH2 0x3167 JUMP JUMPDEST SWAP1 POP LT ISZERO PUSH2 0x1680 JUMPI PUSH1 0x40 MLOAD PUSH32 0x60CD402D00000000000000000000000000000000000000000000000000000000 DUP2 MSTORE PUSH1 0x4 ADD PUSH1 0x40 MLOAD DUP1 SWAP2 SUB SWAP1 REVERT JUMPDEST PUSH0 DUP4 DUP1 PUSH2 0x100 ADD SWAP1 PUSH2 0x1692 SWAP2 SWAP1 PUSH2 0x3167 JUMP JUMPDEST PUSH0 DUP2 DUP2 LT PUSH2 0x16A3 JUMPI PUSH2 0x16A2 PUSH2 0x312E JUMP JUMPDEST JUMPDEST SWAP1 POP ADD CALLDATALOAD PUSH1 0xF8 SHR PUSH1 0xF8 SHL PUSH1 0xF8 SHR SWAP1 POP PUSH0 PUSH1 0x2 DUP2 GT ISZERO PUSH2 0x16C5 JUMPI PUSH2 0x16C4 PUSH2 0x33CD JUMP JUMPDEST JUMPDEST PUSH1 0xFF AND DUP2 PUSH1 0xFF AND SUB PUSH2 0x1760 JUMPI PUSH0 PUSH2 0x16DB DUP5 PUSH2 0x1E9A JUMP JUMPDEST SWAP1 POP PUSH0 DUP6 DUP1 PUSH2 0x100 ADD SWAP1 PUSH2 0x16EF SWAP2 SWAP1 PUSH2 0x3167 JUMP JUMPDEST PUSH1 0x1 SWAP1 DUP1 SWAP3 PUSH2 0x1700 SWAP4 SWAP3 SWAP2 SWAP1 PUSH2 0x3402 JUMP JUMPDEST DUP1 DUP1 PUSH1 0x1F ADD PUSH1 0x20 DUP1 SWAP2 DIV MUL PUSH1 0x20 ADD PUSH1 0x40 MLOAD SWAP1 DUP2 ADD PUSH1 0x40 MSTORE DUP1 SWAP4 SWAP3 SWAP2 SWAP1 DUP2 DUP2 MSTORE PUSH1 0x20 ADD DUP4 DUP4 DUP1 DUP3 DUP5 CALLDATACOPY PUSH0 DUP2 DUP5 ADD MSTORE PUSH1 0x1F NOT PUSH1 0x1F DUP3 ADD AND SWAP1 POP DUP1 DUP4 ADD SWAP3 POP POP POP POP POP POP POP SWAP1 POP PUSH2 0x1756 PUSH2 0x1751 DUP4 DUP4 PUSH2 0x1DED JUMP JUMPDEST PUSH2 0x1ECD JUMP JUMPDEST SWAP4 POP POP POP POP PUSH2 0x1834 JUMP JUMPDEST PUSH1 0x1 PUSH1 0x2 DUP2 GT ISZERO PUSH2 0x1774 JUMPI PUSH2 0x1773 PUSH2 0x33CD JUMP JUMPDEST JUMPDEST PUSH1 0xFF AND DUP2 PUSH1 0xFF AND SUB PUSH2 0x1802 JUMPI PUSH0 DUP5 DUP1 PUSH2 0x100 ADD SWAP1 PUSH2 0x1792 SWAP2 SWAP1 PUSH2 0x3167 JUMP JUMPDEST PUSH1 0x1 SWAP1 DUP1 SWAP3 PUSH2 0x17A3 SWAP4 SWAP3 SWAP2 SWAP1 PUSH2 0x3402 JUMP JUMPDEST DUP1 DUP1 PUSH1 0x1F ADD PUSH1 0x20 DUP1 SWAP2 DIV MUL PUSH1 0x20 ADD PUSH1 0x40 MLOAD SWAP1 DUP2 ADD PUSH1 0x40 MSTORE DUP1 SWAP4 SWAP3 SWAP2 SWAP1 DUP2 DUP2 MSTORE PUSH1 0x20 ADD DUP4 DUP4 DUP1 DUP3 DUP5 CALLDATACOPY PUSH0 DUP2 DUP5 ADD MSTORE PUSH1 0x1F NOT PUSH1 0x1F DUP3 ADD AND SWAP1 POP DUP1 DUP4 ADD SWAP3 POP POP POP POP POP POP POP SWAP1 POP PUSH2 0x17F9 PUSH2 0x17F4 DUP6 DUP4 PUSH2 0x1E43 JUMP JUMPDEST PUSH2 0x1ECD JUMP JUMPDEST SWAP3 POP POP POP PUSH2 0x1834 JUMP JUMPDEST PUSH1 0x40 MLOAD PUSH32 0x60CD402D00000000000000000000000000000000000000000000000000000000 DUP2 MSTORE PUSH1 0x4 ADD PUSH1 0x40 MLOAD DUP1 SWAP2 SUB SWAP1 REVERT JUMPDEST SWAP3 SWAP2 POP POP JUMP JUMPDEST POP JUMP JUMPDEST PUSH0 DUP2 EQ PUSH2 0x18AE JUMPI PUSH0 CALLER PUSH20 0xFFFFFFFFFFFFFFFFFFFFFFFFFFFFFFFFFFFFFFFF AND DUP3 PUSH1 0x40 MLOAD PUSH2 0x1869 SWAP1 PUSH2 0x34D1 JUMP JUMPDEST PUSH0 PUSH1 0x40 MLOAD DUP1 DUP4 SUB DUP2 DUP6 DUP8 GAS CALL SWAP3 POP POP POP RETURNDATASIZE DUP1 PUSH0 DUP2 EQ PUSH2 0x18A3 JUMPI PUSH1 0x40 MLOAD SWAP2 POP PUSH1 0x1F NOT PUSH1 0x3F RETURNDATASIZE ADD AND DUP3 ADD PUSH1 0x40 MSTORE RETURNDATASIZE DUP3 MSTORE RETURNDATASIZE PUSH0 PUSH1 0x20 DUP5 ADD RETURNDATACOPY PUSH2 0x18A8 JUMP JUMPDEST PUSH1 0x60 SWAP2 POP JUMPDEST POP POP SWAP1 POP POP JUMPDEST POP JUMP JUMPDEST PUSH2 0x18B9 PUSH2 0x15BB JUMP JUMPDEST JUMP JUMPDEST PUSH0 PUSH0 PUSH0 DUP5 MLOAD PUSH1 0x20 DUP7 ADD DUP8 DUP10 DUP8 CALL SWAP1 POP SWAP5 SWAP4 POP POP POP POP JUMP JUMPDEST PUSH2 0x18E3 PUSH2 0x18DE PUSH0 PUSH2 0x18E5 JUMP JUMPDEST PUSH2 0x1EE3 JUMP JUMPDEST JUMP JUMPDEST PUSH1 0x60 RETURNDATASIZE PUSH0 DUP4 GT ISZERO PUSH2 0x18FD JUMPI DUP3 DUP2 GT ISZERO PUSH2 0x18FC JUMPI DUP3 SWAP1 POP JUMPDEST JUMPDEST PUSH1 0x40 MLOAD PUSH1 0x20 DUP3 ADD DUP2 ADD PUSH1 0x40 MSTORE DUP2 DUP2 MSTORE DUP2 PUSH0 PUSH1 0x20 DUP4 ADD RETURNDATACOPY DUP1 SWAP3 POP POP POP SWAP2 SWAP1 POP JUMP JUMPDEST PUSH2 0x1925 PUSH2 0x14D5 JUMP JUMPDEST POP JUMP JUMPDEST PUSH1 0x60 DUP1 PUSH1 0x40 MLOAD DUP1 PUSH1 0x40 ADD PUSH1 0x40 MSTORE DUP1 PUSH1 0x10 DUP2 MSTORE PUSH1 0x20 ADD PUSH32 0x436F7264796C696E654163636F756E7400000000000000000000000000000000 DUP2 MSTORE POP SWAP2 POP PUSH1 0x40 MLOAD DUP1 PUSH1 0x40 ADD PUSH1 0x40 MSTORE DUP1 PUSH1 0x1 DUP2 MSTORE PUSH1 0x20 ADD PUSH32 0x3200000000000000000000000000000000000000000000000000000000000000 DUP2 MSTORE POP SWAP1 POP SWAP1 SWAP2 JUMP JUMPDEST PUSH0 PUSH0 PUSH32 0x691EC1A18226D004C07C9F8E5C4A6FF15A7B38DB267CF7E3C945AEF8BE512200 PUSH0 SHL SWAP1 POP DUP1 SWAP2 POP POP SWAP1 JUMP JUMPDEST PUSH0 PUSH0 PUSH32 0x0 SWAP1 POP DUP1 SWAP2 POP POP SWAP1 JUMP JUMPDEST PUSH0 PUSH20 0xFFFFFFFFFFFFFFFFFFFFFFFFFFFFFFFFFFFFFFFF AND DUP2 PUSH20 0xFFFFFFFFFFFFFFFFFFFFFFFFFFFFFFFFFFFFFFFF AND SUB PUSH2 0x1A69 JUMPI PUSH0 PUSH1 0x40 MLOAD PUSH32 0xB20F76E300000000000000000000000000000000000000000000000000000000 DUP2 MSTORE PUSH1 0x4 ADD PUSH2 0x1A60 SWAP2 SWAP1 PUSH2 0x2B6B JUMP JUMPDEST PUSH1 0x40 MLOAD DUP1 SWAP2 SUB SWAP1 REVERT JUMPDEST DUP1 PUSH2 0x1A72 PUSH2 0x199F JUMP JUMPDEST PUSH0 ADD PUSH0 PUSH2 0x100 EXP DUP2 SLOAD DUP2 PUSH20 0xFFFFFFFFFFFFFFFFFFFFFFFFFFFFFFFFFFFFFFFF MUL NOT AND SWAP1 DUP4 PUSH20 0xFFFFFFFFFFFFFFFFFFFFFFFFFFFFFFFFFFFFFFFF AND MUL OR SWAP1 SSTORE POP DUP1 PUSH20 0xFFFFFFFFFFFFFFFFFFFFFFFFFFFFFFFFFFFFFFFF AND PUSH32 0x0 PUSH20 0xFFFFFFFFFFFFFFFFFFFFFFFFFFFFFFFFFFFFFFFF AND PUSH32 0x229A086FEDDE78CA61E563436DF91EA4F3A3D4C8F8C6F113FAF69BC73999FE5 PUSH1 0x40 MLOAD PUSH1 0x40 MLOAD DUP1 SWAP2 SUB SWAP1 LOG3 DUP1 PUSH20 0xFFFFFFFFFFFFFFFFFFFFFFFFFFFFFFFFFFFFFFFF AND PUSH0 PUSH20 0xFFFFFFFFFFFFFFFFFFFFFFFFFFFFFFFFFFFFFFFF AND PUSH32 0x8BE0079C531659141344CD1FD0A4F28419497F9722A3DAAFE3B4186F6B6457E0 PUSH1 0x40 MLOAD PUSH1 0x40 MLOAD DUP1 SWAP2 SUB SWAP1 LOG3 POP JUMP JUMPDEST PUSH0 PUSH2 0x1B91 PUSH2 0x199F JUMP JUMPDEST SWAP1 POP PUSH0 DUP2 PUSH0 ADD PUSH0 SWAP1 SLOAD SWAP1 PUSH2 0x100 EXP SWAP1 DIV PUSH20 0xFFFFFFFFFFFFFFFFFFFFFFFFFFFFFFFFFFFFFFFF AND SWAP1 POP DUP1 PUSH20 0xFFFFFFFFFFFFFFFFFFFFFFFFFFFFFFFFFFFFFFFF AND DUP4 PUSH20 0xFFFFFFFFFFFFFFFFFFFFFFFFFFFFFFFFFFFFFFFF AND SUB PUSH2 0x1C29 JUMPI DUP3 PUSH1 0x40 MLOAD PUSH32 0xB20F76E300000000000000000000000000000000000000000000000000000000 DUP2 MSTORE PUSH1 0x4 ADD PUSH2 0x1C20 SWAP2 SWAP1 PUSH2 0x2B6B JUMP JUMPDEST PUSH1 0x40 MLOAD DUP1 SWAP2 SUB SWAP1 REVERT JUMPDEST DUP3 DUP3 PUSH0 ADD PUSH0 PUSH2 0x100 EXP DUP2 SLOAD DUP2 PUSH20 0xFFFFFFFFFFFFFFFFFFFFFFFFFFFFFFFFFFFFFFFF MUL NOT AND SWAP1 DUP4 PUSH20 0xFFFFFFFFFFFFFFFFFFFFFFFFFFFFFFFFFFFFFFFF AND MUL OR SWAP1 SSTORE POP DUP3 PUSH20 0xFFFFFFFFFFFFFFFFFFFFFFFFFFFFFFFFFFFFFFFF AND DUP2 PUSH20 0xFFFFFFFFFFFFFFFFFFFFFFFFFFFFFFFFFFFFFFFF AND PUSH32 0x8BE0079C531659141344CD1FD0A4F28419497F9722A3DAAFE3B4186F6B6457E0 PUSH1 0x40 MLOAD PUSH1 0x40 MLOAD DUP1 SWAP2 SUB SWAP1 LOG3 POP POP POP JUMP JUMPDEST PUSH0 SWAP1 JUMP JUMPDEST PUSH0 PUSH0 PUSH2 0x1CD7 PUSH2 0x1CC9 JUMP JUMPDEST ISZERO PUSH2 0x1D05 JUMPI PUSH0 PUSH0 PUSH2 0x1CE6 PUSH2 0x1928 JUMP JUMPDEST SWAP2 POP SWAP2 POP DUP2 DUP1 MLOAD SWAP1 PUSH1 0x20 ADD KECCAK256 SWAP4 POP DUP1 DUP1 MLOAD SWAP1 PUSH1 0x20 ADD KECCAK256 SWAP3 POP POP POP PUSH2 0x1D4C JUMP JUMPDEST PUSH32 0x0 SWAP2 POP PUSH32 0x0 SWAP1 POP JUMPDEST PUSH1 0x40 MLOAD PUSH32 0x8B73C3C69BB8FE3D512ECC4CF759CC79239F7B179B0FFACAA9A75D522B39400F DUP2 MSTORE DUP3 PUSH1 0x20 DUP3 ADD MSTORE DUP2 PUSH1 0x40 DUP3 ADD MSTORE CHAINID PUSH1 0x60 DUP3 ADD MSTORE ADDRESS PUSH1 0x80 DUP3 ADD MSTORE PUSH1 0xA0 DUP2 KECCAK256 SWAP3 POP POP POP SWAP1 JUMP JUMPDEST PUSH0 PUSH0 PUSH32 0x0 SWAP1 POP PUSH0 PUSH32 0x0 SWAP1 POP DUP1 ADDRESS EQ DUP3 CHAINID EQ AND ISZERO SWAP3 POP POP POP SWAP1 JUMP JUMPDEST PUSH0 PUSH0 PUSH2 0x1E02 DUP4 DUP6 PUSH2 0x1EEB SWAP1 SWAP2 SWAP1 PUSH4 0xFFFFFFFF AND JUMP JUMPDEST SWAP1 POP PUSH2 0x1E0C PUSH2 0xE8C JUMP JUMPDEST PUSH20 0xFFFFFFFFFFFFFFFFFFFFFFFFFFFFFFFFFFFFFFFF AND DUP2 PUSH20 0xFFFFFFFFFFFFFFFFFFFFFFFFFFFFFFFFFFFFFFFF AND EQ SWAP2 POP POP SWAP3 SWAP2 POP POP JUMP JUMPDEST PUSH0 PUSH2 0x1E56 PUSH2 0x1E4F PUSH2 0xE8C JUMP JUMPDEST DUP5 DUP5 PUSH2 0x1F15 JUMP JUMPDEST SWAP1 POP SWAP3 SWAP2 POP POP JUMP JUMPDEST PUSH0 PUSH2 0x1E67 PUSH2 0xE8C JUMP JUMPDEST PUSH20 0xFFFFFFFFFFFFFFFFFFFFFFFFFFFFFFFFFFFFFFFF AND CALLER PUSH20 0xFFFFFFFFFFFFFFFFFFFFFFFFFFFFFFFFFFFFFFFF AND EQ SWAP1 POP SWAP1 JUMP JUMPDEST PUSH0 PUSH32 0x19457468657265756D205369676E6564204D6573736167653A0A333200000000 PUSH0 MSTORE DUP2 PUSH1 0x1C MSTORE PUSH1 0x3C PUSH0 KECCAK256 SWAP1 POP SWAP2 SWAP1 POP JUMP JUMPDEST PUSH0 DUP2 PUSH2 0x1EDA JUMPI PUSH1 0x1 PUSH2 0x1EDC JUMP JUMPDEST PUSH0 JUMPDEST SWAP1 POP SWAP2 SWAP1 POP JUMP JUMPDEST DUP1 MLOAD PUSH1 0x20 DUP3 ADD REVERT JUMPDEST PUSH0 PUSH0 PUSH0 PUSH0 PUSH2 0x1EF9 DUP7 DUP7 PUSH2 0x2034 JUMP JUMPDEST SWAP3 POP SWAP3 POP SWAP3 POP PUSH2 0x1F09 DUP3 DUP3 PUSH2 0x2089 JUMP JUMPDEST DUP3 SWAP4 POP POP POP POP SWAP3 SWAP2 POP POP JUMP JUMPDEST PUSH0 PUSH0 PUSH0 DUP6 PUSH20 0xFFFFFFFFFFFFFFFFFFFFFFFFFFFFFFFFFFFFFFFF AND DUP6 DUP6 PUSH1 0x40 MLOAD PUSH1 0x24 ADD PUSH2 0x1F42 SWAP3 SWAP2 SWAP1 PUSH2 0x34E5 JUMP JUMPDEST PUSH1 0x40 MLOAD PUSH1 0x20 DUP2 DUP4 SUB SUB DUP2 MSTORE SWAP1 PUSH1 0x40 MSTORE PUSH4 0x1626BA7E PUSH1 0xE0 SHL PUSH1 0x20 DUP3 ADD DUP1 MLOAD PUSH28 0xFFFFFFFFFFFFFFFFFFFFFFFFFFFFFFFFFFFFFFFFFFFFFFFFFFFFFFFF DUP4 DUP2 DUP4 AND OR DUP4 MSTORE POP POP POP POP PUSH1 0x40 MLOAD PUSH2 0x1F94 SWAP2 SWAP1 PUSH2 0x3543 JUMP JUMPDEST PUSH0 PUSH1 0x40 MLOAD DUP1 DUP4 SUB DUP2 DUP6 GAS STATICCALL SWAP2 POP POP RETURNDATASIZE DUP1 PUSH0 DUP2 EQ PUSH2 0x1FCC JUMPI PUSH1 0x40 MLOAD SWAP2 POP PUSH1 0x1F NOT PUSH1 0x3F RETURNDATASIZE ADD AND DUP3 ADD PUSH1 0x40 MSTORE RETURNDATASIZE DUP3 MSTORE RETURNDATASIZE PUSH0 PUSH1 0x20 DUP5 ADD RETURNDATACOPY PUSH2 0x1FD1 JUMP JUMPDEST PUSH1 0x60 SWAP2 POP JUMPDEST POP SWAP2 POP SWAP2 POP DUP2 DUP1 ISZERO PUSH2 0x1FE5 JUMPI POP PUSH1 0x20 DUP2 MLOAD LT ISZERO JUMPDEST DUP1 ISZERO PUSH2 0x2029 JUMPI POP PUSH4 0x1626BA7E PUSH1 0xE0 SHL PUSH28 0xFFFFFFFFFFFFFFFFFFFFFFFFFFFFFFFFFFFFFFFFFFFFFFFFFFFFFFFF NOT AND DUP2 DUP1 PUSH1 0x20 ADD SWAP1 MLOAD DUP2 ADD SWAP1 PUSH2 0x2027 SWAP2 SWAP1 PUSH2 0x356D JUMP JUMPDEST EQ JUMPDEST SWAP3 POP POP POP SWAP4 SWAP3 POP POP POP JUMP JUMPDEST PUSH0 PUSH0 PUSH0 PUSH1 0x41 DUP5 MLOAD SUB PUSH2 0x2074 JUMPI PUSH0 PUSH0 PUSH0 PUSH1 0x20 DUP8 ADD MLOAD SWAP3 POP PUSH1 0x40 DUP8 ADD MLOAD SWAP2 POP PUSH1 0x60 DUP8 ADD MLOAD PUSH0 BYTE SWAP1 POP PUSH2 0x2066 DUP9 DUP3 DUP6 DUP6 PUSH2 0x21EB JUMP JUMPDEST SWAP6 POP SWAP6 POP SWAP6 POP POP POP POP PUSH2 0x2082 JUMP JUMPDEST PUSH0 PUSH1 0x2 DUP6 MLOAD PUSH0 SHL SWAP3 POP SWAP3 POP SWAP3 POP JUMPDEST SWAP3 POP SWAP3 POP SWAP3 JUMP JUMPDEST PUSH0 PUSH1 0x3 DUP2 GT ISZERO PUSH2 0x209C JUMPI PUSH2 0x209B PUSH2 0x33CD JUMP JUMPDEST JUMPDEST DUP3 PUSH1 0x3 DUP2 GT ISZERO PUSH2 0x20AF JUMPI PUSH2 0x20AE PUSH2 0x33CD JUMP JUMPDEST JUMPDEST SUB ISZERO PUSH2 0x21E7 JUMPI PUSH1 0x1 PUSH1 0x3 DUP2 GT ISZERO PUSH2 0x20C9 JUMPI PUSH2 0x20C8 PUSH2 0x33CD JUMP JUMPDEST JUMPDEST DUP3 PUSH1 0x3 DUP2 GT ISZERO PUSH2 0x20DC JUMPI PUSH2 0x20DB PUSH2 0x33CD JUMP JUMPDEST JUMPDEST SUB PUSH2 0x2113 JUMPI PUSH1 0x40 MLOAD PUSH32 0xF645EEDF00000000000000000000000000000000000000000000000000000000 DUP2 MSTORE PUSH1 0x4 ADD PUSH1 0x40 MLOAD DUP1 SWAP2 SUB SWAP1 REVERT JUMPDEST PUSH1 0x2 PUSH1 0x3 DUP2 GT ISZERO PUSH2 0x2127 JUMPI PUSH2 0x2126 PUSH2 0x33CD JUMP JUMPDEST JUMPDEST DUP3 PUSH1 0x3 DUP2 GT ISZERO PUSH2 0x213A JUMPI PUSH2 0x2139 PUSH2 0x33CD JUMP JUMPDEST JUMPDEST SUB PUSH2 0x217E JUMPI DUP1 PUSH0 SHR PUSH1 0x40 MLOAD PUSH32 0xFCE698F700000000000000000000000000000000000000000000000000000000 DUP2 MSTORE PUSH1 0x4 ADD PUSH2 0x2175 SWAP2 SWAP1 PUSH2 0x292D JUMP JUMPDEST PUSH1 0x40 MLOAD DUP1 SWAP2 SUB SWAP1 REVERT JUMPDEST PUSH1 0x3 DUP1 DUP2 GT ISZERO PUSH2 0x2191 JUMPI PUSH2 0x2190 PUSH2 0x33CD JUMP JUMPDEST JUMPDEST DUP3 PUSH1 0x3 DUP2 GT ISZERO PUSH2 0x21A4 JUMPI PUSH2 0x21A3 PUSH2 0x33CD JUMP JUMPDEST JUMPDEST SUB PUSH2 0x21E6 JUMPI DUP1 PUSH1 0x40 MLOAD PUSH32 0xD78BCE0C00000000000000000000000000000000000000000000000000000000 DUP2 MSTORE PUSH1 0x4 ADD PUSH2 0x21DD SWAP2 SWAP1 PUSH2 0x2531 JUMP JUMPDEST PUSH1 0x40 MLOAD DUP1 SWAP2 SUB SWAP1 REVERT JUMPDEST JUMPDEST POP POP JUMP JUMPDEST PUSH0 PUSH0 PUSH0 PUSH32 0x7FFFFFFFFFFFFFFFFFFFFFFFFFFFFFFF5D576E7357A4501DDFE92F46681B20A0 DUP5 PUSH0 SHR GT ISZERO PUSH2 0x2227 JUMPI PUSH0 PUSH1 0x3 DUP6 SWAP3 POP SWAP3 POP SWAP3 POP PUSH2 0x22C8 JUMP JUMPDEST PUSH0 PUSH1 0x1 DUP9 DUP9 DUP9 DUP9 PUSH1 0x40 MLOAD PUSH0 DUP2 MSTORE PUSH1 0x20 ADD PUSH1 0x40 MSTORE PUSH1 0x40 MLOAD PUSH2 0x224A SWAP5 SWAP4 SWAP3 SWAP2 SWAP1 PUSH2 0x35B3 JUMP JUMPDEST PUSH1 0x20 PUSH1 0x40 MLOAD PUSH1 0x20 DUP2 SUB SWAP1 DUP1 DUP5 SUB SWAP1 DUP6 GAS STATICCALL ISZERO DUP1 ISZERO PUSH2 0x226A JUMPI RETURNDATASIZE PUSH0 PUSH0 RETURNDATACOPY RETURNDATASIZE PUSH0 REVERT JUMPDEST POP POP POP PUSH1 0x20 PUSH1 0x40 MLOAD SUB MLOAD SWAP1 POP PUSH0 PUSH20 0xFFFFFFFFFFFFFFFFFFFFFFFFFFFFFFFFFFFFFFFF AND DUP2 PUSH20 0xFFFFFFFFFFFFFFFFFFFFFFFFFFFFFFFFFFFFFFFF AND SUB PUSH2 0x22BB JUMPI PUSH0 PUSH1 0x1 PUSH0 PUSH0 SHL SWAP4 POP SWAP4 POP SWAP4 POP POP PUSH2 0x22C8 JUMP JUMPDEST DUP1 PUSH0 PUSH0 PUSH0 SHL SWAP4 POP SWAP4 POP SWAP4 POP POP JUMPDEST SWAP5 POP SWAP5 POP SWAP5 SWAP2 POP POP JUMP JUMPDEST PUSH0 PUSH1 0x40 MLOAD SWAP1 POP SWAP1 JUMP JUMPDEST PUSH0 PUSH0 REVERT JUMPDEST PUSH0 PUSH0 REVERT JUMPDEST PUSH0 PUSH32 0xFFFFFFFF00000000000000000000000000000000000000000000000000000000 DUP3 AND SWAP1 POP SWAP2 SWAP1 POP JUMP JUMPDEST PUSH2 0x2317 DUP2 PUSH2 0x22E3 JUMP JUMPDEST DUP2 EQ PUSH2 0x2321 JUMPI PUSH0 PUSH0 REVERT JUMPDEST POP JUMP JUMPDEST PUSH0 DUP2 CALLDATALOAD SWAP1 POP PUSH2 0x2332 DUP2 PUSH2 0x230E JUMP JUMPDEST SWAP3 SWAP2 POP POP JUMP JUMPDEST PUSH0 PUSH1 0x20 DUP3 DUP5 SUB SLT ISZERO PUSH2 0x234D JUMPI PUSH2 0x234C PUSH2 0x22DB JUMP JUMPDEST JUMPDEST PUSH0 PUSH2 0x235A DUP5 DUP3 DUP6 ADD PUSH2 0x2324 JUMP JUMPDEST SWAP2 POP POP SWAP3 SWAP2 POP POP JUMP JUMPDEST PUSH0 DUP2 ISZERO ISZERO SWAP1 POP SWAP2 SWAP1 POP JUMP JUMPDEST PUSH2 0x2377 DUP2 PUSH2 0x2363 JUMP JUMPDEST DUP3 MSTORE POP POP JUMP JUMPDEST PUSH0 PUSH1 0x20 DUP3 ADD SWAP1 POP PUSH2 0x2390 PUSH0 DUP4 ADD DUP5 PUSH2 0x236E JUMP JUMPDEST SWAP3 SWAP2 POP POP JUMP JUMPDEST PUSH0 PUSH0 REVERT JUMPDEST PUSH0 PUSH0 REVERT JUMPDEST PUSH0 PUSH1 0x1F NOT PUSH1 0x1F DUP4 ADD AND SWAP1 POP SWAP2 SWAP1 POP JUMP JUMPDEST PUSH32 0x4E487B7100000000000000000000000000000000000000000000000000000000 PUSH0 MSTORE PUSH1 0x41 PUSH1 0x4 MSTORE PUSH1 0x24 PUSH0 REVERT JUMPDEST PUSH2 0x23E4 DUP3 PUSH2 0x239E JUMP JUMPDEST DUP2 ADD DUP2 DUP2 LT PUSH8 0xFFFFFFFFFFFFFFFF DUP3 GT OR ISZERO PUSH2 0x2403 JUMPI PUSH2 0x2402 PUSH2 0x23AE JUMP JUMPDEST JUMPDEST DUP1 PUSH1 0x40 MSTORE POP POP POP JUMP JUMPDEST PUSH0 PUSH2 0x2415 PUSH2 0x22D2 JUMP JUMPDEST SWAP1 POP PUSH2 0x2421 DUP3 DUP3 PUSH2 0x23DB JUMP JUMPDEST SWAP2 SWAP1 POP JUMP JUMPDEST PUSH0 PUSH8 0xFFFFFFFFFFFFFFFF DUP3 GT ISZERO PUSH2 0x2440 JUMPI PUSH2 0x243F PUSH2 0x23AE JUMP JUMPDEST JUMPDEST PUSH2 0x2449 DUP3 PUSH2 0x239E JUMP JUMPDEST SWAP1 POP PUSH1 0x20 DUP2 ADD SWAP1 POP SWAP2 SWAP1 POP JUMP JUMPDEST DUP3 DUP2 DUP4 CALLDATACOPY PUSH0 DUP4 DUP4 ADD MSTORE POP POP POP JUMP JUMPDEST PUSH0 PUSH2 0x2476 PUSH2 0x2471 DUP5 PUSH2 0x2426 JUMP JUMPDEST PUSH2 0x240C JUMP JUMPDEST SWAP1 POP DUP3 DUP2 MSTORE PUSH1 0x20 DUP2 ADD DUP5 DUP5 DUP5 ADD GT ISZERO PUSH2 0x2492 JUMPI PUSH2 0x2491 PUSH2 0x239A JUMP JUMPDEST JUMPDEST PUSH2 0x249D DUP5 DUP3 DUP6 PUSH2 0x2456 JUMP JUMPDEST POP SWAP4 SWAP3 POP POP POP JUMP JUMPDEST PUSH0 DUP3 PUSH1 0x1F DUP4 ADD SLT PUSH2 0x24B9 JUMPI PUSH2 0x24B8 PUSH2 0x2396 JUMP JUMPDEST JUMPDEST DUP2 CALLDATALOAD PUSH2 0x24C9 DUP5 DUP3 PUSH1 0x20 DUP7 ADD PUSH2 0x2464 JUMP JUMPDEST SWAP2 POP POP SWAP3 SWAP2 POP POP JUMP JUMPDEST PUSH0 PUSH1 0x20 DUP3 DUP5 SUB SLT ISZERO PUSH2 0x24E7 JUMPI PUSH2 0x24E6 PUSH2 0x22DB JUMP JUMPDEST JUMPDEST PUSH0 DUP3 ADD CALLDATALOAD PUSH8 0xFFFFFFFFFFFFFFFF DUP2 GT ISZERO PUSH2 0x2504 JUMPI PUSH2 0x2503 PUSH2 0x22DF JUMP JUMPDEST JUMPDEST PUSH2 0x2510 DUP5 DUP3 DUP6 ADD PUSH2 0x24A5 JUMP JUMPDEST SWAP2 POP POP SWAP3 SWAP2 POP POP JUMP JUMPDEST PUSH0 DUP2 SWAP1 POP SWAP2 SWAP1 POP JUMP JUMPDEST PUSH2 0x252B DUP2 PUSH2 0x2519 JUMP JUMPDEST DUP3 MSTORE POP POP JUMP JUMPDEST PUSH0 PUSH1 0x20 DUP3 ADD SWAP1 POP PUSH2 0x2544 PUSH0 DUP4 ADD DUP5 PUSH2 0x2522 JUMP JUMPDEST SWAP3 SWAP2 POP POP JUMP JUMPDEST PUSH0 PUSH20 0xFFFFFFFFFFFFFFFFFFFFFFFFFFFFFFFFFFFFFFFF DUP3 AND SWAP1 POP SWAP2 SWAP1 POP JUMP JUMPDEST PUSH0 PUSH2 0x2573 DUP3 PUSH2 0x254A JUMP JUMPDEST SWAP1 POP SWAP2 SWAP1 POP JUMP JUMPDEST PUSH2 0x2583 DUP2 PUSH2 0x2569 JUMP JUMPDEST DUP2 EQ PUSH2 0x258D JUMPI PUSH0 PUSH0 REVERT JUMPDEST POP JUMP JUMPDEST PUSH0 DUP2 CALLDATALOAD SWAP1 POP PUSH2 0x259E DUP2 PUSH2 0x257A JUMP JUMPDEST SWAP3 SWAP2 POP POP JUMP JUMPDEST PUSH0 DUP2 SWAP1 POP SWAP2 SWAP1 POP JUMP JUMPDEST PUSH2 0x25B6 DUP2 PUSH2 0x25A4 JUMP JUMPDEST DUP2 EQ PUSH2 0x25C0 JUMPI PUSH0 PUSH0 REVERT JUMPDEST POP JUMP JUMPDEST PUSH0 DUP2 CALLDATALOAD SWAP1 POP PUSH2 0x25D1 DUP2 PUSH2 0x25AD JUMP JUMPDEST SWAP3 SWAP2 POP POP JUMP JUMPDEST PUSH0 PUSH0 REVERT JUMPDEST PUSH0 PUSH0 REVERT JUMPDEST PUSH0 PUSH0 DUP4 PUSH1 0x1F DUP5 ADD SLT PUSH2 0x25F4 JUMPI PUSH2 0x25F3 PUSH2 0x2396 JUMP JUMPDEST JUMPDEST DUP3 CALLDATALOAD SWAP1 POP PUSH8 0xFFFFFFFFFFFFFFFF DUP2 GT ISZERO PUSH2 0x2611 JUMPI PUSH2 0x2610 PUSH2 0x25D7 JUMP JUMPDEST JUMPDEST PUSH1 0x20 DUP4 ADD SWAP2 POP DUP4 PUSH1 0x1 DUP3 MUL DUP4 ADD GT ISZERO PUSH2 0x262D JUMPI PUSH2 0x262C PUSH2 0x25DB JUMP JUMPDEST JUMPDEST SWAP3 POP SWAP3 SWAP1 POP JUMP JUMPDEST PUSH0 PUSH0 PUSH0 PUSH0 PUSH0 PUSH1 0x80 DUP7 DUP9 SUB SLT ISZERO PUSH2 0x264D JUMPI PUSH2 0x264C PUSH2 0x22DB JUMP JUMPDEST JUMPDEST PUSH0 PUSH2 0x265A DUP9 DUP3 DUP10 ADD PUSH2 0x2590 JUMP JUMPDEST SWAP6 POP POP PUSH1 0x20 PUSH2 0x266B DUP9 DUP3 DUP10 ADD PUSH2 0x2590 JUMP JUMPDEST SWAP5 POP POP PUSH1 0x40 PUSH2 0x267C DUP9 DUP3 DUP10 ADD PUSH2 0x25C3 JUMP JUMPDEST SWAP4 POP POP PUSH1 0x60 DUP7 ADD CALLDATALOAD PUSH8 0xFFFFFFFFFFFFFFFF DUP2 GT ISZERO PUSH2 0x269D JUMPI PUSH2 0x269C PUSH2 0x22DF JUMP JUMPDEST JUMPDEST PUSH2 0x26A9 DUP9 DUP3 DUP10 ADD PUSH2 0x25DF JUMP JUMPDEST SWAP3 POP SWAP3 POP POP SWAP3 SWAP6 POP SWAP3 SWAP6 SWAP1 SWAP4 POP JUMP JUMPDEST PUSH2 0x26C1 DUP2 PUSH2 0x22E3 JUMP JUMPDEST DUP3 MSTORE POP POP JUMP JUMPDEST PUSH0 PUSH1 0x20 DUP3 ADD SWAP1 POP PUSH2 0x26DA PUSH0 DUP4 ADD DUP5 PUSH2 0x26B8 JUMP JUMPDEST SWAP3 SWAP2 POP POP JUMP JUMPDEST PUSH2 0x26E9 DUP2 PUSH2 0x2519 JUMP JUMPDEST DUP2 EQ PUSH2 0x26F3 JUMPI PUSH0 PUSH0 REVERT JUMPDEST POP JUMP JUMPDEST PUSH0 DUP2 CALLDATALOAD SWAP1 POP PUSH2 0x2704 DUP2 PUSH2 0x26E0 JUMP JUMPDEST SWAP3 SWAP2 POP POP JUMP JUMPDEST PUSH0 PUSH0 PUSH0 PUSH1 0x40 DUP5 DUP7 SUB SLT ISZERO PUSH2 0x2721 JUMPI PUSH2 0x2720 PUSH2 0x22DB JUMP JUMPDEST JUMPDEST PUSH0 PUSH2 0x272E DUP7 DUP3 DUP8 ADD PUSH2 0x26F6 JUMP JUMPDEST SWAP4 POP POP PUSH1 0x20 DUP5 ADD CALLDATALOAD PUSH8 0xFFFFFFFFFFFFFFFF DUP2 GT ISZERO PUSH2 0x274F JUMPI PUSH2 0x274E PUSH2 0x22DF JUMP JUMPDEST JUMPDEST PUSH2 0x275B DUP7 DUP3 DUP8 ADD PUSH2 0x25DF JUMP JUMPDEST SWAP3 POP SWAP3 POP POP SWAP3 POP SWAP3 POP SWAP3 JUMP JUMPDEST PUSH0 PUSH0 DUP4 PUSH1 0x1F DUP5 ADD SLT PUSH2 0x277C JUMPI PUSH2 0x277B PUSH2 0x2396 JUMP JUMPDEST JUMPDEST DUP3 CALLDATALOAD SWAP1 POP PUSH8 0xFFFFFFFFFFFFFFFF DUP2 GT ISZERO PUSH2 0x2799 JUMPI PUSH2 0x2798 PUSH2 0x25D7 JUMP JUMPDEST JUMPDEST PUSH1 0x20 DUP4 ADD SWAP2 POP DUP4 PUSH1 0x20 DUP3 MUL DUP4 ADD GT ISZERO PUSH2 0x27B5 JUMPI PUSH2 0x27B4 PUSH2 0x25DB JUMP JUMPDEST JUMPDEST SWAP3 POP SWAP3 SWAP1 POP JUMP JUMPDEST PUSH0 PUSH0 DUP4 PUSH1 0x1F DUP5 ADD SLT PUSH2 0x27D1 JUMPI PUSH2 0x27D0 PUSH2 0x2396 JUMP JUMPDEST JUMPDEST DUP3 CALLDATALOAD SWAP1 POP PUSH8 0xFFFFFFFFFFFFFFFF DUP2 GT ISZERO PUSH2 0x27EE JUMPI PUSH2 0x27ED PUSH2 0x25D7 JUMP JUMPDEST JUMPDEST PUSH1 0x20 DUP4 ADD SWAP2 POP DUP4 PUSH1 0x20 DUP3 MUL DUP4 ADD GT ISZERO PUSH2 0x280A JUMPI PUSH2 0x2809 PUSH2 0x25DB JUMP JUMPDEST JUMPDEST SWAP3 POP SWAP3 SWAP1 POP JUMP JUMPDEST PUSH0 PUSH0 PUSH0 PUSH0 PUSH1 0x40 DUP6 DUP8 SUB SLT ISZERO PUSH2 0x2829 JUMPI PUSH2 0x2828 PUSH2 0x22DB JUMP JUMPDEST JUMPDEST PUSH0 DUP6 ADD CALLDATALOAD PUSH8 0xFFFFFFFFFFFFFFFF DUP2 GT ISZERO PUSH2 0x2846 JUMPI PUSH2 0x2845 PUSH2 0x22DF JUMP JUMPDEST JUMPDEST PUSH2 0x2852 DUP8 DUP3 DUP9 ADD PUSH2 0x2767 JUMP JUMPDEST SWAP5 POP SWAP5 POP POP PUSH1 0x20 DUP6 ADD CALLDATALOAD PUSH8 0xFFFFFFFFFFFFFFFF DUP2 GT ISZERO PUSH2 0x2875 JUMPI PUSH2 0x2874 PUSH2 0x22DF JUMP JUMPDEST JUMPDEST PUSH2 0x2881 DUP8 DUP3 DUP9 ADD PUSH2 0x27BC JUMP JUMPDEST SWAP3 POP SWAP3 POP POP SWAP3 SWAP6 SWAP2 SWAP5 POP SWAP3 POP JUMP JUMPDEST PUSH0 PUSH0 REVERT JUMPDEST PUSH0 PUSH2 0x120 DUP3 DUP5 SUB SLT ISZERO PUSH2 0x28A9 JUMPI PUSH2 0x28A8 PUSH2 0x288F JUMP JUMPDEST JUMPDEST DUP2 SWAP1 POP SWAP3 SWAP2 POP POP JUMP JUMPDEST PUSH0 PUSH0 PUSH0 PUSH1 0x60 DUP5 DUP7 SUB SLT ISZERO PUSH2 0x28C9 JUMPI PUSH2 0x28C8 PUSH2 0x22DB JUMP JUMPDEST JUMPDEST PUSH0 DUP5 ADD CALLDATALOAD PUSH8 0xFFFFFFFFFFFFFFFF DUP2 GT ISZERO PUSH2 0x28E6 JUMPI PUSH2 0x28E5 PUSH2 0x22DF JUMP JUMPDEST JUMPDEST PUSH2 0x28F2 DUP7 DUP3 DUP8 ADD PUSH2 0x2893 JUMP JUMPDEST SWAP4 POP POP PUSH1 0x20 PUSH2 0x2903 DUP7 DUP3 DUP8 ADD PUSH2 0x26F6 JUMP JUMPDEST SWAP3 POP POP PUSH1 0x40 PUSH2 0x2914 DUP7 DUP3 DUP8 ADD PUSH2 0x25C3 JUMP JUMPDEST SWAP2 POP POP SWAP3 POP SWAP3 POP SWAP3 JUMP JUMPDEST PUSH2 0x2927 DUP2 PUSH2 0x25A4 JUMP JUMPDEST DUP3 MSTORE POP POP JUMP JUMPDEST PUSH0 PUSH1 0x20 DUP3 ADD SWAP1 POP PUSH2 0x2940 PUSH0 DUP4 ADD DUP5 PUSH2 0x291E JUMP JUMPDEST SWAP3 SWAP2 POP POP JUMP JUMPDEST PUSH0 PUSH0 DUP4 PUSH1 0x1F DUP5 ADD SLT PUSH2 0x295B JUMPI PUSH2 0x295A PUSH2 0x2396 JUMP JUMPDEST JUMPDEST DUP3 CALLDATALOAD SWAP1 POP PUSH8 0xFFFFFFFFFFFFFFFF DUP2 GT ISZERO PUSH2 0x2978 JUMPI PUSH2 0x2977 PUSH2 0x25D7 JUMP JUMPDEST JUMPDEST PUSH1 0x20 DUP4 ADD SWAP2 POP DUP4 PUSH1 0x20 DUP3 MUL DUP4 ADD GT ISZERO PUSH2 0x2994 JUMPI PUSH2 0x2993 PUSH2 0x25DB JUMP JUMPDEST JUMPDEST SWAP3 POP SWAP3 SWAP1 POP JUMP JUMPDEST PUSH0 PUSH0 PUSH1 0x20 DUP4 DUP6 SUB SLT ISZERO PUSH2 0x29B1 JUMPI PUSH2 0x29B0 PUSH2 0x22DB JUMP JUMPDEST JUMPDEST PUSH0 DUP4 ADD CALLDATALOAD PUSH8 0xFFFFFFFFFFFFFFFF DUP2 GT ISZERO PUSH2 0x29CE JUMPI PUSH2 0x29CD PUSH2 0x22DF JUMP JUMPDEST JUMPDEST PUSH2 0x29DA DUP6 DUP3 DUP7 ADD PUSH2 0x2946 JUMP JUMPDEST SWAP3 POP SWAP3 POP POP SWAP3 POP SWAP3 SWAP1 POP JUMP JUMPDEST PUSH0 PUSH0 DUP4 PUSH1 0x1F DUP5 ADD SLT PUSH2 0x29FB JUMPI PUSH2 0x29FA PUSH2 0x2396 JUMP JUMPDEST JUMPDEST DUP3 CALLDATALOAD SWAP1 POP PUSH8 0xFFFFFFFFFFFFFFFF DUP2 GT ISZERO PUSH2 0x2A18 JUMPI PUSH2 0x2A17 PUSH2 0x25D7 JUMP JUMPDEST JUMPDEST PUSH1 0x20 DUP4 ADD SWAP2 POP DUP4 PUSH1 0x20 DUP3 MUL DUP4 ADD GT ISZERO PUSH2 0x2A34 JUMPI PUSH2 0x2A33 PUSH2 0x25DB JUMP JUMPDEST JUMPDEST SWAP3 POP SWAP3 SWAP1 POP JUMP JUMPDEST PUSH0 PUSH0 PUSH0 PUSH0 PUSH0 PUSH0 PUSH1 0x60 DUP8 DUP10 SUB SLT ISZERO PUSH2 0x2A55 JUMPI PUSH2 0x2A54 PUSH2 0x22DB JUMP JUMPDEST JUMPDEST PUSH0 DUP8 ADD CALLDATALOAD PUSH8 0xFFFFFFFFFFFFFFFF DUP2 GT ISZERO PUSH2 0x2A72 JUMPI PUSH2 0x2A71 PUSH2 0x22DF JUMP JUMPDEST JUMPDEST PUSH2 0x2A7E DUP10 DUP3 DUP11 ADD PUSH2 0x2767 JUMP JUMPDEST SWAP7 POP SWAP7 POP POP PUSH1 0x20 DUP8 ADD CALLDATALOAD PUSH8 0xFFFFFFFFFFFFFFFF DUP2 GT ISZERO PUSH2 0x2AA1 JUMPI PUSH2 0x2AA0 PUSH2 0x22DF JUMP JUMPDEST JUMPDEST PUSH2 0x2AAD DUP10 DUP3 DUP11 ADD PUSH2 0x29E6 JUMP JUMPDEST SWAP5 POP SWAP5 POP POP PUSH1 0x40 DUP8 ADD CALLDATALOAD PUSH8 0xFFFFFFFFFFFFFFFF DUP2 GT ISZERO PUSH2 0x2AD0 JUMPI PUSH2 0x2ACF PUSH2 0x22DF JUMP JUMPDEST JUMPDEST PUSH2 0x2ADC DUP10 DUP3 DUP11 ADD PUSH2 0x27BC JUMP JUMPDEST SWAP3 POP SWAP3 POP POP SWAP3 SWAP6 POP SWAP3 SWAP6 POP SWAP3 SWAP6 JUMP JUMPDEST PUSH0 PUSH0 PUSH0 PUSH0 PUSH1 0x60 DUP6 DUP8 SUB SLT ISZERO PUSH2 0x2B03 JUMPI PUSH2 0x2B02 PUSH2 0x22DB JUMP JUMPDEST JUMPDEST PUSH0 PUSH2 0x2B10 DUP8 DUP3 DUP9 ADD PUSH2 0x25C3 JUMP JUMPDEST SWAP5 POP POP PUSH1 0x20 DUP6 ADD CALLDATALOAD PUSH8 0xFFFFFFFFFFFFFFFF DUP2 GT ISZERO PUSH2 0x2B31 JUMPI PUSH2 0x2B30 PUSH2 0x22DF JUMP JUMPDEST JUMPDEST PUSH2 0x2B3D DUP8 DUP3 DUP9 ADD PUSH2 0x25DF JUMP JUMPDEST SWAP4 POP SWAP4 POP POP PUSH1 0x40 PUSH2 0x2B50 DUP8 DUP3 DUP9 ADD PUSH2 0x26F6 JUMP JUMPDEST SWAP2 POP POP SWAP3 SWAP6 SWAP2 SWAP5 POP SWAP3 POP JUMP JUMPDEST PUSH2 0x2B65 DUP2 PUSH2 0x2569 JUMP JUMPDEST DUP3 MSTORE POP POP JUMP JUMPDEST PUSH0 PUSH1 0x20 DUP3 ADD SWAP1 POP PUSH2 0x2B7E PUSH0 DUP4 ADD DUP5 PUSH2 0x2B5C JUMP JUMPDEST SWAP3 SWAP2 POP POP JUMP JUMPDEST PUSH0 PUSH0 PUSH0 PUSH1 0x40 DUP5 DUP7 SUB SLT ISZERO PUSH2 0x2B9B JUMPI PUSH2 0x2B9A PUSH2 0x22DB JUMP JUMPDEST JUMPDEST PUSH0 PUSH2 0x2BA8 DUP7 DUP3 DUP8 ADD PUSH2 0x25C3 JUMP JUMPDEST SWAP4 POP POP PUSH1 0x20 DUP5 ADD CALLDATALOAD PUSH8 0xFFFFFFFFFFFFFFFF DUP2 GT ISZERO PUSH2 0x2BC9 JUMPI PUSH2 0x2BC8 PUSH2 0x22DF JUMP JUMPDEST JUMPDEST PUSH2 0x2BD5 DUP7 DUP3 DUP8 ADD PUSH2 0x25DF JUMP JUMPDEST SWAP3 POP SWAP3 POP POP SWAP3 POP SWAP3 POP SWAP3 JUMP JUMPDEST PUSH0 PUSH2 0x2BEB DUP3 PUSH2 0x254A JUMP JUMPDEST SWAP1 POP SWAP2 SWAP1 POP JUMP JUMPDEST PUSH2 0x2BFB DUP2 PUSH2 0x2BE1 JUMP JUMPDEST DUP2 EQ PUSH2 0x2C05 JUMPI PUSH0 PUSH0 REVERT JUMPDEST POP JUMP JUMPDEST PUSH0 DUP2 CALLDATALOAD SWAP1 POP PUSH2 0x2C16 DUP2 PUSH2 0x2BF2 JUMP JUMPDEST SWAP3 SWAP2 POP POP JUMP JUMPDEST PUSH0 PUSH0 PUSH1 0x40 DUP4 DUP6 SUB SLT ISZERO PUSH2 0x2C32 JUMPI PUSH2 0x2C31 PUSH2 0x22DB JUMP JUMPDEST JUMPDEST PUSH0 PUSH2 0x2C3F DUP6 DUP3 DUP7 ADD PUSH2 0x2C08 JUMP JUMPDEST SWAP3 POP POP PUSH1 0x20 PUSH2 0x2C50 DUP6 DUP3 DUP7 ADD PUSH2 0x25C3 JUMP JUMPDEST SWAP2 POP POP SWAP3 POP SWAP3 SWAP1 POP JUMP JUMPDEST PUSH0 PUSH0 PUSH0 PUSH1 0x40 DUP5 DUP7 SUB SLT ISZERO PUSH2 0x2C71 JUMPI PUSH2 0x2C70 PUSH2 0x22DB JUMP JUMPDEST JUMPDEST PUSH0 PUSH2 0x2C7E DUP7 DUP3 DUP8 ADD PUSH2 0x2590 JUMP JUMPDEST SWAP4 POP POP PUSH1 0x20 DUP5 ADD CALLDATALOAD PUSH8 0xFFFFFFFFFFFFFFFF DUP2 GT ISZERO PUSH2 0x2C9F JUMPI PUSH2 0x2C9E PUSH2 0x22DF JUMP JUMPDEST JUMPDEST PUSH2 0x2CAB DUP7 DUP3 DUP8 ADD PUSH2 0x25DF JUMP JUMPDEST SWAP3 POP SWAP3 POP POP SWAP3 POP SWAP3 POP SWAP3 JUMP JUMPDEST PUSH0 PUSH32 0xFF00000000000000000000000000000000000000000000000000000000000000 DUP3 AND SWAP1 POP SWAP2 SWAP1 POP JUMP JUMPDEST PUSH2 0x2CEB DUP2 PUSH2 0x2CB7 JUMP JUMPDEST DUP3 MSTORE POP POP JUMP JUMPDEST PUSH0 DUP2 MLOAD SWAP1 POP SWAP2 SWAP1 POP JUMP JUMPDEST PUSH0 DUP3 DUP3 MSTORE PUSH1 0x20 DUP3 ADD SWAP1 POP SWAP3 SWAP2 POP POP JUMP JUMPDEST DUP3 DUP2 DUP4 MCOPY PUSH0 DUP4 DUP4 ADD MSTORE POP POP POP JUMP JUMPDEST PUSH0 PUSH2 0x2D23 DUP3 PUSH2 0x2CF1 JUMP JUMPDEST PUSH2 0x2D2D DUP2 DUP6 PUSH2 0x2CFB JUMP JUMPDEST SWAP4 POP PUSH2 0x2D3D DUP2 DUP6 PUSH1 0x20 DUP7 ADD PUSH2 0x2D0B JUMP JUMPDEST PUSH2 0x2D46 DUP2 PUSH2 0x239E JUMP JUMPDEST DUP5 ADD SWAP2 POP POP SWAP3 SWAP2 POP POP JUMP JUMPDEST PUSH0 DUP2 MLOAD SWAP1 POP SWAP2 SWAP1 POP JUMP JUMPDEST PUSH0 DUP3 DUP3 MSTORE PUSH1 0x20 DUP3 ADD SWAP1 POP SWAP3 SWAP2 POP POP JUMP JUMPDEST PUSH0 DUP2 SWAP1 POP PUSH1 0x20 DUP3 ADD SWAP1 POP SWAP2 SWAP1 POP JUMP JUMPDEST PUSH2 0x2D83 DUP2 PUSH2 0x25A4 JUMP JUMPDEST DUP3 MSTORE POP POP JUMP JUMPDEST PUSH0 PUSH2 0x2D94 DUP4 DUP4 PUSH2 0x2D7A JUMP JUMPDEST PUSH1 0x20 DUP4 ADD SWAP1 POP SWAP3 SWAP2 POP POP JUMP JUMPDEST PUSH0 PUSH1 0x20 DUP3 ADD SWAP1 POP SWAP2 SWAP1 POP JUMP JUMPDEST PUSH0 PUSH2 0x2DB6 DUP3 PUSH2 0x2D51 JUMP JUMPDEST PUSH2 0x2DC0 DUP2 DUP6 PUSH2 0x2D5B JUMP JUMPDEST SWAP4 POP PUSH2 0x2DCB DUP4 PUSH2 0x2D6B JUMP JUMPDEST DUP1 PUSH0 JUMPDEST DUP4 DUP2 LT ISZERO PUSH2 0x2DFB JUMPI DUP2 MLOAD PUSH2 0x2DE2 DUP9 DUP3 PUSH2 0x2D89 JUMP JUMPDEST SWAP8 POP PUSH2 0x2DED DUP4 PUSH2 0x2DA0 JUMP JUMPDEST SWAP3 POP POP PUSH1 0x1 DUP2 ADD SWAP1 POP PUSH2 0x2DCE JUMP JUMPDEST POP DUP6 SWAP4 POP POP POP POP SWAP3 SWAP2 POP POP JUMP JUMPDEST PUSH0 PUSH1 0xE0 DUP3 ADD SWAP1 POP PUSH2 0x2E1B PUSH0 DUP4 ADD DUP11 PUSH2 0x2CE2 JUMP JUMPDEST DUP2 DUP2 SUB PUSH1 0x20 DUP4 ADD MSTORE PUSH2 0x2E2D DUP2 DUP10 PUSH2 0x2D19 JUMP JUMPDEST SWAP1 POP DUP2 DUP2 SUB PUSH1 0x40 DUP4 ADD MSTORE PUSH2 0x2E41 DUP2 DUP9 PUSH2 0x2D19 JUMP JUMPDEST SWAP1 POP PUSH2 0x2E50 PUSH1 0x60 DUP4 ADD DUP8 PUSH2 0x291E JUMP JUMPDEST PUSH2 0x2E5D PUSH1 0x80 DUP4 ADD DUP7 PUSH2 0x2B5C JUMP JUMPDEST PUSH2 0x2E6A PUSH1 0xA0 DUP4 ADD DUP6 PUSH2 0x2522 JUMP JUMPDEST DUP2 DUP2 SUB PUSH1 0xC0 DUP4 ADD MSTORE PUSH2 0x2E7C DUP2 DUP5 PUSH2 0x2DAC JUMP JUMPDEST SWAP1 POP SWAP9 SWAP8 POP POP POP POP POP POP POP POP JUMP JUMPDEST PUSH0 DUP2 SWAP1 POP SWAP2 SWAP1 POP JUMP JUMPDEST PUSH0 PUSH2 0x2EAD PUSH2 0x2EA8 PUSH2 0x2EA3 DUP5 PUSH2 0x254A JUMP JUMPDEST PUSH2 0x2E8A JUMP JUMPDEST PUSH2 0x254A JUMP JUMPDEST SWAP1 POP SWAP2 SWAP1 POP JUMP JUMPDEST PUSH0 PUSH2 0x2EBE DUP3 PUSH2 0x2E93 JUMP JUMPDEST SWAP1 POP SWAP2 SWAP1 POP JUMP JUMPDEST PUSH0 PUSH2 0x2ECF DUP3 PUSH2 0x2EB4 JUMP JUMPDEST SWAP1 POP SWAP2 SWAP1 POP JUMP JUMPDEST PUSH2 0x2EDF DUP2 PUSH2 0x2EC5 JUMP JUMPDEST DUP3 MSTORE POP POP JUMP JUMPDEST PUSH0 PUSH1 0x20 DUP3 ADD SWAP1 POP PUSH2 0x2EF8 PUSH0 DUP4 ADD DUP5 PUSH2 0x2ED6 JUMP JUMPDEST SWAP3 SWAP2 POP POP JUMP JUMPDEST PUSH0 PUSH0 PUSH0 PUSH0 PUSH1 0x60 DUP6 DUP8 SUB SLT ISZERO PUSH2 0x2F16 JUMPI PUSH2 0x2F15 PUSH2 0x22DB JUMP JUMPDEST JUMPDEST PUSH0 PUSH2 0x2F23 DUP8 DUP3 DUP9 ADD PUSH2 0x2590 JUMP JUMPDEST SWAP5 POP POP PUSH1 0x20 PUSH2 0x2F34 DUP8 DUP3 DUP9 ADD PUSH2 0x25C3 JUMP JUMPDEST SWAP4 POP POP PUSH1 0x40 DUP6 ADD CALLDATALOAD PUSH8 0xFFFFFFFFFFFFFFFF DUP2 GT ISZERO PUSH2 0x2F55 JUMPI PUSH2 0x2F54 PUSH2 0x22DF JUMP JUMPDEST JUMPDEST PUSH2 0x2F61 DUP8 DUP3 DUP9 ADD PUSH2 0x25DF JUMP JUMPDEST SWAP3 POP SWAP3 POP POP SWAP3 SWAP6 SWAP2 SWAP5 POP SWAP3 POP JUMP JUMPDEST PUSH0 PUSH0 PUSH0 PUSH0 PUSH0 PUSH0 PUSH0 PUSH0 PUSH1 0xA0 DUP10 DUP12 SUB SLT ISZERO PUSH2 0x2F8B JUMPI PUSH2 0x2F8A PUSH2 0x22DB JUMP JUMPDEST JUMPDEST PUSH0 PUSH2 0x2F98 DUP12 DUP3 DUP13 ADD PUSH2 0x2590 JUMP JUMPDEST SWAP9 POP POP PUSH1 0x20 PUSH2 0x2FA9 DUP12 DUP3 DUP13 ADD PUSH2 0x2590 JUMP JUMPDEST SWAP8 POP POP PUSH1 0x40 DUP10 ADD CALLDATALOAD PUSH8 0xFFFFFFFFFFFFFFFF DUP2 GT ISZERO PUSH2 0x2FCA JUMPI PUSH2 0x2FC9 PUSH2 0x22DF JUMP JUMPDEST JUMPDEST PUSH2 0x2FD6 DUP12 DUP3 DUP13 ADD PUSH2 0x29E6 JUMP JUMPDEST SWAP7 POP SWAP7 POP POP PUSH1 0x60 DUP10 ADD CALLDATALOAD PUSH8 0xFFFFFFFFFFFFFFFF DUP2 GT ISZERO PUSH2 0x2FF9 JUMPI PUSH2 0x2FF8 PUSH2 0x22DF JUMP JUMPDEST JUMPDEST PUSH2 0x3005 DUP12 DUP3 DUP13 ADD PUSH2 0x29E6 JUMP JUMPDEST SWAP5 POP SWAP5 POP POP PUSH1 0x80 DUP10 ADD CALLDATALOAD PUSH8 0xFFFFFFFFFFFFFFFF DUP2 GT ISZERO PUSH2 0x3028 JUMPI PUSH2 0x3027 PUSH2 0x22DF JUMP JUMPDEST JUMPDEST PUSH2 0x3034 DUP12 DUP3 DUP13 ADD PUSH2 0x25DF JUMP JUMPDEST SWAP3 POP SWAP3 POP POP SWAP3 SWAP6 SWAP9 POP SWAP3 SWAP6 SWAP9 SWAP1 SWAP4 SWAP7 POP JUMP JUMPDEST PUSH0 PUSH1 0x20 DUP3 DUP5 SUB SLT ISZERO PUSH2 0x305B JUMPI PUSH2 0x305A PUSH2 0x22DB JUMP JUMPDEST JUMPDEST PUSH0 PUSH2 0x3068 DUP5 DUP3 DUP6 ADD PUSH2 0x2590 JUMP JUMPDEST SWAP2 POP POP SWAP3 SWAP2 POP POP JUMP JUMPDEST PUSH0 PUSH0 PUSH0 PUSH0 PUSH0 PUSH0 PUSH1 0xA0 DUP8 DUP10 SUB SLT ISZERO PUSH2 0x308B JUMPI PUSH2 0x308A PUSH2 0x22DB JUMP JUMPDEST JUMPDEST PUSH0 PUSH2 0x3098 DUP10 DUP3 DUP11 ADD PUSH2 0x2590 JUMP JUMPDEST SWAP7 POP POP PUSH1 0x20 PUSH2 0x30A9 DUP10 DUP3 DUP11 ADD PUSH2 0x2590 JUMP JUMPDEST SWAP6 POP POP PUSH1 0x40 PUSH2 0x30BA DUP10 DUP3 DUP11 ADD PUSH2 0x25C3 JUMP JUMPDEST SWAP5 POP POP PUSH1 0x60 PUSH2 0x30CB DUP10 DUP3 DUP11 ADD PUSH2 0x25C3 JUMP JUMPDEST SWAP4 POP POP PUSH1 0x80 DUP8 ADD CALLDATALOAD PUSH8 0xFFFFFFFFFFFFFFFF DUP2 GT ISZERO PUSH2 0x30EC JUMPI PUSH2 0x30EB PUSH2 0x22DF JUMP JUMPDEST JUMPDEST PUSH2 0x30F8 DUP10 DUP3 DUP11 ADD PUSH2 0x25DF JUMP JUMPDEST SWAP3 POP SWAP3 POP POP SWAP3 SWAP6 POP SWAP3 SWAP6 POP SWAP3 SWAP6 JUMP JUMPDEST PUSH0 PUSH1 0x40 DUP3 ADD SWAP1 POP PUSH2 0x311A PUSH0 DUP4 ADD DUP6 PUSH2 0x2522 JUMP JUMPDEST PUSH2 0x3127 PUSH1 0x20 DUP4 ADD DUP5 PUSH2 0x2522 JUMP JUMPDEST SWAP4 SWAP3 POP POP POP JUMP JUMPDEST PUSH32 0x4E487B7100000000000000000000000000000000000000000000000000000000 PUSH0 MSTORE PUSH1 0x32 PUSH1 0x4 MSTORE PUSH1 0x24 PUSH0 REVERT JUMPDEST PUSH0 PUSH0 REVERT JUMPDEST PUSH0 PUSH0 REVERT JUMPDEST PUSH0 PUSH0 REVERT JUMPDEST PUSH0 PUSH0 DUP4 CALLDATALOAD PUSH1 0x1 PUSH1 0x20 SUB DUP5 CALLDATASIZE SUB SUB DUP2 SLT PUSH2 0x3183 JUMPI PUSH2 0x3182 PUSH2 0x315B JUMP JUMPDEST JUMPDEST DUP1 DUP5 ADD SWAP3 POP DUP3 CALLDATALOAD SWAP2 POP PUSH8 0xFFFFFFFFFFFFFFFF DUP3 GT ISZERO PUSH2 0x31A5 JUMPI PUSH2 0x31A4 PUSH2 0x315F JUMP JUMPDEST JUMPDEST PUSH1 0x20 DUP4 ADD SWAP3 POP PUSH1 0x1 DUP3 MUL CALLDATASIZE SUB DUP4 SGT ISZERO PUSH2 0x31C1 JUMPI PUSH2 0x31C0 PUSH2 0x3163 JUMP JUMPDEST JUMPDEST POP SWAP3 POP SWAP3 SWAP1 POP JUMP JUMPDEST PUSH0 DUP3 CALLDATALOAD PUSH1 0x1 PUSH1 0x60 SUB DUP4 CALLDATASIZE SUB SUB DUP2 SLT PUSH2 0x31E4 JUMPI PUSH2 0x31E3 PUSH2 0x315B JUMP JUMPDEST JUMPDEST DUP1 DUP4 ADD SWAP2 POP POP SWAP3 SWAP2 POP POP JUMP JUMPDEST PUSH0 DUP2 MLOAD SWAP1 POP SWAP2 SWAP1 POP JUMP JUMPDEST PUSH0 DUP3 DUP3 MSTORE PUSH1 0x20 DUP3 ADD SWAP1 POP SWAP3 SWAP2 POP POP JUMP JUMPDEST PUSH0 PUSH2 0x3214 DUP3 PUSH2 0x31F0 JUMP JUMPDEST PUSH2 0x321E DUP2 DUP6 PUSH2 0x31FA JUMP JUMPDEST SWAP4 POP PUSH2 0x322E DUP2 DUP6 PUSH1 0x20 DUP7 ADD PUSH2 0x2D0B JUMP JUMPDEST PUSH2 0x3237 DUP2 PUSH2 0x239E JUMP JUMPDEST DUP5 ADD SWAP2 POP POP SWAP3 SWAP2 POP POP JUMP JUMPDEST PUSH0 PUSH1 0x40 DUP3 ADD SWAP1 POP PUSH2 0x3255 PUSH0 DUP4 ADD DUP6 PUSH2 0x291E JUMP JUMPDEST DUP2 DUP2 SUB PUSH1 0x20 DUP4 ADD MSTORE PUSH2 0x3267 DUP2 DUP5 PUSH2 0x320A JUMP JUMPDEST SWAP1 POP SWAP4 SWAP3 POP POP POP JUMP JUMPDEST PUSH2 0x3279 DUP2 PUSH2 0x2BE1 JUMP JUMPDEST DUP3 MSTORE POP POP JUMP JUMPDEST PUSH0 PUSH1 0x40 DUP3 ADD SWAP1 POP PUSH2 0x3292 PUSH0 DUP4 ADD DUP6 PUSH2 0x3270 JUMP JUMPDEST PUSH2 0x329F PUSH1 0x20 DUP4 ADD DUP5 PUSH2 0x291E JUMP JUMPDEST SWAP4 SWAP3 POP POP POP JUMP JUMPDEST PUSH0 DUP2 MLOAD SWAP1 POP PUSH2 0x32B4 DUP2 PUSH2 0x25AD JUMP JUMPDEST SWAP3 SWAP2 POP POP JUMP JUMPDEST PUSH0 PUSH1 0x20 DUP3 DUP5 SUB SLT ISZERO PUSH2 0x32CF JUMPI PUSH2 0x32CE PUSH2 0x22DB JUMP JUMPDEST JUMPDEST PUSH0 PUSH2 0x32DC DUP5 DUP3 DUP6 ADD PUSH2 0x32A6 JUMP JUMPDEST SWAP2 POP POP SWAP3 SWAP2 POP POP JUMP JUMPDEST PUSH0 DUP2 SWAP1 POP SWAP2 SWAP1 POP JUMP JUMPDEST PUSH0 PUSH8 0xFFFFFFFFFFFFFFFF DUP3 AND SWAP1 POP SWAP2 SWAP1 POP JUMP JUMPDEST PUSH0 PUSH2 0x331B PUSH2 0x3316 PUSH2 0x3311 DUP5 PUSH2 0x32E5 JUMP JUMPDEST PUSH2 0x2E8A JUMP JUMPDEST PUSH2 0x32EE JUMP JUMPDEST SWAP1 POP SWAP2 SWAP1 POP JUMP JUMPDEST PUSH2 0x332B DUP2 PUSH2 0x3301 JUMP JUMPDEST DUP3 MSTORE POP POP JUMP JUMPDEST PUSH0 PUSH1 0x20 DUP3 ADD SWAP1 POP PUSH2 0x3344 PUSH0 DUP4 ADD DUP5 PUSH2 0x3322 JUMP JUMPDEST SWAP3 SWAP2 POP POP JUMP JUMPDEST PUSH0 DUP2 SWAP1 POP SWAP2 SWAP1 POP JUMP JUMPDEST PUSH0 PUSH24 0xFFFFFFFFFFFFFFFFFFFFFFFFFFFFFFFFFFFFFFFFFFFFFFFF DUP3 AND SWAP1 POP SWAP2 SWAP1 POP JUMP JUMPDEST PUSH0 PUSH2 0x3390 PUSH2 0x338B PUSH2 0x3386 DUP5 PUSH2 0x334A JUMP JUMPDEST PUSH2 0x2E8A JUMP JUMPDEST PUSH2 0x3353 JUMP JUMPDEST SWAP1 POP SWAP2 SWAP1 POP JUMP JUMPDEST PUSH2 0x33A0 DUP2 PUSH2 0x3376 JUMP JUMPDEST DUP3 MSTORE POP POP JUMP JUMPDEST PUSH0 PUSH1 0x40 DUP3 ADD SWAP1 POP PUSH2 0x33B9 PUSH0 DUP4 ADD DUP6 PUSH2 0x2B5C JUMP JUMPDEST PUSH2 0x33C6 PUSH1 0x20 DUP4 ADD DUP5 PUSH2 0x3397 JUMP JUMPDEST SWAP4 SWAP3 POP POP POP JUMP JUMPDEST PUSH32 0x4E487B7100000000000000000000000000000000000000000000000000000000 PUSH0 MSTORE PUSH1 0x21 PUSH1 0x4 MSTORE PUSH1 0x24 PUSH0 REVERT JUMPDEST PUSH0 PUSH0 REVERT JUMPDEST PUSH0 PUSH0 REVERT JUMPDEST PUSH0 PUSH0 DUP6 DUP6 GT ISZERO PUSH2 0x3415 JUMPI PUSH2 0x3414 PUSH2 0x33FA JUMP JUMPDEST JUMPDEST DUP4 DUP7 GT ISZERO PUSH2 0x3426 JUMPI PUSH2 0x3425 PUSH2 0x33FE JUMP JUMPDEST JUMPDEST PUSH1 0x1 DUP6 MUL DUP4 ADD SWAP2 POP DUP5 DUP7 SUB SWAP1 POP SWAP5 POP SWAP5 SWAP3 POP POP POP JUMP JUMPDEST PUSH32 0x6163636F756E743A206E6F742066726F6D20456E747279506F696E7400000000 PUSH0 DUP3 ADD MSTORE POP JUMP JUMPDEST PUSH0 PUSH2 0x3470 PUSH1 0x1C DUP4 PUSH2 0x2CFB JUMP JUMPDEST SWAP2 POP PUSH2 0x347B DUP3 PUSH2 0x343C JUMP JUMPDEST PUSH1 0x20 DUP3 ADD SWAP1 POP SWAP2 SWAP1 POP JUMP JUMPDEST PUSH0 PUSH1 0x20 DUP3 ADD SWAP1 POP DUP2 DUP2 SUB PUSH0 DUP4 ADD MSTORE PUSH2 0x349D DUP2 PUSH2 0x3464 JUMP JUMPDEST SWAP1 POP SWAP2 SWAP1 POP JUMP JUMPDEST PUSH0 DUP2 SWAP1 POP SWAP3 SWAP2 POP POP JUMP JUMPDEST POP JUMP JUMPDEST PUSH0 PUSH2 0x34BC PUSH0 DUP4 PUSH2 0x34A4 JUMP JUMPDEST SWAP2 POP PUSH2 0x34C7 DUP3 PUSH2 0x34AE JUMP JUMPDEST PUSH0 DUP3 ADD SWAP1 POP SWAP2 SWAP1 POP JUMP JUMPDEST PUSH0 PUSH2 0x34DB DUP3 PUSH2 0x34B1 JUMP JUMPDEST SWAP2 POP DUP2 SWAP1 POP SWAP2 SWAP1 POP JUMP JUMPDEST PUSH0 PUSH1 0x40 DUP3 ADD SWAP1 POP PUSH2 0x34F8 PUSH0 DUP4 ADD DUP6 PUSH2 0x2522 JUMP JUMPDEST DUP2 DUP2 SUB PUSH1 0x20 DUP4 ADD MSTORE PUSH2 0x350A DUP2 DUP5 PUSH2 0x320A JUMP JUMPDEST SWAP1 POP SWAP4 SWAP3 POP POP POP JUMP JUMPDEST PUSH0 PUSH2 0x351D DUP3 PUSH2 0x31F0 JUMP JUMPDEST PUSH2 0x3527 DUP2 DUP6 PUSH2 0x34A4 JUMP JUMPDEST SWAP4 POP PUSH2 0x3537 DUP2 DUP6 PUSH1 0x20 DUP7 ADD PUSH2 0x2D0B JUMP JUMPDEST DUP1 DUP5 ADD SWAP2 POP POP SWAP3 SWAP2 POP POP JUMP JUMPDEST PUSH0 PUSH2 0x354E DUP3 DUP5 PUSH2 0x3513 JUMP JUMPDEST SWAP2 POP DUP2 SWAP1 POP SWAP3 SWAP2 POP POP JUMP JUMPDEST PUSH0 DUP2 MLOAD SWAP1 POP PUSH2 0x3567 DUP2 PUSH2 0x26E0 JUMP JUMPDEST SWAP3 SWAP2 POP POP JUMP JUMPDEST PUSH0 PUSH1 0x20 DUP3 DUP5 SUB SLT ISZERO PUSH2 0x3582 JUMPI PUSH2 0x3581 PUSH2 0x22DB JUMP JUMPDEST JUMPDEST PUSH0 PUSH2 0x358F DUP5 DUP3 DUP6 ADD PUSH2 0x3559 JUMP JUMPDEST SWAP2 POP POP SWAP3 SWAP2 POP POP JUMP JUMPDEST PUSH0 PUSH1 0xFF DUP3 AND SWAP1 POP SWAP2 SWAP1 POP JUMP JUMPDEST PUSH2 0x35AD DUP2 PUSH2 0x3598 JUMP JUMPDEST DUP3 MSTORE POP POP JUMP JUMPDEST PUSH0 PUSH1 0x80 DUP3 ADD SWAP1 POP PUSH2 0x35C6 PUSH0 DUP4 ADD DUP8 PUSH2 0x2522 JUMP JUMPDEST PUSH2 0x35D3 PUSH1 0x20 DUP4 ADD DUP7 PUSH2 0x35A4 JUMP JUMPDEST PUSH2 0x35E0 PUSH1 0x40 DUP4 ADD DUP6 PUSH2 0x2522 JUMP JUMPDEST PUSH2 0x35ED PUSH1 0x60 DUP4 ADD DUP5 PUSH2 0x2522 JUMP JUMPDEST SWAP6 SWAP5 POP POP POP POP POP JUMP INVALID LOG2 PUSH5 0x6970667358 0x22 SLT KECCAK256 PC 0x2C CODECOPY LOG4 0x2F 0xA7 0x4D 0xBD SWAP6 0x1F 0xE RJUMP 0xBF20 LOG3 PUSH12 0x3BA83F830ED6DD14B982D82F RJUMP 0x8D3A PUSH27 0x64736F6C634300081E003300000000000000000000000000000000 "
		},
		"gasEstimates": {
			"creation": {
				"codeDepositCost": "2773600",
				"executionCost": "infinite",
				"totalCost": "infinite"
			},
			"external": {
				"addDeposit()": "infinite",
				"eip712Domain()": "infinite",
				"entryPoint()": "infinite",
				"execute(address,uint256,bytes)": "infinite",
				"executeBatch((address,uint256,bytes)[])": "infinite",
				"executeBatch(address[],bytes[])": "infinite",
				"executeBatch(address[],uint256[],bytes[])": "infinite",
				"getDeposit()": "infinite",
				"getMessageHash(bytes)": "infinite",
				"getNonce()": "infinite",
				"initialize(address)": "infinite",
				"isValidSignature(bytes32,bytes)": "infinite",
				"onERC1155BatchReceived(address,address,uint256[],uint256[],bytes)": "infinite",
				"onERC1155Received(address,address,uint256,uint256,bytes)": "infinite",
				"onERC721Received(address,address,uint256,bytes)": "infinite",
				"owner()": "2660",
				"performCreate(uint256,bytes)": "infinite",
				"performCreate2(uint256,bytes,bytes32)": "infinite",
				"proxiableUUID()": "infinite",
				"supportsInterface(bytes4)": "745",
				"transferOwnership(address)": "infinite",
				"upgradeToAndCall(address,bytes)": "infinite",
				"validateUserOp((address,uint256,bytes,bytes,bytes32,uint256,bytes32,bytes,bytes),bytes32,uint256)": "infinite",
				"withdrawDepositTo(address,uint256)": "infinite"
			},
			"internal": {
				"_domainNameAndVersion()": "infinite",
				"_getStorage()": "39",
				"_initialize(address)": "infinite",
				"_isFromOwner()": "2264",
				"_isValidContractOwnerSignatureNow(bytes32,bytes memory)": "infinite",
				"_isValidEOAOwnerSignature(bytes32,bytes memory)": "infinite",
				"_isValidSignature(bytes32,bytes calldata)": "infinite",
				"_transferOwnership(address)": "infinite",
				"_validateSignature(struct PackedUserOperation calldata,bytes32)": "infinite"
			}
		},
		"methodIdentifiers": {
			"addDeposit()": "4a58db19",
			"eip712Domain()": "84b0196e",
			"entryPoint()": "b0d691fe",
			"execute(address,uint256,bytes)": "b61d27f6",
			"executeBatch((address,uint256,bytes)[])": "34fcd5be",
			"executeBatch(address[],bytes[])": "18dfb3c7",
			"executeBatch(address[],uint256[],bytes[])": "47e1da2a",
			"getDeposit()": "c399ec88",
			"getMessageHash(bytes)": "0a1028c4",
			"getNonce()": "d087d288",
			"initialize(address)": "c4d66de8",
			"isValidSignature(bytes32,bytes)": "1626ba7e",
			"onERC1155BatchReceived(address,address,uint256[],uint256[],bytes)": "bc197c81",
			"onERC1155Received(address,address,uint256,uint256,bytes)": "f23a6e61",
			"onERC721Received(address,address,uint256,bytes)": "150b7a02",
			"owner()": "8da5cb5b",
			"performCreate(uint256,bytes)": "4c8c9ea1",
			"performCreate2(uint256,bytes,bytes32)": "4847be6f",
			"proxiableUUID()": "52d1902d",
			"supportsInterface(bytes4)": "01ffc9a7",
			"transferOwnership(address)": "f2fde38b",
			"upgradeToAndCall(address,bytes)": "4f1ef286",
			"validateUserOp((address,uint256,bytes,bytes,bytes32,uint256,bytes32,bytes,bytes),bytes32,uint256)": "19822f7c",
			"withdrawDepositTo(address,uint256)": "4d44560d"
		}
	},
	"abi": [
		{
			"inputs": [
				{
					"internalType": "contract IEntryPoint",
					"name": "entryPoint_",
					"type": "address"
				}
			],
			"stateMutability": "nonpayable",
			"type": "constructor"
		},
		{
			"inputs": [],
			"name": "ArrayLengthMismatch",
			"type": "error"
		},
		{
			"inputs": [],
			"name": "CreateFailed",
			"type": "error"
		},
		{
			"inputs": [],
			"name": "ECDSAInvalidSignature",
			"type": "error"
		},
		{
			"inputs": [
				{
					"internalType": "uint256",
					"name": "length",
					"type": "uint256"
				}
			],
			"name": "ECDSAInvalidSignatureLength",
			"type": "error"
		},
		{
			"inputs": [
				{
					"internalType": "bytes32",
					"name": "s",
					"type": "bytes32"
				}
			],
			"name": "ECDSAInvalidSignatureS",
			"type": "error"
		},
		{
			"inputs": [
				{
					"internalType": "uint256",
					"name": "index",
					"type": "uint256"
				},
				{
					"internalType": "bytes",
					"name": "error",
					"type": "bytes"
				}
			],
			"name": "ExecuteError",
			"type": "error"
		},
		{
			"inputs": [],
			"name": "InvalidInitialization",
			"type": "error"
		},
		{
			"inputs": [
				{
					"internalType": "address",
					"name": "owner",
					"type": "address"
				}
			],
			"name": "InvalidOwner",
			"type": "error"
		},
		{
			"inputs": [],
			"name": "InvalidSignatureType",
			"type": "error"
		},
		{
			"inputs": [
				{
					"internalType": "address",
					"name": "caller",
					"type": "address"
				}
			],
			"name": "NotAuthorized",
			"type": "error"
		},
		{
			"inputs": [],
			"name": "NotInitializing",
			"type": "error"
		},
		{
			"inputs": [],
			"name": "UnauthorizedCallContext",
			"type": "error"
		},
		{
			"inputs": [],
			"name": "UpgradeFailed",
			"type": "error"
		},
		{
			"inputs": [],
			"name": "ZeroAddressNotAllowed",
			"type": "error"
		},
		{
			"anonymous": false,
			"inputs": [
				{
					"indexed": true,
					"internalType": "contract IEntryPoint",
					"name": "entryPoint",
					"type": "address"
				},
				{
					"indexed": true,
					"internalType": "address",
					"name": "owner",
					"type": "address"
				}
			],
			"name": "CordylineAccountInitialized",
			"type": "event"
		},
		{
			"anonymous": false,
			"inputs": [
				{
					"indexed": false,
					"internalType": "uint64",
					"name": "version",
					"type": "uint64"
				}
			],
			"name": "Initialized",
			"type": "event"
		},
		{
			"anonymous": false,
			"inputs": [
				{
					"indexed": true,
					"internalType": "address",
					"name": "previousOwner",
					"type": "address"
				},
				{
					"indexed": true,
					"internalType": "address",
					"name": "newOwner",
					"type": "address"
				}
			],
			"name": "OwnershipTransferred",
			"type": "event"
		},
		{
			"anonymous": false,
			"inputs": [
				{
					"indexed": true,
					"internalType": "address",
					"name": "implementation",
					"type": "address"
				}
			],
			"name": "Upgraded",
			"type": "event"
		},
		{
			"inputs": [],
			"name": "addDeposit",
			"outputs": [],
			"stateMutability": "payable",
			"type": "function"
		},
		{
			"inputs": [],
			"name": "eip712Domain",
			"outputs": [
				{
					"internalType": "bytes1",
					"name": "fields",
					"type": "bytes1"
				},
				{
					"internalType": "string",
					"name": "name",
					"type": "string"
				},
				{
					"internalType": "string",
					"name": "version",
					"type": "string"
				},
				{
					"internalType": "uint256",
					"name": "chainId",
					"type": "uint256"
				},
				{
					"internalType": "address",
					"name": "verifyingContract",
					"type": "address"
				},
				{
					"internalType": "bytes32",
					"name": "salt",
					"type": "bytes32"
				},
				{
					"internalType": "uint256[]",
					"name": "extensions",
					"type": "uint256[]"
				}
			],
			"stateMutability": "view",
			"type": "function"
		},
		{
			"inputs": [],
			"name": "entryPoint",
			"outputs": [
				{
					"internalType": "contract IEntryPoint",
					"name": "",
					"type": "address"
				}
			],
			"stateMutability": "view",
			"type": "function"
		},
		{
			"inputs": [
				{
					"internalType": "address",
					"name": "dest",
					"type": "address"
				},
				{
					"internalType": "uint256",
					"name": "value",
					"type": "uint256"
				},
				{
					"internalType": "bytes",
					"name": "func",
					"type": "bytes"
				}
			],
			"name": "execute",
			"outputs": [],
			"stateMutability": "nonpayable",
			"type": "function"
		},
		{
			"inputs": [
				{
					"internalType": "address[]",
					"name": "dest",
					"type": "address[]"
				},
				{
					"internalType": "bytes[]",
					"name": "func",
					"type": "bytes[]"
				}
			],
			"name": "executeBatch",
			"outputs": [],
			"stateMutability": "nonpayable",
			"type": "function"
		},
		{
			"inputs": [
				{
					"components": [
						{
							"internalType": "address",
							"name": "target",
							"type": "address"
						},
						{
							"internalType": "uint256",
							"name": "value",
							"type": "uint256"
						},
						{
							"internalType": "bytes",
							"name": "data",
							"type": "bytes"
						}
					],
					"internalType": "struct BaseAccount.Call[]",
					"name": "calls",
					"type": "tuple[]"
				}
			],
			"name": "executeBatch",
			"outputs": [],
			"stateMutability": "nonpayable",
			"type": "function"
		},
		{
			"inputs": [
				{
					"internalType": "address[]",
					"name": "dest",
					"type": "address[]"
				},
				{
					"internalType": "uint256[]",
					"name": "value",
					"type": "uint256[]"
				},
				{
					"internalType": "bytes[]",
					"name": "func",
					"type": "bytes[]"
				}
			],
			"name": "executeBatch",
			"outputs": [],
			"stateMutability": "nonpayable",
			"type": "function"
		},
		{
			"inputs": [],
			"name": "getDeposit",
			"outputs": [
				{
					"internalType": "uint256",
					"name": "",
					"type": "uint256"
				}
			],
			"stateMutability": "view",
			"type": "function"
		},
		{
			"inputs": [
				{
					"internalType": "bytes",
					"name": "message",
					"type": "bytes"
				}
			],
			"name": "getMessageHash",
			"outputs": [
				{
					"internalType": "bytes32",
					"name": "",
					"type": "bytes32"
				}
			],
			"stateMutability": "view",
			"type": "function"
		},
		{
			"inputs": [],
			"name": "getNonce",
			"outputs": [
				{
					"internalType": "uint256",
					"name": "",
					"type": "uint256"
				}
			],
			"stateMutability": "view",
			"type": "function"
		},
		{
			"inputs": [
				{
					"internalType": "address",
					"name": "owner_",
					"type": "address"
				}
			],
			"name": "initialize",
			"outputs": [],
			"stateMutability": "nonpayable",
			"type": "function"
		},
		{
			"inputs": [
				{
					"internalType": "bytes32",
					"name": "hash",
					"type": "bytes32"
				},
				{
					"internalType": "bytes",
					"name": "signature",
					"type": "bytes"
				}
			],
			"name": "isValidSignature",
			"outputs": [
				{
					"internalType": "bytes4",
					"name": "",
					"type": "bytes4"
				}
			],
			"stateMutability": "view",
			"type": "function"
		},
		{
			"inputs": [
				{
					"internalType": "address",
					"name": "",
					"type": "address"
				},
				{
					"internalType": "address",
					"name": "",
					"type": "address"
				},
				{
					"internalType": "uint256[]",
					"name": "",
					"type": "uint256[]"
				},
				{
					"internalType": "uint256[]",
					"name": "",
					"type": "uint256[]"
				},
				{
					"internalType": "bytes",
					"name": "",
					"type": "bytes"
				}
			],
			"name": "onERC1155BatchReceived",
			"outputs": [
				{
					"internalType": "bytes4",
					"name": "",
					"type": "bytes4"
				}
			],
			"stateMutability": "pure",
			"type": "function"
		},
		{
			"inputs": [
				{
					"internalType": "address",
					"name": "",
					"type": "address"
				},
				{
					"internalType": "address",
					"name": "",
					"type": "address"
				},
				{
					"internalType": "uint256",
					"name": "",
					"type": "uint256"
				},
				{
					"internalType": "uint256",
					"name": "",
					"type": "uint256"
				},
				{
					"internalType": "bytes",
					"name": "",
					"type": "bytes"
				}
			],
			"name": "onERC1155Received",
			"outputs": [
				{
					"internalType": "bytes4",
					"name": "",
					"type": "bytes4"
				}
			],
			"stateMutability": "pure",
			"type": "function"
		},
		{
			"inputs": [
				{
					"internalType": "address",
					"name": "",
					"type": "address"
				},
				{
					"internalType": "address",
					"name": "",
					"type": "address"
				},
				{
					"internalType": "uint256",
					"name": "",
					"type": "uint256"
				},
				{
					"internalType": "bytes",
					"name": "",
					"type": "bytes"
				}
			],
			"name": "onERC721Received",
			"outputs": [
				{
					"internalType": "bytes4",
					"name": "",
					"type": "bytes4"
				}
			],
			"stateMutability": "pure",
			"type": "function"
		},
		{
			"inputs": [],
			"name": "owner",
			"outputs": [
				{
					"internalType": "address",
					"name": "",
					"type": "address"
				}
			],
			"stateMutability": "view",
			"type": "function"
		},
		{
			"inputs": [
				{
					"internalType": "uint256",
					"name": "value",
					"type": "uint256"
				},
				{
					"internalType": "bytes",
					"name": "initCode",
					"type": "bytes"
				}
			],
			"name": "performCreate",
			"outputs": [
				{
					"internalType": "address",
					"name": "createdAddr",
					"type": "address"
				}
			],
			"stateMutability": "payable",
			"type": "function"
		},
		{
			"inputs": [
				{
					"internalType": "uint256",
					"name": "value",
					"type": "uint256"
				},
				{
					"internalType": "bytes",
					"name": "initCode",
					"type": "bytes"
				},
				{
					"internalType": "bytes32",
					"name": "salt",
					"type": "bytes32"
				}
			],
			"name": "performCreate2",
			"outputs": [
				{
					"internalType": "address",
					"name": "createdAddr",
					"type": "address"
				}
			],
			"stateMutability": "payable",
			"type": "function"
		},
		{
			"inputs": [],
			"name": "proxiableUUID",
			"outputs": [
				{
					"internalType": "bytes32",
					"name": "",
					"type": "bytes32"
				}
			],
			"stateMutability": "view",
			"type": "function"
		},
		{
			"inputs": [
				{
					"internalType": "bytes4",
					"name": "interfaceId",
					"type": "bytes4"
				}
			],
			"name": "supportsInterface",
			"outputs": [
				{
					"internalType": "bool",
					"name": "",
					"type": "bool"
				}
			],
			"stateMutability": "view",
			"type": "function"
		},
		{
			"inputs": [
				{
					"internalType": "address",
					"name": "newOwner",
					"type": "address"
				}
			],
			"name": "transferOwnership",
			"outputs": [],
			"stateMutability": "nonpayable",
			"type": "function"
		},
		{
			"inputs": [
				{
					"internalType": "address",
					"name": "newImplementation",
					"type": "address"
				},
				{
					"internalType": "bytes",
					"name": "data",
					"type": "bytes"
				}
			],
			"name": "upgradeToAndCall",
			"outputs": [],
			"stateMutability": "payable",
			"type": "function"
		},
		{
			"inputs": [
				{
					"components": [
						{
							"internalType": "address",
							"name": "sender",
							"type": "address"
						},
						{
							"internalType": "uint256",
							"name": "nonce",
							"type": "uint256"
						},
						{
							"internalType": "bytes",
							"name": "initCode",
							"type": "bytes"
						},
						{
							"internalType": "bytes",
							"name": "callData",
							"type": "bytes"
						},
						{
							"internalType": "bytes32",
							"name": "accountGasLimits",
							"type": "bytes32"
						},
						{
							"internalType": "uint256",
							"name": "preVerificationGas",
							"type": "uint256"
						},
						{
							"internalType": "bytes32",
							"name": "gasFees",
							"type": "bytes32"
						},
						{
							"internalType": "bytes",
							"name": "paymasterAndData",
							"type": "bytes"
						},
						{
							"internalType": "bytes",
							"name": "signature",
							"type": "bytes"
						}
					],
					"internalType": "struct PackedUserOperation",
					"name": "userOp",
					"type": "tuple"
				},
				{
					"internalType": "bytes32",
					"name": "userOpHash",
					"type": "bytes32"
				},
				{
					"internalType": "uint256",
					"name": "missingAccountFunds",
					"type": "uint256"
				}
			],
			"name": "validateUserOp",
			"outputs": [
				{
					"internalType": "uint256",
					"name": "validationData",
					"type": "uint256"
				}
			],
			"stateMutability": "nonpayable",
			"type": "function"
		},
		{
			"inputs": [
				{
					"internalType": "address payable",
					"name": "withdrawAddress",
					"type": "address"
				},
				{
					"internalType": "uint256",
					"name": "amount",
					"type": "uint256"
				}
			],
			"name": "withdrawDepositTo",
			"outputs": [],
			"stateMutability": "nonpayable",
			"type": "function"
		},
		{
			"stateMutability": "payable",
			"type": "receive"
		}
	]
}