{
	"data": {
		"bytecode": {
			"linkReferences": {},
			"object": "60c060405234801561000f575f5ffd5b5060405161652538038061652583398181016040528101906100319190610492565b815f73ffffffffffffffffffffffffffffffffffffffff168173ffffffffffffffffffffffffffffffffffffffff16036100a2575f6040517f1e4fbdf700000000000000000000000000000000000000000000000000000000815260040161009991906104df565b60405180910390fd5b6100b18161016060201b60201c565b506100c18161019660201b60201c565b806040516100ce906103ec565b6100d89190610553565b604051809103905ff0801580156100f1573d5f5f3e3d5ffd5b5073ffffffffffffffffffffffffffffffffffffffff1660a08173ffffffffffffffffffffffffffffffffffffffff16815250508073ffffffffffffffffffffffffffffffffffffffff1660808173ffffffffffffffffffffffffffffffffffffffff168152505050506105bf565b60015f6101000a81549073ffffffffffffffffffffffffffffffffffffffff02191690556101938161020a60201b60201c565b50565b6101c6817f989ccc58000000000000000000000000000000000000000000000000000000006102cb60201b60201c565b61020757806040517f1d6ddbf40000000000000000000000000000000000000000000000000000000081526004016101fe91906104df565b60405180910390fd5b50565b5f5f5f9054906101000a900473ffffffffffffffffffffffffffffffffffffffff169050815f5f6101000a81548173ffffffffffffffffffffffffffffffffffffffff021916908373ffffffffffffffffffffffffffffffffffffffff1602179055508173ffffffffffffffffffffffffffffffffffffffff168173ffffffffffffffffffffffffffffffffffffffff167f8be0079c531659141344cd1fd0a4f28419497f9722a3daafe3b4186f6b6457e060405160405180910390a35050565b5f6102db836102fb60201b60201c565b80156102f357506102f2838361035360201b60201c565b5b905092915050565b5f61032c827f01ffc9a70000000000000000000000000000000000000000000000000000000061035360201b60201c565b801561034c575061034a8263ffffffff60e01b61035360201b60201c565b155b9050919050565b5f5f8260405160240161036691906105a6565b6040516020818303038152906040526301ffc9a760e01b6020820180517bffffffffffffffffffffffffffffffffffffffffffffffffffffffff838183161783525050505090505f5f5f60205f8551602087018a617530fa92503d91505f5190508280156103d5575060208210155b80156103e057505f81115b94505050505092915050565b6142e38061224283390190565b5f5ffd5b5f73ffffffffffffffffffffffffffffffffffffffff82169050919050565b5f610426826103fd565b9050919050565b6104368161041c565b8114610440575f5ffd5b50565b5f815190506104518161042d565b92915050565b5f6104618261041c565b9050919050565b61047181610457565b811461047b575f5ffd5b50565b5f8151905061048c81610468565b92915050565b5f5f604083850312156104a8576104a76103f9565b5b5f6104b585828601610443565b92505060206104c68582860161047e565b9150509250929050565b6104d98161041c565b82525050565b5f6020820190506104f25f8301846104d0565b92915050565b5f819050919050565b5f61051b610516610511846103fd565b6104f8565b6103fd565b9050919050565b5f61052c82610501565b9050919050565b5f61053d82610522565b9050919050565b61054d81610533565b82525050565b5f6020820190506105665f830184610544565b92915050565b5f7fffffffff0000000000000000000000000000000000000000000000000000000082169050919050565b6105a08161056c565b82525050565b5f6020820190506105b95f830184610597565b92915050565b60805160a051611c3861060a5f395f8181610425015281816104d101528181610615015261069d01525f81816105e4015281816107930152818161087d0152610b380152611c385ff3fe6080604052600436106100e0575f3560e01c8063b54c02f21161007e578063d9caed1211610058578063d9caed1214610287578063e30c3978146102af578063f2fde38b146102d9578063fbb1c3d414610301576100e7565b8063b54c02f21461020d578063bb9fe6bf14610249578063c23a5cea1461025f576100e7565b806379ba5097116100ba57806379ba5097146101675780638da5cb5b1461017d57806394430fa5146101a757806394f7e8e0146101d1576100e7565b80632796c323146100eb578063290ab98414610127578063715018a614610151576100e7565b366100e757005b5f5ffd5b3480156100f6575f5ffd5b50610111600480360381019061010c91906113c7565b61031d565b60405161011e9190611460565b60405180910390f35b348015610132575f5ffd5b5061013b6104cf565b6040516101489190611460565b60405180910390f35b34801561015c575f5ffd5b506101656104f3565b005b348015610172575f5ffd5b5061017b61052d565b005b348015610188575f5ffd5b506101916105bb565b60405161019e9190611488565b60405180910390f35b3480156101b2575f5ffd5b506101bb6105e2565b6040516101c891906114d2565b60405180910390f35b3480156101dc575f5ffd5b506101f760048036038101906101f2919061163b565b610606565b6040516102049190611488565b60405180910390f35b348015610218575f5ffd5b50610233600480360381019061022e91906116ee565b61064c565b6040516102409190611460565b60405180910390f35b348015610254575f5ffd5b5061025d610789565b005b34801561026a575f5ffd5b5061028560048036038101906102809190611786565b61080e565b005b348015610292575f5ffd5b506102ad60048036038101906102a891906117b1565b610904565b005b3480156102ba575f5ffd5b506102c3610a5a565b6040516102d09190611488565b60405180910390f35b3480156102e4575f5ffd5b506102ff60048036038101906102fa9190611801565b610a82565b005b61031b60048036038101906103169190611865565b610b2e565b005b5f5f73ffffffffffffffffffffffffffffffffffffffff168373ffffffffffffffffffffffffffffffffffffffff1603610383576040517ff02e8ac100000000000000000000000000000000000000000000000000000000815260040160405180910390fd5b5f600167ffffffffffffffff81111561039f5761039e6114ff565b5b6040519080825280602002602001820160405280156103cd5781602001602082028036833780820191505090505b50905083815f815181106103e4576103e36118a3565b5b602002602001019073ffffffffffffffffffffffffffffffffffffffff16908173ffffffffffffffffffffffffffffffffffffffff16815250505f5f6104537f000000000000000000000000000000000000000000000000000000000000000061044e8588610bc2565b610bf4565b91509150809350816104c6578373ffffffffffffffffffffffffffffffffffffffff1663a224cee7846040518263ffffffff1660e01b81526004016104989190611987565b5f604051808303815f87803b1580156104af575f5ffd5b505af11580156104c1573d5f5f3e3d5ffd5b505050505b50505092915050565b7f000000000000000000000000000000000000000000000000000000000000000081565b6104fb610c0c565b6040517f4a7f394f00000000000000000000000000000000000000000000000000000000815260040160405180910390fd5b5f610536610c93565b90508073ffffffffffffffffffffffffffffffffffffffff16610557610a5a565b73ffffffffffffffffffffffffffffffffffffffff16146105af57806040517f118cdaa70000000000000000000000000000000000000000000000000000000081526004016105a69190611488565b60405180910390fd5b6105b881610c9a565b50565b5f5f5f9054906101000a900473ffffffffffffffffffffffffffffffffffffffff16905090565b7f000000000000000000000000000000000000000000000000000000000000000081565b5f61061083610cca565b6106447f000000000000000000000000000000000000000000000000000000000000000061063e8585610bc2565b30610e00565b905092915050565b5f6106968484808060200260200160405190810160405280939291908181526020018383602002808284375f81840152601f19601f82011690508083019250505050505050610cca565b5f5f61070b7f00000000000000000000000000000000000000000000000000000000000000006107068888808060200260200160405190810160405280939291908181526020018383602002808284375f81840152601f19601f8201169050808301925050505050505087610bc2565b610bf4565b9150915080925081610780578273ffffffffffffffffffffffffffffffffffffffff1663a224cee787876040518363ffffffff1660e01b8152600401610752929190611a2d565b5f604051808303815f87803b158015610769575f5ffd5b505af115801561077b573d5f5f3e3d5ffd5b505050505b50509392505050565b610791610c0c565b7f000000000000000000000000000000000000000000000000000000000000000073ffffffffffffffffffffffffffffffffffffffff1663bb9fe6bf6040518163ffffffff1660e01b81526004015f604051808303815f87803b1580156107f6575f5ffd5b505af1158015610808573d5f5f3e3d5ffd5b50505050565b610816610c0c565b5f73ffffffffffffffffffffffffffffffffffffffff168173ffffffffffffffffffffffffffffffffffffffff160361087b576040517f8579befe00000000000000000000000000000000000000000000000000000000815260040160405180910390fd5b7f000000000000000000000000000000000000000000000000000000000000000073ffffffffffffffffffffffffffffffffffffffff1663c23a5cea826040518263ffffffff1660e01b81526004016108d49190611a5e565b5f604051808303815f87803b1580156108eb575f5ffd5b505af11580156108fd573d5f5f3e3d5ffd5b5050505050565b61090c610c0c565b5f73ffffffffffffffffffffffffffffffffffffffff168373ffffffffffffffffffffffffffffffffffffffff1603610971576040517f8579befe00000000000000000000000000000000000000000000000000000000815260040160405180910390fd5b5f73ffffffffffffffffffffffffffffffffffffffff168273ffffffffffffffffffffffffffffffffffffffff1603610a49575f8373ffffffffffffffffffffffffffffffffffffffff16476040516109c990611aa4565b5f6040518083038185875af1925050503d805f8114610a03576040519150601f19603f3d011682016040523d82523d5f602084013e610a08565b606091505b5050905080610a43576040517f90b8ec1800000000000000000000000000000000000000000000000000000000815260040160405180910390fd5b50610a55565b610a54828483610e22565b5b505050565b5f60015f9054906101000a900473ffffffffffffffffffffffffffffffffffffffff16905090565b610a8a610c0c565b8060015f6101000a81548173ffffffffffffffffffffffffffffffffffffffff021916908373ffffffffffffffffffffffffffffffffffffffff1602179055508073ffffffffffffffffffffffffffffffffffffffff16610ae96105bb565b73ffffffffffffffffffffffffffffffffffffffff167f38d16b8cac22d99fc7c124b9cd0de2d3fa1faef420bfe791d8c362d765e2270060405160405180910390a350565b610b36610c0c565b7f000000000000000000000000000000000000000000000000000000000000000073ffffffffffffffffffffffffffffffffffffffff16630396cb6082846040518363ffffffff1660e01b8152600401610b909190611ac7565b5f604051808303818588803b158015610ba7575f5ffd5b505af1158015610bb9573d5f5f3e3d5ffd5b50505050505050565b5f8282604051602001610bd6929190611aef565b60405160208183030381529060405280519060200120905092915050565b5f5f610c015f8585610ea1565b915091509250929050565b610c14610c93565b73ffffffffffffffffffffffffffffffffffffffff16610c326105bb565b73ffffffffffffffffffffffffffffffffffffffff1614610c9157610c55610c93565b6040517f118cdaa7000000000000000000000000000000000000000000000000000000008152600401610c889190611488565b60405180910390fd5b565b5f33905090565b60015f6101000a81549073ffffffffffffffffffffffffffffffffffffffff0219169055610cc781610f87565b50565b5f815103610d04576040517f0a5c1dfd00000000000000000000000000000000000000000000000000000000815260040160405180910390fd5b606481511115610d40576040517f7a64f3a600000000000000000000000000000000000000000000000000000000815260040160405180910390fd5b5f5f825190505f5f90505b81811015610dfa578273ffffffffffffffffffffffffffffffffffffffff16848281518110610d7d57610d7c6118a3565b5b602002602001015173ffffffffffffffffffffffffffffffffffffffff1611610dd2576040517ff02e8ac100000000000000000000000000000000000000000000000000000000815260040160405180910390fd5b838181518110610de557610de46118a3565b5b60200260200101519250806001019050610d4b565b50505050565b5f5f610e0b85611048565b9050610e188185856110c0565b9150509392505050565b610e9c838473ffffffffffffffffffffffffffffffffffffffff1663a9059cbb8585604051602401610e55929190611b1d565b604051602081830303815290604052915060e01b6020820180517bffffffffffffffffffffffffffffffffffffffffffffffffffffffff83818316178352505050506110e5565b505050565b5f5f6040517fcc3735a920a3ca505d382bbc545af43d6000803e6038573d6000fd5b3d6000f36060527f5155f3363d3d373d3d363d7f360894a13ba1a3210667c828492db98dca3e207660405261600960205284601e5268603d3d8160223d3973600a52605f60212060358201523060581b815260ff8153836015820152605581209150600115610f7657813b610f525783605f602188f5915081610f4d5763301164255f526004601cfd5b610f76565b600192508515610f76575f385f3889865af1610f755763b12d13eb5f526004601cfd5b5b806040525f60605250935093915050565b5f5f5f9054906101000a900473ffffffffffffffffffffffffffffffffffffffff169050815f5f6101000a81548173ffffffffffffffffffffffffffffffffffffffff021916908373ffffffffffffffffffffffffffffffffffffffff1602179055508173ffffffffffffffffffffffffffffffffffffffff168173ffffffffffffffffffffffffffffffffffffffff167f8be0079c531659141344cd1fd0a4f28419497f9722a3daafe3b4186f6b6457e060405160405180910390a35050565b5f6040517fcc3735a920a3ca505d382bbc545af43d6000803e6038573d6000fd5b3d6000f36060527f5155f3363d3d373d3d363d7f360894a13ba1a3210667c828492db98dca3e207660405261600960205282601e5268603d3d8160223d3973600a52605f6021209150806040525f60605250919050565b5f60ff5f53836035528160601b6001528260155260555f2090505f6035529392505050565b5f61110f828473ffffffffffffffffffffffffffffffffffffffff1661117a90919063ffffffff16565b90505f8151141580156111335750808060200190518101906111319190611b79565b155b1561117557826040517f5274afe700000000000000000000000000000000000000000000000000000000815260040161116c9190611488565b60405180910390fd5b505050565b606061118783835f61118f565b905092915050565b6060814710156111d657306040517fcd7860590000000000000000000000000000000000000000000000000000000081526004016111cd9190611488565b60405180910390fd5b5f5f8573ffffffffffffffffffffffffffffffffffffffff1684866040516111fe9190611bec565b5f6040518083038185875af1925050503d805f8114611238576040519150601f19603f3d011682016040523d82523d5f602084013e61123d565b606091505b509150915061124d868383611258565b925050509392505050565b60608261126d57611268826112e5565b6112dd565b5f825114801561129357505f8473ffffffffffffffffffffffffffffffffffffffff163b145b156112d557836040517f9996b3150000000000000000000000000000000000000000000000000000000081526004016112cc9190611488565b60405180910390fd5b8190506112de565b5b9392505050565b5f815111156112f75780518082602001fd5b6040517f1425ea4200000000000000000000000000000000000000000000000000000000815260040160405180910390fd5b5f604051905090565b5f5ffd5b5f5ffd5b5f73ffffffffffffffffffffffffffffffffffffffff82169050919050565b5f6113638261133a565b9050919050565b61137381611359565b811461137d575f5ffd5b50565b5f8135905061138e8161136a565b92915050565b5f819050919050565b6113a681611394565b81146113b0575f5ffd5b50565b5f813590506113c18161139d565b92915050565b5f5f604083850312156113dd576113dc611332565b5b5f6113ea85828601611380565b92505060206113fb858286016113b3565b9150509250929050565b5f819050919050565b5f61142861142361141e8461133a565b611405565b61133a565b9050919050565b5f6114398261140e565b9050919050565b5f61144a8261142f565b9050919050565b61145a81611440565b82525050565b5f6020820190506114735f830184611451565b92915050565b61148281611359565b82525050565b5f60208201905061149b5f830184611479565b92915050565b5f6114ab8261140e565b9050919050565b5f6114bc826114a1565b9050919050565b6114cc816114b2565b82525050565b5f6020820190506114e55f8301846114c3565b92915050565b5f5ffd5b5f601f19601f8301169050919050565b7f4e487b71000000000000000000000000000000000000000000000000000000005f52604160045260245ffd5b611535826114ef565b810181811067ffffffffffffffff82111715611554576115536114ff565b5b80604052505050565b5f611566611329565b9050611572828261152c565b919050565b5f67ffffffffffffffff821115611591576115906114ff565b5b602082029050602081019050919050565b5f5ffd5b5f6115b86115b384611577565b61155d565b905080838252602082019050602084028301858111156115db576115da6115a2565b5b835b8181101561160457806115f08882611380565b8452602084019350506020810190506115dd565b5050509392505050565b5f82601f830112611622576116216114eb565b5b81356116328482602086016115a6565b91505092915050565b5f5f6040838503121561165157611650611332565b5b5f83013567ffffffffffffffff81111561166e5761166d611336565b5b61167a8582860161160e565b925050602061168b858286016113b3565b9150509250929050565b5f5ffd5b5f5f83601f8401126116ae576116ad6114eb565b5b8235905067ffffffffffffffff8111156116cb576116ca611695565b5b6020830191508360208202830111156116e7576116e66115a2565b5b9250929050565b5f5f5f6040848603121561170557611704611332565b5b5f84013567ffffffffffffffff81111561172257611721611336565b5b61172e86828701611699565b93509350506020611741868287016113b3565b9150509250925092565b5f6117558261133a565b9050919050565b6117658161174b565b811461176f575f5ffd5b50565b5f813590506117808161175c565b92915050565b5f6020828403121561179b5761179a611332565b5b5f6117a884828501611772565b91505092915050565b5f5f5f606084860312156117c8576117c7611332565b5b5f6117d586828701611772565b93505060206117e686828701611380565b92505060406117f7868287016113b3565b9150509250925092565b5f6020828403121561181657611815611332565b5b5f61182384828501611380565b91505092915050565b5f63ffffffff82169050919050565b6118448161182c565b811461184e575f5ffd5b50565b5f8135905061185f8161183b565b92915050565b5f5f6040838503121561187b5761187a611332565b5b5f61188885828601611851565b9250506020611899858286016113b3565b9150509250929050565b7f4e487b71000000000000000000000000000000000000000000000000000000005f52603260045260245ffd5b5f81519050919050565b5f82825260208201905092915050565b5f819050602082019050919050565b61190281611359565b82525050565b5f61191383836118f9565b60208301905092915050565b5f602082019050919050565b5f611935826118d0565b61193f81856118da565b935061194a836118ea565b805f5b8381101561197a5781516119618882611908565b975061196c8361191f565b92505060018101905061194d565b5085935050505092915050565b5f6020820190508181035f83015261199f818461192b565b905092915050565b5f819050919050565b5f6119be6020840184611380565b905092915050565b5f602082019050919050565b5f6119dd83856118da565b93506119e8826119a7565b805f5b85811015611a20576119fd82846119b0565b611a078882611908565b9750611a12836119c6565b9250506001810190506119eb565b5085925050509392505050565b5f6020820190508181035f830152611a468184866119d2565b90509392505050565b611a588161174b565b82525050565b5f602082019050611a715f830184611a4f565b92915050565b5f81905092915050565b50565b5f611a8f5f83611a77565b9150611a9a82611a81565b5f82019050919050565b5f611aae82611a84565b9150819050919050565b611ac18161182c565b82525050565b5f602082019050611ada5f830184611ab8565b92915050565b611ae981611394565b82525050565b5f6040820190508181035f830152611b07818561192b565b9050611b166020830184611ae0565b9392505050565b5f604082019050611b305f830185611479565b611b3d6020830184611ae0565b9392505050565b5f8115159050919050565b611b5881611b44565b8114611b62575f5ffd5b50565b5f81519050611b7381611b4f565b92915050565b5f60208284031215611b8e57611b8d611332565b5b5f611b9b84828501611b65565b91505092915050565b5f81519050919050565b8281835e5f83830152505050565b5f611bc682611ba4565b611bd08185611a77565b9350611be0818560208601611bae565b80840191505092915050565b5f611bf78284611bbc565b91508190509291505056fea26469706673582212209d5cc266ae7d5141755f9b7d55cea99587a657f5b4abbc43f935a25a26e7fbcd64736f6c634300081e00336101806040523073ffffffffffffffffffffffffffffffffffffffff1660809081525034801561002d575f5ffd5b506040516142e33803806142e3833981810160405281019061004f91906103d2565b7faa296a366a62f6551d3ddfceae892d1791068a359a0d3461aab99dfc6c5fd7005f1b3073ffffffffffffffffffffffffffffffffffffffff1660a081815250504660c081815250506060806100a96101db60201b60201c565b6100c4576100bb6101df60201b60201c565b80925081935050505b5f6100d36101db60201b60201c565b6100e45782805190602001206100e8565b5f5f1b5b90505f6100f96101db60201b60201c565b61010a57828051906020012061010e565b5f5f1b5b90508160e081815250508061010081815250505f6101306101db60201b60201c565b61017a576040517f8b73c3c69bb8fe3d512ecc4cf759cc79239f7b179b0ffacaa9a75d522b39400f815283602082015282604082015246606082015230608082015260a081209150505b8061012081815250505050505050806101608181525050508073ffffffffffffffffffffffffffffffffffffffff166101408173ffffffffffffffffffffffffffffffffffffffff16815250506101d561025660201b60201c565b50610438565b5f90565b6060806040518060400160405280601a81526020017f4d756c74694f776e6572436f7264796c696e654163636f756e7400000000000081525091506040518060400160405280600181526020017f320000000000000000000000000000000000000000000000000000000000000081525090509091565b5f61026561035460201b60201c565b9050805f0160089054906101000a900460ff16156102af576040517ff92ee8a900000000000000000000000000000000000000000000000000000000815260040160405180910390fd5b67ffffffffffffffff8016815f015f9054906101000a900467ffffffffffffffff1667ffffffffffffffff16146103515767ffffffffffffffff815f015f6101000a81548167ffffffffffffffff021916908367ffffffffffffffff1602179055507fc7f505b2f371ae2175ee4913f4499e1f2633a7b5936321eed1cdaeb6115181d267ffffffffffffffff604051610348919061041f565b60405180910390a15b50565b5f5f6101605190508091505090565b5f5ffd5b5f73ffffffffffffffffffffffffffffffffffffffff82169050919050565b5f61039082610367565b9050919050565b5f6103a182610386565b9050919050565b6103b181610397565b81146103bb575f5ffd5b50565b5f815190506103cc816103a8565b92915050565b5f602082840312156103e7576103e6610363565b5b5f6103f4848285016103be565b91505092915050565b5f67ffffffffffffffff82169050919050565b610419816103fd565b82525050565b5f6020820190506104325f830184610410565b92915050565b60805160a05160c05160e05161010051610120516101405161016051613e426104a15f395f6119e401525f81816110490152611a0e01525f61122001525f611c9d01525f611c7a01525f611d0c01525f611d3001525f8181610d140152610df90152613e425ff3fe60806040526004361061014e575f3560e01c80634d44560d116100b5578063b0d691fe1161006e578063b0d691fe1461047f578063b61d27f6146104a9578063bc197c81146104d1578063c399ec881461050d578063d087d28814610537578063f23a6e611461056157610155565b80634d44560d1461038f5780634f1ef286146103b757806352d1902d146103d357806384b0196e146103fd578063a224cee71461042d578063affe39c11461045557610155565b806334fcd5be1161010757806334fcd5be146102ad57806339562247146102d557806347e1da2a146102fd5780634847be6f146103255780634a58db19146103555780634c8c9ea11461035f57610155565b806301ffc9a7146101595780630a1028c414610195578063150b7a02146101d15780631626ba7e1461020d57806318dfb3c71461024957806319822f7c1461027157610155565b3661015557005b5f5ffd5b348015610164575f5ffd5b5061017f600480360381019061017a919061277a565b61059d565b60405161018c91906127bf565b60405180910390f35b3480156101a0575f5ffd5b506101bb60048036038101906101b69190612914565b6106d6565b6040516101c89190612973565b60405180910390f35b3480156101dc575f5ffd5b506101f760048036038101906101f29190612a76565b61073b565b6040516102049190612b09565b60405180910390f35b348015610218575f5ffd5b50610233600480360381019061022e9190612b4c565b61074f565b6040516102409190612b09565b60405180910390f35b348015610254575f5ffd5b5061026f600480360381019061026a9190612c53565b6107a8565b005b34801561027c575f5ffd5b5061029760048036038101906102929190612cf4565b6108ae565b6040516102a49190612d6f565b60405180910390f35b3480156102b8575f5ffd5b506102d360048036038101906102ce9190612ddd565b6108e0565b005b3480156102e0575f5ffd5b506102fb60048036038101906102f69190612ee8565b610a10565b005b348015610308575f5ffd5b50610323600480360381019061031e9190612fb3565b610a26565b005b61033f600480360381019061033a9190613063565b610b5a565b60405161034c91906130e3565b60405180910390f35b61035d610b8e565b005b610379600480360381019061037491906130fc565b610bff565b60405161038691906130e3565b60405180910390f35b34801561039a575f5ffd5b506103b560048036038101906103b09190613194565b610c31565b005b6103d160048036038101906103cc91906131d2565b610d11565b005b3480156103de575f5ffd5b506103e7610df5565b6040516103f49190612973565b60405180910390f35b348015610408575f5ffd5b50610411610e57565b6040516104249796959493929190613380565b60405180910390f35b348015610438575f5ffd5b50610453600480360381019061044e9190613402565b610ea2565b005b348015610460575f5ffd5b50610469611025565b6040516104769190613504565b60405180910390f35b34801561048a575f5ffd5b50610493611046565b6040516104a0919061357f565b60405180910390f35b3480156104b4575f5ffd5b506104cf60048036038101906104ca9190613598565b61106d565b005b3480156104dc575f5ffd5b506104f760048036038101906104f29190613609565b6110c9565b6040516105049190612b09565b60405180910390f35b348015610518575f5ffd5b506105216110e0565b60405161052e9190612d6f565b60405180910390f35b348015610542575f5ffd5b5061054b611165565b6040516105589190612d6f565b60405180910390f35b34801561056c575f5ffd5b50610587600480360381019061058291906136e0565b6111ec565b6040516105949190612b09565b60405180910390f35b5f7f150b7a02000000000000000000000000000000000000000000000000000000007bffffffffffffffffffffffffffffffffffffffffffffffffffffffff1916827bffffffffffffffffffffffffffffffffffffffffffffffffffffffff1916148061066757507f4e2312e0000000000000000000000000000000000000000000000000000000007bffffffffffffffffffffffffffffffffffffffffffffffffffffffff1916827bffffffffffffffffffffffffffffffffffffffffffffffffffffffff1916145b806106cf57507f01ffc9a7000000000000000000000000000000000000000000000000000000007bffffffffffffffffffffffffffffffffffffffffffffffffffffffff1916827bffffffffffffffffffffffffffffffffffffffffffffffffffffffff1916145b9050919050565b5f5f7fcb7d198b374e49569d08ee524f815a8372822602507550536005b62725c079488380519060200120604051602001610712929190613776565b60405160208183030381529060405280519060200120905061073381611201565b915050919050565b5f63150b7a0260e01b905095945050505050565b5f61078261077b856040516020016107679190612973565b6040516020818303038152906040526106d6565b848461127d565b1561079657631626ba7e60e01b90506107a1565b63ffffffff60e01b90505b9392505050565b6107b0611449565b8181905084849050146107ef576040517fa24a13a600000000000000000000000000000000000000000000000000000000815260040160405180910390fd5b5f8484905090505f5f90505b818110156108a65761089b8686838181106108195761081861379d565b5b905060200201602081019061082e91906137ca565b5f8686858181106108425761084161379d565b5b90506020028101906108549190613801565b8080601f0160208091040260200160405190810160405280939291908181526020018383808284375f81840152601f19601f8201169050808301925050505050505061150d565b8060010190506107fb565b505050505050565b5f6108b761152f565b6108c184846115a6565b90506108d084602001356117e3565b6108d9826117e6565b9392505050565b6108e861185a565b5f8282905090505f5f90505b81811015610a0a57368484838181106109105761090f61379d565b5b90506020028101906109229190613863565b90505f610997825f01602081019061093a91906137ca565b836020013584806040019061094f9190613801565b8080601f0160208091040260200160405190810160405280939291908181526020018383808284375f81840152601f19601f820116905080830192505050505050505a611864565b9050806109fb57600184036109b3576109ae61187b565b6109fa565b826109bd5f61188e565b6040517f5a1546750000000000000000000000000000000000000000000000000000000081526004016109f19291906138dc565b60405180910390fd5b5b505080806001019150506108f4565b50505050565b610a18611449565b610a2282826118c6565b5050565b610a2e611449565b8181905086869050141580610a495750838390508686905014155b15610a80576040517fa24a13a600000000000000000000000000000000000000000000000000000000815260040160405180910390fd5b5f8686905090505f5f90505b81811015610b5057610b45888883818110610aaa57610aa961379d565b5b9050602002016020810190610abf91906137ca565b878784818110610ad257610ad161379d565b5b90506020020135868685818110610aec57610aeb61379d565b5b9050602002810190610afe9190613801565b8080601f0160208091040260200160405190810160405280939291908181526020018383808284375f81840152601f19601f8201169050808301925050505050505061150d565b806001019050610a8c565b5050505050505050565b5f610b63611449565b604051838086833783818389f5925082610b8457637e16b8cd5f526004601cfd5b5050949350505050565b610b96611046565b73ffffffffffffffffffffffffffffffffffffffff1663b760faf934306040518363ffffffff1660e01b8152600401610bcf91906130e3565b5f604051808303818588803b158015610be6575f5ffd5b505af1158015610bf8573d5f5f3e3d5ffd5b5050505050565b5f610c08611449565b6040518280858337808287f0925082610c2857637e16b8cd5f526004601cfd5b50509392505050565b610c39611449565b5f73ffffffffffffffffffffffffffffffffffffffff168273ffffffffffffffffffffffffffffffffffffffff1603610c9e576040517f8579befe00000000000000000000000000000000000000000000000000000000815260040160405180910390fd5b610ca6611046565b73ffffffffffffffffffffffffffffffffffffffff1663205c287883836040518363ffffffff1660e01b8152600401610ce0929190613919565b5f604051808303815f87803b158015610cf7575f5ffd5b505af1158015610d09573d5f5f3e3d5ffd5b505050505050565b5f7f00000000000000000000000000000000000000000000000000000000000000009050308103610d4957639f03a0265f526004601cfd5b610d528461195e565b8360601b60601c93506352d1902d6001527f360894a13ba1a3210667c828492db98dca3e2076cc3735a920a3ca505d382bbc80602060016004601d895afa5114610da4576355299b496001526004601dfd5b847fbc7cd75a20ee27fd9adebab32041f755214dbc6bffa90cc0225b39da2e5c2d3b5f38a28481558215610dee57604051838582375f388583895af4610dec573d5f823e3d81fd5b505b5050505050565b5f5f7f00000000000000000000000000000000000000000000000000000000000000009050308114610e2e57639f03a0265f526004601cfd5b7f360894a13ba1a3210667c828492db98dca3e2076cc3735a920a3ca505d382bbc5f1b91505090565b5f6060805f5f5f60607f0f000000000000000000000000000000000000000000000000000000000000009650610e8b611969565b809650819750505046935030925090919293949596565b5f610eab6119e0565b90505f815f0160089054906101000a900460ff161590505f825f015f9054906101000a900467ffffffffffffffff1690505f5f8267ffffffffffffffff16148015610ef35750825b90505f60018367ffffffffffffffff16148015610f2657505f3073ffffffffffffffffffffffffffffffffffffffff163b145b905081158015610f34575080155b15610f6b576040517ff92ee8a900000000000000000000000000000000000000000000000000000000815260040160405180910390fd5b6001855f015f6101000a81548167ffffffffffffffff021916908367ffffffffffffffff1602179055508315610fb8576001855f0160086101000a81548160ff0219169083151502179055505b610fc28787611a0c565b831561101c575f855f0160086101000a81548160ff0219169083151502179055507fc7f505b2f371ae2175ee4913f4499e1f2633a7b5936321eed1cdaeb6115181d26001604051611013919061398c565b60405180910390a15b50505050505050565b606061104161103c611035611b12565b5f01611b40565b611be6565b905090565b5f7f0000000000000000000000000000000000000000000000000000000000000000905090565b611075611449565b6110c3848484848080601f0160208091040260200160405190810160405280939291908181526020018383808284375f81840152601f19601f8201169050808301925050505050505061150d565b50505050565b5f63bc197c8160e01b905098975050505050505050565b5f6110e9611046565b73ffffffffffffffffffffffffffffffffffffffff166370a08231306040518263ffffffff1660e01b815260040161112191906130e3565b602060405180830381865afa15801561113c573d5f5f3e3d5ffd5b505050506040513d601f19601f8201168201806040525081019061116091906139b9565b905090565b5f61116e611046565b73ffffffffffffffffffffffffffffffffffffffff166335567e1a305f6040518363ffffffff1660e01b81526004016111a8929190613a40565b602060405180830381865afa1580156111c3573d5f5f3e3d5ffd5b505050506040513d601f19601f820116820180604052508101906111e791906139b9565b905090565b5f63f23a6e6160e01b90509695505050505050565b5f61120a611c3c565b1561121e57611217611c40565b905061125a565b7f00000000000000000000000000000000000000000000000000000000000000009050611249611d08565b1561125957611256611c40565b90505b5b6719010000000000005f5280601a5281603a52604260182090505f603a52919050565b5f60018383905010156112bc576040517f60cd402d00000000000000000000000000000000000000000000000000000000815260040160405180910390fd5b5f83835f8181106112d0576112cf61379d565b5b9050013560f81c60f81b60f81c90505f60028111156112f2576112f1613a67565b5b60ff168160ff16036113645761135c858585600190809261131593929190613a9c565b8080601f0160208091040260200160405190810160405280939291908181526020018383808284375f81840152601f19601f82011690508083019250505050505050611d60565b915050611442565b60028081111561137757611376613a67565b5b60ff168160ff1603611410575f848460019060159261139893929190613a9c565b906113a39190613b17565b60601c90506114078187878760159080926113c093929190613a9c565b8080601f0160208091040260200160405190810160405280939291908181526020018383808284375f81840152601f19601f82011690508083019250505050505050611dba565b92505050611442565b6040517f60cd402d00000000000000000000000000000000000000000000000000000000815260040160405180910390fd5b9392505050565b611451611046565b73ffffffffffffffffffffffffffffffffffffffff163373ffffffffffffffffffffffffffffffffffffffff16141580156114b857503073ffffffffffffffffffffffffffffffffffffffff163373ffffffffffffffffffffffffffffffffffffffff1614155b80156114c957506114c7611e11565b155b1561150b57336040517f4a0bfec100000000000000000000000000000000000000000000000000000000815260040161150291906130e3565b60405180910390fd5b565b5f5f82516020840185875af180611529576040513d5f823e3d81fd5b50505050565b611537611046565b73ffffffffffffffffffffffffffffffffffffffff163373ffffffffffffffffffffffffffffffffffffffff16146115a4576040517f08c379a000000000000000000000000000000000000000000000000000000000815260040161159b90613bbf565b60405180910390fd5b565b5f6001838061010001906115ba9190613801565b905010156115f4576040517f60cd402d00000000000000000000000000000000000000000000000000000000815260040160405180910390fd5b5f838061010001906116069190613801565b5f8181106116175761161661379d565b5b9050013560f81c60f81b60f81c90505f600281111561163957611638613a67565b5b60ff168160ff16036116d4575f61164f84611e51565b90505f858061010001906116639190613801565b600190809261167493929190613a9c565b8080601f0160208091040260200160405190810160405280939291908181526020018383808284375f81840152601f19601f8201169050808301925050505050505090506116ca6116c58383611d60565b611e84565b93505050506117dd565b6002808111156116e7576116e6613a67565b5b60ff168160ff16036117ab575f848061010001906117059190613801565b60019060159261171793929190613a9c565b906117229190613b17565b60601c90505f858061010001906117399190613801565b601590809261174a93929190613a9c565b8080601f0160208091040260200160405190810160405280939291908181526020018383808284375f81840152601f19601f8201169050808301925050505050505090506117a161179c838784611dba565b611e84565b93505050506117dd565b6040517f60cd402d00000000000000000000000000000000000000000000000000000000815260040160405180910390fd5b92915050565b50565b5f8114611857575f3373ffffffffffffffffffffffffffffffffffffffff168260405161181290613c0a565b5f6040518083038185875af1925050503d805f811461184c576040519150601f19603f3d011682016040523d82523d5f602084013e611851565b606091505b50509050505b50565b61186261152f565b565b5f5f5f845160208601878987f19050949350505050565b61188c6118875f61188e565b611e9a565b565b60603d5f8311156118a657828111156118a5578290505b5b604051602082018101604052818152815f602083013e8092505050919050565b6118cf81611ea2565b6118d882611f78565b6118ea6118e3611b12565b5f01612071565b15611921576040517f9aa6ffc300000000000000000000000000000000000000000000000000000000815260040160405180910390fd5b7f9e21fe49fba3f7d0d12e8f5eef3747a76c62e19def530ce9764932707e1f12dd8282604051611952929190613c1e565b60405180910390a15050565b611966611449565b50565b6060806040518060400160405280601a81526020017f4d756c74694f776e6572436f7264796c696e654163636f756e7400000000000081525091506040518060400160405280600181526020017f320000000000000000000000000000000000000000000000000000000000000081525090509091565b5f5f7f000000000000000000000000000000000000000000000000000000000000000090508091505090565b7f000000000000000000000000000000000000000000000000000000000000000073ffffffffffffffffffffffffffffffffffffffff167f42a31333e4f630bd0b03d5f9b2f331b25c8c7cc2ceab126f686324bfd4cd50338383604051611a74929190613cd9565b60405180910390a2611b0e8282808060200260200160405190810160405280939291908181526020018383602002808284375f81840152601f19601f820116905080830192505050505050505f67ffffffffffffffff811115611ada57611ad96127f0565b5b604051908082528060200260200182016040528015611b085781602001602082028036833780820191505090505b506118c6565b5050565b5f5f7f0eb5184329babcda7203727c83eff940fb292fc735f61720a6182b755bf7f9005f1b90508091505090565b60605f825f0190505f5f825f60015f1b81526020019081526020015f2054905060405193505b611b6f816120ad565b158015611b7e57505f5f1b8114155b15611bcf578160010191505f611b93826120b9565b90508060208402860152611ba6826120e6565b15611bc357835f8281526020019081526020015f20549150611bc9565b5f5f1b91505b50611b66565b602060018301028401604052818452505050919050565b6060808290505f835190505f5f90505b81811015611c31576060838281518110611c1357611c1261379d565b5b60200260200101818151901c91508181525050806001019050611bf6565b508192505050919050565b5f90565b5f5f611c4a611c3c565b15611c78575f5f611c59611969565b9150915081805190602001209350808051906020012092505050611cbf565b7f000000000000000000000000000000000000000000000000000000000000000091507f000000000000000000000000000000000000000000000000000000000000000090505b6040517f8b73c3c69bb8fe3d512ecc4cf759cc79239f7b179b0ffacaa9a75d522b39400f815282602082015281604082015246606082015230608082015260a081209250505090565b5f5f7f000000000000000000000000000000000000000000000000000000000000000090505f7f0000000000000000000000000000000000000000000000000000000000000000905080301482461416159250505090565b5f5f611d7583856120f990919063ffffffff16565b9050611db1611d998273ffffffffffffffffffffffffffffffffffffffff16612123565b611da1611b12565b5f0161213e90919063ffffffff16565b91505092915050565b5f611dc6848484612169565b8015611e085750611e07611def8573ffffffffffffffffffffffffffffffffffffffff16612123565b611df7611b12565b5f0161213e90919063ffffffff16565b5b90509392505050565b5f611e4c611e343373ffffffffffffffffffffffffffffffffffffffff16612123565b611e3c611b12565b5f0161213e90919063ffffffff16565b905090565b5f7f19457468657265756d205369676e6564204d6573736167653a0a3332000000005f5281601c52603c5f209050919050565b5f81611e91576001611e93565b5f5b9050919050565b805160208201fd5b5f611eab611b12565b90505f825190505f5f90505b81811015611f7257611f0c611efb858381518110611ed857611ed761379d565b5b602002602001015173ffffffffffffffffffffffffffffffffffffffff16612123565b845f0161228890919063ffffffff16565b611f6757838181518110611f2357611f2261379d565b5b60200260200101516040517f531e21ce000000000000000000000000000000000000000000000000000000008152600401611f5e91906130e3565b60405180910390fd5b806001019050611eb7565b50505050565b5f611f81611b12565b90505f825190505f5f90505b8181101561206b575f848281518110611fa957611fa861379d565b5b602002602001015190503073ffffffffffffffffffffffffffffffffffffffff168173ffffffffffffffffffffffffffffffffffffffff16148061201d575061201b61200a8273ffffffffffffffffffffffffffffffffffffffff16612123565b855f0161237f90919063ffffffff16565b155b1561205f57806040517fb20f76e300000000000000000000000000000000000000000000000000000000815260040161205691906130e3565b60405180910390fd5b50806001019050611f8d565b50505050565b5f5f825f0190505f815f60015f1b81526020019081526020015f205490505f5f1b8114806120a457506120a3816120ad565b5b92505050919050565b5f600182169050919050565b5f7fffffffffffffffffffffffffffffffffffffffffffffffffffffffffffff00015f1b82169050919050565b5f5f5f1b60025f1b831614159050919050565b5f5f5f5f6121078686612467565b92509250925061211782826124bc565b82935050505092915050565b5f8160601b6bffffffffffffffffffffffff19169050919050565b5f5f835f0190505f5f1b815f8561ffff191681526020019081526020015f2054141591505092915050565b5f5f5f8573ffffffffffffffffffffffffffffffffffffffff168585604051602401612196929190613cfb565b604051602081830303815290604052631626ba7e60e01b6020820180517bffffffffffffffffffffffffffffffffffffffffffffffffffffffff83818316178352505050506040516121e89190613d59565b5f60405180830381855afa9150503d805f8114612220576040519150601f19603f3d011682016040523d82523d5f602084013e612225565b606091505b509150915081801561223957506020815110155b801561227d5750631626ba7e60e01b7bffffffffffffffffffffffffffffffffffffffffffffffffffffffff19168180602001905181019061227b9190613d83565b145b925050509392505050565b5f5f835f0190505f8361ffff191690505f825f8381526020019081526020015f205490505f5f1b8214806122bd57505f5f1b81145b156122cd575f9350505050612379565b5f60015f1b90505f5b845f8381526020019081526020015f205490505f6122f3826120b9565b90508481036123505760025f1b841661230b8361261e565b612314866120b9565b1717865f8581526020019081526020015f20819055505f5f1b865f8381526020019081526020015f208190555060019650505050505050612379565b8092505061235d816120ad565b15801561236c57505f5f1b8114155b6122d6575f955050505050505b92915050565b5f5f835f0190505f8361ffff191690505f5f1b8114806123b157505f5f1b825f8381526020019081526020015f205414155b156123c0575f92505050612461565b5f825f60015f1b81526020019081526020015f205490505f5f1b8114806123ec57506123eb816120ad565b5b156124265781835f60015f1b81526020019081526020015f208190555060015f1b835f8481526020019081526020015f2081905550612459565b60025f1b8217835f60015f1b81526020019081526020015f208190555080835f8481526020019081526020015f20819055505b600193505050505b92915050565b5f5f5f60418451036124a7575f5f5f602087015192506040870151915060608701515f1a90506124998882858561262d565b9550955095505050506124b5565b5f600285515f1b9250925092505b9250925092565b5f60038111156124cf576124ce613a67565b5b8260038111156124e2576124e1613a67565b5b031561261a57600160038111156124fc576124fb613a67565b5b82600381111561250f5761250e613a67565b5b03612546576040517ff645eedf00000000000000000000000000000000000000000000000000000000815260040160405180910390fd5b6002600381111561255a57612559613a67565b5b82600381111561256d5761256c613a67565b5b036125b157805f1c6040517ffce698f70000000000000000000000000000000000000000000000000000000081526004016125a89190612d6f565b60405180910390fd5b6003808111156125c4576125c3613a67565b5b8260038111156125d7576125d6613a67565b5b0361261957806040517fd78bce0c0000000000000000000000000000000000000000000000000000000081526004016126109190612973565b60405180910390fd5b5b5050565b5f61fffc5f1b82169050919050565b5f5f5f7f7fffffffffffffffffffffffffffffff5d576e7357a4501ddfe92f46681b20a0845f1c1115612669575f60038592509250925061270a565b5f6001888888886040515f815260200160405260405161268c9493929190613dc9565b6020604051602081039080840390855afa1580156126ac573d5f5f3e3d5ffd5b5050506020604051035190505f73ffffffffffffffffffffffffffffffffffffffff168173ffffffffffffffffffffffffffffffffffffffff16036126fd575f60015f5f1b9350935093505061270a565b805f5f5f1b935093509350505b9450945094915050565b5f604051905090565b5f5ffd5b5f5ffd5b5f7fffffffff0000000000000000000000000000000000000000000000000000000082169050919050565b61275981612725565b8114612763575f5ffd5b50565b5f8135905061277481612750565b92915050565b5f6020828403121561278f5761278e61271d565b5b5f61279c84828501612766565b91505092915050565b5f8115159050919050565b6127b9816127a5565b82525050565b5f6020820190506127d25f8301846127b0565b92915050565b5f5ffd5b5f5ffd5b5f601f19601f8301169050919050565b7f4e487b71000000000000000000000000000000000000000000000000000000005f52604160045260245ffd5b612826826127e0565b810181811067ffffffffffffffff82111715612845576128446127f0565b5b80604052505050565b5f612857612714565b9050612863828261281d565b919050565b5f67ffffffffffffffff821115612882576128816127f0565b5b61288b826127e0565b9050602081019050919050565b828183375f83830152505050565b5f6128b86128b384612868565b61284e565b9050828152602081018484840111156128d4576128d36127dc565b5b6128df848285612898565b509392505050565b5f82601f8301126128fb576128fa6127d8565b5b813561290b8482602086016128a6565b91505092915050565b5f602082840312156129295761292861271d565b5b5f82013567ffffffffffffffff81111561294657612945612721565b5b612952848285016128e7565b91505092915050565b5f819050919050565b61296d8161295b565b82525050565b5f6020820190506129865f830184612964565b92915050565b5f73ffffffffffffffffffffffffffffffffffffffff82169050919050565b5f6129b58261298c565b9050919050565b6129c5816129ab565b81146129cf575f5ffd5b50565b5f813590506129e0816129bc565b92915050565b5f819050919050565b6129f8816129e6565b8114612a02575f5ffd5b50565b5f81359050612a13816129ef565b92915050565b5f5ffd5b5f5ffd5b5f5f83601f840112612a3657612a356127d8565b5b8235905067ffffffffffffffff811115612a5357612a52612a19565b5b602083019150836001820283011115612a6f57612a6e612a1d565b5b9250929050565b5f5f5f5f5f60808688031215612a8f57612a8e61271d565b5b5f612a9c888289016129d2565b9550506020612aad888289016129d2565b9450506040612abe88828901612a05565b935050606086013567ffffffffffffffff811115612adf57612ade612721565b5b612aeb88828901612a21565b92509250509295509295909350565b612b0381612725565b82525050565b5f602082019050612b1c5f830184612afa565b92915050565b612b2b8161295b565b8114612b35575f5ffd5b50565b5f81359050612b4681612b22565b92915050565b5f5f5f60408486031215612b6357612b6261271d565b5b5f612b7086828701612b38565b935050602084013567ffffffffffffffff811115612b9157612b90612721565b5b612b9d86828701612a21565b92509250509250925092565b5f5f83601f840112612bbe57612bbd6127d8565b5b8235905067ffffffffffffffff811115612bdb57612bda612a19565b5b602083019150836020820283011115612bf757612bf6612a1d565b5b9250929050565b5f5f83601f840112612c1357612c126127d8565b5b8235905067ffffffffffffffff811115612c3057612c2f612a19565b5b602083019150836020820283011115612c4c57612c4b612a1d565b5b9250929050565b5f5f5f5f60408587031215612c6b57612c6a61271d565b5b5f85013567ffffffffffffffff811115612c8857612c87612721565b5b612c9487828801612ba9565b9450945050602085013567ffffffffffffffff811115612cb757612cb6612721565b5b612cc387828801612bfe565b925092505092959194509250565b5f5ffd5b5f6101208284031215612ceb57612cea612cd1565b5b81905092915050565b5f5f5f60608486031215612d0b57612d0a61271d565b5b5f84013567ffffffffffffffff811115612d2857612d27612721565b5b612d3486828701612cd5565b9350506020612d4586828701612b38565b9250506040612d5686828701612a05565b9150509250925092565b612d69816129e6565b82525050565b5f602082019050612d825f830184612d60565b92915050565b5f5f83601f840112612d9d57612d9c6127d8565b5b8235905067ffffffffffffffff811115612dba57612db9612a19565b5b602083019150836020820283011115612dd657612dd5612a1d565b5b9250929050565b5f5f60208385031215612df357612df261271d565b5b5f83013567ffffffffffffffff811115612e1057612e0f612721565b5b612e1c85828601612d88565b92509250509250929050565b5f67ffffffffffffffff821115612e4257612e416127f0565b5b602082029050602081019050919050565b5f612e65612e6084612e28565b61284e565b90508083825260208201905060208402830185811115612e8857612e87612a1d565b5b835b81811015612eb15780612e9d88826129d2565b845260208401935050602081019050612e8a565b5050509392505050565b5f82601f830112612ecf57612ece6127d8565b5b8135612edf848260208601612e53565b91505092915050565b5f5f60408385031215612efe57612efd61271d565b5b5f83013567ffffffffffffffff811115612f1b57612f1a612721565b5b612f2785828601612ebb565b925050602083013567ffffffffffffffff811115612f4857612f47612721565b5b612f5485828601612ebb565b9150509250929050565b5f5f83601f840112612f7357612f726127d8565b5b8235905067ffffffffffffffff811115612f9057612f8f612a19565b5b602083019150836020820283011115612fac57612fab612a1d565b5b9250929050565b5f5f5f5f5f5f60608789031215612fcd57612fcc61271d565b5b5f87013567ffffffffffffffff811115612fea57612fe9612721565b5b612ff689828a01612ba9565b9650965050602087013567ffffffffffffffff81111561301957613018612721565b5b61302589828a01612f5e565b9450945050604087013567ffffffffffffffff81111561304857613047612721565b5b61305489828a01612bfe565b92509250509295509295509295565b5f5f5f5f6060858703121561307b5761307a61271d565b5b5f61308887828801612a05565b945050602085013567ffffffffffffffff8111156130a9576130a8612721565b5b6130b587828801612a21565b935093505060406130c887828801612b38565b91505092959194509250565b6130dd816129ab565b82525050565b5f6020820190506130f65f8301846130d4565b92915050565b5f5f5f604084860312156131135761311261271d565b5b5f61312086828701612a05565b935050602084013567ffffffffffffffff81111561314157613140612721565b5b61314d86828701612a21565b92509250509250925092565b5f6131638261298c565b9050919050565b61317381613159565b811461317d575f5ffd5b50565b5f8135905061318e8161316a565b92915050565b5f5f604083850312156131aa576131a961271d565b5b5f6131b785828601613180565b92505060206131c885828601612a05565b9150509250929050565b5f5f5f604084860312156131e9576131e861271d565b5b5f6131f6868287016129d2565b935050602084013567ffffffffffffffff81111561321757613216612721565b5b61322386828701612a21565b92509250509250925092565b5f7fff0000000000000000000000000000000000000000000000000000000000000082169050919050565b6132638161322f565b82525050565b5f81519050919050565b5f82825260208201905092915050565b8281835e5f83830152505050565b5f61329b82613269565b6132a58185613273565b93506132b5818560208601613283565b6132be816127e0565b840191505092915050565b5f81519050919050565b5f82825260208201905092915050565b5f819050602082019050919050565b6132fb816129e6565b82525050565b5f61330c83836132f2565b60208301905092915050565b5f602082019050919050565b5f61332e826132c9565b61333881856132d3565b9350613343836132e3565b805f5b8381101561337357815161335a8882613301565b975061336583613318565b925050600181019050613346565b5085935050505092915050565b5f60e0820190506133935f83018a61325a565b81810360208301526133a58189613291565b905081810360408301526133b98188613291565b90506133c86060830187612d60565b6133d560808301866130d4565b6133e260a0830185612964565b81810360c08301526133f48184613324565b905098975050505050505050565b5f5f602083850312156134185761341761271d565b5b5f83013567ffffffffffffffff81111561343557613434612721565b5b61344185828601612ba9565b92509250509250929050565b5f81519050919050565b5f82825260208201905092915050565b5f819050602082019050919050565b61347f816129ab565b82525050565b5f6134908383613476565b60208301905092915050565b5f602082019050919050565b5f6134b28261344d565b6134bc8185613457565b93506134c783613467565b805f5b838110156134f75781516134de8882613485565b97506134e98361349c565b9250506001810190506134ca565b5085935050505092915050565b5f6020820190508181035f83015261351c81846134a8565b905092915050565b5f819050919050565b5f61354761354261353d8461298c565b613524565b61298c565b9050919050565b5f6135588261352d565b9050919050565b5f6135698261354e565b9050919050565b6135798161355f565b82525050565b5f6020820190506135925f830184613570565b92915050565b5f5f5f5f606085870312156135b0576135af61271d565b5b5f6135bd878288016129d2565b94505060206135ce87828801612a05565b935050604085013567ffffffffffffffff8111156135ef576135ee612721565b5b6135fb87828801612a21565b925092505092959194509250565b5f5f5f5f5f5f5f5f60a0898b0312156136255761362461271d565b5b5f6136328b828c016129d2565b98505060206136438b828c016129d2565b975050604089013567ffffffffffffffff81111561366457613663612721565b5b6136708b828c01612f5e565b9650965050606089013567ffffffffffffffff81111561369357613692612721565b5b61369f8b828c01612f5e565b9450945050608089013567ffffffffffffffff8111156136c2576136c1612721565b5b6136ce8b828c01612a21565b92509250509295985092959890939650565b5f5f5f5f5f5f60a087890312156136fa576136f961271d565b5b5f61370789828a016129d2565b965050602061371889828a016129d2565b955050604061372989828a01612a05565b945050606061373a89828a01612a05565b935050608087013567ffffffffffffffff81111561375b5761375a612721565b5b61376789828a01612a21565b92509250509295509295509295565b5f6040820190506137895f830185612964565b6137966020830184612964565b9392505050565b7f4e487b71000000000000000000000000000000000000000000000000000000005f52603260045260245ffd5b5f602082840312156137df576137de61271d565b5b5f6137ec848285016129d2565b91505092915050565b5f5ffd5b5f5ffd5b5f5ffd5b5f5f8335600160200384360303811261381d5761381c6137f5565b5b80840192508235915067ffffffffffffffff82111561383f5761383e6137f9565b5b60208301925060018202360383131561385b5761385a6137fd565b5b509250929050565b5f8235600160600383360303811261387e5761387d6137f5565b5b80830191505092915050565b5f81519050919050565b5f82825260208201905092915050565b5f6138ae8261388a565b6138b88185613894565b93506138c8818560208601613283565b6138d1816127e0565b840191505092915050565b5f6040820190506138ef5f830185612d60565b818103602083015261390181846138a4565b90509392505050565b61391381613159565b82525050565b5f60408201905061392c5f83018561390a565b6139396020830184612d60565b9392505050565b5f819050919050565b5f67ffffffffffffffff82169050919050565b5f61397661397161396c84613940565b613524565b613949565b9050919050565b6139868161395c565b82525050565b5f60208201905061399f5f83018461397d565b92915050565b5f815190506139b3816129ef565b92915050565b5f602082840312156139ce576139cd61271d565b5b5f6139db848285016139a5565b91505092915050565b5f819050919050565b5f77ffffffffffffffffffffffffffffffffffffffffffffffff82169050919050565b5f613a2a613a25613a20846139e4565b613524565b6139ed565b9050919050565b613a3a81613a10565b82525050565b5f604082019050613a535f8301856130d4565b613a606020830184613a31565b9392505050565b7f4e487b71000000000000000000000000000000000000000000000000000000005f52602160045260245ffd5b5f5ffd5b5f5ffd5b5f5f85851115613aaf57613aae613a94565b5b83861115613ac057613abf613a98565b5b6001850283019150848603905094509492505050565b5f82905092915050565b5f7fffffffffffffffffffffffffffffffffffffffff00000000000000000000000082169050919050565b5f82821b905092915050565b5f613b228383613ad6565b82613b2d8135613ae0565b92506014821015613b6d57613b687fffffffffffffffffffffffffffffffffffffffff00000000000000000000000083601403600802613b0b565b831692505b505092915050565b7f6163636f756e743a206e6f742066726f6d20456e747279506f696e74000000005f82015250565b5f613ba9601c83613273565b9150613bb482613b75565b602082019050919050565b5f6020820190508181035f830152613bd681613b9d565b9050919050565b5f81905092915050565b50565b5f613bf55f83613bdd565b9150613c0082613be7565b5f82019050919050565b5f613c1482613bea565b9150819050919050565b5f6040820190508181035f830152613c3681856134a8565b90508181036020830152613c4a81846134a8565b90509392505050565b5f819050919050565b5f613c6a60208401846129d2565b905092915050565b5f602082019050919050565b5f613c898385613457565b9350613c9482613c53565b805f5b85811015613ccc57613ca98284613c5c565b613cb38882613485565b9750613cbe83613c72565b925050600181019050613c97565b5085925050509392505050565b5f6020820190508181035f830152613cf2818486613c7e565b90509392505050565b5f604082019050613d0e5f830185612964565b8181036020830152613d2081846138a4565b90509392505050565b5f613d338261388a565b613d3d8185613bdd565b9350613d4d818560208601613283565b80840191505092915050565b5f613d648284613d29565b915081905092915050565b5f81519050613d7d81612b22565b92915050565b5f60208284031215613d9857613d9761271d565b5b5f613da584828501613d6f565b91505092915050565b5f60ff82169050919050565b613dc381613dae565b82525050565b5f608082019050613ddc5f830187612964565b613de96020830186613dba565b613df66040830185612964565b613e036060830184612964565b9594505050505056fea2646970667358221220c746b3403ffece1d5a001d6c7afe231a8208b964d2d44bff3fd7d51c83fa3ddf64736f6c634300081e0033",
			"opcodes": "PUSH1 0xC0 PUSH1 0x40 MSTORE CALLVALUE DUP1 ISZERO PUSH2 0xF JUMPI PUSH0 PUSH0 REVERT JUMPDEST POP PUSH1 0x40 MLOAD PUSH2 0x6525 CODESIZE SUB DUP1 PUSH2 0x6525 DUP4 CODECOPY DUP2 DUP2 ADD PUSH1 0x40 MSTORE DUP2 ADD SWAP1 PUSH2 0x31 SWAP2 SWAP1 PUSH2 0x492 JUMP JUMPDEST DUP2 PUSH0 PUSH20 0xFFFFFFFFFFFFFFFFFFFFFFFFFFFFFFFFFFFFFFFF AND DUP2 PUSH20 0xFFFFFFFFFFFFFFFFFFFFFFFFFFFFFFFFFFFFFFFF AND SUB PUSH2 0xA2 JUMPI PUSH0 PUSH1 0x40 MLOAD PUSH32 0x1E4FBDF700000000000000000000000000000000000000000000000000000000 DUP2 MSTORE PUSH1 0x4 ADD PUSH2 0x99 SWAP2 SWAP1 PUSH2 0x4DF JUMP JUMPDEST PUSH1 0x40 MLOAD DUP1 SWAP2 SUB SWAP1 REVERT JUMPDEST PUSH2 0xB1 DUP2 PUSH2 0x160 PUSH1 0x20 SHL PUSH1 0x20 SHR JUMP JUMPDEST POP PUSH2 0xC1 DUP2 PUSH2 0x196 PUSH1 0x20 SHL PUSH1 0x20 SHR JUMP JUMPDEST DUP1 PUSH1 0x40 MLOAD PUSH2 0xCE SWAP1 PUSH2 0x3EC JUMP JUMPDEST PUSH2 0xD8 SWAP2 SWAP1 PUSH2 0x553 JUMP JUMPDEST PUSH1 0x40 MLOAD DUP1 SWAP2 SUB SWAP1 PUSH0 CREATE DUP1 ISZERO DUP1 ISZERO PUSH2 0xF1 JUMPI RETURNDATASIZE PUSH0 PUSH0 RETURNDATACOPY RETURNDATASIZE PUSH0 REVERT JUMPDEST POP PUSH20 0xFFFFFFFFFFFFFFFFFFFFFFFFFFFFFFFFFFFFFFFF AND PUSH1 0xA0 DUP2 PUSH20 0xFFFFFFFFFFFFFFFFFFFFFFFFFFFFFFFFFFFFFFFF AND DUP2 MSTORE POP POP DUP1 PUSH20 0xFFFFFFFFFFFFFFFFFFFFFFFFFFFFFFFFFFFFFFFF AND PUSH1 0x80 DUP2 PUSH20 0xFFFFFFFFFFFFFFFFFFFFFFFFFFFFFFFFFFFFFFFF AND DUP2 MSTORE POP POP POP POP PUSH2 0x5BF JUMP JUMPDEST PUSH1 0x1 PUSH0 PUSH2 0x100 EXP DUP2 SLOAD SWAP1 PUSH20 0xFFFFFFFFFFFFFFFFFFFFFFFFFFFFFFFFFFFFFFFF MUL NOT AND SWAP1 SSTORE PUSH2 0x193 DUP2 PUSH2 0x20A PUSH1 0x20 SHL PUSH1 0x20 SHR JUMP JUMPDEST POP JUMP JUMPDEST PUSH2 0x1C6 DUP2 PUSH32 0x989CCC5800000000000000000000000000000000000000000000000000000000 PUSH2 0x2CB PUSH1 0x20 SHL PUSH1 0x20 SHR JUMP JUMPDEST PUSH2 0x207 JUMPI DUP1 PUSH1 0x40 MLOAD PUSH32 0x1D6DDBF400000000000000000000000000000000000000000000000000000000 DUP2 MSTORE PUSH1 0x4 ADD PUSH2 0x1FE SWAP2 SWAP1 PUSH2 0x4DF JUMP JUMPDEST PUSH1 0x40 MLOAD DUP1 SWAP2 SUB SWAP1 REVERT JUMPDEST POP JUMP JUMPDEST PUSH0 PUSH0 PUSH0 SWAP1 SLOAD SWAP1 PUSH2 0x100 EXP SWAP1 DIV PUSH20 0xFFFFFFFFFFFFFFFFFFFFFFFFFFFFFFFFFFFFFFFF AND SWAP1 POP DUP2 PUSH0 PUSH0 PUSH2 0x100 EXP DUP2 SLOAD DUP2 PUSH20 0xFFFFFFFFFFFFFFFFFFFFFFFFFFFFFFFFFFFFFFFF MUL NOT AND SWAP1 DUP4 PUSH20 0xFFFFFFFFFFFFFFFFFFFFFFFFFFFFFFFFFFFFFFFF AND MUL OR SWAP1 SSTORE POP DUP2 PUSH20 0xFFFFFFFFFFFFFFFFFFFFFFFFFFFFFFFFFFFFFFFF AND DUP2 PUSH20 0xFFFFFFFFFFFFFFFFFFFFFFFFFFFFFFFFFFFFFFFF AND PUSH32 0x8BE0079C531659141344CD1FD0A4F28419497F9722A3DAAFE3B4186F6B6457E0 PUSH1 0x40 MLOAD PUSH1 0x40 MLOAD DUP1 SWAP2 SUB SWAP1 LOG3 POP POP JUMP JUMPDEST PUSH0 PUSH2 0x2DB DUP4 PUSH2 0x2FB PUSH1 0x20 SHL PUSH1 0x20 SHR JUMP JUMPDEST DUP1 ISZERO PUSH2 0x2F3 JUMPI POP PUSH2 0x2F2 DUP4 DUP4 PUSH2 0x353 PUSH1 0x20 SHL PUSH1 0x20 SHR JUMP JUMPDEST JUMPDEST SWAP1 POP SWAP3 SWAP2 POP POP JUMP JUMPDEST PUSH0 PUSH2 0x32C DUP3 PUSH32 0x1FFC9A700000000000000000000000000000000000000000000000000000000 PUSH2 0x353 PUSH1 0x20 SHL PUSH1 0x20 SHR JUMP JUMPDEST DUP1 ISZERO PUSH2 0x34C JUMPI POP PUSH2 0x34A DUP3 PUSH4 0xFFFFFFFF PUSH1 0xE0 SHL PUSH2 0x353 PUSH1 0x20 SHL PUSH1 0x20 SHR JUMP JUMPDEST ISZERO JUMPDEST SWAP1 POP SWAP2 SWAP1 POP JUMP JUMPDEST PUSH0 PUSH0 DUP3 PUSH1 0x40 MLOAD PUSH1 0x24 ADD PUSH2 0x366 SWAP2 SWAP1 PUSH2 0x5A6 JUMP JUMPDEST PUSH1 0x40 MLOAD PUSH1 0x20 DUP2 DUP4 SUB SUB DUP2 MSTORE SWAP1 PUSH1 0x40 MSTORE PUSH4 0x1FFC9A7 PUSH1 0xE0 SHL PUSH1 0x20 DUP3 ADD DUP1 MLOAD PUSH28 0xFFFFFFFFFFFFFFFFFFFFFFFFFFFFFFFFFFFFFFFFFFFFFFFFFFFFFFFF DUP4 DUP2 DUP4 AND OR DUP4 MSTORE POP POP POP POP SWAP1 POP PUSH0 PUSH0 PUSH0 PUSH1 0x20 PUSH0 DUP6 MLOAD PUSH1 0x20 DUP8 ADD DUP11 PUSH2 0x7530 STATICCALL SWAP3 POP RETURNDATASIZE SWAP2 POP PUSH0 MLOAD SWAP1 POP DUP3 DUP1 ISZERO PUSH2 0x3D5 JUMPI POP PUSH1 0x20 DUP3 LT ISZERO JUMPDEST DUP1 ISZERO PUSH2 0x3E0 JUMPI POP PUSH0 DUP2 GT JUMPDEST SWAP5 POP POP POP POP POP SWAP3 SWAP2 POP POP JUMP JUMPDEST PUSH2 0x42E3 DUP1 PUSH2 0x2242 DUP4 CODECOPY ADD SWAP1 JUMP JUMPDEST PUSH0 PUSH0 REVERT JUMPDEST PUSH0 PUSH20 0xFFFFFFFFFFFFFFFFFFFFFFFFFFFFFFFFFFFFFFFF DUP3 AND SWAP1 POP SWAP2 SWAP1 POP JUMP JUMPDEST PUSH0 PUSH2 0x426 DUP3 PUSH2 0x3FD JUMP JUMPDEST SWAP1 POP SWAP2 SWAP1 POP JUMP JUMPDEST PUSH2 0x436 DUP2 PUSH2 0x41C JUMP JUMPDEST DUP2 EQ PUSH2 0x440 JUMPI PUSH0 PUSH0 REVERT JUMPDEST POP JUMP JUMPDEST PUSH0 DUP2 MLOAD SWAP1 POP PUSH2 0x451 DUP2 PUSH2 0x42D JUMP JUMPDEST SWAP3 SWAP2 POP POP JUMP JUMPDEST PUSH0 PUSH2 0x461 DUP3 PUSH2 0x41C JUMP JUMPDEST SWAP1 POP SWAP2 SWAP1 POP JUMP JUMPDEST PUSH2 0x471 DUP2 PUSH2 0x457 JUMP JUMPDEST DUP2 EQ PUSH2 0x47B JUMPI PUSH0 PUSH0 REVERT JUMPDEST POP JUMP JUMPDEST PUSH0 DUP2 MLOAD SWAP1 POP PUSH2 0x48C DUP2 PUSH2 0x468 JUMP JUMPDEST SWAP3 SWAP2 POP POP JUMP JUMPDEST PUSH0 PUSH0 PUSH1 0x40 DUP4 DUP6 SUB SLT ISZERO PUSH2 0x4A8 JUMPI PUSH2 0x4A7 PUSH2 0x3F9 JUMP JUMPDEST JUMPDEST PUSH0 PUSH2 0x4B5 DUP6 DUP3 DUP7 ADD PUSH2 0x443 JUMP JUMPDEST SWAP3 POP POP PUSH1 0x20 PUSH2 0x4C6 DUP6 DUP3 DUP7 ADD PUSH2 0x47E JUMP JUMPDEST SWAP2 POP POP SWAP3 POP SWAP3 SWAP1 POP JUMP JUMPDEST PUSH2 0x4D9 DUP2 PUSH2 0x41C JUMP JUMPDEST DUP3 MSTORE POP POP JUMP JUMPDEST PUSH0 PUSH1 0x20 DUP3 ADD SWAP1 POP PUSH2 0x4F2 PUSH0 DUP4 ADD DUP5 PUSH2 0x4D0 JUMP JUMPDEST SWAP3 SWAP2 POP POP JUMP JUMPDEST PUSH0 DUP2 SWAP1 POP SWAP2 SWAP1 POP JUMP JUMPDEST PUSH0 PUSH2 0x51B PUSH2 0x516 PUSH2 0x511 DUP5 PUSH2 0x3FD JUMP JUMPDEST PUSH2 0x4F8 JUMP JUMPDEST PUSH2 0x3FD JUMP JUMPDEST SWAP1 POP SWAP2 SWAP1 POP JUMP JUMPDEST PUSH0 PUSH2 0x52C DUP3 PUSH2 0x501 JUMP JUMPDEST SWAP1 POP SWAP2 SWAP1 POP JUMP JUMPDEST PUSH0 PUSH2 0x53D DUP3 PUSH2 0x522 JUMP JUMPDEST SWAP1 POP SWAP2 SWAP1 POP JUMP JUMPDEST PUSH2 0x54D DUP2 PUSH2 0x533 JUMP JUMPDEST DUP3 MSTORE POP POP JUMP JUMPDEST PUSH0 PUSH1 0x20 DUP3 ADD SWAP1 POP PUSH2 0x566 PUSH0 DUP4 ADD DUP5 PUSH2 0x544 JUMP JUMPDEST SWAP3 SWAP2 POP POP JUMP JUMPDEST PUSH0 PUSH32 0xFFFFFFFF00000000000000000000000000000000000000000000000000000000 DUP3 AND SWAP1 POP SWAP2 SWAP1 POP JUMP JUMPDEST PUSH2 0x5A0 DUP2 PUSH2 0x56C JUMP JUMPDEST DUP3 MSTORE POP POP JUMP JUMPDEST PUSH0 PUSH1 0x20 DUP3 ADD SWAP1 POP PUSH2 0x5B9 PUSH0 DUP4 ADD DUP5 PUSH2 0x597 JUMP JUMPDEST SWAP3 SWAP2 POP POP JUMP JUMPDEST PUSH1 0x80 MLOAD PUSH1 0xA0 MLOAD PUSH2 0x1C38 PUSH2 0x60A PUSH0 CODECOPY PUSH0 DUP2 DUP2 PUSH2 0x425 ADD MSTORE DUP2 DUP2 PUSH2 0x4D1 ADD MSTORE DUP2 DUP2 PUSH2 0x615 ADD MSTORE PUSH2 0x69D ADD MSTORE PUSH0 DUP2 DUP2 PUSH2 0x5E4 ADD MSTORE DUP2 DUP2 PUSH2 0x793 ADD MSTORE DUP2 DUP2 PUSH2 0x87D ADD MSTORE PUSH2 0xB38 ADD MSTORE PUSH2 0x1C38 PUSH0 RETURN INVALID PUSH1 0x80 PUSH1 0x40 MSTORE PUSH1 0x4 CALLDATASIZE LT PUSH2 0xE0 JUMPI PUSH0 CALLDATALOAD PUSH1 0xE0 SHR DUP1 PUSH4 0xB54C02F2 GT PUSH2 0x7E JUMPI DUP1 PUSH4 0xD9CAED12 GT PUSH2 0x58 JUMPI DUP1 PUSH4 0xD9CAED12 EQ PUSH2 0x287 JUMPI DUP1 PUSH4 0xE30C3978 EQ PUSH2 0x2AF JUMPI DUP1 PUSH4 0xF2FDE38B EQ PUSH2 0x2D9 JUMPI DUP1 PUSH4 0xFBB1C3D4 EQ PUSH2 0x301 JUMPI PUSH2 0xE7 JUMP JUMPDEST DUP1 PUSH4 0xB54C02F2 EQ PUSH2 0x20D JUMPI DUP1 PUSH4 0xBB9FE6BF EQ PUSH2 0x249 JUMPI DUP1 PUSH4 0xC23A5CEA EQ PUSH2 0x25F JUMPI PUSH2 0xE7 JUMP JUMPDEST DUP1 PUSH4 0x79BA5097 GT PUSH2 0xBA JUMPI DUP1 PUSH4 0x79BA5097 EQ PUSH2 0x167 JUMPI DUP1 PUSH4 0x8DA5CB5B EQ PUSH2 0x17D JUMPI DUP1 PUSH4 0x94430FA5 EQ PUSH2 0x1A7 JUMPI DUP1 PUSH4 0x94F7E8E0 EQ PUSH2 0x1D1 JUMPI PUSH2 0xE7 JUMP JUMPDEST DUP1 PUSH4 0x2796C323 EQ PUSH2 0xEB JUMPI DUP1 PUSH4 0x290AB984 EQ PUSH2 0x127 JUMPI DUP1 PUSH4 0x715018A6 EQ PUSH2 0x151 JUMPI PUSH2 0xE7 JUMP JUMPDEST CALLDATASIZE PUSH2 0xE7 JUMPI STOP JUMPDEST PUSH0 PUSH0 REVERT JUMPDEST CALLVALUE DUP1 ISZERO PUSH2 0xF6 JUMPI PUSH0 PUSH0 REVERT JUMPDEST POP PUSH2 0x111 PUSH1 0x4 DUP1 CALLDATASIZE SUB DUP2 ADD SWAP1 PUSH2 0x10C SWAP2 SWAP1 PUSH2 0x13C7 JUMP JUMPDEST PUSH2 0x31D JUMP JUMPDEST PUSH1 0x40 MLOAD PUSH2 0x11E SWAP2 SWAP1 PUSH2 0x1460 JUMP JUMPDEST PUSH1 0x40 MLOAD DUP1 SWAP2 SUB SWAP1 RETURN JUMPDEST CALLVALUE DUP1 ISZERO PUSH2 0x132 JUMPI PUSH0 PUSH0 REVERT JUMPDEST POP PUSH2 0x13B PUSH2 0x4CF JUMP JUMPDEST PUSH1 0x40 MLOAD PUSH2 0x148 SWAP2 SWAP1 PUSH2 0x1460 JUMP JUMPDEST PUSH1 0x40 MLOAD DUP1 SWAP2 SUB SWAP1 RETURN JUMPDEST CALLVALUE DUP1 ISZERO PUSH2 0x15C JUMPI PUSH0 PUSH0 REVERT JUMPDEST POP PUSH2 0x165 PUSH2 0x4F3 JUMP JUMPDEST STOP JUMPDEST CALLVALUE DUP1 ISZERO PUSH2 0x172 JUMPI PUSH0 PUSH0 REVERT JUMPDEST POP PUSH2 0x17B PUSH2 0x52D JUMP JUMPDEST STOP JUMPDEST CALLVALUE DUP1 ISZERO PUSH2 0x188 JUMPI PUSH0 PUSH0 REVERT JUMPDEST POP PUSH2 0x191 PUSH2 0x5BB JUMP JUMPDEST PUSH1 0x40 MLOAD PUSH2 0x19E SWAP2 SWAP1 PUSH2 0x1488 JUMP JUMPDEST PUSH1 0x40 MLOAD DUP1 SWAP2 SUB SWAP1 RETURN JUMPDEST CALLVALUE DUP1 ISZERO PUSH2 0x1B2 JUMPI PUSH0 PUSH0 REVERT JUMPDEST POP PUSH2 0x1BB PUSH2 0x5E2 JUMP JUMPDEST PUSH1 0x40 MLOAD PUSH2 0x1C8 SWAP2 SWAP1 PUSH2 0x14D2 JUMP JUMPDEST PUSH1 0x40 MLOAD DUP1 SWAP2 SUB SWAP1 RETURN JUMPDEST CALLVALUE DUP1 ISZERO PUSH2 0x1DC JUMPI PUSH0 PUSH0 REVERT JUMPDEST POP PUSH2 0x1F7 PUSH1 0x4 DUP1 CALLDATASIZE SUB DUP2 ADD SWAP1 PUSH2 0x1F2 SWAP2 SWAP1 PUSH2 0x163B JUMP JUMPDEST PUSH2 0x606 JUMP JUMPDEST PUSH1 0x40 MLOAD PUSH2 0x204 SWAP2 SWAP1 PUSH2 0x1488 JUMP JUMPDEST PUSH1 0x40 MLOAD DUP1 SWAP2 SUB SWAP1 RETURN JUMPDEST CALLVALUE DUP1 ISZERO PUSH2 0x218 JUMPI PUSH0 PUSH0 REVERT JUMPDEST POP PUSH2 0x233 PUSH1 0x4 DUP1 CALLDATASIZE SUB DUP2 ADD SWAP1 PUSH2 0x22E SWAP2 SWAP1 PUSH2 0x16EE JUMP JUMPDEST PUSH2 0x64C JUMP JUMPDEST PUSH1 0x40 MLOAD PUSH2 0x240 SWAP2 SWAP1 PUSH2 0x1460 JUMP JUMPDEST PUSH1 0x40 MLOAD DUP1 SWAP2 SUB SWAP1 RETURN JUMPDEST CALLVALUE DUP1 ISZERO PUSH2 0x254 JUMPI PUSH0 PUSH0 REVERT JUMPDEST POP PUSH2 0x25D PUSH2 0x789 JUMP JUMPDEST STOP JUMPDEST CALLVALUE DUP1 ISZERO PUSH2 0x26A JUMPI PUSH0 PUSH0 REVERT JUMPDEST POP PUSH2 0x285 PUSH1 0x4 DUP1 CALLDATASIZE SUB DUP2 ADD SWAP1 PUSH2 0x280 SWAP2 SWAP1 PUSH2 0x1786 JUMP JUMPDEST PUSH2 0x80E JUMP JUMPDEST STOP JUMPDEST CALLVALUE DUP1 ISZERO PUSH2 0x292 JUMPI PUSH0 PUSH0 REVERT JUMPDEST POP PUSH2 0x2AD PUSH1 0x4 DUP1 CALLDATASIZE SUB DUP2 ADD SWAP1 PUSH2 0x2A8 SWAP2 SWAP1 PUSH2 0x17B1 JUMP JUMPDEST PUSH2 0x904 JUMP JUMPDEST STOP JUMPDEST CALLVALUE DUP1 ISZERO PUSH2 0x2BA JUMPI PUSH0 PUSH0 REVERT JUMPDEST POP PUSH2 0x2C3 PUSH2 0xA5A JUMP JUMPDEST PUSH1 0x40 MLOAD PUSH2 0x2D0 SWAP2 SWAP1 PUSH2 0x1488 JUMP JUMPDEST PUSH1 0x40 MLOAD DUP1 SWAP2 SUB SWAP1 RETURN JUMPDEST CALLVALUE DUP1 ISZERO PUSH2 0x2E4 JUMPI PUSH0 PUSH0 REVERT JUMPDEST POP PUSH2 0x2FF PUSH1 0x4 DUP1 CALLDATASIZE SUB DUP2 ADD SWAP1 PUSH2 0x2FA SWAP2 SWAP1 PUSH2 0x1801 JUMP JUMPDEST PUSH2 0xA82 JUMP JUMPDEST STOP JUMPDEST PUSH2 0x31B PUSH1 0x4 DUP1 CALLDATASIZE SUB DUP2 ADD SWAP1 PUSH2 0x316 SWAP2 SWAP1 PUSH2 0x1865 JUMP JUMPDEST PUSH2 0xB2E JUMP JUMPDEST STOP JUMPDEST PUSH0 PUSH0 PUSH20 0xFFFFFFFFFFFFFFFFFFFFFFFFFFFFFFFFFFFFFFFF AND DUP4 PUSH20 0xFFFFFFFFFFFFFFFFFFFFFFFFFFFFFFFFFFFFFFFF AND SUB PUSH2 0x383 JUMPI PUSH1 0x40 MLOAD PUSH32 0xF02E8AC100000000000000000000000000000000000000000000000000000000 DUP2 MSTORE PUSH1 0x4 ADD PUSH1 0x40 MLOAD DUP1 SWAP2 SUB SWAP1 REVERT JUMPDEST PUSH0 PUSH1 0x1 PUSH8 0xFFFFFFFFFFFFFFFF DUP2 GT ISZERO PUSH2 0x39F JUMPI PUSH2 0x39E PUSH2 0x14FF JUMP JUMPDEST JUMPDEST PUSH1 0x40 MLOAD SWAP1 DUP1 DUP3 MSTORE DUP1 PUSH1 0x20 MUL PUSH1 0x20 ADD DUP3 ADD PUSH1 0x40 MSTORE DUP1 ISZERO PUSH2 0x3CD JUMPI DUP2 PUSH1 0x20 ADD PUSH1 0x20 DUP3 MUL DUP1 CALLDATASIZE DUP4 CALLDATACOPY DUP1 DUP3 ADD SWAP2 POP POP SWAP1 POP JUMPDEST POP SWAP1 POP DUP4 DUP2 PUSH0 DUP2 MLOAD DUP2 LT PUSH2 0x3E4 JUMPI PUSH2 0x3E3 PUSH2 0x18A3 JUMP JUMPDEST JUMPDEST PUSH1 0x20 MUL PUSH1 0x20 ADD ADD SWAP1 PUSH20 0xFFFFFFFFFFFFFFFFFFFFFFFFFFFFFFFFFFFFFFFF AND SWAP1 DUP2 PUSH20 0xFFFFFFFFFFFFFFFFFFFFFFFFFFFFFFFFFFFFFFFF AND DUP2 MSTORE POP POP PUSH0 PUSH0 PUSH2 0x453 PUSH32 0x0 PUSH2 0x44E DUP6 DUP9 PUSH2 0xBC2 JUMP JUMPDEST PUSH2 0xBF4 JUMP JUMPDEST SWAP2 POP SWAP2 POP DUP1 SWAP4 POP DUP2 PUSH2 0x4C6 JUMPI DUP4 PUSH20 0xFFFFFFFFFFFFFFFFFFFFFFFFFFFFFFFFFFFFFFFF AND PUSH4 0xA224CEE7 DUP5 PUSH1 0x40 MLOAD DUP3 PUSH4 0xFFFFFFFF AND PUSH1 0xE0 SHL DUP2 MSTORE PUSH1 0x4 ADD PUSH2 0x498 SWAP2 SWAP1 PUSH2 0x1987 JUMP JUMPDEST PUSH0 PUSH1 0x40 MLOAD DUP1 DUP4 SUB DUP2 PUSH0 DUP8 DUP1 EXTCODESIZE ISZERO DUP1 ISZERO PUSH2 0x4AF JUMPI PUSH0 PUSH0 REVERT JUMPDEST POP GAS CALL ISZERO DUP1 ISZERO PUSH2 0x4C1 JUMPI RETURNDATASIZE PUSH0 PUSH0 RETURNDATACOPY RETURNDATASIZE PUSH0 REVERT JUMPDEST POP POP POP POP JUMPDEST POP POP POP SWAP3 SWAP2 POP POP JUMP JUMPDEST PUSH32 0x0 DUP2 JUMP JUMPDEST PUSH2 0x4FB PUSH2 0xC0C JUMP JUMPDEST PUSH1 0x40 MLOAD PUSH32 0x4A7F394F00000000000000000000000000000000000000000000000000000000 DUP2 MSTORE PUSH1 0x4 ADD PUSH1 0x40 MLOAD DUP1 SWAP2 SUB SWAP1 REVERT JUMPDEST PUSH0 PUSH2 0x536 PUSH2 0xC93 JUMP JUMPDEST SWAP1 POP DUP1 PUSH20 0xFFFFFFFFFFFFFFFFFFFFFFFFFFFFFFFFFFFFFFFF AND PUSH2 0x557 PUSH2 0xA5A JUMP JUMPDEST PUSH20 0xFFFFFFFFFFFFFFFFFFFFFFFFFFFFFFFFFFFFFFFF AND EQ PUSH2 0x5AF JUMPI DUP1 PUSH1 0x40 MLOAD PUSH32 0x118CDAA700000000000000000000000000000000000000000000000000000000 DUP2 MSTORE PUSH1 0x4 ADD PUSH2 0x5A6 SWAP2 SWAP1 PUSH2 0x1488 JUMP JUMPDEST PUSH1 0x40 MLOAD DUP1 SWAP2 SUB SWAP1 REVERT JUMPDEST PUSH2 0x5B8 DUP2 PUSH2 0xC9A JUMP JUMPDEST POP JUMP JUMPDEST PUSH0 PUSH0 PUSH0 SWAP1 SLOAD SWAP1 PUSH2 0x100 EXP SWAP1 DIV PUSH20 0xFFFFFFFFFFFFFFFFFFFFFFFFFFFFFFFFFFFFFFFF AND SWAP1 POP SWAP1 JUMP JUMPDEST PUSH32 0x0 DUP2 JUMP JUMPDEST PUSH0 PUSH2 0x610 DUP4 PUSH2 0xCCA JUMP JUMPDEST PUSH2 0x644 PUSH32 0x0 PUSH2 0x63E DUP6 DUP6 PUSH2 0xBC2 JUMP JUMPDEST ADDRESS PUSH2 0xE00 JUMP JUMPDEST SWAP1 POP SWAP3 SWAP2 POP POP JUMP JUMPDEST PUSH0 PUSH2 0x696 DUP5 DUP5 DUP1 DUP1 PUSH1 0x20 MUL PUSH1 0x20 ADD PUSH1 0x40 MLOAD SWAP1 DUP2 ADD PUSH1 0x40 MSTORE DUP1 SWAP4 SWAP3 SWAP2 SWAP1 DUP2 DUP2 MSTORE PUSH1 0x20 ADD DUP4 DUP4 PUSH1 0x20 MUL DUP1 DUP3 DUP5 CALLDATACOPY PUSH0 DUP2 DUP5 ADD MSTORE PUSH1 0x1F NOT PUSH1 0x1F DUP3 ADD AND SWAP1 POP DUP1 DUP4 ADD SWAP3 POP POP POP POP POP POP POP PUSH2 0xCCA JUMP JUMPDEST PUSH0 PUSH0 PUSH2 0x70B PUSH32 0x0 PUSH2 0x706 DUP9 DUP9 DUP1 DUP1 PUSH1 0x20 MUL PUSH1 0x20 ADD PUSH1 0x40 MLOAD SWAP1 DUP2 ADD PUSH1 0x40 MSTORE DUP1 SWAP4 SWAP3 SWAP2 SWAP1 DUP2 DUP2 MSTORE PUSH1 0x20 ADD DUP4 DUP4 PUSH1 0x20 MUL DUP1 DUP3 DUP5 CALLDATACOPY PUSH0 DUP2 DUP5 ADD MSTORE PUSH1 0x1F NOT PUSH1 0x1F DUP3 ADD AND SWAP1 POP DUP1 DUP4 ADD SWAP3 POP POP POP POP POP POP POP DUP8 PUSH2 0xBC2 JUMP JUMPDEST PUSH2 0xBF4 JUMP JUMPDEST SWAP2 POP SWAP2 POP DUP1 SWAP3 POP DUP2 PUSH2 0x780 JUMPI DUP3 PUSH20 0xFFFFFFFFFFFFFFFFFFFFFFFFFFFFFFFFFFFFFFFF AND PUSH4 0xA224CEE7 DUP8 DUP8 PUSH1 0x40 MLOAD DUP4 PUSH4 0xFFFFFFFF AND PUSH1 0xE0 SHL DUP2 MSTORE PUSH1 0x4 ADD PUSH2 0x752 SWAP3 SWAP2 SWAP1 PUSH2 0x1A2D JUMP JUMPDEST PUSH0 PUSH1 0x40 MLOAD DUP1 DUP4 SUB DUP2 PUSH0 DUP8 DUP1 EXTCODESIZE ISZERO DUP1 ISZERO PUSH2 0x769 JUMPI PUSH0 PUSH0 REVERT JUMPDEST POP GAS CALL ISZERO DUP1 ISZERO PUSH2 0x77B JUMPI RETURNDATASIZE PUSH0 PUSH0 RETURNDATACOPY RETURNDATASIZE PUSH0 REVERT JUMPDEST POP POP POP POP JUMPDEST POP POP SWAP4 SWAP3 POP POP POP JUMP JUMPDEST PUSH2 0x791 PUSH2 0xC0C JUMP JUMPDEST PUSH32 0x0 PUSH20 0xFFFFFFFFFFFFFFFFFFFFFFFFFFFFFFFFFFFFFFFF AND PUSH4 0xBB9FE6BF PUSH1 0x40 MLOAD DUP2 PUSH4 0xFFFFFFFF AND PUSH1 0xE0 SHL DUP2 MSTORE PUSH1 0x4 ADD PUSH0 PUSH1 0x40 MLOAD DUP1 DUP4 SUB DUP2 PUSH0 DUP8 DUP1 EXTCODESIZE ISZERO DUP1 ISZERO PUSH2 0x7F6 JUMPI PUSH0 PUSH0 REVERT JUMPDEST POP GAS CALL ISZERO DUP1 ISZERO PUSH2 0x808 JUMPI RETURNDATASIZE PUSH0 PUSH0 RETURNDATACOPY RETURNDATASIZE PUSH0 REVERT JUMPDEST POP POP POP POP JUMP JUMPDEST PUSH2 0x816 PUSH2 0xC0C JUMP JUMPDEST PUSH0 PUSH20 0xFFFFFFFFFFFFFFFFFFFFFFFFFFFFFFFFFFFFFFFF AND DUP2 PUSH20 0xFFFFFFFFFFFFFFFFFFFFFFFFFFFFFFFFFFFFFFFF AND SUB PUSH2 0x87B JUMPI PUSH1 0x40 MLOAD PUSH32 0x8579BEFE00000000000000000000000000000000000000000000000000000000 DUP2 MSTORE PUSH1 0x4 ADD PUSH1 0x40 MLOAD DUP1 SWAP2 SUB SWAP1 REVERT JUMPDEST PUSH32 0x0 PUSH20 0xFFFFFFFFFFFFFFFFFFFFFFFFFFFFFFFFFFFFFFFF AND PUSH4 0xC23A5CEA DUP3 PUSH1 0x40 MLOAD DUP3 PUSH4 0xFFFFFFFF AND PUSH1 0xE0 SHL DUP2 MSTORE PUSH1 0x4 ADD PUSH2 0x8D4 SWAP2 SWAP1 PUSH2 0x1A5E JUMP JUMPDEST PUSH0 PUSH1 0x40 MLOAD DUP1 DUP4 SUB DUP2 PUSH0 DUP8 DUP1 EXTCODESIZE ISZERO DUP1 ISZERO PUSH2 0x8EB JUMPI PUSH0 PUSH0 REVERT JUMPDEST POP GAS CALL ISZERO DUP1 ISZERO PUSH2 0x8FD JUMPI RETURNDATASIZE PUSH0 PUSH0 RETURNDATACOPY RETURNDATASIZE PUSH0 REVERT JUMPDEST POP POP POP POP POP JUMP JUMPDEST PUSH2 0x90C PUSH2 0xC0C JUMP JUMPDEST PUSH0 PUSH20 0xFFFFFFFFFFFFFFFFFFFFFFFFFFFFFFFFFFFFFFFF AND DUP4 PUSH20 0xFFFFFFFFFFFFFFFFFFFFFFFFFFFFFFFFFFFFFFFF AND SUB PUSH2 0x971 JUMPI PUSH1 0x40 MLOAD PUSH32 0x8579BEFE00000000000000000000000000000000000000000000000000000000 DUP2 MSTORE PUSH1 0x4 ADD PUSH1 0x40 MLOAD DUP1 SWAP2 SUB SWAP1 REVERT JUMPDEST PUSH0 PUSH20 0xFFFFFFFFFFFFFFFFFFFFFFFFFFFFFFFFFFFFFFFF AND DUP3 PUSH20 0xFFFFFFFFFFFFFFFFFFFFFFFFFFFFFFFFFFFFFFFF AND SUB PUSH2 0xA49 JUMPI PUSH0 DUP4 PUSH20 0xFFFFFFFFFFFFFFFFFFFFFFFFFFFFFFFFFFFFFFFF AND SELFBALANCE PUSH1 0x40 MLOAD PUSH2 0x9C9 SWAP1 PUSH2 0x1AA4 JUMP JUMPDEST PUSH0 PUSH1 0x40 MLOAD DUP1 DUP4 SUB DUP2 DUP6 DUP8 GAS CALL SWAP3 POP POP POP RETURNDATASIZE DUP1 PUSH0 DUP2 EQ PUSH2 0xA03 JUMPI PUSH1 0x40 MLOAD SWAP2 POP PUSH1 0x1F NOT PUSH1 0x3F RETURNDATASIZE ADD AND DUP3 ADD PUSH1 0x40 MSTORE RETURNDATASIZE DUP3 MSTORE RETURNDATASIZE PUSH0 PUSH1 0x20 DUP5 ADD RETURNDATACOPY PUSH2 0xA08 JUMP JUMPDEST PUSH1 0x60 SWAP2 POP JUMPDEST POP POP SWAP1 POP DUP1 PUSH2 0xA43 JUMPI PUSH1 0x40 MLOAD PUSH32 0x90B8EC1800000000000000000000000000000000000000000000000000000000 DUP2 MSTORE PUSH1 0x4 ADD PUSH1 0x40 MLOAD DUP1 SWAP2 SUB SWAP1 REVERT JUMPDEST POP PUSH2 0xA55 JUMP JUMPDEST PUSH2 0xA54 DUP3 DUP5 DUP4 PUSH2 0xE22 JUMP JUMPDEST JUMPDEST POP POP POP JUMP JUMPDEST PUSH0 PUSH1 0x1 PUSH0 SWAP1 SLOAD SWAP1 PUSH2 0x100 EXP SWAP1 DIV PUSH20 0xFFFFFFFFFFFFFFFFFFFFFFFFFFFFFFFFFFFFFFFF AND SWAP1 POP SWAP1 JUMP JUMPDEST PUSH2 0xA8A PUSH2 0xC0C JUMP JUMPDEST DUP1 PUSH1 0x1 PUSH0 PUSH2 0x100 EXP DUP2 SLOAD DUP2 PUSH20 0xFFFFFFFFFFFFFFFFFFFFFFFFFFFFFFFFFFFFFFFF MUL NOT AND SWAP1 DUP4 PUSH20 0xFFFFFFFFFFFFFFFFFFFFFFFFFFFFFFFFFFFFFFFF AND MUL OR SWAP1 SSTORE POP DUP1 PUSH20 0xFFFFFFFFFFFFFFFFFFFFFFFFFFFFFFFFFFFFFFFF AND PUSH2 0xAE9 PUSH2 0x5BB JUMP JUMPDEST PUSH20 0xFFFFFFFFFFFFFFFFFFFFFFFFFFFFFFFFFFFFFFFF AND PUSH32 0x38D16B8CAC22D99FC7C124B9CD0DE2D3FA1FAEF420BFE791D8C362D765E22700 PUSH1 0x40 MLOAD PUSH1 0x40 MLOAD DUP1 SWAP2 SUB SWAP1 LOG3 POP JUMP JUMPDEST PUSH2 0xB36 PUSH2 0xC0C JUMP JUMPDEST PUSH32 0x0 PUSH20 0xFFFFFFFFFFFFFFFFFFFFFFFFFFFFFFFFFFFFFFFF AND PUSH4 0x396CB60 DUP3 DUP5 PUSH1 0x40 MLOAD DUP4 PUSH4 0xFFFFFFFF AND PUSH1 0xE0 SHL DUP2 MSTORE PUSH1 0x4 ADD PUSH2 0xB90 SWAP2 SWAP1 PUSH2 0x1AC7 JUMP JUMPDEST PUSH0 PUSH1 0x40 MLOAD DUP1 DUP4 SUB DUP2 DUP6 DUP9 DUP1 EXTCODESIZE ISZERO DUP1 ISZERO PUSH2 0xBA7 JUMPI PUSH0 PUSH0 REVERT JUMPDEST POP GAS CALL ISZERO DUP1 ISZERO PUSH2 0xBB9 JUMPI RETURNDATASIZE PUSH0 PUSH0 RETURNDATACOPY RETURNDATASIZE PUSH0 REVERT JUMPDEST POP POP POP POP POP POP POP JUMP JUMPDEST PUSH0 DUP3 DUP3 PUSH1 0x40 MLOAD PUSH1 0x20 ADD PUSH2 0xBD6 SWAP3 SWAP2 SWAP1 PUSH2 0x1AEF JUMP JUMPDEST PUSH1 0x40 MLOAD PUSH1 0x20 DUP2 DUP4 SUB SUB DUP2 MSTORE SWAP1 PUSH1 0x40 MSTORE DUP1 MLOAD SWAP1 PUSH1 0x20 ADD KECCAK256 SWAP1 POP SWAP3 SWAP2 POP POP JUMP JUMPDEST PUSH0 PUSH0 PUSH2 0xC01 PUSH0 DUP6 DUP6 PUSH2 0xEA1 JUMP JUMPDEST SWAP2 POP SWAP2 POP SWAP3 POP SWAP3 SWAP1 POP JUMP JUMPDEST PUSH2 0xC14 PUSH2 0xC93 JUMP JUMPDEST PUSH20 0xFFFFFFFFFFFFFFFFFFFFFFFFFFFFFFFFFFFFFFFF AND PUSH2 0xC32 PUSH2 0x5BB JUMP JUMPDEST PUSH20 0xFFFFFFFFFFFFFFFFFFFFFFFFFFFFFFFFFFFFFFFF AND EQ PUSH2 0xC91 JUMPI PUSH2 0xC55 PUSH2 0xC93 JUMP JUMPDEST PUSH1 0x40 MLOAD PUSH32 0x118CDAA700000000000000000000000000000000000000000000000000000000 DUP2 MSTORE PUSH1 0x4 ADD PUSH2 0xC88 SWAP2 SWAP1 PUSH2 0x1488 JUMP JUMPDEST PUSH1 0x40 MLOAD DUP1 SWAP2 SUB SWAP1 REVERT JUMPDEST JUMP JUMPDEST PUSH0 CALLER SWAP1 POP SWAP1 JUMP JUMPDEST PUSH1 0x1 PUSH0 PUSH2 0x100 EXP DUP2 SLOAD SWAP1 PUSH20 0xFFFFFFFFFFFFFFFFFFFFFFFFFFFFFFFFFFFFFFFF MUL NOT AND SWAP1 SSTORE PUSH2 0xCC7 DUP2 PUSH2 0xF87 JUMP JUMPDEST POP JUMP JUMPDEST PUSH0 DUP2 MLOAD SUB PUSH2 0xD04 JUMPI PUSH1 0x40 MLOAD PUSH32 0xA5C1DFD00000000000000000000000000000000000000000000000000000000 DUP2 MSTORE PUSH1 0x4 ADD PUSH1 0x40 MLOAD DUP1 SWAP2 SUB SWAP1 REVERT JUMPDEST PUSH1 0x64 DUP2 MLOAD GT ISZERO PUSH2 0xD40 JUMPI PUSH1 0x40 MLOAD PUSH32 0x7A64F3A600000000000000000000000000000000000000000000000000000000 DUP2 MSTORE PUSH1 0x4 ADD PUSH1 0x40 MLOAD DUP1 SWAP2 SUB SWAP1 REVERT JUMPDEST PUSH0 PUSH0 DUP3 MLOAD SWAP1 POP PUSH0 PUSH0 SWAP1 POP JUMPDEST DUP2 DUP2 LT ISZERO PUSH2 0xDFA JUMPI DUP3 PUSH20 0xFFFFFFFFFFFFFFFFFFFFFFFFFFFFFFFFFFFFFFFF AND DUP5 DUP3 DUP2 MLOAD DUP2 LT PUSH2 0xD7D JUMPI PUSH2 0xD7C PUSH2 0x18A3 JUMP JUMPDEST JUMPDEST PUSH1 0x20 MUL PUSH1 0x20 ADD ADD MLOAD PUSH20 0xFFFFFFFFFFFFFFFFFFFFFFFFFFFFFFFFFFFFFFFF AND GT PUSH2 0xDD2 JUMPI PUSH1 0x40 MLOAD PUSH32 0xF02E8AC100000000000000000000000000000000000000000000000000000000 DUP2 MSTORE PUSH1 0x4 ADD PUSH1 0x40 MLOAD DUP1 SWAP2 SUB SWAP1 REVERT JUMPDEST DUP4 DUP2 DUP2 MLOAD DUP2 LT PUSH2 0xDE5 JUMPI PUSH2 0xDE4 PUSH2 0x18A3 JUMP JUMPDEST JUMPDEST PUSH1 0x20 MUL PUSH1 0x20 ADD ADD MLOAD SWAP3 POP DUP1 PUSH1 0x1 ADD SWAP1 POP PUSH2 0xD4B JUMP JUMPDEST POP POP POP POP JUMP JUMPDEST PUSH0 PUSH0 PUSH2 0xE0B DUP6 PUSH2 0x1048 JUMP JUMPDEST SWAP1 POP PUSH2 0xE18 DUP2 DUP6 DUP6 PUSH2 0x10C0 JUMP JUMPDEST SWAP2 POP POP SWAP4 SWAP3 POP POP POP JUMP JUMPDEST PUSH2 0xE9C DUP4 DUP5 PUSH20 0xFFFFFFFFFFFFFFFFFFFFFFFFFFFFFFFFFFFFFFFF AND PUSH4 0xA9059CBB DUP6 DUP6 PUSH1 0x40 MLOAD PUSH1 0x24 ADD PUSH2 0xE55 SWAP3 SWAP2 SWAP1 PUSH2 0x1B1D JUMP JUMPDEST PUSH1 0x40 MLOAD PUSH1 0x20 DUP2 DUP4 SUB SUB DUP2 MSTORE SWAP1 PUSH1 0x40 MSTORE SWAP2 POP PUSH1 0xE0 SHL PUSH1 0x20 DUP3 ADD DUP1 MLOAD PUSH28 0xFFFFFFFFFFFFFFFFFFFFFFFFFFFFFFFFFFFFFFFFFFFFFFFFFFFFFFFF DUP4 DUP2 DUP4 AND OR DUP4 MSTORE POP POP POP POP PUSH2 0x10E5 JUMP JUMPDEST POP POP POP JUMP JUMPDEST PUSH0 PUSH0 PUSH1 0x40 MLOAD PUSH32 0xCC3735A920A3CA505D382BBC545AF43D6000803E6038573D6000FD5B3D6000F3 PUSH1 0x60 MSTORE PUSH32 0x5155F3363D3D373D3D363D7F360894A13BA1A3210667C828492DB98DCA3E2076 PUSH1 0x40 MSTORE PUSH2 0x6009 PUSH1 0x20 MSTORE DUP5 PUSH1 0x1E MSTORE PUSH9 0x603D3D8160223D3973 PUSH1 0xA MSTORE PUSH1 0x5F PUSH1 0x21 KECCAK256 PUSH1 0x35 DUP3 ADD MSTORE ADDRESS PUSH1 0x58 SHL DUP2 MSTORE PUSH1 0xFF DUP2 MSTORE8 DUP4 PUSH1 0x15 DUP3 ADD MSTORE PUSH1 0x55 DUP2 KECCAK256 SWAP2 POP PUSH1 0x1 ISZERO PUSH2 0xF76 JUMPI DUP2 EXTCODESIZE PUSH2 0xF52 JUMPI DUP4 PUSH1 0x5F PUSH1 0x21 DUP9 CREATE2 SWAP2 POP DUP2 PUSH2 0xF4D JUMPI PUSH4 0x30116425 PUSH0 MSTORE PUSH1 0x4 PUSH1 0x1C REVERT JUMPDEST PUSH2 0xF76 JUMP JUMPDEST PUSH1 0x1 SWAP3 POP DUP6 ISZERO PUSH2 0xF76 JUMPI PUSH0 CODESIZE PUSH0 CODESIZE DUP10 DUP7 GAS CALL PUSH2 0xF75 JUMPI PUSH4 0xB12D13EB PUSH0 MSTORE PUSH1 0x4 PUSH1 0x1C REVERT JUMPDEST JUMPDEST DUP1 PUSH1 0x40 MSTORE PUSH0 PUSH1 0x60 MSTORE POP SWAP4 POP SWAP4 SWAP2 POP POP JUMP JUMPDEST PUSH0 PUSH0 PUSH0 SWAP1 SLOAD SWAP1 PUSH2 0x100 EXP SWAP1 DIV PUSH20 0xFFFFFFFFFFFFFFFFFFFFFFFFFFFFFFFFFFFFFFFF AND SWAP1 POP DUP2 PUSH0 PUSH0 PUSH2 0x100 EXP DUP2 SLOAD DUP2 PUSH20 0xFFFFFFFFFFFFFFFFFFFFFFFFFFFFFFFFFFFFFFFF MUL NOT AND SWAP1 DUP4 PUSH20 0xFFFFFFFFFFFFFFFFFFFFFFFFFFFFFFFFFFFFFFFF AND MUL OR SWAP1 SSTORE POP DUP2 PUSH20 0xFFFFFFFFFFFFFFFFFFFFFFFFFFFFFFFFFFFFFFFF AND DUP2 PUSH20 0xFFFFFFFFFFFFFFFFFFFFFFFFFFFFFFFFFFFFFFFF AND PUSH32 0x8BE0079C531659141344CD1FD0A4F28419497F9722A3DAAFE3B4186F6B6457E0 PUSH1 0x40 MLOAD PUSH1 0x40 MLOAD DUP1 SWAP2 SUB SWAP1 LOG3 POP POP JUMP JUMPDEST PUSH0 PUSH1 0x40 MLOAD PUSH32 0xCC3735A920A3CA505D382BBC545AF43D6000803E6038573D6000FD5B3D6000F3 PUSH1 0x60 MSTORE PUSH32 0x5155F3363D3D373D3D363D7F360894A13BA1A3210667C828492DB98DCA3E2076 PUSH1 0x40 MSTORE PUSH2 0x6009 PUSH1 0x20 MSTORE DUP3 PUSH1 0x1E MSTORE PUSH9 0x603D3D8160223D3973 PUSH1 0xA MSTORE PUSH1 0x5F PUSH1 0x21 KECCAK256 SWAP2 POP DUP1 PUSH1 0x40 MSTORE PUSH0 PUSH1 0x60 MSTORE POP SWAP2 SWAP1 POP JUMP JUMPDEST PUSH0 PUSH1 0xFF PUSH0 MSTORE8 DUP4 PUSH1 0x35 MSTORE DUP2 PUSH1 0x60 SHL PUSH1 0x1 MSTORE DUP3 PUSH1 0x15 MSTORE PUSH1 0x55 PUSH0 KECCAK256 SWAP1 POP PUSH0 PUSH1 0x35 MSTORE SWAP4 SWAP3 POP POP POP JUMP JUMPDEST PUSH0 PUSH2 0x110F DUP3 DUP5 PUSH20 0xFFFFFFFFFFFFFFFFFFFFFFFFFFFFFFFFFFFFFFFF AND PUSH2 0x117A SWAP1 SWAP2 SWAP1 PUSH4 0xFFFFFFFF AND JUMP JUMPDEST SWAP1 POP PUSH0 DUP2 MLOAD EQ ISZERO DUP1 ISZERO PUSH2 0x1133 JUMPI POP DUP1 DUP1 PUSH1 0x20 ADD SWAP1 MLOAD DUP2 ADD SWAP1 PUSH2 0x1131 SWAP2 SWAP1 PUSH2 0x1B79 JUMP JUMPDEST ISZERO JUMPDEST ISZERO PUSH2 0x1175 JUMPI DUP3 PUSH1 0x40 MLOAD PUSH32 0x5274AFE700000000000000000000000000000000000000000000000000000000 DUP2 MSTORE PUSH1 0x4 ADD PUSH2 0x116C SWAP2 SWAP1 PUSH2 0x1488 JUMP JUMPDEST PUSH1 0x40 MLOAD DUP1 SWAP2 SUB SWAP1 REVERT JUMPDEST POP POP POP JUMP JUMPDEST PUSH1 0x60 PUSH2 0x1187 DUP4 DUP4 PUSH0 PUSH2 0x118F JUMP JUMPDEST SWAP1 POP SWAP3 SWAP2 POP POP JUMP JUMPDEST PUSH1 0x60 DUP2 SELFBALANCE LT ISZERO PUSH2 0x11D6 JUMPI ADDRESS PUSH1 0x40 MLOAD PUSH32 0xCD78605900000000000000000000000000000000000000000000000000000000 DUP2 MSTORE PUSH1 0x4 ADD PUSH2 0x11CD SWAP2 SWAP1 PUSH2 0x1488 JUMP JUMPDEST PUSH1 0x40 MLOAD DUP1 SWAP2 SUB SWAP1 REVERT JUMPDEST PUSH0 PUSH0 DUP6 PUSH20 0xFFFFFFFFFFFFFFFFFFFFFFFFFFFFFFFFFFFFFFFF AND DUP5 DUP7 PUSH1 0x40 MLOAD PUSH2 0x11FE SWAP2 SWAP1 PUSH2 0x1BEC JUMP JUMPDEST PUSH0 PUSH1 0x40 MLOAD DUP1 DUP4 SUB DUP2 DUP6 DUP8 GAS CALL SWAP3 POP POP POP RETURNDATASIZE DUP1 PUSH0 DUP2 EQ PUSH2 0x1238 JUMPI PUSH1 0x40 MLOAD SWAP2 POP PUSH1 0x1F NOT PUSH1 0x3F RETURNDATASIZE ADD AND DUP3 ADD PUSH1 0x40 MSTORE RETURNDATASIZE DUP3 MSTORE RETURNDATASIZE PUSH0 PUSH1 0x20 DUP5 ADD RETURNDATACOPY PUSH2 0x123D JUMP JUMPDEST PUSH1 0x60 SWAP2 POP JUMPDEST POP SWAP2 POP SWAP2 POP PUSH2 0x124D DUP7 DUP4 DUP4 PUSH2 0x1258 JUMP JUMPDEST SWAP3 POP POP POP SWAP4 SWAP3 POP POP POP JUMP JUMPDEST PUSH1 0x60 DUP3 PUSH2 0x126D JUMPI PUSH2 0x1268 DUP3 PUSH2 0x12E5 JUMP JUMPDEST PUSH2 0x12DD JUMP JUMPDEST PUSH0 DUP3 MLOAD EQ DUP1 ISZERO PUSH2 0x1293 JUMPI POP PUSH0 DUP5 PUSH20 0xFFFFFFFFFFFFFFFFFFFFFFFFFFFFFFFFFFFFFFFF AND EXTCODESIZE EQ JUMPDEST ISZERO PUSH2 0x12D5 JUMPI DUP4 PUSH1 0x40 MLOAD PUSH32 0x9996B31500000000000000000000000000000000000000000000000000000000 DUP2 MSTORE PUSH1 0x4 ADD PUSH2 0x12CC SWAP2 SWAP1 PUSH2 0x1488 JUMP JUMPDEST PUSH1 0x40 MLOAD DUP1 SWAP2 SUB SWAP1 REVERT JUMPDEST DUP2 SWAP1 POP PUSH2 0x12DE JUMP JUMPDEST JUMPDEST SWAP4 SWAP3 POP POP POP JUMP JUMPDEST PUSH0 DUP2 MLOAD GT ISZERO PUSH2 0x12F7 JUMPI DUP1 MLOAD DUP1 DUP3 PUSH1 0x20 ADD REVERT JUMPDEST PUSH1 0x40 MLOAD PUSH32 0x1425EA4200000000000000000000000000000000000000000000000000000000 DUP2 MSTORE PUSH1 0x4 ADD PUSH1 0x40 MLOAD DUP1 SWAP2 SUB SWAP1 REVERT JUMPDEST PUSH0 PUSH1 0x40 MLOAD SWAP1 POP SWAP1 JUMP JUMPDEST PUSH0 PUSH0 REVERT JUMPDEST PUSH0 PUSH0 REVERT JUMPDEST PUSH0 PUSH20 0xFFFFFFFFFFFFFFFFFFFFFFFFFFFFFFFFFFFFFFFF DUP3 AND SWAP1 POP SWAP2 SWAP1 POP JUMP JUMPDEST PUSH0 PUSH2 0x1363 DUP3 PUSH2 0x133A JUMP JUMPDEST SWAP1 POP SWAP2 SWAP1 POP JUMP JUMPDEST PUSH2 0x1373 DUP2 PUSH2 0x1359 JUMP JUMPDEST DUP2 EQ PUSH2 0x137D JUMPI PUSH0 PUSH0 REVERT JUMPDEST POP JUMP JUMPDEST PUSH0 DUP2 CALLDATALOAD SWAP1 POP PUSH2 0x138E DUP2 PUSH2 0x136A JUMP JUMPDEST SWAP3 SWAP2 POP POP JUMP JUMPDEST PUSH0 DUP2 SWAP1 POP SWAP2 SWAP1 POP JUMP JUMPDEST PUSH2 0x13A6 DUP2 PUSH2 0x1394 JUMP JUMPDEST DUP2 EQ PUSH2 0x13B0 JUMPI PUSH0 PUSH0 REVERT JUMPDEST POP JUMP JUMPDEST PUSH0 DUP2 CALLDATALOAD SWAP1 POP PUSH2 0x13C1 DUP2 PUSH2 0x139D JUMP JUMPDEST SWAP3 SWAP2 POP POP JUMP JUMPDEST PUSH0 PUSH0 PUSH1 0x40 DUP4 DUP6 SUB SLT ISZERO PUSH2 0x13DD JUMPI PUSH2 0x13DC PUSH2 0x1332 JUMP JUMPDEST JUMPDEST PUSH0 PUSH2 0x13EA DUP6 DUP3 DUP7 ADD PUSH2 0x1380 JUMP JUMPDEST SWAP3 POP POP PUSH1 0x20 PUSH2 0x13FB DUP6 DUP3 DUP7 ADD PUSH2 0x13B3 JUMP JUMPDEST SWAP2 POP POP SWAP3 POP SWAP3 SWAP1 POP JUMP JUMPDEST PUSH0 DUP2 SWAP1 POP SWAP2 SWAP1 POP JUMP JUMPDEST PUSH0 PUSH2 0x1428 PUSH2 0x1423 PUSH2 0x141E DUP5 PUSH2 0x133A JUMP JUMPDEST PUSH2 0x1405 JUMP JUMPDEST PUSH2 0x133A JUMP JUMPDEST SWAP1 POP SWAP2 SWAP1 POP JUMP JUMPDEST PUSH0 PUSH2 0x1439 DUP3 PUSH2 0x140E JUMP JUMPDEST SWAP1 POP SWAP2 SWAP1 POP JUMP JUMPDEST PUSH0 PUSH2 0x144A DUP3 PUSH2 0x142F JUMP JUMPDEST SWAP1 POP SWAP2 SWAP1 POP JUMP JUMPDEST PUSH2 0x145A DUP2 PUSH2 0x1440 JUMP JUMPDEST DUP3 MSTORE POP POP JUMP JUMPDEST PUSH0 PUSH1 0x20 DUP3 ADD SWAP1 POP PUSH2 0x1473 PUSH0 DUP4 ADD DUP5 PUSH2 0x1451 JUMP JUMPDEST SWAP3 SWAP2 POP POP JUMP JUMPDEST PUSH2 0x1482 DUP2 PUSH2 0x1359 JUMP JUMPDEST DUP3 MSTORE POP POP JUMP JUMPDEST PUSH0 PUSH1 0x20 DUP3 ADD SWAP1 POP PUSH2 0x149B PUSH0 DUP4 ADD DUP5 PUSH2 0x1479 JUMP JUMPDEST SWAP3 SWAP2 POP POP JUMP JUMPDEST PUSH0 PUSH2 0x14AB DUP3 PUSH2 0x140E JUMP JUMPDEST SWAP1 POP SWAP2 SWAP1 POP JUMP JUMPDEST PUSH0 PUSH2 0x14BC DUP3 PUSH2 0x14A1 JUMP JUMPDEST SWAP1 POP SWAP2 SWAP1 POP JUMP JUMPDEST PUSH2 0x14CC DUP2 PUSH2 0x14B2 JUMP JUMPDEST DUP3 MSTORE POP POP JUMP JUMPDEST PUSH0 PUSH1 0x20 DUP3 ADD SWAP1 POP PUSH2 0x14E5 PUSH0 DUP4 ADD DUP5 PUSH2 0x14C3 JUMP JUMPDEST SWAP3 SWAP2 POP POP JUMP JUMPDEST PUSH0 PUSH0 REVERT JUMPDEST PUSH0 PUSH1 0x1F NOT PUSH1 0x1F DUP4 ADD AND SWAP1 POP SWAP2 SWAP1 POP JUMP JUMPDEST PUSH32 0x4E487B7100000000000000000000000000000000000000000000000000000000 PUSH0 MSTORE PUSH1 0x41 PUSH1 0x4 MSTORE PUSH1 0x24 PUSH0 REVERT JUMPDEST PUSH2 0x1535 DUP3 PUSH2 0x14EF JUMP JUMPDEST DUP2 ADD DUP2 DUP2 LT PUSH8 0xFFFFFFFFFFFFFFFF DUP3 GT OR ISZERO PUSH2 0x1554 JUMPI PUSH2 0x1553 PUSH2 0x14FF JUMP JUMPDEST JUMPDEST DUP1 PUSH1 0x40 MSTORE POP POP POP JUMP JUMPDEST PUSH0 PUSH2 0x1566 PUSH2 0x1329 JUMP JUMPDEST SWAP1 POP PUSH2 0x1572 DUP3 DUP3 PUSH2 0x152C JUMP JUMPDEST SWAP2 SWAP1 POP JUMP JUMPDEST PUSH0 PUSH8 0xFFFFFFFFFFFFFFFF DUP3 GT ISZERO PUSH2 0x1591 JUMPI PUSH2 0x1590 PUSH2 0x14FF JUMP JUMPDEST JUMPDEST PUSH1 0x20 DUP3 MUL SWAP1 POP PUSH1 0x20 DUP2 ADD SWAP1 POP SWAP2 SWAP1 POP JUMP JUMPDEST PUSH0 PUSH0 REVERT JUMPDEST PUSH0 PUSH2 0x15B8 PUSH2 0x15B3 DUP5 PUSH2 0x1577 JUMP JUMPDEST PUSH2 0x155D JUMP JUMPDEST SWAP1 POP DUP1 DUP4 DUP3 MSTORE PUSH1 0x20 DUP3 ADD SWAP1 POP PUSH1 0x20 DUP5 MUL DUP4 ADD DUP6 DUP2 GT ISZERO PUSH2 0x15DB JUMPI PUSH2 0x15DA PUSH2 0x15A2 JUMP JUMPDEST JUMPDEST DUP4 JUMPDEST DUP2 DUP2 LT ISZERO PUSH2 0x1604 JUMPI DUP1 PUSH2 0x15F0 DUP9 DUP3 PUSH2 0x1380 JUMP JUMPDEST DUP5 MSTORE PUSH1 0x20 DUP5 ADD SWAP4 POP POP PUSH1 0x20 DUP2 ADD SWAP1 POP PUSH2 0x15DD JUMP JUMPDEST POP POP POP SWAP4 SWAP3 POP POP POP JUMP JUMPDEST PUSH0 DUP3 PUSH1 0x1F DUP4 ADD SLT PUSH2 0x1622 JUMPI PUSH2 0x1621 PUSH2 0x14EB JUMP JUMPDEST JUMPDEST DUP2 CALLDATALOAD PUSH2 0x1632 DUP5 DUP3 PUSH1 0x20 DUP7 ADD PUSH2 0x15A6 JUMP JUMPDEST SWAP2 POP POP SWAP3 SWAP2 POP POP JUMP JUMPDEST PUSH0 PUSH0 PUSH1 0x40 DUP4 DUP6 SUB SLT ISZERO PUSH2 0x1651 JUMPI PUSH2 0x1650 PUSH2 0x1332 JUMP JUMPDEST JUMPDEST PUSH0 DUP4 ADD CALLDATALOAD PUSH8 0xFFFFFFFFFFFFFFFF DUP2 GT ISZERO PUSH2 0x166E JUMPI PUSH2 0x166D PUSH2 0x1336 JUMP JUMPDEST JUMPDEST PUSH2 0x167A DUP6 DUP3 DUP7 ADD PUSH2 0x160E JUMP JUMPDEST SWAP3 POP POP PUSH1 0x20 PUSH2 0x168B DUP6 DUP3 DUP7 ADD PUSH2 0x13B3 JUMP JUMPDEST SWAP2 POP POP SWAP3 POP SWAP3 SWAP1 POP JUMP JUMPDEST PUSH0 PUSH0 REVERT JUMPDEST PUSH0 PUSH0 DUP4 PUSH1 0x1F DUP5 ADD SLT PUSH2 0x16AE JUMPI PUSH2 0x16AD PUSH2 0x14EB JUMP JUMPDEST JUMPDEST DUP3 CALLDATALOAD SWAP1 POP PUSH8 0xFFFFFFFFFFFFFFFF DUP2 GT ISZERO PUSH2 0x16CB JUMPI PUSH2 0x16CA PUSH2 0x1695 JUMP JUMPDEST JUMPDEST PUSH1 0x20 DUP4 ADD SWAP2 POP DUP4 PUSH1 0x20 DUP3 MUL DUP4 ADD GT ISZERO PUSH2 0x16E7 JUMPI PUSH2 0x16E6 PUSH2 0x15A2 JUMP JUMPDEST JUMPDEST SWAP3 POP SWAP3 SWAP1 POP JUMP JUMPDEST PUSH0 PUSH0 PUSH0 PUSH1 0x40 DUP5 DUP7 SUB SLT ISZERO PUSH2 0x1705 JUMPI PUSH2 0x1704 PUSH2 0x1332 JUMP JUMPDEST JUMPDEST PUSH0 DUP5 ADD CALLDATALOAD PUSH8 0xFFFFFFFFFFFFFFFF DUP2 GT ISZERO PUSH2 0x1722 JUMPI PUSH2 0x1721 PUSH2 0x1336 JUMP JUMPDEST JUMPDEST PUSH2 0x172E DUP7 DUP3 DUP8 ADD PUSH2 0x1699 JUMP JUMPDEST SWAP4 POP SWAP4 POP POP PUSH1 0x20 PUSH2 0x1741 DUP7 DUP3 DUP8 ADD PUSH2 0x13B3 JUMP JUMPDEST SWAP2 POP POP SWAP3 POP SWAP3 POP SWAP3 JUMP JUMPDEST PUSH0 PUSH2 0x1755 DUP3 PUSH2 0x133A JUMP JUMPDEST SWAP1 POP SWAP2 SWAP1 POP JUMP JUMPDEST PUSH2 0x1765 DUP2 PUSH2 0x174B JUMP JUMPDEST DUP2 EQ PUSH2 0x176F JUMPI PUSH0 PUSH0 REVERT JUMPDEST POP JUMP JUMPDEST PUSH0 DUP2 CALLDATALOAD SWAP1 POP PUSH2 0x1780 DUP2 PUSH2 0x175C JUMP JUMPDEST SWAP3 SWAP2 POP POP JUMP JUMPDEST PUSH0 PUSH1 0x20 DUP3 DUP5 SUB SLT ISZERO PUSH2 0x179B JUMPI PUSH2 0x179A PUSH2 0x1332 JUMP JUMPDEST JUMPDEST PUSH0 PUSH2 0x17A8 DUP5 DUP3 DUP6 ADD PUSH2 0x1772 JUMP JUMPDEST SWAP2 POP POP SWAP3 SWAP2 POP POP JUMP JUMPDEST PUSH0 PUSH0 PUSH0 PUSH1 0x60 DUP5 DUP7 SUB SLT ISZERO PUSH2 0x17C8 JUMPI PUSH2 0x17C7 PUSH2 0x1332 JUMP JUMPDEST JUMPDEST PUSH0 PUSH2 0x17D5 DUP7 DUP3 DUP8 ADD PUSH2 0x1772 JUMP JUMPDEST SWAP4 POP POP PUSH1 0x20 PUSH2 0x17E6 DUP7 DUP3 DUP8 ADD PUSH2 0x1380 JUMP JUMPDEST SWAP3 POP POP PUSH1 0x40 PUSH2 0x17F7 DUP7 DUP3 DUP8 ADD PUSH2 0x13B3 JUMP JUMPDEST SWAP2 POP POP SWAP3 POP SWAP3 POP SWAP3 JUMP JUMPDEST PUSH0 PUSH1 0x20 DUP3 DUP5 SUB SLT ISZERO PUSH2 0x1816 JUMPI PUSH2 0x1815 PUSH2 0x1332 JUMP JUMPDEST JUMPDEST PUSH0 PUSH2 0x1823 DUP5 DUP3 DUP6 ADD PUSH2 0x1380 JUMP JUMPDEST SWAP2 POP POP SWAP3 SWAP2 POP POP JUMP JUMPDEST PUSH0 PUSH4 0xFFFFFFFF DUP3 AND SWAP1 POP SWAP2 SWAP1 POP JUMP JUMPDEST PUSH2 0x1844 DUP2 PUSH2 0x182C JUMP JUMPDEST DUP2 EQ PUSH2 0x184E JUMPI PUSH0 PUSH0 REVERT JUMPDEST POP JUMP JUMPDEST PUSH0 DUP2 CALLDATALOAD SWAP1 POP PUSH2 0x185F DUP2 PUSH2 0x183B JUMP JUMPDEST SWAP3 SWAP2 POP POP JUMP JUMPDEST PUSH0 PUSH0 PUSH1 0x40 DUP4 DUP6 SUB SLT ISZERO PUSH2 0x187B JUMPI PUSH2 0x187A PUSH2 0x1332 JUMP JUMPDEST JUMPDEST PUSH0 PUSH2 0x1888 DUP6 DUP3 DUP7 ADD PUSH2 0x1851 JUMP JUMPDEST SWAP3 POP POP PUSH1 0x20 PUSH2 0x1899 DUP6 DUP3 DUP7 ADD PUSH2 0x13B3 JUMP JUMPDEST SWAP2 POP POP SWAP3 POP SWAP3 SWAP1 POP JUMP JUMPDEST PUSH32 0x4E487B7100000000000000000000000000000000000000000000000000000000 PUSH0 MSTORE PUSH1 0x32 PUSH1 0x4 MSTORE PUSH1 0x24 PUSH0 REVERT JUMPDEST PUSH0 DUP2 MLOAD SWAP1 POP SWAP2 SWAP1 POP JUMP JUMPDEST PUSH0 DUP3 DUP3 MSTORE PUSH1 0x20 DUP3 ADD SWAP1 POP SWAP3 SWAP2 POP POP JUMP JUMPDEST PUSH0 DUP2 SWAP1 POP PUSH1 0x20 DUP3 ADD SWAP1 POP SWAP2 SWAP1 POP JUMP JUMPDEST PUSH2 0x1902 DUP2 PUSH2 0x1359 JUMP JUMPDEST DUP3 MSTORE POP POP JUMP JUMPDEST PUSH0 PUSH2 0x1913 DUP4 DUP4 PUSH2 0x18F9 JUMP JUMPDEST PUSH1 0x20 DUP4 ADD SWAP1 POP SWAP3 SWAP2 POP POP JUMP JUMPDEST PUSH0 PUSH1 0x20 DUP3 ADD SWAP1 POP SWAP2 SWAP1 POP JUMP JUMPDEST PUSH0 PUSH2 0x1935 DUP3 PUSH2 0x18D0 JUMP JUMPDEST PUSH2 0x193F DUP2 DUP6 PUSH2 0x18DA JUMP JUMPDEST SWAP4 POP PUSH2 0x194A DUP4 PUSH2 0x18EA JUMP JUMPDEST DUP1 PUSH0 JUMPDEST DUP4 DUP2 LT ISZERO PUSH2 0x197A JUMPI DUP2 MLOAD PUSH2 0x1961 DUP9 DUP3 PUSH2 0x1908 JUMP JUMPDEST SWAP8 POP PUSH2 0x196C DUP4 PUSH2 0x191F JUMP JUMPDEST SWAP3 POP POP PUSH1 0x1 DUP2 ADD SWAP1 POP PUSH2 0x194D JUMP JUMPDEST POP DUP6 SWAP4 POP POP POP POP SWAP3 SWAP2 POP POP JUMP JUMPDEST PUSH0 PUSH1 0x20 DUP3 ADD SWAP1 POP DUP2 DUP2 SUB PUSH0 DUP4 ADD MSTORE PUSH2 0x199F DUP2 DUP5 PUSH2 0x192B JUMP JUMPDEST SWAP1 POP SWAP3 SWAP2 POP POP JUMP JUMPDEST PUSH0 DUP2 SWAP1 POP SWAP2 SWAP1 POP JUMP JUMPDEST PUSH0 PUSH2 0x19BE PUSH1 0x20 DUP5 ADD DUP5 PUSH2 0x1380 JUMP JUMPDEST SWAP1 POP SWAP3 SWAP2 POP POP JUMP JUMPDEST PUSH0 PUSH1 0x20 DUP3 ADD SWAP1 POP SWAP2 SWAP1 POP JUMP JUMPDEST PUSH0 PUSH2 0x19DD DUP4 DUP6 PUSH2 0x18DA JUMP JUMPDEST SWAP4 POP PUSH2 0x19E8 DUP3 PUSH2 0x19A7 JUMP JUMPDEST DUP1 PUSH0 JUMPDEST DUP6 DUP2 LT ISZERO PUSH2 0x1A20 JUMPI PUSH2 0x19FD DUP3 DUP5 PUSH2 0x19B0 JUMP JUMPDEST PUSH2 0x1A07 DUP9 DUP3 PUSH2 0x1908 JUMP JUMPDEST SWAP8 POP PUSH2 0x1A12 DUP4 PUSH2 0x19C6 JUMP JUMPDEST SWAP3 POP POP PUSH1 0x1 DUP2 ADD SWAP1 POP PUSH2 0x19EB JUMP JUMPDEST POP DUP6 SWAP3 POP POP POP SWAP4 SWAP3 POP POP POP JUMP JUMPDEST PUSH0 PUSH1 0x20 DUP3 ADD SWAP1 POP DUP2 DUP2 SUB PUSH0 DUP4 ADD MSTORE PUSH2 0x1A46 DUP2 DUP5 DUP7 PUSH2 0x19D2 JUMP JUMPDEST SWAP1 POP SWAP4 SWAP3 POP POP POP JUMP JUMPDEST PUSH2 0x1A58 DUP2 PUSH2 0x174B JUMP JUMPDEST DUP3 MSTORE POP POP JUMP JUMPDEST PUSH0 PUSH1 0x20 DUP3 ADD SWAP1 POP PUSH2 0x1A71 PUSH0 DUP4 ADD DUP5 PUSH2 0x1A4F JUMP JUMPDEST SWAP3 SWAP2 POP POP JUMP JUMPDEST PUSH0 DUP2 SWAP1 POP SWAP3 SWAP2 POP POP JUMP JUMPDEST POP JUMP JUMPDEST PUSH0 PUSH2 0x1A8F PUSH0 DUP4 PUSH2 0x1A77 JUMP JUMPDEST SWAP2 POP PUSH2 0x1A9A DUP3 PUSH2 0x1A81 JUMP JUMPDEST PUSH0 DUP3 ADD SWAP1 POP SWAP2 SWAP1 POP JUMP JUMPDEST PUSH0 PUSH2 0x1AAE DUP3 PUSH2 0x1A84 JUMP JUMPDEST SWAP2 POP DUP2 SWAP1 POP SWAP2 SWAP1 POP JUMP JUMPDEST PUSH2 0x1AC1 DUP2 PUSH2 0x182C JUMP JUMPDEST DUP3 MSTORE POP POP JUMP JUMPDEST PUSH0 PUSH1 0x20 DUP3 ADD SWAP1 POP PUSH2 0x1ADA PUSH0 DUP4 ADD DUP5 PUSH2 0x1AB8 JUMP JUMPDEST SWAP3 SWAP2 POP POP JUMP JUMPDEST PUSH2 0x1AE9 DUP2 PUSH2 0x1394 JUMP JUMPDEST DUP3 MSTORE POP POP JUMP JUMPDEST PUSH0 PUSH1 0x40 DUP3 ADD SWAP1 POP DUP2 DUP2 SUB PUSH0 DUP4 ADD MSTORE PUSH2 0x1B07 DUP2 DUP6 PUSH2 0x192B JUMP JUMPDEST SWAP1 POP PUSH2 0x1B16 PUSH1 0x20 DUP4 ADD DUP5 PUSH2 0x1AE0 JUMP JUMPDEST SWAP4 SWAP3 POP POP POP JUMP JUMPDEST PUSH0 PUSH1 0x40 DUP3 ADD SWAP1 POP PUSH2 0x1B30 PUSH0 DUP4 ADD DUP6 PUSH2 0x1479 JUMP JUMPDEST PUSH2 0x1B3D PUSH1 0x20 DUP4 ADD DUP5 PUSH2 0x1AE0 JUMP JUMPDEST SWAP4 SWAP3 POP POP POP JUMP JUMPDEST PUSH0 DUP2 ISZERO ISZERO SWAP1 POP SWAP2 SWAP1 POP JUMP JUMPDEST PUSH2 0x1B58 DUP2 PUSH2 0x1B44 JUMP JUMPDEST DUP2 EQ PUSH2 0x1B62 JUMPI PUSH0 PUSH0 REVERT JUMPDEST POP JUMP JUMPDEST PUSH0 DUP2 MLOAD SWAP1 POP PUSH2 0x1B73 DUP2 PUSH2 0x1B4F JUMP JUMPDEST SWAP3 SWAP2 POP POP JUMP JUMPDEST PUSH0 PUSH1 0x20 DUP3 DUP5 SUB SLT ISZERO PUSH2 0x1B8E JUMPI PUSH2 0x1B8D PUSH2 0x1332 JUMP JUMPDEST JUMPDEST PUSH0 PUSH2 0x1B9B DUP5 DUP3 DUP6 ADD PUSH2 0x1B65 JUMP JUMPDEST SWAP2 POP POP SWAP3 SWAP2 POP POP JUMP JUMPDEST PUSH0 DUP2 MLOAD SWAP1 POP SWAP2 SWAP1 POP JUMP JUMPDEST DUP3 DUP2 DUP4 MCOPY PUSH0 DUP4 DUP4 ADD MSTORE POP POP POP JUMP JUMPDEST PUSH0 PUSH2 0x1BC6 DUP3 PUSH2 0x1BA4 JUMP JUMPDEST PUSH2 0x1BD0 DUP2 DUP6 PUSH2 0x1A77 JUMP JUMPDEST SWAP4 POP PUSH2 0x1BE0 DUP2 DUP6 PUSH1 0x20 DUP7 ADD PUSH2 0x1BAE JUMP JUMPDEST DUP1 DUP5 ADD SWAP2 POP POP SWAP3 SWAP2 POP POP JUMP JUMPDEST PUSH0 PUSH2 0x1BF7 DUP3 DUP5 PUSH2 0x1BBC JUMP JUMPDEST SWAP2 POP DUP2 SWAP1 POP SWAP3 SWAP2 POP POP JUMP INVALID LOG2 PUSH5 0x6970667358 0x22 SLT KECCAK256 SWAP14 TLOAD 0xC2 PUSH7 0xAE7D5141755F9B PUSH30 0x55CEA99587A657F5B4ABBC43F935A25A26E7FBCD64736F6C634300081E00 CALLER PUSH2 0x180 PUSH1 0x40 MSTORE ADDRESS PUSH20 0xFFFFFFFFFFFFFFFFFFFFFFFFFFFFFFFFFFFFFFFF AND PUSH1 0x80 SWAP1 DUP2 MSTORE POP CALLVALUE DUP1 ISZERO PUSH2 0x2D JUMPI PUSH0 PUSH0 REVERT JUMPDEST POP PUSH1 0x40 MLOAD PUSH2 0x42E3 CODESIZE SUB DUP1 PUSH2 0x42E3 DUP4 CODECOPY DUP2 DUP2 ADD PUSH1 0x40 MSTORE DUP2 ADD SWAP1 PUSH2 0x4F SWAP2 SWAP1 PUSH2 0x3D2 JUMP JUMPDEST PUSH32 0xAA296A366A62F6551D3DDFCEAE892D1791068A359A0D3461AAB99DFC6C5FD700 PUSH0 SHL ADDRESS PUSH20 0xFFFFFFFFFFFFFFFFFFFFFFFFFFFFFFFFFFFFFFFF AND PUSH1 0xA0 DUP2 DUP2 MSTORE POP POP CHAINID PUSH1 0xC0 DUP2 DUP2 MSTORE POP POP PUSH1 0x60 DUP1 PUSH2 0xA9 PUSH2 0x1DB PUSH1 0x20 SHL PUSH1 0x20 SHR JUMP JUMPDEST PUSH2 0xC4 JUMPI PUSH2 0xBB PUSH2 0x1DF PUSH1 0x20 SHL PUSH1 0x20 SHR JUMP JUMPDEST DUP1 SWAP3 POP DUP2 SWAP4 POP POP POP JUMPDEST PUSH0 PUSH2 0xD3 PUSH2 0x1DB PUSH1 0x20 SHL PUSH1 0x20 SHR JUMP JUMPDEST PUSH2 0xE4 JUMPI DUP3 DUP1 MLOAD SWAP1 PUSH1 0x20 ADD KECCAK256 PUSH2 0xE8 JUMP JUMPDEST PUSH0 PUSH0 SHL JUMPDEST SWAP1 POP PUSH0 PUSH2 0xF9 PUSH2 0x1DB PUSH1 0x20 SHL PUSH1 0x20 SHR JUMP JUMPDEST PUSH2 0x10A JUMPI DUP3 DUP1 MLOAD SWAP1 PUSH1 0x20 ADD KECCAK256 PUSH2 0x10E JUMP JUMPDEST PUSH0 PUSH0 SHL JUMPDEST SWAP1 POP DUP2 PUSH1 0xE0 DUP2 DUP2 MSTORE POP POP DUP1 PUSH2 0x100 DUP2 DUP2 MSTORE POP POP PUSH0 PUSH2 0x130 PUSH2 0x1DB PUSH1 0x20 SHL PUSH1 0x20 SHR JUMP JUMPDEST PUSH2 0x17A JUMPI PUSH1 0x40 MLOAD PUSH32 0x8B73C3C69BB8FE3D512ECC4CF759CC79239F7B179B0FFACAA9A75D522B39400F DUP2 MSTORE DUP4 PUSH1 0x20 DUP3 ADD MSTORE DUP3 PUSH1 0x40 DUP3 ADD MSTORE CHAINID PUSH1 0x60 DUP3 ADD MSTORE ADDRESS PUSH1 0x80 DUP3 ADD MSTORE PUSH1 0xA0 DUP2 KECCAK256 SWAP2 POP POP JUMPDEST DUP1 PUSH2 0x120 DUP2 DUP2 MSTORE POP POP POP POP POP POP POP DUP1 PUSH2 0x160 DUP2 DUP2 MSTORE POP POP POP DUP1 PUSH20 0xFFFFFFFFFFFFFFFFFFFFFFFFFFFFFFFFFFFFFFFF AND PUSH2 0x140 DUP2 PUSH20 0xFFFFFFFFFFFFFFFFFFFFFFFFFFFFFFFFFFFFFFFF AND DUP2 MSTORE POP POP PUSH2 0x1D5 PUSH2 0x256 PUSH1 0x20 SHL PUSH1 0x20 SHR JUMP JUMPDEST POP PUSH2 0x438 JUMP JUMPDEST PUSH0 SWAP1 JUMP JUMPDEST PUSH1 0x60 DUP1 PUSH1 0x40 MLOAD DUP1 PUSH1 0x40 ADD PUSH1 0x40 MSTORE DUP1 PUSH1 0x1A DUP2 MSTORE PUSH1 0x20 ADD PUSH32 0x4D756C74694F776E6572436F7264796C696E654163636F756E74000000000000 DUP2 MSTORE POP SWAP2 POP PUSH1 0x40 MLOAD DUP1 PUSH1 0x40 ADD PUSH1 0x40 MSTORE DUP1 PUSH1 0x1 DUP2 MSTORE PUSH1 0x20 ADD PUSH32 0x3200000000000000000000000000000000000000000000000000000000000000 DUP2 MSTORE POP SWAP1 POP SWAP1 SWAP2 JUMP JUMPDEST PUSH0 PUSH2 0x265 PUSH2 0x354 PUSH1 0x20 SHL PUSH1 0x20 SHR JUMP JUMPDEST SWAP1 POP DUP1 PUSH0 ADD PUSH1 0x8 SWAP1 SLOAD SWAP1 PUSH2 0x100 EXP SWAP1 DIV PUSH1 0xFF AND ISZERO PUSH2 0x2AF JUMPI PUSH1 0x40 MLOAD PUSH32 0xF92EE8A900000000000000000000000000000000000000000000000000000000 DUP2 MSTORE PUSH1 0x4 ADD PUSH1 0x40 MLOAD DUP1 SWAP2 SUB SWAP1 REVERT JUMPDEST PUSH8 0xFFFFFFFFFFFFFFFF DUP1 AND DUP2 PUSH0 ADD PUSH0 SWAP1 SLOAD SWAP1 PUSH2 0x100 EXP SWAP1 DIV PUSH8 0xFFFFFFFFFFFFFFFF AND PUSH8 0xFFFFFFFFFFFFFFFF AND EQ PUSH2 0x351 JUMPI PUSH8 0xFFFFFFFFFFFFFFFF DUP2 PUSH0 ADD PUSH0 PUSH2 0x100 EXP DUP2 SLOAD DUP2 PUSH8 0xFFFFFFFFFFFFFFFF MUL NOT AND SWAP1 DUP4 PUSH8 0xFFFFFFFFFFFFFFFF AND MUL OR SWAP1 SSTORE POP PUSH32 0xC7F505B2F371AE2175EE4913F4499E1F2633A7B5936321EED1CDAEB6115181D2 PUSH8 0xFFFFFFFFFFFFFFFF PUSH1 0x40 MLOAD PUSH2 0x348 SWAP2 SWAP1 PUSH2 0x41F JUMP JUMPDEST PUSH1 0x40 MLOAD DUP1 SWAP2 SUB SWAP1 LOG1 JUMPDEST POP JUMP JUMPDEST PUSH0 PUSH0 PUSH2 0x160 MLOAD SWAP1 POP DUP1 SWAP2 POP POP SWAP1 JUMP JUMPDEST PUSH0 PUSH0 REVERT JUMPDEST PUSH0 PUSH20 0xFFFFFFFFFFFFFFFFFFFFFFFFFFFFFFFFFFFFFFFF DUP3 AND SWAP1 POP SWAP2 SWAP1 POP JUMP JUMPDEST PUSH0 PUSH2 0x390 DUP3 PUSH2 0x367 JUMP JUMPDEST SWAP1 POP SWAP2 SWAP1 POP JUMP JUMPDEST PUSH0 PUSH2 0x3A1 DUP3 PUSH2 0x386 JUMP JUMPDEST SWAP1 POP SWAP2 SWAP1 POP JUMP JUMPDEST PUSH2 0x3B1 DUP2 PUSH2 0x397 JUMP JUMPDEST DUP2 EQ PUSH2 0x3BB JUMPI PUSH0 PUSH0 REVERT JUMPDEST POP JUMP JUMPDEST PUSH0 DUP2 MLOAD SWAP1 POP PUSH2 0x3CC DUP2 PUSH2 0x3A8 JUMP JUMPDEST SWAP3 SWAP2 POP POP JUMP JUMPDEST PUSH0 PUSH1 0x20 DUP3 DUP5 SUB SLT ISZERO PUSH2 0x3E7 JUMPI PUSH2 0x3E6 PUSH2 0x363 JUMP JUMPDEST JUMPDEST PUSH0 PUSH2 0x3F4 DUP5 DUP3 DUP6 ADD PUSH2 0x3BE JUMP JUMPDEST SWAP2 POP POP SWAP3 SWAP2 POP POP JUMP JUMPDEST PUSH0 PUSH8 0xFFFFFFFFFFFFFFFF DUP3 AND SWAP1 POP SWAP2 SWAP1 POP JUMP JUMPDEST PUSH2 0x419 DUP2 PUSH2 0x3FD JUMP JUMPDEST DUP3 MSTORE POP POP JUMP JUMPDEST PUSH0 PUSH1 0x20 DUP3 ADD SWAP1 POP PUSH2 0x432 PUSH0 DUP4 ADD DUP5 PUSH2 0x410 JUMP JUMPDEST SWAP3 SWAP2 POP POP JUMP JUMPDEST PUSH1 0x80 MLOAD PUSH1 0xA0 MLOAD PUSH1 0xC0 MLOAD PUSH1 0xE0 MLOAD PUSH2 0x100 MLOAD PUSH2 0x120 MLOAD PUSH2 0x140 MLOAD PUSH2 0x160 MLOAD PUSH2 0x3E42 PUSH2 0x4A1 PUSH0 CODECOPY PUSH0 PUSH2 0x19E4 ADD MSTORE PUSH0 DUP2 DUP2 PUSH2 0x1049 ADD MSTORE PUSH2 0x1A0E ADD MSTORE PUSH0 PUSH2 0x1220 ADD MSTORE PUSH0 PUSH2 0x1C9D ADD MSTORE PUSH0 PUSH2 0x1C7A ADD MSTORE PUSH0 PUSH2 0x1D0C ADD MSTORE PUSH0 PUSH2 0x1D30 ADD MSTORE PUSH0 DUP2 DUP2 PUSH2 0xD14 ADD MSTORE PUSH2 0xDF9 ADD MSTORE PUSH2 0x3E42 PUSH0 RETURN INVALID PUSH1 0x80 PUSH1 0x40 MSTORE PUSH1 0x4 CALLDATASIZE LT PUSH2 0x14E JUMPI PUSH0 CALLDATALOAD PUSH1 0xE0 SHR DUP1 PUSH4 0x4D44560D GT PUSH2 0xB5 JUMPI DUP1 PUSH4 0xB0D691FE GT PUSH2 0x6E JUMPI DUP1 PUSH4 0xB0D691FE EQ PUSH2 0x47F JUMPI DUP1 PUSH4 0xB61D27F6 EQ PUSH2 0x4A9 JUMPI DUP1 PUSH4 0xBC197C81 EQ PUSH2 0x4D1 JUMPI DUP1 PUSH4 0xC399EC88 EQ PUSH2 0x50D JUMPI DUP1 PUSH4 0xD087D288 EQ PUSH2 0x537 JUMPI DUP1 PUSH4 0xF23A6E61 EQ PUSH2 0x561 JUMPI PUSH2 0x155 JUMP JUMPDEST DUP1 PUSH4 0x4D44560D EQ PUSH2 0x38F JUMPI DUP1 PUSH4 0x4F1EF286 EQ PUSH2 0x3B7 JUMPI DUP1 PUSH4 0x52D1902D EQ PUSH2 0x3D3 JUMPI DUP1 PUSH4 0x84B0196E EQ PUSH2 0x3FD JUMPI DUP1 PUSH4 0xA224CEE7 EQ PUSH2 0x42D JUMPI DUP1 PUSH4 0xAFFE39C1 EQ PUSH2 0x455 JUMPI PUSH2 0x155 JUMP JUMPDEST DUP1 PUSH4 0x34FCD5BE GT PUSH2 0x107 JUMPI DUP1 PUSH4 0x34FCD5BE EQ PUSH2 0x2AD JUMPI DUP1 PUSH4 0x39562247 EQ PUSH2 0x2D5 JUMPI DUP1 PUSH4 0x47E1DA2A EQ PUSH2 0x2FD JUMPI DUP1 PUSH4 0x4847BE6F EQ PUSH2 0x325 JUMPI DUP1 PUSH4 0x4A58DB19 EQ PUSH2 0x355 JUMPI DUP1 PUSH4 0x4C8C9EA1 EQ PUSH2 0x35F JUMPI PUSH2 0x155 JUMP JUMPDEST DUP1 PUSH4 0x1FFC9A7 EQ PUSH2 0x159 JUMPI DUP1 PUSH4 0xA1028C4 EQ PUSH2 0x195 JUMPI DUP1 PUSH4 0x150B7A02 EQ PUSH2 0x1D1 JUMPI DUP1 PUSH4 0x1626BA7E EQ PUSH2 0x20D JUMPI DUP1 PUSH4 0x18DFB3C7 EQ PUSH2 0x249 JUMPI DUP1 PUSH4 0x19822F7C EQ PUSH2 0x271 JUMPI PUSH2 0x155 JUMP JUMPDEST CALLDATASIZE PUSH2 0x155 JUMPI STOP JUMPDEST PUSH0 PUSH0 REVERT JUMPDEST CALLVALUE DUP1 ISZERO PUSH2 0x164 JUMPI PUSH0 PUSH0 REVERT JUMPDEST POP PUSH2 0x17F PUSH1 0x4 DUP1 CALLDATASIZE SUB DUP2 ADD SWAP1 PUSH2 0x17A SWAP2 SWAP1 PUSH2 0x277A JUMP JUMPDEST PUSH2 0x59D JUMP JUMPDEST PUSH1 0x40 MLOAD PUSH2 0x18C SWAP2 SWAP1 PUSH2 0x27BF JUMP JUMPDEST PUSH1 0x40 MLOAD DUP1 SWAP2 SUB SWAP1 RETURN JUMPDEST CALLVALUE DUP1 ISZERO PUSH2 0x1A0 JUMPI PUSH0 PUSH0 REVERT JUMPDEST POP PUSH2 0x1BB PUSH1 0x4 DUP1 CALLDATASIZE SUB DUP2 ADD SWAP1 PUSH2 0x1B6 SWAP2 SWAP1 PUSH2 0x2914 JUMP JUMPDEST PUSH2 0x6D6 JUMP JUMPDEST PUSH1 0x40 MLOAD PUSH2 0x1C8 SWAP2 SWAP1 PUSH2 0x2973 JUMP JUMPDEST PUSH1 0x40 MLOAD DUP1 SWAP2 SUB SWAP1 RETURN JUMPDEST CALLVALUE DUP1 ISZERO PUSH2 0x1DC JUMPI PUSH0 PUSH0 REVERT JUMPDEST POP PUSH2 0x1F7 PUSH1 0x4 DUP1 CALLDATASIZE SUB DUP2 ADD SWAP1 PUSH2 0x1F2 SWAP2 SWAP1 PUSH2 0x2A76 JUMP JUMPDEST PUSH2 0x73B JUMP JUMPDEST PUSH1 0x40 MLOAD PUSH2 0x204 SWAP2 SWAP1 PUSH2 0x2B09 JUMP JUMPDEST PUSH1 0x40 MLOAD DUP1 SWAP2 SUB SWAP1 RETURN JUMPDEST CALLVALUE DUP1 ISZERO PUSH2 0x218 JUMPI PUSH0 PUSH0 REVERT JUMPDEST POP PUSH2 0x233 PUSH1 0x4 DUP1 CALLDATASIZE SUB DUP2 ADD SWAP1 PUSH2 0x22E SWAP2 SWAP1 PUSH2 0x2B4C JUMP JUMPDEST PUSH2 0x74F JUMP JUMPDEST PUSH1 0x40 MLOAD PUSH2 0x240 SWAP2 SWAP1 PUSH2 0x2B09 JUMP JUMPDEST PUSH1 0x40 MLOAD DUP1 SWAP2 SUB SWAP1 RETURN JUMPDEST CALLVALUE DUP1 ISZERO PUSH2 0x254 JUMPI PUSH0 PUSH0 REVERT JUMPDEST POP PUSH2 0x26F PUSH1 0x4 DUP1 CALLDATASIZE SUB DUP2 ADD SWAP1 PUSH2 0x26A SWAP2 SWAP1 PUSH2 0x2C53 JUMP JUMPDEST PUSH2 0x7A8 JUMP JUMPDEST STOP JUMPDEST CALLVALUE DUP1 ISZERO PUSH2 0x27C JUMPI PUSH0 PUSH0 REVERT JUMPDEST POP PUSH2 0x297 PUSH1 0x4 DUP1 CALLDATASIZE SUB DUP2 ADD SWAP1 PUSH2 0x292 SWAP2 SWAP1 PUSH2 0x2CF4 JUMP JUMPDEST PUSH2 0x8AE JUMP JUMPDEST PUSH1 0x40 MLOAD PUSH2 0x2A4 SWAP2 SWAP1 PUSH2 0x2D6F JUMP JUMPDEST PUSH1 0x40 MLOAD DUP1 SWAP2 SUB SWAP1 RETURN JUMPDEST CALLVALUE DUP1 ISZERO PUSH2 0x2B8 JUMPI PUSH0 PUSH0 REVERT JUMPDEST POP PUSH2 0x2D3 PUSH1 0x4 DUP1 CALLDATASIZE SUB DUP2 ADD SWAP1 PUSH2 0x2CE SWAP2 SWAP1 PUSH2 0x2DDD JUMP JUMPDEST PUSH2 0x8E0 JUMP JUMPDEST STOP JUMPDEST CALLVALUE DUP1 ISZERO PUSH2 0x2E0 JUMPI PUSH0 PUSH0 REVERT JUMPDEST POP PUSH2 0x2FB PUSH1 0x4 DUP1 CALLDATASIZE SUB DUP2 ADD SWAP1 PUSH2 0x2F6 SWAP2 SWAP1 PUSH2 0x2EE8 JUMP JUMPDEST PUSH2 0xA10 JUMP JUMPDEST STOP JUMPDEST CALLVALUE DUP1 ISZERO PUSH2 0x308 JUMPI PUSH0 PUSH0 REVERT JUMPDEST POP PUSH2 0x323 PUSH1 0x4 DUP1 CALLDATASIZE SUB DUP2 ADD SWAP1 PUSH2 0x31E SWAP2 SWAP1 PUSH2 0x2FB3 JUMP JUMPDEST PUSH2 0xA26 JUMP JUMPDEST STOP JUMPDEST PUSH2 0x33F PUSH1 0x4 DUP1 CALLDATASIZE SUB DUP2 ADD SWAP1 PUSH2 0x33A SWAP2 SWAP1 PUSH2 0x3063 JUMP JUMPDEST PUSH2 0xB5A JUMP JUMPDEST PUSH1 0x40 MLOAD PUSH2 0x34C SWAP2 SWAP1 PUSH2 0x30E3 JUMP JUMPDEST PUSH1 0x40 MLOAD DUP1 SWAP2 SUB SWAP1 RETURN JUMPDEST PUSH2 0x35D PUSH2 0xB8E JUMP JUMPDEST STOP JUMPDEST PUSH2 0x379 PUSH1 0x4 DUP1 CALLDATASIZE SUB DUP2 ADD SWAP1 PUSH2 0x374 SWAP2 SWAP1 PUSH2 0x30FC JUMP JUMPDEST PUSH2 0xBFF JUMP JUMPDEST PUSH1 0x40 MLOAD PUSH2 0x386 SWAP2 SWAP1 PUSH2 0x30E3 JUMP JUMPDEST PUSH1 0x40 MLOAD DUP1 SWAP2 SUB SWAP1 RETURN JUMPDEST CALLVALUE DUP1 ISZERO PUSH2 0x39A JUMPI PUSH0 PUSH0 REVERT JUMPDEST POP PUSH2 0x3B5 PUSH1 0x4 DUP1 CALLDATASIZE SUB DUP2 ADD SWAP1 PUSH2 0x3B0 SWAP2 SWAP1 PUSH2 0x3194 JUMP JUMPDEST PUSH2 0xC31 JUMP JUMPDEST STOP JUMPDEST PUSH2 0x3D1 PUSH1 0x4 DUP1 CALLDATASIZE SUB DUP2 ADD SWAP1 PUSH2 0x3CC SWAP2 SWAP1 PUSH2 0x31D2 JUMP JUMPDEST PUSH2 0xD11 JUMP JUMPDEST STOP JUMPDEST CALLVALUE DUP1 ISZERO PUSH2 0x3DE JUMPI PUSH0 PUSH0 REVERT JUMPDEST POP PUSH2 0x3E7 PUSH2 0xDF5 JUMP JUMPDEST PUSH1 0x40 MLOAD PUSH2 0x3F4 SWAP2 SWAP1 PUSH2 0x2973 JUMP JUMPDEST PUSH1 0x40 MLOAD DUP1 SWAP2 SUB SWAP1 RETURN JUMPDEST CALLVALUE DUP1 ISZERO PUSH2 0x408 JUMPI PUSH0 PUSH0 REVERT JUMPDEST POP PUSH2 0x411 PUSH2 0xE57 JUMP JUMPDEST PUSH1 0x40 MLOAD PUSH2 0x424 SWAP8 SWAP7 SWAP6 SWAP5 SWAP4 SWAP3 SWAP2 SWAP1 PUSH2 0x3380 JUMP JUMPDEST PUSH1 0x40 MLOAD DUP1 SWAP2 SUB SWAP1 RETURN JUMPDEST CALLVALUE DUP1 ISZERO PUSH2 0x438 JUMPI PUSH0 PUSH0 REVERT JUMPDEST POP PUSH2 0x453 PUSH1 0x4 DUP1 CALLDATASIZE SUB DUP2 ADD SWAP1 PUSH2 0x44E SWAP2 SWAP1 PUSH2 0x3402 JUMP JUMPDEST PUSH2 0xEA2 JUMP JUMPDEST STOP JUMPDEST CALLVALUE DUP1 ISZERO PUSH2 0x460 JUMPI PUSH0 PUSH0 REVERT JUMPDEST POP PUSH2 0x469 PUSH2 0x1025 JUMP JUMPDEST PUSH1 0x40 MLOAD PUSH2 0x476 SWAP2 SWAP1 PUSH2 0x3504 JUMP JUMPDEST PUSH1 0x40 MLOAD DUP1 SWAP2 SUB SWAP1 RETURN JUMPDEST CALLVALUE DUP1 ISZERO PUSH2 0x48A JUMPI PUSH0 PUSH0 REVERT JUMPDEST POP PUSH2 0x493 PUSH2 0x1046 JUMP JUMPDEST PUSH1 0x40 MLOAD PUSH2 0x4A0 SWAP2 SWAP1 PUSH2 0x357F JUMP JUMPDEST PUSH1 0x40 MLOAD DUP1 SWAP2 SUB SWAP1 RETURN JUMPDEST CALLVALUE DUP1 ISZERO PUSH2 0x4B4 JUMPI PUSH0 PUSH0 REVERT JUMPDEST POP PUSH2 0x4CF PUSH1 0x4 DUP1 CALLDATASIZE SUB DUP2 ADD SWAP1 PUSH2 0x4CA SWAP2 SWAP1 PUSH2 0x3598 JUMP JUMPDEST PUSH2 0x106D JUMP JUMPDEST STOP JUMPDEST CALLVALUE DUP1 ISZERO PUSH2 0x4DC JUMPI PUSH0 PUSH0 REVERT JUMPDEST POP PUSH2 0x4F7 PUSH1 0x4 DUP1 CALLDATASIZE SUB DUP2 ADD SWAP1 PUSH2 0x4F2 SWAP2 SWAP1 PUSH2 0x3609 JUMP JUMPDEST PUSH2 0x10C9 JUMP JUMPDEST PUSH1 0x40 MLOAD PUSH2 0x504 SWAP2 SWAP1 PUSH2 0x2B09 JUMP JUMPDEST PUSH1 0x40 MLOAD DUP1 SWAP2 SUB SWAP1 RETURN JUMPDEST CALLVALUE DUP1 ISZERO PUSH2 0x518 JUMPI PUSH0 PUSH0 REVERT JUMPDEST POP PUSH2 0x521 PUSH2 0x10E0 JUMP JUMPDEST PUSH1 0x40 MLOAD PUSH2 0x52E SWAP2 SWAP1 PUSH2 0x2D6F JUMP JUMPDEST PUSH1 0x40 MLOAD DUP1 SWAP2 SUB SWAP1 RETURN JUMPDEST CALLVALUE DUP1 ISZERO PUSH2 0x542 JUMPI PUSH0 PUSH0 REVERT JUMPDEST POP PUSH2 0x54B PUSH2 0x1165 JUMP JUMPDEST PUSH1 0x40 MLOAD PUSH2 0x558 SWAP2 SWAP1 PUSH2 0x2D6F JUMP JUMPDEST PUSH1 0x40 MLOAD DUP1 SWAP2 SUB SWAP1 RETURN JUMPDEST CALLVALUE DUP1 ISZERO PUSH2 0x56C JUMPI PUSH0 PUSH0 REVERT JUMPDEST POP PUSH2 0x587 PUSH1 0x4 DUP1 CALLDATASIZE SUB DUP2 ADD SWAP1 PUSH2 0x582 SWAP2 SWAP1 PUSH2 0x36E0 JUMP JUMPDEST PUSH2 0x11EC JUMP JUMPDEST PUSH1 0x40 MLOAD PUSH2 0x594 SWAP2 SWAP1 PUSH2 0x2B09 JUMP JUMPDEST PUSH1 0x40 MLOAD DUP1 SWAP2 SUB SWAP1 RETURN JUMPDEST PUSH0 PUSH32 0x150B7A0200000000000000000000000000000000000000000000000000000000 PUSH28 0xFFFFFFFFFFFFFFFFFFFFFFFFFFFFFFFFFFFFFFFFFFFFFFFFFFFFFFFF NOT AND DUP3 PUSH28 0xFFFFFFFFFFFFFFFFFFFFFFFFFFFFFFFFFFFFFFFFFFFFFFFFFFFFFFFF NOT AND EQ DUP1 PUSH2 0x667 JUMPI POP PUSH32 0x4E2312E000000000000000000000000000000000000000000000000000000000 PUSH28 0xFFFFFFFFFFFFFFFFFFFFFFFFFFFFFFFFFFFFFFFFFFFFFFFFFFFFFFFF NOT AND DUP3 PUSH28 0xFFFFFFFFFFFFFFFFFFFFFFFFFFFFFFFFFFFFFFFFFFFFFFFFFFFFFFFF NOT AND EQ JUMPDEST DUP1 PUSH2 0x6CF JUMPI POP PUSH32 0x1FFC9A700000000000000000000000000000000000000000000000000000000 PUSH28 0xFFFFFFFFFFFFFFFFFFFFFFFFFFFFFFFFFFFFFFFFFFFFFFFFFFFFFFFF NOT AND DUP3 PUSH28 0xFFFFFFFFFFFFFFFFFFFFFFFFFFFFFFFFFFFFFFFFFFFFFFFFFFFFFFFF NOT AND EQ JUMPDEST SWAP1 POP SWAP2 SWAP1 POP JUMP JUMPDEST PUSH0 PUSH0 PUSH32 0xCB7D198B374E49569D08EE524F815A8372822602507550536005B62725C07948 DUP4 DUP1 MLOAD SWAP1 PUSH1 0x20 ADD KECCAK256 PUSH1 0x40 MLOAD PUSH1 0x20 ADD PUSH2 0x712 SWAP3 SWAP2 SWAP1 PUSH2 0x3776 JUMP JUMPDEST PUSH1 0x40 MLOAD PUSH1 0x20 DUP2 DUP4 SUB SUB DUP2 MSTORE SWAP1 PUSH1 0x40 MSTORE DUP1 MLOAD SWAP1 PUSH1 0x20 ADD KECCAK256 SWAP1 POP PUSH2 0x733 DUP2 PUSH2 0x1201 JUMP JUMPDEST SWAP2 POP POP SWAP2 SWAP1 POP JUMP JUMPDEST PUSH0 PUSH4 0x150B7A02 PUSH1 0xE0 SHL SWAP1 POP SWAP6 SWAP5 POP POP POP POP POP JUMP JUMPDEST PUSH0 PUSH2 0x782 PUSH2 0x77B DUP6 PUSH1 0x40 MLOAD PUSH1 0x20 ADD PUSH2 0x767 SWAP2 SWAP1 PUSH2 0x2973 JUMP JUMPDEST PUSH1 0x40 MLOAD PUSH1 0x20 DUP2 DUP4 SUB SUB DUP2 MSTORE SWAP1 PUSH1 0x40 MSTORE PUSH2 0x6D6 JUMP JUMPDEST DUP5 DUP5 PUSH2 0x127D JUMP JUMPDEST ISZERO PUSH2 0x796 JUMPI PUSH4 0x1626BA7E PUSH1 0xE0 SHL SWAP1 POP PUSH2 0x7A1 JUMP JUMPDEST PUSH4 0xFFFFFFFF PUSH1 0xE0 SHL SWAP1 POP JUMPDEST SWAP4 SWAP3 POP POP POP JUMP JUMPDEST PUSH2 0x7B0 PUSH2 0x1449 JUMP JUMPDEST DUP2 DUP2 SWAP1 POP DUP5 DUP5 SWAP1 POP EQ PUSH2 0x7EF JUMPI PUSH1 0x40 MLOAD PUSH32 0xA24A13A600000000000000000000000000000000000000000000000000000000 DUP2 MSTORE PUSH1 0x4 ADD PUSH1 0x40 MLOAD DUP1 SWAP2 SUB SWAP1 REVERT JUMPDEST PUSH0 DUP5 DUP5 SWAP1 POP SWAP1 POP PUSH0 PUSH0 SWAP1 POP JUMPDEST DUP2 DUP2 LT ISZERO PUSH2 0x8A6 JUMPI PUSH2 0x89B DUP7 DUP7 DUP4 DUP2 DUP2 LT PUSH2 0x819 JUMPI PUSH2 0x818 PUSH2 0x379D JUMP JUMPDEST JUMPDEST SWAP1 POP PUSH1 0x20 MUL ADD PUSH1 0x20 DUP2 ADD SWAP1 PUSH2 0x82E SWAP2 SWAP1 PUSH2 0x37CA JUMP JUMPDEST PUSH0 DUP7 DUP7 DUP6 DUP2 DUP2 LT PUSH2 0x842 JUMPI PUSH2 0x841 PUSH2 0x379D JUMP JUMPDEST JUMPDEST SWAP1 POP PUSH1 0x20 MUL DUP2 ADD SWAP1 PUSH2 0x854 SWAP2 SWAP1 PUSH2 0x3801 JUMP JUMPDEST DUP1 DUP1 PUSH1 0x1F ADD PUSH1 0x20 DUP1 SWAP2 DIV MUL PUSH1 0x20 ADD PUSH1 0x40 MLOAD SWAP1 DUP2 ADD PUSH1 0x40 MSTORE DUP1 SWAP4 SWAP3 SWAP2 SWAP1 DUP2 DUP2 MSTORE PUSH1 0x20 ADD DUP4 DUP4 DUP1 DUP3 DUP5 CALLDATACOPY PUSH0 DUP2 DUP5 ADD MSTORE PUSH1 0x1F NOT PUSH1 0x1F DUP3 ADD AND SWAP1 POP DUP1 DUP4 ADD SWAP3 POP POP POP POP POP POP POP PUSH2 0x150D JUMP JUMPDEST DUP1 PUSH1 0x1 ADD SWAP1 POP PUSH2 0x7FB JUMP JUMPDEST POP POP POP POP POP POP JUMP JUMPDEST PUSH0 PUSH2 0x8B7 PUSH2 0x152F JUMP JUMPDEST PUSH2 0x8C1 DUP5 DUP5 PUSH2 0x15A6 JUMP JUMPDEST SWAP1 POP PUSH2 0x8D0 DUP5 PUSH1 0x20 ADD CALLDATALOAD PUSH2 0x17E3 JUMP JUMPDEST PUSH2 0x8D9 DUP3 PUSH2 0x17E6 JUMP JUMPDEST SWAP4 SWAP3 POP POP POP JUMP JUMPDEST PUSH2 0x8E8 PUSH2 0x185A JUMP JUMPDEST PUSH0 DUP3 DUP3 SWAP1 POP SWAP1 POP PUSH0 PUSH0 SWAP1 POP JUMPDEST DUP2 DUP2 LT ISZERO PUSH2 0xA0A JUMPI CALLDATASIZE DUP5 DUP5 DUP4 DUP2 DUP2 LT PUSH2 0x910 JUMPI PUSH2 0x90F PUSH2 0x379D JUMP JUMPDEST JUMPDEST SWAP1 POP PUSH1 0x20 MUL DUP2 ADD SWAP1 PUSH2 0x922 SWAP2 SWAP1 PUSH2 0x3863 JUMP JUMPDEST SWAP1 POP PUSH0 PUSH2 0x997 DUP3 PUSH0 ADD PUSH1 0x20 DUP2 ADD SWAP1 PUSH2 0x93A SWAP2 SWAP1 PUSH2 0x37CA JUMP JUMPDEST DUP4 PUSH1 0x20 ADD CALLDATALOAD DUP5 DUP1 PUSH1 0x40 ADD SWAP1 PUSH2 0x94F SWAP2 SWAP1 PUSH2 0x3801 JUMP JUMPDEST DUP1 DUP1 PUSH1 0x1F ADD PUSH1 0x20 DUP1 SWAP2 DIV MUL PUSH1 0x20 ADD PUSH1 0x40 MLOAD SWAP1 DUP2 ADD PUSH1 0x40 MSTORE DUP1 SWAP4 SWAP3 SWAP2 SWAP1 DUP2 DUP2 MSTORE PUSH1 0x20 ADD DUP4 DUP4 DUP1 DUP3 DUP5 CALLDATACOPY PUSH0 DUP2 DUP5 ADD MSTORE PUSH1 0x1F NOT PUSH1 0x1F DUP3 ADD AND SWAP1 POP DUP1 DUP4 ADD SWAP3 POP POP POP POP POP POP POP GAS PUSH2 0x1864 JUMP JUMPDEST SWAP1 POP DUP1 PUSH2 0x9FB JUMPI PUSH1 0x1 DUP5 SUB PUSH2 0x9B3 JUMPI PUSH2 0x9AE PUSH2 0x187B JUMP JUMPDEST PUSH2 0x9FA JUMP JUMPDEST DUP3 PUSH2 0x9BD PUSH0 PUSH2 0x188E JUMP JUMPDEST PUSH1 0x40 MLOAD PUSH32 0x5A15467500000000000000000000000000000000000000000000000000000000 DUP2 MSTORE PUSH1 0x4 ADD PUSH2 0x9F1 SWAP3 SWAP2 SWAP1 PUSH2 0x38DC JUMP JUMPDEST PUSH1 0x40 MLOAD DUP1 SWAP2 SUB SWAP1 REVERT JUMPDEST JUMPDEST POP POP DUP1 DUP1 PUSH1 0x1 ADD SWAP2 POP POP PUSH2 0x8F4 JUMP JUMPDEST POP POP POP POP JUMP JUMPDEST PUSH2 0xA18 PUSH2 0x1449 JUMP JUMPDEST PUSH2 0xA22 DUP3 DUP3 PUSH2 0x18C6 JUMP JUMPDEST POP POP JUMP JUMPDEST PUSH2 0xA2E PUSH2 0x1449 JUMP JUMPDEST DUP2 DUP2 SWAP1 POP DUP7 DUP7 SWAP1 POP EQ ISZERO DUP1 PUSH2 0xA49 JUMPI POP DUP4 DUP4 SWAP1 POP DUP7 DUP7 SWAP1 POP EQ ISZERO JUMPDEST ISZERO PUSH2 0xA80 JUMPI PUSH1 0x40 MLOAD PUSH32 0xA24A13A600000000000000000000000000000000000000000000000000000000 DUP2 MSTORE PUSH1 0x4 ADD PUSH1 0x40 MLOAD DUP1 SWAP2 SUB SWAP1 REVERT JUMPDEST PUSH0 DUP7 DUP7 SWAP1 POP SWAP1 POP PUSH0 PUSH0 SWAP1 POP JUMPDEST DUP2 DUP2 LT ISZERO PUSH2 0xB50 JUMPI PUSH2 0xB45 DUP9 DUP9 DUP4 DUP2 DUP2 LT PUSH2 0xAAA JUMPI PUSH2 0xAA9 PUSH2 0x379D JUMP JUMPDEST JUMPDEST SWAP1 POP PUSH1 0x20 MUL ADD PUSH1 0x20 DUP2 ADD SWAP1 PUSH2 0xABF SWAP2 SWAP1 PUSH2 0x37CA JUMP JUMPDEST DUP8 DUP8 DUP5 DUP2 DUP2 LT PUSH2 0xAD2 JUMPI PUSH2 0xAD1 PUSH2 0x379D JUMP JUMPDEST JUMPDEST SWAP1 POP PUSH1 0x20 MUL ADD CALLDATALOAD DUP7 DUP7 DUP6 DUP2 DUP2 LT PUSH2 0xAEC JUMPI PUSH2 0xAEB PUSH2 0x379D JUMP JUMPDEST JUMPDEST SWAP1 POP PUSH1 0x20 MUL DUP2 ADD SWAP1 PUSH2 0xAFE SWAP2 SWAP1 PUSH2 0x3801 JUMP JUMPDEST DUP1 DUP1 PUSH1 0x1F ADD PUSH1 0x20 DUP1 SWAP2 DIV MUL PUSH1 0x20 ADD PUSH1 0x40 MLOAD SWAP1 DUP2 ADD PUSH1 0x40 MSTORE DUP1 SWAP4 SWAP3 SWAP2 SWAP1 DUP2 DUP2 MSTORE PUSH1 0x20 ADD DUP4 DUP4 DUP1 DUP3 DUP5 CALLDATACOPY PUSH0 DUP2 DUP5 ADD MSTORE PUSH1 0x1F NOT PUSH1 0x1F DUP3 ADD AND SWAP1 POP DUP1 DUP4 ADD SWAP3 POP POP POP POP POP POP POP PUSH2 0x150D JUMP JUMPDEST DUP1 PUSH1 0x1 ADD SWAP1 POP PUSH2 0xA8C JUMP JUMPDEST POP POP POP POP POP POP POP POP JUMP JUMPDEST PUSH0 PUSH2 0xB63 PUSH2 0x1449 JUMP JUMPDEST PUSH1 0x40 MLOAD DUP4 DUP1 DUP7 DUP4 CALLDATACOPY DUP4 DUP2 DUP4 DUP10 CREATE2 SWAP3 POP DUP3 PUSH2 0xB84 JUMPI PUSH4 0x7E16B8CD PUSH0 MSTORE PUSH1 0x4 PUSH1 0x1C REVERT JUMPDEST POP POP SWAP5 SWAP4 POP POP POP POP JUMP JUMPDEST PUSH2 0xB96 PUSH2 0x1046 JUMP JUMPDEST PUSH20 0xFFFFFFFFFFFFFFFFFFFFFFFFFFFFFFFFFFFFFFFF AND PUSH4 0xB760FAF9 CALLVALUE ADDRESS PUSH1 0x40 MLOAD DUP4 PUSH4 0xFFFFFFFF AND PUSH1 0xE0 SHL DUP2 MSTORE PUSH1 0x4 ADD PUSH2 0xBCF SWAP2 SWAP1 PUSH2 0x30E3 JUMP JUMPDEST PUSH0 PUSH1 0x40 MLOAD DUP1 DUP4 SUB DUP2 DUP6 DUP9 DUP1 EXTCODESIZE ISZERO DUP1 ISZERO PUSH2 0xBE6 JUMPI PUSH0 PUSH0 REVERT JUMPDEST POP GAS CALL ISZERO DUP1 ISZERO PUSH2 0xBF8 JUMPI RETURNDATASIZE PUSH0 PUSH0 RETURNDATACOPY RETURNDATASIZE PUSH0 REVERT JUMPDEST POP POP POP POP POP JUMP JUMPDEST PUSH0 PUSH2 0xC08 PUSH2 0x1449 JUMP JUMPDEST PUSH1 0x40 MLOAD DUP3 DUP1 DUP6 DUP4 CALLDATACOPY DUP1 DUP3 DUP8 CREATE SWAP3 POP DUP3 PUSH2 0xC28 JUMPI PUSH4 0x7E16B8CD PUSH0 MSTORE PUSH1 0x4 PUSH1 0x1C REVERT JUMPDEST POP POP SWAP4 SWAP3 POP POP POP JUMP JUMPDEST PUSH2 0xC39 PUSH2 0x1449 JUMP JUMPDEST PUSH0 PUSH20 0xFFFFFFFFFFFFFFFFFFFFFFFFFFFFFFFFFFFFFFFF AND DUP3 PUSH20 0xFFFFFFFFFFFFFFFFFFFFFFFFFFFFFFFFFFFFFFFF AND SUB PUSH2 0xC9E JUMPI PUSH1 0x40 MLOAD PUSH32 0x8579BEFE00000000000000000000000000000000000000000000000000000000 DUP2 MSTORE PUSH1 0x4 ADD PUSH1 0x40 MLOAD DUP1 SWAP2 SUB SWAP1 REVERT JUMPDEST PUSH2 0xCA6 PUSH2 0x1046 JUMP JUMPDEST PUSH20 0xFFFFFFFFFFFFFFFFFFFFFFFFFFFFFFFFFFFFFFFF AND PUSH4 0x205C2878 DUP4 DUP4 PUSH1 0x40 MLOAD DUP4 PUSH4 0xFFFFFFFF AND PUSH1 0xE0 SHL DUP2 MSTORE PUSH1 0x4 ADD PUSH2 0xCE0 SWAP3 SWAP2 SWAP1 PUSH2 0x3919 JUMP JUMPDEST PUSH0 PUSH1 0x40 MLOAD DUP1 DUP4 SUB DUP2 PUSH0 DUP8 DUP1 EXTCODESIZE ISZERO DUP1 ISZERO PUSH2 0xCF7 JUMPI PUSH0 PUSH0 REVERT JUMPDEST POP GAS CALL ISZERO DUP1 ISZERO PUSH2 0xD09 JUMPI RETURNDATASIZE PUSH0 PUSH0 RETURNDATACOPY RETURNDATASIZE PUSH0 REVERT JUMPDEST POP POP POP POP POP POP JUMP JUMPDEST PUSH0 PUSH32 0x0 SWAP1 POP ADDRESS DUP2 SUB PUSH2 0xD49 JUMPI PUSH4 0x9F03A026 PUSH0 MSTORE PUSH1 0x4 PUSH1 0x1C REVERT JUMPDEST PUSH2 0xD52 DUP5 PUSH2 0x195E JUMP JUMPDEST DUP4 PUSH1 0x60 SHL PUSH1 0x60 SHR SWAP4 POP PUSH4 0x52D1902D PUSH1 0x1 MSTORE PUSH32 0x360894A13BA1A3210667C828492DB98DCA3E2076CC3735A920A3CA505D382BBC DUP1 PUSH1 0x20 PUSH1 0x1 PUSH1 0x4 PUSH1 0x1D DUP10 GAS STATICCALL MLOAD EQ PUSH2 0xDA4 JUMPI PUSH4 0x55299B49 PUSH1 0x1 MSTORE PUSH1 0x4 PUSH1 0x1D REVERT JUMPDEST DUP5 PUSH32 0xBC7CD75A20EE27FD9ADEBAB32041F755214DBC6BFFA90CC0225B39DA2E5C2D3B PUSH0 CODESIZE LOG2 DUP5 DUP2 SSTORE DUP3 ISZERO PUSH2 0xDEE JUMPI PUSH1 0x40 MLOAD DUP4 DUP6 DUP3 CALLDATACOPY PUSH0 CODESIZE DUP6 DUP4 DUP10 GAS DELEGATECALL PUSH2 0xDEC JUMPI RETURNDATASIZE PUSH0 DUP3 RETURNDATACOPY RETURNDATASIZE DUP2 REVERT JUMPDEST POP JUMPDEST POP POP POP POP POP JUMP JUMPDEST PUSH0 PUSH0 PUSH32 0x0 SWAP1 POP ADDRESS DUP2 EQ PUSH2 0xE2E JUMPI PUSH4 0x9F03A026 PUSH0 MSTORE PUSH1 0x4 PUSH1 0x1C REVERT JUMPDEST PUSH32 0x360894A13BA1A3210667C828492DB98DCA3E2076CC3735A920A3CA505D382BBC PUSH0 SHL SWAP2 POP POP SWAP1 JUMP JUMPDEST PUSH0 PUSH1 0x60 DUP1 PUSH0 PUSH0 PUSH0 PUSH1 0x60 PUSH32 0xF00000000000000000000000000000000000000000000000000000000000000 SWAP7 POP PUSH2 0xE8B PUSH2 0x1969 JUMP JUMPDEST DUP1 SWAP7 POP DUP2 SWAP8 POP POP POP CHAINID SWAP4 POP ADDRESS SWAP3 POP SWAP1 SWAP2 SWAP3 SWAP4 SWAP5 SWAP6 SWAP7 JUMP JUMPDEST PUSH0 PUSH2 0xEAB PUSH2 0x19E0 JUMP JUMPDEST SWAP1 POP PUSH0 DUP2 PUSH0 ADD PUSH1 0x8 SWAP1 SLOAD SWAP1 PUSH2 0x100 EXP SWAP1 DIV PUSH1 0xFF AND ISZERO SWAP1 POP PUSH0 DUP3 PUSH0 ADD PUSH0 SWAP1 SLOAD SWAP1 PUSH2 0x100 EXP SWAP1 DIV PUSH8 0xFFFFFFFFFFFFFFFF AND SWAP1 POP PUSH0 PUSH0 DUP3 PUSH8 0xFFFFFFFFFFFFFFFF AND EQ DUP1 ISZERO PUSH2 0xEF3 JUMPI POP DUP3 JUMPDEST SWAP1 POP PUSH0 PUSH1 0x1 DUP4 PUSH8 0xFFFFFFFFFFFFFFFF AND EQ DUP1 ISZERO PUSH2 0xF26 JUMPI POP PUSH0 ADDRESS PUSH20 0xFFFFFFFFFFFFFFFFFFFFFFFFFFFFFFFFFFFFFFFF AND EXTCODESIZE EQ JUMPDEST SWAP1 POP DUP2 ISZERO DUP1 ISZERO PUSH2 0xF34 JUMPI POP DUP1 ISZERO JUMPDEST ISZERO PUSH2 0xF6B JUMPI PUSH1 0x40 MLOAD PUSH32 0xF92EE8A900000000000000000000000000000000000000000000000000000000 DUP2 MSTORE PUSH1 0x4 ADD PUSH1 0x40 MLOAD DUP1 SWAP2 SUB SWAP1 REVERT JUMPDEST PUSH1 0x1 DUP6 PUSH0 ADD PUSH0 PUSH2 0x100 EXP DUP2 SLOAD DUP2 PUSH8 0xFFFFFFFFFFFFFFFF MUL NOT AND SWAP1 DUP4 PUSH8 0xFFFFFFFFFFFFFFFF AND MUL OR SWAP1 SSTORE POP DUP4 ISZERO PUSH2 0xFB8 JUMPI PUSH1 0x1 DUP6 PUSH0 ADD PUSH1 0x8 PUSH2 0x100 EXP DUP2 SLOAD DUP2 PUSH1 0xFF MUL NOT AND SWAP1 DUP4 ISZERO ISZERO MUL OR SWAP1 SSTORE POP JUMPDEST PUSH2 0xFC2 DUP8 DUP8 PUSH2 0x1A0C JUMP JUMPDEST DUP4 ISZERO PUSH2 0x101C JUMPI PUSH0 DUP6 PUSH0 ADD PUSH1 0x8 PUSH2 0x100 EXP DUP2 SLOAD DUP2 PUSH1 0xFF MUL NOT AND SWAP1 DUP4 ISZERO ISZERO MUL OR SWAP1 SSTORE POP PUSH32 0xC7F505B2F371AE2175EE4913F4499E1F2633A7B5936321EED1CDAEB6115181D2 PUSH1 0x1 PUSH1 0x40 MLOAD PUSH2 0x1013 SWAP2 SWAP1 PUSH2 0x398C JUMP JUMPDEST PUSH1 0x40 MLOAD DUP1 SWAP2 SUB SWAP1 LOG1 JUMPDEST POP POP POP POP POP POP POP JUMP JUMPDEST PUSH1 0x60 PUSH2 0x1041 PUSH2 0x103C PUSH2 0x1035 PUSH2 0x1B12 JUMP JUMPDEST PUSH0 ADD PUSH2 0x1B40 JUMP JUMPDEST PUSH2 0x1BE6 JUMP JUMPDEST SWAP1 POP SWAP1 JUMP JUMPDEST PUSH0 PUSH32 0x0 SWAP1 POP SWAP1 JUMP JUMPDEST PUSH2 0x1075 PUSH2 0x1449 JUMP JUMPDEST PUSH2 0x10C3 DUP5 DUP5 DUP5 DUP5 DUP1 DUP1 PUSH1 0x1F ADD PUSH1 0x20 DUP1 SWAP2 DIV MUL PUSH1 0x20 ADD PUSH1 0x40 MLOAD SWAP1 DUP2 ADD PUSH1 0x40 MSTORE DUP1 SWAP4 SWAP3 SWAP2 SWAP1 DUP2 DUP2 MSTORE PUSH1 0x20 ADD DUP4 DUP4 DUP1 DUP3 DUP5 CALLDATACOPY PUSH0 DUP2 DUP5 ADD MSTORE PUSH1 0x1F NOT PUSH1 0x1F DUP3 ADD AND SWAP1 POP DUP1 DUP4 ADD SWAP3 POP POP POP POP POP POP POP PUSH2 0x150D JUMP JUMPDEST POP POP POP POP JUMP JUMPDEST PUSH0 PUSH4 0xBC197C81 PUSH1 0xE0 SHL SWAP1 POP SWAP9 SWAP8 POP POP POP POP POP POP POP POP JUMP JUMPDEST PUSH0 PUSH2 0x10E9 PUSH2 0x1046 JUMP JUMPDEST PUSH20 0xFFFFFFFFFFFFFFFFFFFFFFFFFFFFFFFFFFFFFFFF AND PUSH4 0x70A08231 ADDRESS PUSH1 0x40 MLOAD DUP3 PUSH4 0xFFFFFFFF AND PUSH1 0xE0 SHL DUP2 MSTORE PUSH1 0x4 ADD PUSH2 0x1121 SWAP2 SWAP1 PUSH2 0x30E3 JUMP JUMPDEST PUSH1 0x20 PUSH1 0x40 MLOAD DUP1 DUP4 SUB DUP2 DUP7 GAS STATICCALL ISZERO DUP1 ISZERO PUSH2 0x113C JUMPI RETURNDATASIZE PUSH0 PUSH0 RETURNDATACOPY RETURNDATASIZE PUSH0 REVERT JUMPDEST POP POP POP POP PUSH1 0x40 MLOAD RETURNDATASIZE PUSH1 0x1F NOT PUSH1 0x1F DUP3 ADD AND DUP3 ADD DUP1 PUSH1 0x40 MSTORE POP DUP2 ADD SWAP1 PUSH2 0x1160 SWAP2 SWAP1 PUSH2 0x39B9 JUMP JUMPDEST SWAP1 POP SWAP1 JUMP JUMPDEST PUSH0 PUSH2 0x116E PUSH2 0x1046 JUMP JUMPDEST PUSH20 0xFFFFFFFFFFFFFFFFFFFFFFFFFFFFFFFFFFFFFFFF AND PUSH4 0x35567E1A ADDRESS PUSH0 PUSH1 0x40 MLOAD DUP4 PUSH4 0xFFFFFFFF AND PUSH1 0xE0 SHL DUP2 MSTORE PUSH1 0x4 ADD PUSH2 0x11A8 SWAP3 SWAP2 SWAP1 PUSH2 0x3A40 JUMP JUMPDEST PUSH1 0x20 PUSH1 0x40 MLOAD DUP1 DUP4 SUB DUP2 DUP7 GAS STATICCALL ISZERO DUP1 ISZERO PUSH2 0x11C3 JUMPI RETURNDATASIZE PUSH0 PUSH0 RETURNDATACOPY RETURNDATASIZE PUSH0 REVERT JUMPDEST POP POP POP POP PUSH1 0x40 MLOAD RETURNDATASIZE PUSH1 0x1F NOT PUSH1 0x1F DUP3 ADD AND DUP3 ADD DUP1 PUSH1 0x40 MSTORE POP DUP2 ADD SWAP1 PUSH2 0x11E7 SWAP2 SWAP1 PUSH2 0x39B9 JUMP JUMPDEST SWAP1 POP SWAP1 JUMP JUMPDEST PUSH0 PUSH4 0xF23A6E61 PUSH1 0xE0 SHL SWAP1 POP SWAP7 SWAP6 POP POP POP POP POP POP JUMP JUMPDEST PUSH0 PUSH2 0x120A PUSH2 0x1C3C JUMP JUMPDEST ISZERO PUSH2 0x121E JUMPI PUSH2 0x1217 PUSH2 0x1C40 JUMP JUMPDEST SWAP1 POP PUSH2 0x125A JUMP JUMPDEST PUSH32 0x0 SWAP1 POP PUSH2 0x1249 PUSH2 0x1D08 JUMP JUMPDEST ISZERO PUSH2 0x1259 JUMPI PUSH2 0x1256 PUSH2 0x1C40 JUMP JUMPDEST SWAP1 POP JUMPDEST JUMPDEST PUSH8 0x1901000000000000 PUSH0 MSTORE DUP1 PUSH1 0x1A MSTORE DUP2 PUSH1 0x3A MSTORE PUSH1 0x42 PUSH1 0x18 KECCAK256 SWAP1 POP PUSH0 PUSH1 0x3A MSTORE SWAP2 SWAP1 POP JUMP JUMPDEST PUSH0 PUSH1 0x1 DUP4 DUP4 SWAP1 POP LT ISZERO PUSH2 0x12BC JUMPI PUSH1 0x40 MLOAD PUSH32 0x60CD402D00000000000000000000000000000000000000000000000000000000 DUP2 MSTORE PUSH1 0x4 ADD PUSH1 0x40 MLOAD DUP1 SWAP2 SUB SWAP1 REVERT JUMPDEST PUSH0 DUP4 DUP4 PUSH0 DUP2 DUP2 LT PUSH2 0x12D0 JUMPI PUSH2 0x12CF PUSH2 0x379D JUMP JUMPDEST JUMPDEST SWAP1 POP ADD CALLDATALOAD PUSH1 0xF8 SHR PUSH1 0xF8 SHL PUSH1 0xF8 SHR SWAP1 POP PUSH0 PUSH1 0x2 DUP2 GT ISZERO PUSH2 0x12F2 JUMPI PUSH2 0x12F1 PUSH2 0x3A67 JUMP JUMPDEST JUMPDEST PUSH1 0xFF AND DUP2 PUSH1 0xFF AND SUB PUSH2 0x1364 JUMPI PUSH2 0x135C DUP6 DUP6 DUP6 PUSH1 0x1 SWAP1 DUP1 SWAP3 PUSH2 0x1315 SWAP4 SWAP3 SWAP2 SWAP1 PUSH2 0x3A9C JUMP JUMPDEST DUP1 DUP1 PUSH1 0x1F ADD PUSH1 0x20 DUP1 SWAP2 DIV MUL PUSH1 0x20 ADD PUSH1 0x40 MLOAD SWAP1 DUP2 ADD PUSH1 0x40 MSTORE DUP1 SWAP4 SWAP3 SWAP2 SWAP1 DUP2 DUP2 MSTORE PUSH1 0x20 ADD DUP4 DUP4 DUP1 DUP3 DUP5 CALLDATACOPY PUSH0 DUP2 DUP5 ADD MSTORE PUSH1 0x1F NOT PUSH1 0x1F DUP3 ADD AND SWAP1 POP DUP1 DUP4 ADD SWAP3 POP POP POP POP POP POP POP PUSH2 0x1D60 JUMP JUMPDEST SWAP2 POP POP PUSH2 0x1442 JUMP JUMPDEST PUSH1 0x2 DUP1 DUP2 GT ISZERO PUSH2 0x1377 JUMPI PUSH2 0x1376 PUSH2 0x3A67 JUMP JUMPDEST JUMPDEST PUSH1 0xFF AND DUP2 PUSH1 0xFF AND SUB PUSH2 0x1410 JUMPI PUSH0 DUP5 DUP5 PUSH1 0x1 SWAP1 PUSH1 0x15 SWAP3 PUSH2 0x1398 SWAP4 SWAP3 SWAP2 SWAP1 PUSH2 0x3A9C JUMP JUMPDEST SWAP1 PUSH2 0x13A3 SWAP2 SWAP1 PUSH2 0x3B17 JUMP JUMPDEST PUSH1 0x60 SHR SWAP1 POP PUSH2 0x1407 DUP2 DUP8 DUP8 DUP8 PUSH1 0x15 SWAP1 DUP1 SWAP3 PUSH2 0x13C0 SWAP4 SWAP3 SWAP2 SWAP1 PUSH2 0x3A9C JUMP JUMPDEST DUP1 DUP1 PUSH1 0x1F ADD PUSH1 0x20 DUP1 SWAP2 DIV MUL PUSH1 0x20 ADD PUSH1 0x40 MLOAD SWAP1 DUP2 ADD PUSH1 0x40 MSTORE DUP1 SWAP4 SWAP3 SWAP2 SWAP1 DUP2 DUP2 MSTORE PUSH1 0x20 ADD DUP4 DUP4 DUP1 DUP3 DUP5 CALLDATACOPY PUSH0 DUP2 DUP5 ADD MSTORE PUSH1 0x1F NOT PUSH1 0x1F DUP3 ADD AND SWAP1 POP DUP1 DUP4 ADD SWAP3 POP POP POP POP POP POP POP PUSH2 0x1DBA JUMP JUMPDEST SWAP3 POP POP POP PUSH2 0x1442 JUMP JUMPDEST PUSH1 0x40 MLOAD PUSH32 0x60CD402D00000000000000000000000000000000000000000000000000000000 DUP2 MSTORE PUSH1 0x4 ADD PUSH1 0x40 MLOAD DUP1 SWAP2 SUB SWAP1 REVERT JUMPDEST SWAP4 SWAP3 POP POP POP JUMP JUMPDEST PUSH2 0x1451 PUSH2 0x1046 JUMP JUMPDEST PUSH20 0xFFFFFFFFFFFFFFFFFFFFFFFFFFFFFFFFFFFFFFFF AND CALLER PUSH20 0xFFFFFFFFFFFFFFFFFFFFFFFFFFFFFFFFFFFFFFFF AND EQ ISZERO DUP1 ISZERO PUSH2 0x14B8 JUMPI POP ADDRESS PUSH20 0xFFFFFFFFFFFFFFFFFFFFFFFFFFFFFFFFFFFFFFFF AND CALLER PUSH20 0xFFFFFFFFFFFFFFFFFFFFFFFFFFFFFFFFFFFFFFFF AND EQ ISZERO JUMPDEST DUP1 ISZERO PUSH2 0x14C9 JUMPI POP PUSH2 0x14C7 PUSH2 0x1E11 JUMP JUMPDEST ISZERO JUMPDEST ISZERO PUSH2 0x150B JUMPI CALLER PUSH1 0x40 MLOAD PUSH32 0x4A0BFEC100000000000000000000000000000000000000000000000000000000 DUP2 MSTORE PUSH1 0x4 ADD PUSH2 0x1502 SWAP2 SWAP1 PUSH2 0x30E3 JUMP JUMPDEST PUSH1 0x40 MLOAD DUP1 SWAP2 SUB SWAP1 REVERT JUMPDEST JUMP JUMPDEST PUSH0 PUSH0 DUP3 MLOAD PUSH1 0x20 DUP5 ADD DUP6 DUP8 GAS CALL DUP1 PUSH2 0x1529 JUMPI PUSH1 0x40 MLOAD RETURNDATASIZE PUSH0 DUP3 RETURNDATACOPY RETURNDATASIZE DUP2 REVERT JUMPDEST POP POP POP POP JUMP JUMPDEST PUSH2 0x1537 PUSH2 0x1046 JUMP JUMPDEST PUSH20 0xFFFFFFFFFFFFFFFFFFFFFFFFFFFFFFFFFFFFFFFF AND CALLER PUSH20 0xFFFFFFFFFFFFFFFFFFFFFFFFFFFFFFFFFFFFFFFF AND EQ PUSH2 0x15A4 JUMPI PUSH1 0x40 MLOAD PUSH32 0x8C379A000000000000000000000000000000000000000000000000000000000 DUP2 MSTORE PUSH1 0x4 ADD PUSH2 0x159B SWAP1 PUSH2 0x3BBF JUMP JUMPDEST PUSH1 0x40 MLOAD DUP1 SWAP2 SUB SWAP1 REVERT JUMPDEST JUMP JUMPDEST PUSH0 PUSH1 0x1 DUP4 DUP1 PUSH2 0x100 ADD SWAP1 PUSH2 0x15BA SWAP2 SWAP1 PUSH2 0x3801 JUMP JUMPDEST SWAP1 POP LT ISZERO PUSH2 0x15F4 JUMPI PUSH1 0x40 MLOAD PUSH32 0x60CD402D00000000000000000000000000000000000000000000000000000000 DUP2 MSTORE PUSH1 0x4 ADD PUSH1 0x40 MLOAD DUP1 SWAP2 SUB SWAP1 REVERT JUMPDEST PUSH0 DUP4 DUP1 PUSH2 0x100 ADD SWAP1 PUSH2 0x1606 SWAP2 SWAP1 PUSH2 0x3801 JUMP JUMPDEST PUSH0 DUP2 DUP2 LT PUSH2 0x1617 JUMPI PUSH2 0x1616 PUSH2 0x379D JUMP JUMPDEST JUMPDEST SWAP1 POP ADD CALLDATALOAD PUSH1 0xF8 SHR PUSH1 0xF8 SHL PUSH1 0xF8 SHR SWAP1 POP PUSH0 PUSH1 0x2 DUP2 GT ISZERO PUSH2 0x1639 JUMPI PUSH2 0x1638 PUSH2 0x3A67 JUMP JUMPDEST JUMPDEST PUSH1 0xFF AND DUP2 PUSH1 0xFF AND SUB PUSH2 0x16D4 JUMPI PUSH0 PUSH2 0x164F DUP5 PUSH2 0x1E51 JUMP JUMPDEST SWAP1 POP PUSH0 DUP6 DUP1 PUSH2 0x100 ADD SWAP1 PUSH2 0x1663 SWAP2 SWAP1 PUSH2 0x3801 JUMP JUMPDEST PUSH1 0x1 SWAP1 DUP1 SWAP3 PUSH2 0x1674 SWAP4 SWAP3 SWAP2 SWAP1 PUSH2 0x3A9C JUMP JUMPDEST DUP1 DUP1 PUSH1 0x1F ADD PUSH1 0x20 DUP1 SWAP2 DIV MUL PUSH1 0x20 ADD PUSH1 0x40 MLOAD SWAP1 DUP2 ADD PUSH1 0x40 MSTORE DUP1 SWAP4 SWAP3 SWAP2 SWAP1 DUP2 DUP2 MSTORE PUSH1 0x20 ADD DUP4 DUP4 DUP1 DUP3 DUP5 CALLDATACOPY PUSH0 DUP2 DUP5 ADD MSTORE PUSH1 0x1F NOT PUSH1 0x1F DUP3 ADD AND SWAP1 POP DUP1 DUP4 ADD SWAP3 POP POP POP POP POP POP POP SWAP1 POP PUSH2 0x16CA PUSH2 0x16C5 DUP4 DUP4 PUSH2 0x1D60 JUMP JUMPDEST PUSH2 0x1E84 JUMP JUMPDEST SWAP4 POP POP POP POP PUSH2 0x17DD JUMP JUMPDEST PUSH1 0x2 DUP1 DUP2 GT ISZERO PUSH2 0x16E7 JUMPI PUSH2 0x16E6 PUSH2 0x3A67 JUMP JUMPDEST JUMPDEST PUSH1 0xFF AND DUP2 PUSH1 0xFF AND SUB PUSH2 0x17AB JUMPI PUSH0 DUP5 DUP1 PUSH2 0x100 ADD SWAP1 PUSH2 0x1705 SWAP2 SWAP1 PUSH2 0x3801 JUMP JUMPDEST PUSH1 0x1 SWAP1 PUSH1 0x15 SWAP3 PUSH2 0x1717 SWAP4 SWAP3 SWAP2 SWAP1 PUSH2 0x3A9C JUMP JUMPDEST SWAP1 PUSH2 0x1722 SWAP2 SWAP1 PUSH2 0x3B17 JUMP JUMPDEST PUSH1 0x60 SHR SWAP1 POP PUSH0 DUP6 DUP1 PUSH2 0x100 ADD SWAP1 PUSH2 0x1739 SWAP2 SWAP1 PUSH2 0x3801 JUMP JUMPDEST PUSH1 0x15 SWAP1 DUP1 SWAP3 PUSH2 0x174A SWAP4 SWAP3 SWAP2 SWAP1 PUSH2 0x3A9C JUMP JUMPDEST DUP1 DUP1 PUSH1 0x1F ADD PUSH1 0x20 DUP1 SWAP2 DIV MUL PUSH1 0x20 ADD PUSH1 0x40 MLOAD SWAP1 DUP2 ADD PUSH1 0x40 MSTORE DUP1 SWAP4 SWAP3 SWAP2 SWAP1 DUP2 DUP2 MSTORE PUSH1 0x20 ADD DUP4 DUP4 DUP1 DUP3 DUP5 CALLDATACOPY PUSH0 DUP2 DUP5 ADD MSTORE PUSH1 0x1F NOT PUSH1 0x1F DUP3 ADD AND SWAP1 POP DUP1 DUP4 ADD SWAP3 POP POP POP POP POP POP POP SWAP1 POP PUSH2 0x17A1 PUSH2 0x179C DUP4 DUP8 DUP5 PUSH2 0x1DBA JUMP JUMPDEST PUSH2 0x1E84 JUMP JUMPDEST SWAP4 POP POP POP POP PUSH2 0x17DD JUMP JUMPDEST PUSH1 0x40 MLOAD PUSH32 0x60CD402D00000000000000000000000000000000000000000000000000000000 DUP2 MSTORE PUSH1 0x4 ADD PUSH1 0x40 MLOAD DUP1 SWAP2 SUB SWAP1 REVERT JUMPDEST SWAP3 SWAP2 POP POP JUMP JUMPDEST POP JUMP JUMPDEST PUSH0 DUP2 EQ PUSH2 0x1857 JUMPI PUSH0 CALLER PUSH20 0xFFFFFFFFFFFFFFFFFFFFFFFFFFFFFFFFFFFFFFFF AND DUP3 PUSH1 0x40 MLOAD PUSH2 0x1812 SWAP1 PUSH2 0x3C0A JUMP JUMPDEST PUSH0 PUSH1 0x40 MLOAD DUP1 DUP4 SUB DUP2 DUP6 DUP8 GAS CALL SWAP3 POP POP POP RETURNDATASIZE DUP1 PUSH0 DUP2 EQ PUSH2 0x184C JUMPI PUSH1 0x40 MLOAD SWAP2 POP PUSH1 0x1F NOT PUSH1 0x3F RETURNDATASIZE ADD AND DUP3 ADD PUSH1 0x40 MSTORE RETURNDATASIZE DUP3 MSTORE RETURNDATASIZE PUSH0 PUSH1 0x20 DUP5 ADD RETURNDATACOPY PUSH2 0x1851 JUMP JUMPDEST PUSH1 0x60 SWAP2 POP JUMPDEST POP POP SWAP1 POP POP JUMPDEST POP JUMP JUMPDEST PUSH2 0x1862 PUSH2 0x152F JUMP JUMPDEST JUMP JUMPDEST PUSH0 PUSH0 PUSH0 DUP5 MLOAD PUSH1 0x20 DUP7 ADD DUP8 DUP10 DUP8 CALL SWAP1 POP SWAP5 SWAP4 POP POP POP POP JUMP JUMPDEST PUSH2 0x188C PUSH2 0x1887 PUSH0 PUSH2 0x188E JUMP JUMPDEST PUSH2 0x1E9A JUMP JUMPDEST JUMP JUMPDEST PUSH1 0x60 RETURNDATASIZE PUSH0 DUP4 GT ISZERO PUSH2 0x18A6 JUMPI DUP3 DUP2 GT ISZERO PUSH2 0x18A5 JUMPI DUP3 SWAP1 POP JUMPDEST JUMPDEST PUSH1 0x40 MLOAD PUSH1 0x20 DUP3 ADD DUP2 ADD PUSH1 0x40 MSTORE DUP2 DUP2 MSTORE DUP2 PUSH0 PUSH1 0x20 DUP4 ADD RETURNDATACOPY DUP1 SWAP3 POP POP POP SWAP2 SWAP1 POP JUMP JUMPDEST PUSH2 0x18CF DUP2 PUSH2 0x1EA2 JUMP JUMPDEST PUSH2 0x18D8 DUP3 PUSH2 0x1F78 JUMP JUMPDEST PUSH2 0x18EA PUSH2 0x18E3 PUSH2 0x1B12 JUMP JUMPDEST PUSH0 ADD PUSH2 0x2071 JUMP JUMPDEST ISZERO PUSH2 0x1921 JUMPI PUSH1 0x40 MLOAD PUSH32 0x9AA6FFC300000000000000000000000000000000000000000000000000000000 DUP2 MSTORE PUSH1 0x4 ADD PUSH1 0x40 MLOAD DUP1 SWAP2 SUB SWAP1 REVERT JUMPDEST PUSH32 0x9E21FE49FBA3F7D0D12E8F5EEF3747A76C62E19DEF530CE9764932707E1F12DD DUP3 DUP3 PUSH1 0x40 MLOAD PUSH2 0x1952 SWAP3 SWAP2 SWAP1 PUSH2 0x3C1E JUMP JUMPDEST PUSH1 0x40 MLOAD DUP1 SWAP2 SUB SWAP1 LOG1 POP POP JUMP JUMPDEST PUSH2 0x1966 PUSH2 0x1449 JUMP JUMPDEST POP JUMP JUMPDEST PUSH1 0x60 DUP1 PUSH1 0x40 MLOAD DUP1 PUSH1 0x40 ADD PUSH1 0x40 MSTORE DUP1 PUSH1 0x1A DUP2 MSTORE PUSH1 0x20 ADD PUSH32 0x4D756C74694F776E6572436F7264796C696E654163636F756E74000000000000 DUP2 MSTORE POP SWAP2 POP PUSH1 0x40 MLOAD DUP1 PUSH1 0x40 ADD PUSH1 0x40 MSTORE DUP1 PUSH1 0x1 DUP2 MSTORE PUSH1 0x20 ADD PUSH32 0x3200000000000000000000000000000000000000000000000000000000000000 DUP2 MSTORE POP SWAP1 POP SWAP1 SWAP2 JUMP JUMPDEST PUSH0 PUSH0 PUSH32 0x0 SWAP1 POP DUP1 SWAP2 POP POP SWAP1 JUMP JUMPDEST PUSH32 0x0 PUSH20 0xFFFFFFFFFFFFFFFFFFFFFFFFFFFFFFFFFFFFFFFF AND PUSH32 0x42A31333E4F630BD0B03D5F9B2F331B25C8C7CC2CEAB126F686324BFD4CD5033 DUP4 DUP4 PUSH1 0x40 MLOAD PUSH2 0x1A74 SWAP3 SWAP2 SWAP1 PUSH2 0x3CD9 JUMP JUMPDEST PUSH1 0x40 MLOAD DUP1 SWAP2 SUB SWAP1 LOG2 PUSH2 0x1B0E DUP3 DUP3 DUP1 DUP1 PUSH1 0x20 MUL PUSH1 0x20 ADD PUSH1 0x40 MLOAD SWAP1 DUP2 ADD PUSH1 0x40 MSTORE DUP1 SWAP4 SWAP3 SWAP2 SWAP1 DUP2 DUP2 MSTORE PUSH1 0x20 ADD DUP4 DUP4 PUSH1 0x20 MUL DUP1 DUP3 DUP5 CALLDATACOPY PUSH0 DUP2 DUP5 ADD MSTORE PUSH1 0x1F NOT PUSH1 0x1F DUP3 ADD AND SWAP1 POP DUP1 DUP4 ADD SWAP3 POP POP POP POP POP POP POP PUSH0 PUSH8 0xFFFFFFFFFFFFFFFF DUP2 GT ISZERO PUSH2 0x1ADA JUMPI PUSH2 0x1AD9 PUSH2 0x27F0 JUMP JUMPDEST JUMPDEST PUSH1 0x40 MLOAD SWAP1 DUP1 DUP3 MSTORE DUP1 PUSH1 0x20 MUL PUSH1 0x20 ADD DUP3 ADD PUSH1 0x40 MSTORE DUP1 ISZERO PUSH2 0x1B08 JUMPI DUP2 PUSH1 0x20 ADD PUSH1 0x20 DUP3 MUL DUP1 CALLDATASIZE DUP4 CALLDATACOPY DUP1 DUP3 ADD SWAP2 POP POP SWAP1 POP JUMPDEST POP PUSH2 0x18C6 JUMP JUMPDEST POP POP JUMP JUMPDEST PUSH0 PUSH0 PUSH32 0xEB5184329BABCDA7203727C83EFF940FB292FC735F61720A6182B755BF7F900 PUSH0 SHL SWAP1 POP DUP1 SWAP2 POP POP SWAP1 JUMP JUMPDEST PUSH1 0x60 PUSH0 DUP3 PUSH0 ADD SWAP1 POP PUSH0 PUSH0 DUP3 PUSH0 PUSH1 0x1 PUSH0 SHL DUP2 MSTORE PUSH1 0x20 ADD SWAP1 DUP2 MSTORE PUSH1 0x20 ADD PUSH0 KECCAK256 SLOAD SWAP1 POP PUSH1 0x40 MLOAD SWAP4 POP JUMPDEST PUSH2 0x1B6F DUP2 PUSH2 0x20AD JUMP JUMPDEST ISZERO DUP1 ISZERO PUSH2 0x1B7E JUMPI POP PUSH0 PUSH0 SHL DUP2 EQ ISZERO JUMPDEST ISZERO PUSH2 0x1BCF JUMPI DUP2 PUSH1 0x1 ADD SWAP2 POP PUSH0 PUSH2 0x1B93 DUP3 PUSH2 0x20B9 JUMP JUMPDEST SWAP1 POP DUP1 PUSH1 0x20 DUP5 MUL DUP7 ADD MSTORE PUSH2 0x1BA6 DUP3 PUSH2 0x20E6 JUMP JUMPDEST ISZERO PUSH2 0x1BC3 JUMPI DUP4 PUSH0 DUP3 DUP2 MSTORE PUSH1 0x20 ADD SWAP1 DUP2 MSTORE PUSH1 0x20 ADD PUSH0 KECCAK256 SLOAD SWAP2 POP PUSH2 0x1BC9 JUMP JUMPDEST PUSH0 PUSH0 SHL SWAP2 POP JUMPDEST POP PUSH2 0x1B66 JUMP JUMPDEST PUSH1 0x20 PUSH1 0x1 DUP4 ADD MUL DUP5 ADD PUSH1 0x40 MSTORE DUP2 DUP5 MSTORE POP POP POP SWAP2 SWAP1 POP JUMP JUMPDEST PUSH1 0x60 DUP1 DUP3 SWAP1 POP PUSH0 DUP4 MLOAD SWAP1 POP PUSH0 PUSH0 SWAP1 POP JUMPDEST DUP2 DUP2 LT ISZERO PUSH2 0x1C31 JUMPI PUSH1 0x60 DUP4 DUP3 DUP2 MLOAD DUP2 LT PUSH2 0x1C13 JUMPI PUSH2 0x1C12 PUSH2 0x379D JUMP JUMPDEST JUMPDEST PUSH1 0x20 MUL PUSH1 0x20 ADD ADD DUP2 DUP2 MLOAD SWAP1 SHR SWAP2 POP DUP2 DUP2 MSTORE POP POP DUP1 PUSH1 0x1 ADD SWAP1 POP PUSH2 0x1BF6 JUMP JUMPDEST POP DUP2 SWAP3 POP POP POP SWAP2 SWAP1 POP JUMP JUMPDEST PUSH0 SWAP1 JUMP JUMPDEST PUSH0 PUSH0 PUSH2 0x1C4A PUSH2 0x1C3C JUMP JUMPDEST ISZERO PUSH2 0x1C78 JUMPI PUSH0 PUSH0 PUSH2 0x1C59 PUSH2 0x1969 JUMP JUMPDEST SWAP2 POP SWAP2 POP DUP2 DUP1 MLOAD SWAP1 PUSH1 0x20 ADD KECCAK256 SWAP4 POP DUP1 DUP1 MLOAD SWAP1 PUSH1 0x20 ADD KECCAK256 SWAP3 POP POP POP PUSH2 0x1CBF JUMP JUMPDEST PUSH32 0x0 SWAP2 POP PUSH32 0x0 SWAP1 POP JUMPDEST PUSH1 0x40 MLOAD PUSH32 0x8B73C3C69BB8FE3D512ECC4CF759CC79239F7B179B0FFACAA9A75D522B39400F DUP2 MSTORE DUP3 PUSH1 0x20 DUP3 ADD MSTORE DUP2 PUSH1 0x40 DUP3 ADD MSTORE CHAINID PUSH1 0x60 DUP3 ADD MSTORE ADDRESS PUSH1 0x80 DUP3 ADD MSTORE PUSH1 0xA0 DUP2 KECCAK256 SWAP3 POP POP POP SWAP1 JUMP JUMPDEST PUSH0 PUSH0 PUSH32 0x0 SWAP1 POP PUSH0 PUSH32 0x0 SWAP1 POP DUP1 ADDRESS EQ DUP3 CHAINID EQ AND ISZERO SWAP3 POP POP POP SWAP1 JUMP JUMPDEST PUSH0 PUSH0 PUSH2 0x1D75 DUP4 DUP6 PUSH2 0x20F9 SWAP1 SWAP2 SWAP1 PUSH4 0xFFFFFFFF AND JUMP JUMPDEST SWAP1 POP PUSH2 0x1DB1 PUSH2 0x1D99 DUP3 PUSH20 0xFFFFFFFFFFFFFFFFFFFFFFFFFFFFFFFFFFFFFFFF AND PUSH2 0x2123 JUMP JUMPDEST PUSH2 0x1DA1 PUSH2 0x1B12 JUMP JUMPDEST PUSH0 ADD PUSH2 0x213E SWAP1 SWAP2 SWAP1 PUSH4 0xFFFFFFFF AND JUMP JUMPDEST SWAP2 POP POP SWAP3 SWAP2 POP POP JUMP JUMPDEST PUSH0 PUSH2 0x1DC6 DUP5 DUP5 DUP5 PUSH2 0x2169 JUMP JUMPDEST DUP1 ISZERO PUSH2 0x1E08 JUMPI POP PUSH2 0x1E07 PUSH2 0x1DEF DUP6 PUSH20 0xFFFFFFFFFFFFFFFFFFFFFFFFFFFFFFFFFFFFFFFF AND PUSH2 0x2123 JUMP JUMPDEST PUSH2 0x1DF7 PUSH2 0x1B12 JUMP JUMPDEST PUSH0 ADD PUSH2 0x213E SWAP1 SWAP2 SWAP1 PUSH4 0xFFFFFFFF AND JUMP JUMPDEST JUMPDEST SWAP1 POP SWAP4 SWAP3 POP POP POP JUMP JUMPDEST PUSH0 PUSH2 0x1E4C PUSH2 0x1E34 CALLER PUSH20 0xFFFFFFFFFFFFFFFFFFFFFFFFFFFFFFFFFFFFFFFF AND PUSH2 0x2123 JUMP JUMPDEST PUSH2 0x1E3C PUSH2 0x1B12 JUMP JUMPDEST PUSH0 ADD PUSH2 0x213E SWAP1 SWAP2 SWAP1 PUSH4 0xFFFFFFFF AND JUMP JUMPDEST SWAP1 POP SWAP1 JUMP JUMPDEST PUSH0 PUSH32 0x19457468657265756D205369676E6564204D6573736167653A0A333200000000 PUSH0 MSTORE DUP2 PUSH1 0x1C MSTORE PUSH1 0x3C PUSH0 KECCAK256 SWAP1 POP SWAP2 SWAP1 POP JUMP JUMPDEST PUSH0 DUP2 PUSH2 0x1E91 JUMPI PUSH1 0x1 PUSH2 0x1E93 JUMP JUMPDEST PUSH0 JUMPDEST SWAP1 POP SWAP2 SWAP1 POP JUMP JUMPDEST DUP1 MLOAD PUSH1 0x20 DUP3 ADD REVERT JUMPDEST PUSH0 PUSH2 0x1EAB PUSH2 0x1B12 JUMP JUMPDEST SWAP1 POP PUSH0 DUP3 MLOAD SWAP1 POP PUSH0 PUSH0 SWAP1 POP JUMPDEST DUP2 DUP2 LT ISZERO PUSH2 0x1F72 JUMPI PUSH2 0x1F0C PUSH2 0x1EFB DUP6 DUP4 DUP2 MLOAD DUP2 LT PUSH2 0x1ED8 JUMPI PUSH2 0x1ED7 PUSH2 0x379D JUMP JUMPDEST JUMPDEST PUSH1 0x20 MUL PUSH1 0x20 ADD ADD MLOAD PUSH20 0xFFFFFFFFFFFFFFFFFFFFFFFFFFFFFFFFFFFFFFFF AND PUSH2 0x2123 JUMP JUMPDEST DUP5 PUSH0 ADD PUSH2 0x2288 SWAP1 SWAP2 SWAP1 PUSH4 0xFFFFFFFF AND JUMP JUMPDEST PUSH2 0x1F67 JUMPI DUP4 DUP2 DUP2 MLOAD DUP2 LT PUSH2 0x1F23 JUMPI PUSH2 0x1F22 PUSH2 0x379D JUMP JUMPDEST JUMPDEST PUSH1 0x20 MUL PUSH1 0x20 ADD ADD MLOAD PUSH1 0x40 MLOAD PUSH32 0x531E21CE00000000000000000000000000000000000000000000000000000000 DUP2 MSTORE PUSH1 0x4 ADD PUSH2 0x1F5E SWAP2 SWAP1 PUSH2 0x30E3 JUMP JUMPDEST PUSH1 0x40 MLOAD DUP1 SWAP2 SUB SWAP1 REVERT JUMPDEST DUP1 PUSH1 0x1 ADD SWAP1 POP PUSH2 0x1EB7 JUMP JUMPDEST POP POP POP POP JUMP JUMPDEST PUSH0 PUSH2 0x1F81 PUSH2 0x1B12 JUMP JUMPDEST SWAP1 POP PUSH0 DUP3 MLOAD SWAP1 POP PUSH0 PUSH0 SWAP1 POP JUMPDEST DUP2 DUP2 LT ISZERO PUSH2 0x206B JUMPI PUSH0 DUP5 DUP3 DUP2 MLOAD DUP2 LT PUSH2 0x1FA9 JUMPI PUSH2 0x1FA8 PUSH2 0x379D JUMP JUMPDEST JUMPDEST PUSH1 0x20 MUL PUSH1 0x20 ADD ADD MLOAD SWAP1 POP ADDRESS PUSH20 0xFFFFFFFFFFFFFFFFFFFFFFFFFFFFFFFFFFFFFFFF AND DUP2 PUSH20 0xFFFFFFFFFFFFFFFFFFFFFFFFFFFFFFFFFFFFFFFF AND EQ DUP1 PUSH2 0x201D JUMPI POP PUSH2 0x201B PUSH2 0x200A DUP3 PUSH20 0xFFFFFFFFFFFFFFFFFFFFFFFFFFFFFFFFFFFFFFFF AND PUSH2 0x2123 JUMP JUMPDEST DUP6 PUSH0 ADD PUSH2 0x237F SWAP1 SWAP2 SWAP1 PUSH4 0xFFFFFFFF AND JUMP JUMPDEST ISZERO JUMPDEST ISZERO PUSH2 0x205F JUMPI DUP1 PUSH1 0x40 MLOAD PUSH32 0xB20F76E300000000000000000000000000000000000000000000000000000000 DUP2 MSTORE PUSH1 0x4 ADD PUSH2 0x2056 SWAP2 SWAP1 PUSH2 0x30E3 JUMP JUMPDEST PUSH1 0x40 MLOAD DUP1 SWAP2 SUB SWAP1 REVERT JUMPDEST POP DUP1 PUSH1 0x1 ADD SWAP1 POP PUSH2 0x1F8D JUMP JUMPDEST POP POP POP POP JUMP JUMPDEST PUSH0 PUSH0 DUP3 PUSH0 ADD SWAP1 POP PUSH0 DUP2 PUSH0 PUSH1 0x1 PUSH0 SHL DUP2 MSTORE PUSH1 0x20 ADD SWAP1 DUP2 MSTORE PUSH1 0x20 ADD PUSH0 KECCAK256 SLOAD SWAP1 POP PUSH0 PUSH0 SHL DUP2 EQ DUP1 PUSH2 0x20A4 JUMPI POP PUSH2 0x20A3 DUP2 PUSH2 0x20AD JUMP JUMPDEST JUMPDEST SWAP3 POP POP POP SWAP2 SWAP1 POP JUMP JUMPDEST PUSH0 PUSH1 0x1 DUP3 AND SWAP1 POP SWAP2 SWAP1 POP JUMP JUMPDEST PUSH0 PUSH32 0xFFFFFFFFFFFFFFFFFFFFFFFFFFFFFFFFFFFFFFFFFFFFFFFFFFFFFFFFFFFF0001 PUSH0 SHL DUP3 AND SWAP1 POP SWAP2 SWAP1 POP JUMP JUMPDEST PUSH0 PUSH0 PUSH0 SHL PUSH1 0x2 PUSH0 SHL DUP4 AND EQ ISZERO SWAP1 POP SWAP2 SWAP1 POP JUMP JUMPDEST PUSH0 PUSH0 PUSH0 PUSH0 PUSH2 0x2107 DUP7 DUP7 PUSH2 0x2467 JUMP JUMPDEST SWAP3 POP SWAP3 POP SWAP3 POP PUSH2 0x2117 DUP3 DUP3 PUSH2 0x24BC JUMP JUMPDEST DUP3 SWAP4 POP POP POP POP SWAP3 SWAP2 POP POP JUMP JUMPDEST PUSH0 DUP2 PUSH1 0x60 SHL PUSH12 0xFFFFFFFFFFFFFFFFFFFFFFFF NOT AND SWAP1 POP SWAP2 SWAP1 POP JUMP JUMPDEST PUSH0 PUSH0 DUP4 PUSH0 ADD SWAP1 POP PUSH0 PUSH0 SHL DUP2 PUSH0 DUP6 PUSH2 0xFFFF NOT AND DUP2 MSTORE PUSH1 0x20 ADD SWAP1 DUP2 MSTORE PUSH1 0x20 ADD PUSH0 KECCAK256 SLOAD EQ ISZERO SWAP2 POP POP SWAP3 SWAP2 POP POP JUMP JUMPDEST PUSH0 PUSH0 PUSH0 DUP6 PUSH20 0xFFFFFFFFFFFFFFFFFFFFFFFFFFFFFFFFFFFFFFFF AND DUP6 DUP6 PUSH1 0x40 MLOAD PUSH1 0x24 ADD PUSH2 0x2196 SWAP3 SWAP2 SWAP1 PUSH2 0x3CFB JUMP JUMPDEST PUSH1 0x40 MLOAD PUSH1 0x20 DUP2 DUP4 SUB SUB DUP2 MSTORE SWAP1 PUSH1 0x40 MSTORE PUSH4 0x1626BA7E PUSH1 0xE0 SHL PUSH1 0x20 DUP3 ADD DUP1 MLOAD PUSH28 0xFFFFFFFFFFFFFFFFFFFFFFFFFFFFFFFFFFFFFFFFFFFFFFFFFFFFFFFF DUP4 DUP2 DUP4 AND OR DUP4 MSTORE POP POP POP POP PUSH1 0x40 MLOAD PUSH2 0x21E8 SWAP2 SWAP1 PUSH2 0x3D59 JUMP JUMPDEST PUSH0 PUSH1 0x40 MLOAD DUP1 DUP4 SUB DUP2 DUP6 GAS STATICCALL SWAP2 POP POP RETURNDATASIZE DUP1 PUSH0 DUP2 EQ PUSH2 0x2220 JUMPI PUSH1 0x40 MLOAD SWAP2 POP PUSH1 0x1F NOT PUSH1 0x3F RETURNDATASIZE ADD AND DUP3 ADD PUSH1 0x40 MSTORE RETURNDATASIZE DUP3 MSTORE RETURNDATASIZE PUSH0 PUSH1 0x20 DUP5 ADD RETURNDATACOPY PUSH2 0x2225 JUMP JUMPDEST PUSH1 0x60 SWAP2 POP JUMPDEST POP SWAP2 POP SWAP2 POP DUP2 DUP1 ISZERO PUSH2 0x2239 JUMPI POP PUSH1 0x20 DUP2 MLOAD LT ISZERO JUMPDEST DUP1 ISZERO PUSH2 0x227D JUMPI POP PUSH4 0x1626BA7E PUSH1 0xE0 SHL PUSH28 0xFFFFFFFFFFFFFFFFFFFFFFFFFFFFFFFFFFFFFFFFFFFFFFFFFFFFFFFF NOT AND DUP2 DUP1 PUSH1 0x20 ADD SWAP1 MLOAD DUP2 ADD SWAP1 PUSH2 0x227B SWAP2 SWAP1 PUSH2 0x3D83 JUMP JUMPDEST EQ JUMPDEST SWAP3 POP POP POP SWAP4 SWAP3 POP POP POP JUMP JUMPDEST PUSH0 PUSH0 DUP4 PUSH0 ADD SWAP1 POP PUSH0 DUP4 PUSH2 0xFFFF NOT AND SWAP1 POP PUSH0 DUP3 PUSH0 DUP4 DUP2 MSTORE PUSH1 0x20 ADD SWAP1 DUP2 MSTORE PUSH1 0x20 ADD PUSH0 KECCAK256 SLOAD SWAP1 POP PUSH0 PUSH0 SHL DUP3 EQ DUP1 PUSH2 0x22BD JUMPI POP PUSH0 PUSH0 SHL DUP2 EQ JUMPDEST ISZERO PUSH2 0x22CD JUMPI PUSH0 SWAP4 POP POP POP POP PUSH2 0x2379 JUMP JUMPDEST PUSH0 PUSH1 0x1 PUSH0 SHL SWAP1 POP PUSH0 JUMPDEST DUP5 PUSH0 DUP4 DUP2 MSTORE PUSH1 0x20 ADD SWAP1 DUP2 MSTORE PUSH1 0x20 ADD PUSH0 KECCAK256 SLOAD SWAP1 POP PUSH0 PUSH2 0x22F3 DUP3 PUSH2 0x20B9 JUMP JUMPDEST SWAP1 POP DUP5 DUP2 SUB PUSH2 0x2350 JUMPI PUSH1 0x2 PUSH0 SHL DUP5 AND PUSH2 0x230B DUP4 PUSH2 0x261E JUMP JUMPDEST PUSH2 0x2314 DUP7 PUSH2 0x20B9 JUMP JUMPDEST OR OR DUP7 PUSH0 DUP6 DUP2 MSTORE PUSH1 0x20 ADD SWAP1 DUP2 MSTORE PUSH1 0x20 ADD PUSH0 KECCAK256 DUP2 SWAP1 SSTORE POP PUSH0 PUSH0 SHL DUP7 PUSH0 DUP4 DUP2 MSTORE PUSH1 0x20 ADD SWAP1 DUP2 MSTORE PUSH1 0x20 ADD PUSH0 KECCAK256 DUP2 SWAP1 SSTORE POP PUSH1 0x1 SWAP7 POP POP POP POP POP POP POP PUSH2 0x2379 JUMP JUMPDEST DUP1 SWAP3 POP POP PUSH2 0x235D DUP2 PUSH2 0x20AD JUMP JUMPDEST ISZERO DUP1 ISZERO PUSH2 0x236C JUMPI POP PUSH0 PUSH0 SHL DUP2 EQ ISZERO JUMPDEST PUSH2 0x22D6 JUMPI PUSH0 SWAP6 POP POP POP POP POP POP JUMPDEST SWAP3 SWAP2 POP POP JUMP JUMPDEST PUSH0 PUSH0 DUP4 PUSH0 ADD SWAP1 POP PUSH0 DUP4 PUSH2 0xFFFF NOT AND SWAP1 POP PUSH0 PUSH0 SHL DUP2 EQ DUP1 PUSH2 0x23B1 JUMPI POP PUSH0 PUSH0 SHL DUP3 PUSH0 DUP4 DUP2 MSTORE PUSH1 0x20 ADD SWAP1 DUP2 MSTORE PUSH1 0x20 ADD PUSH0 KECCAK256 SLOAD EQ ISZERO JUMPDEST ISZERO PUSH2 0x23C0 JUMPI PUSH0 SWAP3 POP POP POP PUSH2 0x2461 JUMP JUMPDEST PUSH0 DUP3 PUSH0 PUSH1 0x1 PUSH0 SHL DUP2 MSTORE PUSH1 0x20 ADD SWAP1 DUP2 MSTORE PUSH1 0x20 ADD PUSH0 KECCAK256 SLOAD SWAP1 POP PUSH0 PUSH0 SHL DUP2 EQ DUP1 PUSH2 0x23EC JUMPI POP PUSH2 0x23EB DUP2 PUSH2 0x20AD JUMP JUMPDEST JUMPDEST ISZERO PUSH2 0x2426 JUMPI DUP2 DUP4 PUSH0 PUSH1 0x1 PUSH0 SHL DUP2 MSTORE PUSH1 0x20 ADD SWAP1 DUP2 MSTORE PUSH1 0x20 ADD PUSH0 KECCAK256 DUP2 SWAP1 SSTORE POP PUSH1 0x1 PUSH0 SHL DUP4 PUSH0 DUP5 DUP2 MSTORE PUSH1 0x20 ADD SWAP1 DUP2 MSTORE PUSH1 0x20 ADD PUSH0 KECCAK256 DUP2 SWAP1 SSTORE POP PUSH2 0x2459 JUMP JUMPDEST PUSH1 0x2 PUSH0 SHL DUP3 OR DUP4 PUSH0 PUSH1 0x1 PUSH0 SHL DUP2 MSTORE PUSH1 0x20 ADD SWAP1 DUP2 MSTORE PUSH1 0x20 ADD PUSH0 KECCAK256 DUP2 SWAP1 SSTORE POP DUP1 DUP4 PUSH0 DUP5 DUP2 MSTORE PUSH1 0x20 ADD SWAP1 DUP2 MSTORE PUSH1 0x20 ADD PUSH0 KECCAK256 DUP2 SWAP1 SSTORE POP JUMPDEST PUSH1 0x1 SWAP4 POP POP POP POP JUMPDEST SWAP3 SWAP2 POP POP JUMP JUMPDEST PUSH0 PUSH0 PUSH0 PUSH1 0x41 DUP5 MLOAD SUB PUSH2 0x24A7 JUMPI PUSH0 PUSH0 PUSH0 PUSH1 0x20 DUP8 ADD MLOAD SWAP3 POP PUSH1 0x40 DUP8 ADD MLOAD SWAP2 POP PUSH1 0x60 DUP8 ADD MLOAD PUSH0 BYTE SWAP1 POP PUSH2 0x2499 DUP9 DUP3 DUP6 DUP6 PUSH2 0x262D JUMP JUMPDEST SWAP6 POP SWAP6 POP SWAP6 POP POP POP POP PUSH2 0x24B5 JUMP JUMPDEST PUSH0 PUSH1 0x2 DUP6 MLOAD PUSH0 SHL SWAP3 POP SWAP3 POP SWAP3 POP JUMPDEST SWAP3 POP SWAP3 POP SWAP3 JUMP JUMPDEST PUSH0 PUSH1 0x3 DUP2 GT ISZERO PUSH2 0x24CF JUMPI PUSH2 0x24CE PUSH2 0x3A67 JUMP JUMPDEST JUMPDEST DUP3 PUSH1 0x3 DUP2 GT ISZERO PUSH2 0x24E2 JUMPI PUSH2 0x24E1 PUSH2 0x3A67 JUMP JUMPDEST JUMPDEST SUB ISZERO PUSH2 0x261A JUMPI PUSH1 0x1 PUSH1 0x3 DUP2 GT ISZERO PUSH2 0x24FC JUMPI PUSH2 0x24FB PUSH2 0x3A67 JUMP JUMPDEST JUMPDEST DUP3 PUSH1 0x3 DUP2 GT ISZERO PUSH2 0x250F JUMPI PUSH2 0x250E PUSH2 0x3A67 JUMP JUMPDEST JUMPDEST SUB PUSH2 0x2546 JUMPI PUSH1 0x40 MLOAD PUSH32 0xF645EEDF00000000000000000000000000000000000000000000000000000000 DUP2 MSTORE PUSH1 0x4 ADD PUSH1 0x40 MLOAD DUP1 SWAP2 SUB SWAP1 REVERT JUMPDEST PUSH1 0x2 PUSH1 0x3 DUP2 GT ISZERO PUSH2 0x255A JUMPI PUSH2 0x2559 PUSH2 0x3A67 JUMP JUMPDEST JUMPDEST DUP3 PUSH1 0x3 DUP2 GT ISZERO PUSH2 0x256D JUMPI PUSH2 0x256C PUSH2 0x3A67 JUMP JUMPDEST JUMPDEST SUB PUSH2 0x25B1 JUMPI DUP1 PUSH0 SHR PUSH1 0x40 MLOAD PUSH32 0xFCE698F700000000000000000000000000000000000000000000000000000000 DUP2 MSTORE PUSH1 0x4 ADD PUSH2 0x25A8 SWAP2 SWAP1 PUSH2 0x2D6F JUMP JUMPDEST PUSH1 0x40 MLOAD DUP1 SWAP2 SUB SWAP1 REVERT JUMPDEST PUSH1 0x3 DUP1 DUP2 GT ISZERO PUSH2 0x25C4 JUMPI PUSH2 0x25C3 PUSH2 0x3A67 JUMP JUMPDEST JUMPDEST DUP3 PUSH1 0x3 DUP2 GT ISZERO PUSH2 0x25D7 JUMPI PUSH2 0x25D6 PUSH2 0x3A67 JUMP JUMPDEST JUMPDEST SUB PUSH2 0x2619 JUMPI DUP1 PUSH1 0x40 MLOAD PUSH32 0xD78BCE0C00000000000000000000000000000000000000000000000000000000 DUP2 MSTORE PUSH1 0x4 ADD PUSH2 0x2610 SWAP2 SWAP1 PUSH2 0x2973 JUMP JUMPDEST PUSH1 0x40 MLOAD DUP1 SWAP2 SUB SWAP1 REVERT JUMPDEST JUMPDEST POP POP JUMP JUMPDEST PUSH0 PUSH2 0xFFFC PUSH0 SHL DUP3 AND SWAP1 POP SWAP2 SWAP1 POP JUMP JUMPDEST PUSH0 PUSH0 PUSH0 PUSH32 0x7FFFFFFFFFFFFFFFFFFFFFFFFFFFFFFF5D576E7357A4501DDFE92F46681B20A0 DUP5 PUSH0 SHR GT ISZERO PUSH2 0x2669 JUMPI PUSH0 PUSH1 0x3 DUP6 SWAP3 POP SWAP3 POP SWAP3 POP PUSH2 0x270A JUMP JUMPDEST PUSH0 PUSH1 0x1 DUP9 DUP9 DUP9 DUP9 PUSH1 0x40 MLOAD PUSH0 DUP2 MSTORE PUSH1 0x20 ADD PUSH1 0x40 MSTORE PUSH1 0x40 MLOAD PUSH2 0x268C SWAP5 SWAP4 SWAP3 SWAP2 SWAP1 PUSH2 0x3DC9 JUMP JUMPDEST PUSH1 0x20 PUSH1 0x40 MLOAD PUSH1 0x20 DUP2 SUB SWAP1 DUP1 DUP5 SUB SWAP1 DUP6 GAS STATICCALL ISZERO DUP1 ISZERO PUSH2 0x26AC JUMPI RETURNDATASIZE PUSH0 PUSH0 RETURNDATACOPY RETURNDATASIZE PUSH0 REVERT JUMPDEST POP POP POP PUSH1 0x20 PUSH1 0x40 MLOAD SUB MLOAD SWAP1 POP PUSH0 PUSH20 0xFFFFFFFFFFFFFFFFFFFFFFFFFFFFFFFFFFFFFFFF AND DUP2 PUSH20 0xFFFFFFFFFFFFFFFFFFFFFFFFFFFFFFFFFFFFFFFF AND SUB PUSH2 0x26FD JUMPI PUSH0 PUSH1 0x1 PUSH0 PUSH0 SHL SWAP4 POP SWAP4 POP SWAP4 POP POP PUSH2 0x270A JUMP JUMPDEST DUP1 PUSH0 PUSH0 PUSH0 SHL SWAP4 POP SWAP4 POP SWAP4 POP POP JUMPDEST SWAP5 POP SWAP5 POP SWAP5 SWAP2 POP POP JUMP JUMPDEST PUSH0 PUSH1 0x40 MLOAD SWAP1 POP SWAP1 JUMP JUMPDEST PUSH0 PUSH0 REVERT JUMPDEST PUSH0 PUSH0 REVERT JUMPDEST PUSH0 PUSH32 0xFFFFFFFF00000000000000000000000000000000000000000000000000000000 DUP3 AND SWAP1 POP SWAP2 SWAP1 POP JUMP JUMPDEST PUSH2 0x2759 DUP2 PUSH2 0x2725 JUMP JUMPDEST DUP2 EQ PUSH2 0x2763 JUMPI PUSH0 PUSH0 REVERT JUMPDEST POP JUMP JUMPDEST PUSH0 DUP2 CALLDATALOAD SWAP1 POP PUSH2 0x2774 DUP2 PUSH2 0x2750 JUMP JUMPDEST SWAP3 SWAP2 POP POP JUMP JUMPDEST PUSH0 PUSH1 0x20 DUP3 DUP5 SUB SLT ISZERO PUSH2 0x278F JUMPI PUSH2 0x278E PUSH2 0x271D JUMP JUMPDEST JUMPDEST PUSH0 PUSH2 0x279C DUP5 DUP3 DUP6 ADD PUSH2 0x2766 JUMP JUMPDEST SWAP2 POP POP SWAP3 SWAP2 POP POP JUMP JUMPDEST PUSH0 DUP2 ISZERO ISZERO SWAP1 POP SWAP2 SWAP1 POP JUMP JUMPDEST PUSH2 0x27B9 DUP2 PUSH2 0x27A5 JUMP JUMPDEST DUP3 MSTORE POP POP JUMP JUMPDEST PUSH0 PUSH1 0x20 DUP3 ADD SWAP1 POP PUSH2 0x27D2 PUSH0 DUP4 ADD DUP5 PUSH2 0x27B0 JUMP JUMPDEST SWAP3 SWAP2 POP POP JUMP JUMPDEST PUSH0 PUSH0 REVERT JUMPDEST PUSH0 PUSH0 REVERT JUMPDEST PUSH0 PUSH1 0x1F NOT PUSH1 0x1F DUP4 ADD AND SWAP1 POP SWAP2 SWAP1 POP JUMP JUMPDEST PUSH32 0x4E487B7100000000000000000000000000000000000000000000000000000000 PUSH0 MSTORE PUSH1 0x41 PUSH1 0x4 MSTORE PUSH1 0x24 PUSH0 REVERT JUMPDEST PUSH2 0x2826 DUP3 PUSH2 0x27E0 JUMP JUMPDEST DUP2 ADD DUP2 DUP2 LT PUSH8 0xFFFFFFFFFFFFFFFF DUP3 GT OR ISZERO PUSH2 0x2845 JUMPI PUSH2 0x2844 PUSH2 0x27F0 JUMP JUMPDEST JUMPDEST DUP1 PUSH1 0x40 MSTORE POP POP POP JUMP JUMPDEST PUSH0 PUSH2 0x2857 PUSH2 0x2714 JUMP JUMPDEST SWAP1 POP PUSH2 0x2863 DUP3 DUP3 PUSH2 0x281D JUMP JUMPDEST SWAP2 SWAP1 POP JUMP JUMPDEST PUSH0 PUSH8 0xFFFFFFFFFFFFFFFF DUP3 GT ISZERO PUSH2 0x2882 JUMPI PUSH2 0x2881 PUSH2 0x27F0 JUMP JUMPDEST JUMPDEST PUSH2 0x288B DUP3 PUSH2 0x27E0 JUMP JUMPDEST SWAP1 POP PUSH1 0x20 DUP2 ADD SWAP1 POP SWAP2 SWAP1 POP JUMP JUMPDEST DUP3 DUP2 DUP4 CALLDATACOPY PUSH0 DUP4 DUP4 ADD MSTORE POP POP POP JUMP JUMPDEST PUSH0 PUSH2 0x28B8 PUSH2 0x28B3 DUP5 PUSH2 0x2868 JUMP JUMPDEST PUSH2 0x284E JUMP JUMPDEST SWAP1 POP DUP3 DUP2 MSTORE PUSH1 0x20 DUP2 ADD DUP5 DUP5 DUP5 ADD GT ISZERO PUSH2 0x28D4 JUMPI PUSH2 0x28D3 PUSH2 0x27DC JUMP JUMPDEST JUMPDEST PUSH2 0x28DF DUP5 DUP3 DUP6 PUSH2 0x2898 JUMP JUMPDEST POP SWAP4 SWAP3 POP POP POP JUMP JUMPDEST PUSH0 DUP3 PUSH1 0x1F DUP4 ADD SLT PUSH2 0x28FB JUMPI PUSH2 0x28FA PUSH2 0x27D8 JUMP JUMPDEST JUMPDEST DUP2 CALLDATALOAD PUSH2 0x290B DUP5 DUP3 PUSH1 0x20 DUP7 ADD PUSH2 0x28A6 JUMP JUMPDEST SWAP2 POP POP SWAP3 SWAP2 POP POP JUMP JUMPDEST PUSH0 PUSH1 0x20 DUP3 DUP5 SUB SLT ISZERO PUSH2 0x2929 JUMPI PUSH2 0x2928 PUSH2 0x271D JUMP JUMPDEST JUMPDEST PUSH0 DUP3 ADD CALLDATALOAD PUSH8 0xFFFFFFFFFFFFFFFF DUP2 GT ISZERO PUSH2 0x2946 JUMPI PUSH2 0x2945 PUSH2 0x2721 JUMP JUMPDEST JUMPDEST PUSH2 0x2952 DUP5 DUP3 DUP6 ADD PUSH2 0x28E7 JUMP JUMPDEST SWAP2 POP POP SWAP3 SWAP2 POP POP JUMP JUMPDEST PUSH0 DUP2 SWAP1 POP SWAP2 SWAP1 POP JUMP JUMPDEST PUSH2 0x296D DUP2 PUSH2 0x295B JUMP JUMPDEST DUP3 MSTORE POP POP JUMP JUMPDEST PUSH0 PUSH1 0x20 DUP3 ADD SWAP1 POP PUSH2 0x2986 PUSH0 DUP4 ADD DUP5 PUSH2 0x2964 JUMP JUMPDEST SWAP3 SWAP2 POP POP JUMP JUMPDEST PUSH0 PUSH20 0xFFFFFFFFFFFFFFFFFFFFFFFFFFFFFFFFFFFFFFFF DUP3 AND SWAP1 POP SWAP2 SWAP1 POP JUMP JUMPDEST PUSH0 PUSH2 0x29B5 DUP3 PUSH2 0x298C JUMP JUMPDEST SWAP1 POP SWAP2 SWAP1 POP JUMP JUMPDEST PUSH2 0x29C5 DUP2 PUSH2 0x29AB JUMP JUMPDEST DUP2 EQ PUSH2 0x29CF JUMPI PUSH0 PUSH0 REVERT JUMPDEST POP JUMP JUMPDEST PUSH0 DUP2 CALLDATALOAD SWAP1 POP PUSH2 0x29E0 DUP2 PUSH2 0x29BC JUMP JUMPDEST SWAP3 SWAP2 POP POP JUMP JUMPDEST PUSH0 DUP2 SWAP1 POP SWAP2 SWAP1 POP JUMP JUMPDEST PUSH2 0x29F8 DUP2 PUSH2 0x29E6 JUMP JUMPDEST DUP2 EQ PUSH2 0x2A02 JUMPI PUSH0 PUSH0 REVERT JUMPDEST POP JUMP JUMPDEST PUSH0 DUP2 CALLDATALOAD SWAP1 POP PUSH2 0x2A13 DUP2 PUSH2 0x29EF JUMP JUMPDEST SWAP3 SWAP2 POP POP JUMP JUMPDEST PUSH0 PUSH0 REVERT JUMPDEST PUSH0 PUSH0 REVERT JUMPDEST PUSH0 PUSH0 DUP4 PUSH1 0x1F DUP5 ADD SLT PUSH2 0x2A36 JUMPI PUSH2 0x2A35 PUSH2 0x27D8 JUMP JUMPDEST JUMPDEST DUP3 CALLDATALOAD SWAP1 POP PUSH8 0xFFFFFFFFFFFFFFFF DUP2 GT ISZERO PUSH2 0x2A53 JUMPI PUSH2 0x2A52 PUSH2 0x2A19 JUMP JUMPDEST JUMPDEST PUSH1 0x20 DUP4 ADD SWAP2 POP DUP4 PUSH1 0x1 DUP3 MUL DUP4 ADD GT ISZERO PUSH2 0x2A6F JUMPI PUSH2 0x2A6E PUSH2 0x2A1D JUMP JUMPDEST JUMPDEST SWAP3 POP SWAP3 SWAP1 POP JUMP JUMPDEST PUSH0 PUSH0 PUSH0 PUSH0 PUSH0 PUSH1 0x80 DUP7 DUP9 SUB SLT ISZERO PUSH2 0x2A8F JUMPI PUSH2 0x2A8E PUSH2 0x271D JUMP JUMPDEST JUMPDEST PUSH0 PUSH2 0x2A9C DUP9 DUP3 DUP10 ADD PUSH2 0x29D2 JUMP JUMPDEST SWAP6 POP POP PUSH1 0x20 PUSH2 0x2AAD DUP9 DUP3 DUP10 ADD PUSH2 0x29D2 JUMP JUMPDEST SWAP5 POP POP PUSH1 0x40 PUSH2 0x2ABE DUP9 DUP3 DUP10 ADD PUSH2 0x2A05 JUMP JUMPDEST SWAP4 POP POP PUSH1 0x60 DUP7 ADD CALLDATALOAD PUSH8 0xFFFFFFFFFFFFFFFF DUP2 GT ISZERO PUSH2 0x2ADF JUMPI PUSH2 0x2ADE PUSH2 0x2721 JUMP JUMPDEST JUMPDEST PUSH2 0x2AEB DUP9 DUP3 DUP10 ADD PUSH2 0x2A21 JUMP JUMPDEST SWAP3 POP SWAP3 POP POP SWAP3 SWAP6 POP SWAP3 SWAP6 SWAP1 SWAP4 POP JUMP JUMPDEST PUSH2 0x2B03 DUP2 PUSH2 0x2725 JUMP JUMPDEST DUP3 MSTORE POP POP JUMP JUMPDEST PUSH0 PUSH1 0x20 DUP3 ADD SWAP1 POP PUSH2 0x2B1C PUSH0 DUP4 ADD DUP5 PUSH2 0x2AFA JUMP JUMPDEST SWAP3 SWAP2 POP POP JUMP JUMPDEST PUSH2 0x2B2B DUP2 PUSH2 0x295B JUMP JUMPDEST DUP2 EQ PUSH2 0x2B35 JUMPI PUSH0 PUSH0 REVERT JUMPDEST POP JUMP JUMPDEST PUSH0 DUP2 CALLDATALOAD SWAP1 POP PUSH2 0x2B46 DUP2 PUSH2 0x2B22 JUMP JUMPDEST SWAP3 SWAP2 POP POP JUMP JUMPDEST PUSH0 PUSH0 PUSH0 PUSH1 0x40 DUP5 DUP7 SUB SLT ISZERO PUSH2 0x2B63 JUMPI PUSH2 0x2B62 PUSH2 0x271D JUMP JUMPDEST JUMPDEST PUSH0 PUSH2 0x2B70 DUP7 DUP3 DUP8 ADD PUSH2 0x2B38 JUMP JUMPDEST SWAP4 POP POP PUSH1 0x20 DUP5 ADD CALLDATALOAD PUSH8 0xFFFFFFFFFFFFFFFF DUP2 GT ISZERO PUSH2 0x2B91 JUMPI PUSH2 0x2B90 PUSH2 0x2721 JUMP JUMPDEST JUMPDEST PUSH2 0x2B9D DUP7 DUP3 DUP8 ADD PUSH2 0x2A21 JUMP JUMPDEST SWAP3 POP SWAP3 POP POP SWAP3 POP SWAP3 POP SWAP3 JUMP JUMPDEST PUSH0 PUSH0 DUP4 PUSH1 0x1F DUP5 ADD SLT PUSH2 0x2BBE JUMPI PUSH2 0x2BBD PUSH2 0x27D8 JUMP JUMPDEST JUMPDEST DUP3 CALLDATALOAD SWAP1 POP PUSH8 0xFFFFFFFFFFFFFFFF DUP2 GT ISZERO PUSH2 0x2BDB JUMPI PUSH2 0x2BDA PUSH2 0x2A19 JUMP JUMPDEST JUMPDEST PUSH1 0x20 DUP4 ADD SWAP2 POP DUP4 PUSH1 0x20 DUP3 MUL DUP4 ADD GT ISZERO PUSH2 0x2BF7 JUMPI PUSH2 0x2BF6 PUSH2 0x2A1D JUMP JUMPDEST JUMPDEST SWAP3 POP SWAP3 SWAP1 POP JUMP JUMPDEST PUSH0 PUSH0 DUP4 PUSH1 0x1F DUP5 ADD SLT PUSH2 0x2C13 JUMPI PUSH2 0x2C12 PUSH2 0x27D8 JUMP JUMPDEST JUMPDEST DUP3 CALLDATALOAD SWAP1 POP PUSH8 0xFFFFFFFFFFFFFFFF DUP2 GT ISZERO PUSH2 0x2C30 JUMPI PUSH2 0x2C2F PUSH2 0x2A19 JUMP JUMPDEST JUMPDEST PUSH1 0x20 DUP4 ADD SWAP2 POP DUP4 PUSH1 0x20 DUP3 MUL DUP4 ADD GT ISZERO PUSH2 0x2C4C JUMPI PUSH2 0x2C4B PUSH2 0x2A1D JUMP JUMPDEST JUMPDEST SWAP3 POP SWAP3 SWAP1 POP JUMP JUMPDEST PUSH0 PUSH0 PUSH0 PUSH0 PUSH1 0x40 DUP6 DUP8 SUB SLT ISZERO PUSH2 0x2C6B JUMPI PUSH2 0x2C6A PUSH2 0x271D JUMP JUMPDEST JUMPDEST PUSH0 DUP6 ADD CALLDATALOAD PUSH8 0xFFFFFFFFFFFFFFFF DUP2 GT ISZERO PUSH2 0x2C88 JUMPI PUSH2 0x2C87 PUSH2 0x2721 JUMP JUMPDEST JUMPDEST PUSH2 0x2C94 DUP8 DUP3 DUP9 ADD PUSH2 0x2BA9 JUMP JUMPDEST SWAP5 POP SWAP5 POP POP PUSH1 0x20 DUP6 ADD CALLDATALOAD PUSH8 0xFFFFFFFFFFFFFFFF DUP2 GT ISZERO PUSH2 0x2CB7 JUMPI PUSH2 0x2CB6 PUSH2 0x2721 JUMP JUMPDEST JUMPDEST PUSH2 0x2CC3 DUP8 DUP3 DUP9 ADD PUSH2 0x2BFE JUMP JUMPDEST SWAP3 POP SWAP3 POP POP SWAP3 SWAP6 SWAP2 SWAP5 POP SWAP3 POP JUMP JUMPDEST PUSH0 PUSH0 REVERT JUMPDEST PUSH0 PUSH2 0x120 DUP3 DUP5 SUB SLT ISZERO PUSH2 0x2CEB JUMPI PUSH2 0x2CEA PUSH2 0x2CD1 JUMP JUMPDEST JUMPDEST DUP2 SWAP1 POP SWAP3 SWAP2 POP POP JUMP JUMPDEST PUSH0 PUSH0 PUSH0 PUSH1 0x60 DUP5 DUP7 SUB SLT ISZERO PUSH2 0x2D0B JUMPI PUSH2 0x2D0A PUSH2 0x271D JUMP JUMPDEST JUMPDEST PUSH0 DUP5 ADD CALLDATALOAD PUSH8 0xFFFFFFFFFFFFFFFF DUP2 GT ISZERO PUSH2 0x2D28 JUMPI PUSH2 0x2D27 PUSH2 0x2721 JUMP JUMPDEST JUMPDEST PUSH2 0x2D34 DUP7 DUP3 DUP8 ADD PUSH2 0x2CD5 JUMP JUMPDEST SWAP4 POP POP PUSH1 0x20 PUSH2 0x2D45 DUP7 DUP3 DUP8 ADD PUSH2 0x2B38 JUMP JUMPDEST SWAP3 POP POP PUSH1 0x40 PUSH2 0x2D56 DUP7 DUP3 DUP8 ADD PUSH2 0x2A05 JUMP JUMPDEST SWAP2 POP POP SWAP3 POP SWAP3 POP SWAP3 JUMP JUMPDEST PUSH2 0x2D69 DUP2 PUSH2 0x29E6 JUMP JUMPDEST DUP3 MSTORE POP POP JUMP JUMPDEST PUSH0 PUSH1 0x20 DUP3 ADD SWAP1 POP PUSH2 0x2D82 PUSH0 DUP4 ADD DUP5 PUSH2 0x2D60 JUMP JUMPDEST SWAP3 SWAP2 POP POP JUMP JUMPDEST PUSH0 PUSH0 DUP4 PUSH1 0x1F DUP5 ADD SLT PUSH2 0x2D9D JUMPI PUSH2 0x2D9C PUSH2 0x27D8 JUMP JUMPDEST JUMPDEST DUP3 CALLDATALOAD SWAP1 POP PUSH8 0xFFFFFFFFFFFFFFFF DUP2 GT ISZERO PUSH2 0x2DBA JUMPI PUSH2 0x2DB9 PUSH2 0x2A19 JUMP JUMPDEST JUMPDEST PUSH1 0x20 DUP4 ADD SWAP2 POP DUP4 PUSH1 0x20 DUP3 MUL DUP4 ADD GT ISZERO PUSH2 0x2DD6 JUMPI PUSH2 0x2DD5 PUSH2 0x2A1D JUMP JUMPDEST JUMPDEST SWAP3 POP SWAP3 SWAP1 POP JUMP JUMPDEST PUSH0 PUSH0 PUSH1 0x20 DUP4 DUP6 SUB SLT ISZERO PUSH2 0x2DF3 JUMPI PUSH2 0x2DF2 PUSH2 0x271D JUMP JUMPDEST JUMPDEST PUSH0 DUP4 ADD CALLDATALOAD PUSH8 0xFFFFFFFFFFFFFFFF DUP2 GT ISZERO PUSH2 0x2E10 JUMPI PUSH2 0x2E0F PUSH2 0x2721 JUMP JUMPDEST JUMPDEST PUSH2 0x2E1C DUP6 DUP3 DUP7 ADD PUSH2 0x2D88 JUMP JUMPDEST SWAP3 POP SWAP3 POP POP SWAP3 POP SWAP3 SWAP1 POP JUMP JUMPDEST PUSH0 PUSH8 0xFFFFFFFFFFFFFFFF DUP3 GT ISZERO PUSH2 0x2E42 JUMPI PUSH2 0x2E41 PUSH2 0x27F0 JUMP JUMPDEST JUMPDEST PUSH1 0x20 DUP3 MUL SWAP1 POP PUSH1 0x20 DUP2 ADD SWAP1 POP SWAP2 SWAP1 POP JUMP JUMPDEST PUSH0 PUSH2 0x2E65 PUSH2 0x2E60 DUP5 PUSH2 0x2E28 JUMP JUMPDEST PUSH2 0x284E JUMP JUMPDEST SWAP1 POP DUP1 DUP4 DUP3 MSTORE PUSH1 0x20 DUP3 ADD SWAP1 POP PUSH1 0x20 DUP5 MUL DUP4 ADD DUP6 DUP2 GT ISZERO PUSH2 0x2E88 JUMPI PUSH2 0x2E87 PUSH2 0x2A1D JUMP JUMPDEST JUMPDEST DUP4 JUMPDEST DUP2 DUP2 LT ISZERO PUSH2 0x2EB1 JUMPI DUP1 PUSH2 0x2E9D DUP9 DUP3 PUSH2 0x29D2 JUMP JUMPDEST DUP5 MSTORE PUSH1 0x20 DUP5 ADD SWAP4 POP POP PUSH1 0x20 DUP2 ADD SWAP1 POP PUSH2 0x2E8A JUMP JUMPDEST POP POP POP SWAP4 SWAP3 POP POP POP JUMP JUMPDEST PUSH0 DUP3 PUSH1 0x1F DUP4 ADD SLT PUSH2 0x2ECF JUMPI PUSH2 0x2ECE PUSH2 0x27D8 JUMP JUMPDEST JUMPDEST DUP2 CALLDATALOAD PUSH2 0x2EDF DUP5 DUP3 PUSH1 0x20 DUP7 ADD PUSH2 0x2E53 JUMP JUMPDEST SWAP2 POP POP SWAP3 SWAP2 POP POP JUMP JUMPDEST PUSH0 PUSH0 PUSH1 0x40 DUP4 DUP6 SUB SLT ISZERO PUSH2 0x2EFE JUMPI PUSH2 0x2EFD PUSH2 0x271D JUMP JUMPDEST JUMPDEST PUSH0 DUP4 ADD CALLDATALOAD PUSH8 0xFFFFFFFFFFFFFFFF DUP2 GT ISZERO PUSH2 0x2F1B JUMPI PUSH2 0x2F1A PUSH2 0x2721 JUMP JUMPDEST JUMPDEST PUSH2 0x2F27 DUP6 DUP3 DUP7 ADD PUSH2 0x2EBB JUMP JUMPDEST SWAP3 POP POP PUSH1 0x20 DUP4 ADD CALLDATALOAD PUSH8 0xFFFFFFFFFFFFFFFF DUP2 GT ISZERO PUSH2 0x2F48 JUMPI PUSH2 0x2F47 PUSH2 0x2721 JUMP JUMPDEST JUMPDEST PUSH2 0x2F54 DUP6 DUP3 DUP7 ADD PUSH2 0x2EBB JUMP JUMPDEST SWAP2 POP POP SWAP3 POP SWAP3 SWAP1 POP JUMP JUMPDEST PUSH0 PUSH0 DUP4 PUSH1 0x1F DUP5 ADD SLT PUSH2 0x2F73 JUMPI PUSH2 0x2F72 PUSH2 0x27D8 JUMP JUMPDEST JUMPDEST DUP3 CALLDATALOAD SWAP1 POP PUSH8 0xFFFFFFFFFFFFFFFF DUP2 GT ISZERO PUSH2 0x2F90 JUMPI PUSH2 0x2F8F PUSH2 0x2A19 JUMP JUMPDEST JUMPDEST PUSH1 0x20 DUP4 ADD SWAP2 POP DUP4 PUSH1 0x20 DUP3 MUL DUP4 ADD GT ISZERO PUSH2 0x2FAC JUMPI PUSH2 0x2FAB PUSH2 0x2A1D JUMP JUMPDEST JUMPDEST SWAP3 POP SWAP3 SWAP1 POP JUMP JUMPDEST PUSH0 PUSH0 PUSH0 PUSH0 PUSH0 PUSH0 PUSH1 0x60 DUP8 DUP10 SUB SLT ISZERO PUSH2 0x2FCD JUMPI PUSH2 0x2FCC PUSH2 0x271D JUMP JUMPDEST JUMPDEST PUSH0 DUP8 ADD CALLDATALOAD PUSH8 0xFFFFFFFFFFFFFFFF DUP2 GT ISZERO PUSH2 0x2FEA JUMPI PUSH2 0x2FE9 PUSH2 0x2721 JUMP JUMPDEST JUMPDEST PUSH2 0x2FF6 DUP10 DUP3 DUP11 ADD PUSH2 0x2BA9 JUMP JUMPDEST SWAP7 POP SWAP7 POP POP PUSH1 0x20 DUP8 ADD CALLDATALOAD PUSH8 0xFFFFFFFFFFFFFFFF DUP2 GT ISZERO PUSH2 0x3019 JUMPI PUSH2 0x3018 PUSH2 0x2721 JUMP JUMPDEST JUMPDEST PUSH2 0x3025 DUP10 DUP3 DUP11 ADD PUSH2 0x2F5E JUMP JUMPDEST SWAP5 POP SWAP5 POP POP PUSH1 0x40 DUP8 ADD CALLDATALOAD PUSH8 0xFFFFFFFFFFFFFFFF DUP2 GT ISZERO PUSH2 0x3048 JUMPI PUSH2 0x3047 PUSH2 0x2721 JUMP JUMPDEST JUMPDEST PUSH2 0x3054 DUP10 DUP3 DUP11 ADD PUSH2 0x2BFE JUMP JUMPDEST SWAP3 POP SWAP3 POP POP SWAP3 SWAP6 POP SWAP3 SWAP6 POP SWAP3 SWAP6 JUMP JUMPDEST PUSH0 PUSH0 PUSH0 PUSH0 PUSH1 0x60 DUP6 DUP8 SUB SLT ISZERO PUSH2 0x307B JUMPI PUSH2 0x307A PUSH2 0x271D JUMP JUMPDEST JUMPDEST PUSH0 PUSH2 0x3088 DUP8 DUP3 DUP9 ADD PUSH2 0x2A05 JUMP JUMPDEST SWAP5 POP POP PUSH1 0x20 DUP6 ADD CALLDATALOAD PUSH8 0xFFFFFFFFFFFFFFFF DUP2 GT ISZERO PUSH2 0x30A9 JUMPI PUSH2 0x30A8 PUSH2 0x2721 JUMP JUMPDEST JUMPDEST PUSH2 0x30B5 DUP8 DUP3 DUP9 ADD PUSH2 0x2A21 JUMP JUMPDEST SWAP4 POP SWAP4 POP POP PUSH1 0x40 PUSH2 0x30C8 DUP8 DUP3 DUP9 ADD PUSH2 0x2B38 JUMP JUMPDEST SWAP2 POP POP SWAP3 SWAP6 SWAP2 SWAP5 POP SWAP3 POP JUMP JUMPDEST PUSH2 0x30DD DUP2 PUSH2 0x29AB JUMP JUMPDEST DUP3 MSTORE POP POP JUMP JUMPDEST PUSH0 PUSH1 0x20 DUP3 ADD SWAP1 POP PUSH2 0x30F6 PUSH0 DUP4 ADD DUP5 PUSH2 0x30D4 JUMP JUMPDEST SWAP3 SWAP2 POP POP JUMP JUMPDEST PUSH0 PUSH0 PUSH0 PUSH1 0x40 DUP5 DUP7 SUB SLT ISZERO PUSH2 0x3113 JUMPI PUSH2 0x3112 PUSH2 0x271D JUMP JUMPDEST JUMPDEST PUSH0 PUSH2 0x3120 DUP7 DUP3 DUP8 ADD PUSH2 0x2A05 JUMP JUMPDEST SWAP4 POP POP PUSH1 0x20 DUP5 ADD CALLDATALOAD PUSH8 0xFFFFFFFFFFFFFFFF DUP2 GT ISZERO PUSH2 0x3141 JUMPI PUSH2 0x3140 PUSH2 0x2721 JUMP JUMPDEST JUMPDEST PUSH2 0x314D DUP7 DUP3 DUP8 ADD PUSH2 0x2A21 JUMP JUMPDEST SWAP3 POP SWAP3 POP POP SWAP3 POP SWAP3 POP SWAP3 JUMP JUMPDEST PUSH0 PUSH2 0x3163 DUP3 PUSH2 0x298C JUMP JUMPDEST SWAP1 POP SWAP2 SWAP1 POP JUMP JUMPDEST PUSH2 0x3173 DUP2 PUSH2 0x3159 JUMP JUMPDEST DUP2 EQ PUSH2 0x317D JUMPI PUSH0 PUSH0 REVERT JUMPDEST POP JUMP JUMPDEST PUSH0 DUP2 CALLDATALOAD SWAP1 POP PUSH2 0x318E DUP2 PUSH2 0x316A JUMP JUMPDEST SWAP3 SWAP2 POP POP JUMP JUMPDEST PUSH0 PUSH0 PUSH1 0x40 DUP4 DUP6 SUB SLT ISZERO PUSH2 0x31AA JUMPI PUSH2 0x31A9 PUSH2 0x271D JUMP JUMPDEST JUMPDEST PUSH0 PUSH2 0x31B7 DUP6 DUP3 DUP7 ADD PUSH2 0x3180 JUMP JUMPDEST SWAP3 POP POP PUSH1 0x20 PUSH2 0x31C8 DUP6 DUP3 DUP7 ADD PUSH2 0x2A05 JUMP JUMPDEST SWAP2 POP POP SWAP3 POP SWAP3 SWAP1 POP JUMP JUMPDEST PUSH0 PUSH0 PUSH0 PUSH1 0x40 DUP5 DUP7 SUB SLT ISZERO PUSH2 0x31E9 JUMPI PUSH2 0x31E8 PUSH2 0x271D JUMP JUMPDEST JUMPDEST PUSH0 PUSH2 0x31F6 DUP7 DUP3 DUP8 ADD PUSH2 0x29D2 JUMP JUMPDEST SWAP4 POP POP PUSH1 0x20 DUP5 ADD CALLDATALOAD PUSH8 0xFFFFFFFFFFFFFFFF DUP2 GT ISZERO PUSH2 0x3217 JUMPI PUSH2 0x3216 PUSH2 0x2721 JUMP JUMPDEST JUMPDEST PUSH2 0x3223 DUP7 DUP3 DUP8 ADD PUSH2 0x2A21 JUMP JUMPDEST SWAP3 POP SWAP3 POP POP SWAP3 POP SWAP3 POP SWAP3 JUMP JUMPDEST PUSH0 PUSH32 0xFF00000000000000000000000000000000000000000000000000000000000000 DUP3 AND SWAP1 POP SWAP2 SWAP1 POP JUMP JUMPDEST PUSH2 0x3263 DUP2 PUSH2 0x322F JUMP JUMPDEST DUP3 MSTORE POP POP JUMP JUMPDEST PUSH0 DUP2 MLOAD SWAP1 POP SWAP2 SWAP1 POP JUMP JUMPDEST PUSH0 DUP3 DUP3 MSTORE PUSH1 0x20 DUP3 ADD SWAP1 POP SWAP3 SWAP2 POP POP JUMP JUMPDEST DUP3 DUP2 DUP4 MCOPY PUSH0 DUP4 DUP4 ADD MSTORE POP POP POP JUMP JUMPDEST PUSH0 PUSH2 0x329B DUP3 PUSH2 0x3269 JUMP JUMPDEST PUSH2 0x32A5 DUP2 DUP6 PUSH2 0x3273 JUMP JUMPDEST SWAP4 POP PUSH2 0x32B5 DUP2 DUP6 PUSH1 0x20 DUP7 ADD PUSH2 0x3283 JUMP JUMPDEST PUSH2 0x32BE DUP2 PUSH2 0x27E0 JUMP JUMPDEST DUP5 ADD SWAP2 POP POP SWAP3 SWAP2 POP POP JUMP JUMPDEST PUSH0 DUP2 MLOAD SWAP1 POP SWAP2 SWAP1 POP JUMP JUMPDEST PUSH0 DUP3 DUP3 MSTORE PUSH1 0x20 DUP3 ADD SWAP1 POP SWAP3 SWAP2 POP POP JUMP JUMPDEST PUSH0 DUP2 SWAP1 POP PUSH1 0x20 DUP3 ADD SWAP1 POP SWAP2 SWAP1 POP JUMP JUMPDEST PUSH2 0x32FB DUP2 PUSH2 0x29E6 JUMP JUMPDEST DUP3 MSTORE POP POP JUMP JUMPDEST PUSH0 PUSH2 0x330C DUP4 DUP4 PUSH2 0x32F2 JUMP JUMPDEST PUSH1 0x20 DUP4 ADD SWAP1 POP SWAP3 SWAP2 POP POP JUMP JUMPDEST PUSH0 PUSH1 0x20 DUP3 ADD SWAP1 POP SWAP2 SWAP1 POP JUMP JUMPDEST PUSH0 PUSH2 0x332E DUP3 PUSH2 0x32C9 JUMP JUMPDEST PUSH2 0x3338 DUP2 DUP6 PUSH2 0x32D3 JUMP JUMPDEST SWAP4 POP PUSH2 0x3343 DUP4 PUSH2 0x32E3 JUMP JUMPDEST DUP1 PUSH0 JUMPDEST DUP4 DUP2 LT ISZERO PUSH2 0x3373 JUMPI DUP2 MLOAD PUSH2 0x335A DUP9 DUP3 PUSH2 0x3301 JUMP JUMPDEST SWAP8 POP PUSH2 0x3365 DUP4 PUSH2 0x3318 JUMP JUMPDEST SWAP3 POP POP PUSH1 0x1 DUP2 ADD SWAP1 POP PUSH2 0x3346 JUMP JUMPDEST POP DUP6 SWAP4 POP POP POP POP SWAP3 SWAP2 POP POP JUMP JUMPDEST PUSH0 PUSH1 0xE0 DUP3 ADD SWAP1 POP PUSH2 0x3393 PUSH0 DUP4 ADD DUP11 PUSH2 0x325A JUMP JUMPDEST DUP2 DUP2 SUB PUSH1 0x20 DUP4 ADD MSTORE PUSH2 0x33A5 DUP2 DUP10 PUSH2 0x3291 JUMP JUMPDEST SWAP1 POP DUP2 DUP2 SUB PUSH1 0x40 DUP4 ADD MSTORE PUSH2 0x33B9 DUP2 DUP9 PUSH2 0x3291 JUMP JUMPDEST SWAP1 POP PUSH2 0x33C8 PUSH1 0x60 DUP4 ADD DUP8 PUSH2 0x2D60 JUMP JUMPDEST PUSH2 0x33D5 PUSH1 0x80 DUP4 ADD DUP7 PUSH2 0x30D4 JUMP JUMPDEST PUSH2 0x33E2 PUSH1 0xA0 DUP4 ADD DUP6 PUSH2 0x2964 JUMP JUMPDEST DUP2 DUP2 SUB PUSH1 0xC0 DUP4 ADD MSTORE PUSH2 0x33F4 DUP2 DUP5 PUSH2 0x3324 JUMP JUMPDEST SWAP1 POP SWAP9 SWAP8 POP POP POP POP POP POP POP POP JUMP JUMPDEST PUSH0 PUSH0 PUSH1 0x20 DUP4 DUP6 SUB SLT ISZERO PUSH2 0x3418 JUMPI PUSH2 0x3417 PUSH2 0x271D JUMP JUMPDEST JUMPDEST PUSH0 DUP4 ADD CALLDATALOAD PUSH8 0xFFFFFFFFFFFFFFFF DUP2 GT ISZERO PUSH2 0x3435 JUMPI PUSH2 0x3434 PUSH2 0x2721 JUMP JUMPDEST JUMPDEST PUSH2 0x3441 DUP6 DUP3 DUP7 ADD PUSH2 0x2BA9 JUMP JUMPDEST SWAP3 POP SWAP3 POP POP SWAP3 POP SWAP3 SWAP1 POP JUMP JUMPDEST PUSH0 DUP2 MLOAD SWAP1 POP SWAP2 SWAP1 POP JUMP JUMPDEST PUSH0 DUP3 DUP3 MSTORE PUSH1 0x20 DUP3 ADD SWAP1 POP SWAP3 SWAP2 POP POP JUMP JUMPDEST PUSH0 DUP2 SWAP1 POP PUSH1 0x20 DUP3 ADD SWAP1 POP SWAP2 SWAP1 POP JUMP JUMPDEST PUSH2 0x347F DUP2 PUSH2 0x29AB JUMP JUMPDEST DUP3 MSTORE POP POP JUMP JUMPDEST PUSH0 PUSH2 0x3490 DUP4 DUP4 PUSH2 0x3476 JUMP JUMPDEST PUSH1 0x20 DUP4 ADD SWAP1 POP SWAP3 SWAP2 POP POP JUMP JUMPDEST PUSH0 PUSH1 0x20 DUP3 ADD SWAP1 POP SWAP2 SWAP1 POP JUMP JUMPDEST PUSH0 PUSH2 0x34B2 DUP3 PUSH2 0x344D JUMP JUMPDEST PUSH2 0x34BC DUP2 DUP6 PUSH2 0x3457 JUMP JUMPDEST SWAP4 POP PUSH2 0x34C7 DUP4 PUSH2 0x3467 JUMP JUMPDEST DUP1 PUSH0 JUMPDEST DUP4 DUP2 LT ISZERO PUSH2 0x34F7 JUMPI DUP2 MLOAD PUSH2 0x34DE DUP9 DUP3 PUSH2 0x3485 JUMP JUMPDEST SWAP8 POP PUSH2 0x34E9 DUP4 PUSH2 0x349C JUMP JUMPDEST SWAP3 POP POP PUSH1 0x1 DUP2 ADD SWAP1 POP PUSH2 0x34CA JUMP JUMPDEST POP DUP6 SWAP4 POP POP POP POP SWAP3 SWAP2 POP POP JUMP JUMPDEST PUSH0 PUSH1 0x20 DUP3 ADD SWAP1 POP DUP2 DUP2 SUB PUSH0 DUP4 ADD MSTORE PUSH2 0x351C DUP2 DUP5 PUSH2 0x34A8 JUMP JUMPDEST SWAP1 POP SWAP3 SWAP2 POP POP JUMP JUMPDEST PUSH0 DUP2 SWAP1 POP SWAP2 SWAP1 POP JUMP JUMPDEST PUSH0 PUSH2 0x3547 PUSH2 0x3542 PUSH2 0x353D DUP5 PUSH2 0x298C JUMP JUMPDEST PUSH2 0x3524 JUMP JUMPDEST PUSH2 0x298C JUMP JUMPDEST SWAP1 POP SWAP2 SWAP1 POP JUMP JUMPDEST PUSH0 PUSH2 0x3558 DUP3 PUSH2 0x352D JUMP JUMPDEST SWAP1 POP SWAP2 SWAP1 POP JUMP JUMPDEST PUSH0 PUSH2 0x3569 DUP3 PUSH2 0x354E JUMP JUMPDEST SWAP1 POP SWAP2 SWAP1 POP JUMP JUMPDEST PUSH2 0x3579 DUP2 PUSH2 0x355F JUMP JUMPDEST DUP3 MSTORE POP POP JUMP JUMPDEST PUSH0 PUSH1 0x20 DUP3 ADD SWAP1 POP PUSH2 0x3592 PUSH0 DUP4 ADD DUP5 PUSH2 0x3570 JUMP JUMPDEST SWAP3 SWAP2 POP POP JUMP JUMPDEST PUSH0 PUSH0 PUSH0 PUSH0 PUSH1 0x60 DUP6 DUP8 SUB SLT ISZERO PUSH2 0x35B0 JUMPI PUSH2 0x35AF PUSH2 0x271D JUMP JUMPDEST JUMPDEST PUSH0 PUSH2 0x35BD DUP8 DUP3 DUP9 ADD PUSH2 0x29D2 JUMP JUMPDEST SWAP5 POP POP PUSH1 0x20 PUSH2 0x35CE DUP8 DUP3 DUP9 ADD PUSH2 0x2A05 JUMP JUMPDEST SWAP4 POP POP PUSH1 0x40 DUP6 ADD CALLDATALOAD PUSH8 0xFFFFFFFFFFFFFFFF DUP2 GT ISZERO PUSH2 0x35EF JUMPI PUSH2 0x35EE PUSH2 0x2721 JUMP JUMPDEST JUMPDEST PUSH2 0x35FB DUP8 DUP3 DUP9 ADD PUSH2 0x2A21 JUMP JUMPDEST SWAP3 POP SWAP3 POP POP SWAP3 SWAP6 SWAP2 SWAP5 POP SWAP3 POP JUMP JUMPDEST PUSH0 PUSH0 PUSH0 PUSH0 PUSH0 PUSH0 PUSH0 PUSH0 PUSH1 0xA0 DUP10 DUP12 SUB SLT ISZERO PUSH2 0x3625 JUMPI PUSH2 0x3624 PUSH2 0x271D JUMP JUMPDEST JUMPDEST PUSH0 PUSH2 0x3632 DUP12 DUP3 DUP13 ADD PUSH2 0x29D2 JUMP JUMPDEST SWAP9 POP POP PUSH1 0x20 PUSH2 0x3643 DUP12 DUP3 DUP13 ADD PUSH2 0x29D2 JUMP JUMPDEST SWAP8 POP POP PUSH1 0x40 DUP10 ADD CALLDATALOAD PUSH8 0xFFFFFFFFFFFFFFFF DUP2 GT ISZERO PUSH2 0x3664 JUMPI PUSH2 0x3663 PUSH2 0x2721 JUMP JUMPDEST JUMPDEST PUSH2 0x3670 DUP12 DUP3 DUP13 ADD PUSH2 0x2F5E JUMP JUMPDEST SWAP7 POP SWAP7 POP POP PUSH1 0x60 DUP10 ADD CALLDATALOAD PUSH8 0xFFFFFFFFFFFFFFFF DUP2 GT ISZERO PUSH2 0x3693 JUMPI PUSH2 0x3692 PUSH2 0x2721 JUMP JUMPDEST JUMPDEST PUSH2 0x369F DUP12 DUP3 DUP13 ADD PUSH2 0x2F5E JUMP JUMPDEST SWAP5 POP SWAP5 POP POP PUSH1 0x80 DUP10 ADD CALLDATALOAD PUSH8 0xFFFFFFFFFFFFFFFF DUP2 GT ISZERO PUSH2 0x36C2 JUMPI PUSH2 0x36C1 PUSH2 0x2721 JUMP JUMPDEST JUMPDEST PUSH2 0x36CE DUP12 DUP3 DUP13 ADD PUSH2 0x2A21 JUMP JUMPDEST SWAP3 POP SWAP3 POP POP SWAP3 SWAP6 SWAP9 POP SWAP3 SWAP6 SWAP9 SWAP1 SWAP4 SWAP7 POP JUMP JUMPDEST PUSH0 PUSH0 PUSH0 PUSH0 PUSH0 PUSH0 PUSH1 0xA0 DUP8 DUP10 SUB SLT ISZERO PUSH2 0x36FA JUMPI PUSH2 0x36F9 PUSH2 0x271D JUMP JUMPDEST JUMPDEST PUSH0 PUSH2 0x3707 DUP10 DUP3 DUP11 ADD PUSH2 0x29D2 JUMP JUMPDEST SWAP7 POP POP PUSH1 0x20 PUSH2 0x3718 DUP10 DUP3 DUP11 ADD PUSH2 0x29D2 JUMP JUMPDEST SWAP6 POP POP PUSH1 0x40 PUSH2 0x3729 DUP10 DUP3 DUP11 ADD PUSH2 0x2A05 JUMP JUMPDEST SWAP5 POP POP PUSH1 0x60 PUSH2 0x373A DUP10 DUP3 DUP11 ADD PUSH2 0x2A05 JUMP JUMPDEST SWAP4 POP POP PUSH1 0x80 DUP8 ADD CALLDATALOAD PUSH8 0xFFFFFFFFFFFFFFFF DUP2 GT ISZERO PUSH2 0x375B JUMPI PUSH2 0x375A PUSH2 0x2721 JUMP JUMPDEST JUMPDEST PUSH2 0x3767 DUP10 DUP3 DUP11 ADD PUSH2 0x2A21 JUMP JUMPDEST SWAP3 POP SWAP3 POP POP SWAP3 SWAP6 POP SWAP3 SWAP6 POP SWAP3 SWAP6 JUMP JUMPDEST PUSH0 PUSH1 0x40 DUP3 ADD SWAP1 POP PUSH2 0x3789 PUSH0 DUP4 ADD DUP6 PUSH2 0x2964 JUMP JUMPDEST PUSH2 0x3796 PUSH1 0x20 DUP4 ADD DUP5 PUSH2 0x2964 JUMP JUMPDEST SWAP4 SWAP3 POP POP POP JUMP JUMPDEST PUSH32 0x4E487B7100000000000000000000000000000000000000000000000000000000 PUSH0 MSTORE PUSH1 0x32 PUSH1 0x4 MSTORE PUSH1 0x24 PUSH0 REVERT JUMPDEST PUSH0 PUSH1 0x20 DUP3 DUP5 SUB SLT ISZERO PUSH2 0x37DF JUMPI PUSH2 0x37DE PUSH2 0x271D JUMP JUMPDEST JUMPDEST PUSH0 PUSH2 0x37EC DUP5 DUP3 DUP6 ADD PUSH2 0x29D2 JUMP JUMPDEST SWAP2 POP POP SWAP3 SWAP2 POP POP JUMP JUMPDEST PUSH0 PUSH0 REVERT JUMPDEST PUSH0 PUSH0 REVERT JUMPDEST PUSH0 PUSH0 REVERT JUMPDEST PUSH0 PUSH0 DUP4 CALLDATALOAD PUSH1 0x1 PUSH1 0x20 SUB DUP5 CALLDATASIZE SUB SUB DUP2 SLT PUSH2 0x381D JUMPI PUSH2 0x381C PUSH2 0x37F5 JUMP JUMPDEST JUMPDEST DUP1 DUP5 ADD SWAP3 POP DUP3 CALLDATALOAD SWAP2 POP PUSH8 0xFFFFFFFFFFFFFFFF DUP3 GT ISZERO PUSH2 0x383F JUMPI PUSH2 0x383E PUSH2 0x37F9 JUMP JUMPDEST JUMPDEST PUSH1 0x20 DUP4 ADD SWAP3 POP PUSH1 0x1 DUP3 MUL CALLDATASIZE SUB DUP4 SGT ISZERO PUSH2 0x385B JUMPI PUSH2 0x385A PUSH2 0x37FD JUMP JUMPDEST JUMPDEST POP SWAP3 POP SWAP3 SWAP1 POP JUMP JUMPDEST PUSH0 DUP3 CALLDATALOAD PUSH1 0x1 PUSH1 0x60 SUB DUP4 CALLDATASIZE SUB SUB DUP2 SLT PUSH2 0x387E JUMPI PUSH2 0x387D PUSH2 0x37F5 JUMP JUMPDEST JUMPDEST DUP1 DUP4 ADD SWAP2 POP POP SWAP3 SWAP2 POP POP JUMP JUMPDEST PUSH0 DUP2 MLOAD SWAP1 POP SWAP2 SWAP1 POP JUMP JUMPDEST PUSH0 DUP3 DUP3 MSTORE PUSH1 0x20 DUP3 ADD SWAP1 POP SWAP3 SWAP2 POP POP JUMP JUMPDEST PUSH0 PUSH2 0x38AE DUP3 PUSH2 0x388A JUMP JUMPDEST PUSH2 0x38B8 DUP2 DUP6 PUSH2 0x3894 JUMP JUMPDEST SWAP4 POP PUSH2 0x38C8 DUP2 DUP6 PUSH1 0x20 DUP7 ADD PUSH2 0x3283 JUMP JUMPDEST PUSH2 0x38D1 DUP2 PUSH2 0x27E0 JUMP JUMPDEST DUP5 ADD SWAP2 POP POP SWAP3 SWAP2 POP POP JUMP JUMPDEST PUSH0 PUSH1 0x40 DUP3 ADD SWAP1 POP PUSH2 0x38EF PUSH0 DUP4 ADD DUP6 PUSH2 0x2D60 JUMP JUMPDEST DUP2 DUP2 SUB PUSH1 0x20 DUP4 ADD MSTORE PUSH2 0x3901 DUP2 DUP5 PUSH2 0x38A4 JUMP JUMPDEST SWAP1 POP SWAP4 SWAP3 POP POP POP JUMP JUMPDEST PUSH2 0x3913 DUP2 PUSH2 0x3159 JUMP JUMPDEST DUP3 MSTORE POP POP JUMP JUMPDEST PUSH0 PUSH1 0x40 DUP3 ADD SWAP1 POP PUSH2 0x392C PUSH0 DUP4 ADD DUP6 PUSH2 0x390A JUMP JUMPDEST PUSH2 0x3939 PUSH1 0x20 DUP4 ADD DUP5 PUSH2 0x2D60 JUMP JUMPDEST SWAP4 SWAP3 POP POP POP JUMP JUMPDEST PUSH0 DUP2 SWAP1 POP SWAP2 SWAP1 POP JUMP JUMPDEST PUSH0 PUSH8 0xFFFFFFFFFFFFFFFF DUP3 AND SWAP1 POP SWAP2 SWAP1 POP JUMP JUMPDEST PUSH0 PUSH2 0x3976 PUSH2 0x3971 PUSH2 0x396C DUP5 PUSH2 0x3940 JUMP JUMPDEST PUSH2 0x3524 JUMP JUMPDEST PUSH2 0x3949 JUMP JUMPDEST SWAP1 POP SWAP2 SWAP1 POP JUMP JUMPDEST PUSH2 0x3986 DUP2 PUSH2 0x395C JUMP JUMPDEST DUP3 MSTORE POP POP JUMP JUMPDEST PUSH0 PUSH1 0x20 DUP3 ADD SWAP1 POP PUSH2 0x399F PUSH0 DUP4 ADD DUP5 PUSH2 0x397D JUMP JUMPDEST SWAP3 SWAP2 POP POP JUMP JUMPDEST PUSH0 DUP2 MLOAD SWAP1 POP PUSH2 0x39B3 DUP2 PUSH2 0x29EF JUMP JUMPDEST SWAP3 SWAP2 POP POP JUMP JUMPDEST PUSH0 PUSH1 0x20 DUP3 DUP5 SUB SLT ISZERO PUSH2 0x39CE JUMPI PUSH2 0x39CD PUSH2 0x271D JUMP JUMPDEST JUMPDEST PUSH0 PUSH2 0x39DB DUP5 DUP3 DUP6 ADD PUSH2 0x39A5 JUMP JUMPDEST SWAP2 POP POP SWAP3 SWAP2 POP POP JUMP JUMPDEST PUSH0 DUP2 SWAP1 POP SWAP2 SWAP1 POP JUMP JUMPDEST PUSH0 PUSH24 0xFFFFFFFFFFFFFFFFFFFFFFFFFFFFFFFFFFFFFFFFFFFFFFFF DUP3 AND SWAP1 POP SWAP2 SWAP1 POP JUMP JUMPDEST PUSH0 PUSH2 0x3A2A PUSH2 0x3A25 PUSH2 0x3A20 DUP5 PUSH2 0x39E4 JUMP JUMPDEST PUSH2 0x3524 JUMP JUMPDEST PUSH2 0x39ED JUMP JUMPDEST SWAP1 POP SWAP2 SWAP1 POP JUMP JUMPDEST PUSH2 0x3A3A DUP2 PUSH2 0x3A10 JUMP JUMPDEST DUP3 MSTORE POP POP JUMP JUMPDEST PUSH0 PUSH1 0x40 DUP3 ADD SWAP1 POP PUSH2 0x3A53 PUSH0 DUP4 ADD DUP6 PUSH2 0x30D4 JUMP JUMPDEST PUSH2 0x3A60 PUSH1 0x20 DUP4 ADD DUP5 PUSH2 0x3A31 JUMP JUMPDEST SWAP4 SWAP3 POP POP POP JUMP JUMPDEST PUSH32 0x4E487B7100000000000000000000000000000000000000000000000000000000 PUSH0 MSTORE PUSH1 0x21 PUSH1 0x4 MSTORE PUSH1 0x24 PUSH0 REVERT JUMPDEST PUSH0 PUSH0 REVERT JUMPDEST PUSH0 PUSH0 REVERT JUMPDEST PUSH0 PUSH0 DUP6 DUP6 GT ISZERO PUSH2 0x3AAF JUMPI PUSH2 0x3AAE PUSH2 0x3A94 JUMP JUMPDEST JUMPDEST DUP4 DUP7 GT ISZERO PUSH2 0x3AC0 JUMPI PUSH2 0x3ABF PUSH2 0x3A98 JUMP JUMPDEST JUMPDEST PUSH1 0x1 DUP6 MUL DUP4 ADD SWAP2 POP DUP5 DUP7 SUB SWAP1 POP SWAP5 POP SWAP5 SWAP3 POP POP POP JUMP JUMPDEST PUSH0 DUP3 SWAP1 POP SWAP3 SWAP2 POP POP JUMP JUMPDEST PUSH0 PUSH32 0xFFFFFFFFFFFFFFFFFFFFFFFFFFFFFFFFFFFFFFFF000000000000000000000000 DUP3 AND SWAP1 POP SWAP2 SWAP1 POP JUMP JUMPDEST PUSH0 DUP3 DUP3 SHL SWAP1 POP SWAP3 SWAP2 POP POP JUMP JUMPDEST PUSH0 PUSH2 0x3B22 DUP4 DUP4 PUSH2 0x3AD6 JUMP JUMPDEST DUP3 PUSH2 0x3B2D DUP2 CALLDATALOAD PUSH2 0x3AE0 JUMP JUMPDEST SWAP3 POP PUSH1 0x14 DUP3 LT ISZERO PUSH2 0x3B6D JUMPI PUSH2 0x3B68 PUSH32 0xFFFFFFFFFFFFFFFFFFFFFFFFFFFFFFFFFFFFFFFF000000000000000000000000 DUP4 PUSH1 0x14 SUB PUSH1 0x8 MUL PUSH2 0x3B0B JUMP JUMPDEST DUP4 AND SWAP3 POP JUMPDEST POP POP SWAP3 SWAP2 POP POP JUMP JUMPDEST PUSH32 0x6163636F756E743A206E6F742066726F6D20456E747279506F696E7400000000 PUSH0 DUP3 ADD MSTORE POP JUMP JUMPDEST PUSH0 PUSH2 0x3BA9 PUSH1 0x1C DUP4 PUSH2 0x3273 JUMP JUMPDEST SWAP2 POP PUSH2 0x3BB4 DUP3 PUSH2 0x3B75 JUMP JUMPDEST PUSH1 0x20 DUP3 ADD SWAP1 POP SWAP2 SWAP1 POP JUMP JUMPDEST PUSH0 PUSH1 0x20 DUP3 ADD SWAP1 POP DUP2 DUP2 SUB PUSH0 DUP4 ADD MSTORE PUSH2 0x3BD6 DUP2 PUSH2 0x3B9D JUMP JUMPDEST SWAP1 POP SWAP2 SWAP1 POP JUMP JUMPDEST PUSH0 DUP2 SWAP1 POP SWAP3 SWAP2 POP POP JUMP JUMPDEST POP JUMP JUMPDEST PUSH0 PUSH2 0x3BF5 PUSH0 DUP4 PUSH2 0x3BDD JUMP JUMPDEST SWAP2 POP PUSH2 0x3C00 DUP3 PUSH2 0x3BE7 JUMP JUMPDEST PUSH0 DUP3 ADD SWAP1 POP SWAP2 SWAP1 POP JUMP JUMPDEST PUSH0 PUSH2 0x3C14 DUP3 PUSH2 0x3BEA JUMP JUMPDEST SWAP2 POP DUP2 SWAP1 POP SWAP2 SWAP1 POP JUMP JUMPDEST PUSH0 PUSH1 0x40 DUP3 ADD SWAP1 POP DUP2 DUP2 SUB PUSH0 DUP4 ADD MSTORE PUSH2 0x3C36 DUP2 DUP6 PUSH2 0x34A8 JUMP JUMPDEST SWAP1 POP DUP2 DUP2 SUB PUSH1 0x20 DUP4 ADD MSTORE PUSH2 0x3C4A DUP2 DUP5 PUSH2 0x34A8 JUMP JUMPDEST SWAP1 POP SWAP4 SWAP3 POP POP POP JUMP JUMPDEST PUSH0 DUP2 SWAP1 POP SWAP2 SWAP1 POP JUMP JUMPDEST PUSH0 PUSH2 0x3C6A PUSH1 0x20 DUP5 ADD DUP5 PUSH2 0x29D2 JUMP JUMPDEST SWAP1 POP SWAP3 SWAP2 POP POP JUMP JUMPDEST PUSH0 PUSH1 0x20 DUP3 ADD SWAP1 POP SWAP2 SWAP1 POP JUMP JUMPDEST PUSH0 PUSH2 0x3C89 DUP4 DUP6 PUSH2 0x3457 JUMP JUMPDEST SWAP4 POP PUSH2 0x3C94 DUP3 PUSH2 0x3C53 JUMP JUMPDEST DUP1 PUSH0 JUMPDEST DUP6 DUP2 LT ISZERO PUSH2 0x3CCC JUMPI PUSH2 0x3CA9 DUP3 DUP5 PUSH2 0x3C5C JUMP JUMPDEST PUSH2 0x3CB3 DUP9 DUP3 PUSH2 0x3485 JUMP JUMPDEST SWAP8 POP PUSH2 0x3CBE DUP4 PUSH2 0x3C72 JUMP JUMPDEST SWAP3 POP POP PUSH1 0x1 DUP2 ADD SWAP1 POP PUSH2 0x3C97 JUMP JUMPDEST POP DUP6 SWAP3 POP POP POP SWAP4 SWAP3 POP POP POP JUMP JUMPDEST PUSH0 PUSH1 0x20 DUP3 ADD SWAP1 POP DUP2 DUP2 SUB PUSH0 DUP4 ADD MSTORE PUSH2 0x3CF2 DUP2 DUP5 DUP7 PUSH2 0x3C7E JUMP JUMPDEST SWAP1 POP SWAP4 SWAP3 POP POP POP JUMP JUMPDEST PUSH0 PUSH1 0x40 DUP3 ADD SWAP1 POP PUSH2 0x3D0E PUSH0 DUP4 ADD DUP6 PUSH2 0x2964 JUMP JUMPDEST DUP2 DUP2 SUB PUSH1 0x20 DUP4 ADD MSTORE PUSH2 0x3D20 DUP2 DUP5 PUSH2 0x38A4 JUMP JUMPDEST SWAP1 POP SWAP4 SWAP3 POP POP POP JUMP JUMPDEST PUSH0 PUSH2 0x3D33 DUP3 PUSH2 0x388A JUMP JUMPDEST PUSH2 0x3D3D DUP2 DUP6 PUSH2 0x3BDD JUMP JUMPDEST SWAP4 POP PUSH2 0x3D4D DUP2 DUP6 PUSH1 0x20 DUP7 ADD PUSH2 0x3283 JUMP JUMPDEST DUP1 DUP5 ADD SWAP2 POP POP SWAP3 SWAP2 POP POP JUMP JUMPDEST PUSH0 PUSH2 0x3D64 DUP3 DUP5 PUSH2 0x3D29 JUMP JUMPDEST SWAP2 POP DUP2 SWAP1 POP SWAP3 SWAP2 POP POP JUMP JUMPDEST PUSH0 DUP2 MLOAD SWAP1 POP PUSH2 0x3D7D DUP2 PUSH2 0x2B22 JUMP JUMPDEST SWAP3 SWAP2 POP POP JUMP JUMPDEST PUSH0 PUSH1 0x20 DUP3 DUP5 SUB SLT ISZERO PUSH2 0x3D98 JUMPI PUSH2 0x3D97 PUSH2 0x271D JUMP JUMPDEST JUMPDEST PUSH0 PUSH2 0x3DA5 DUP5 DUP3 DUP6 ADD PUSH2 0x3D6F JUMP JUMPDEST SWAP2 POP POP SWAP3 SWAP2 POP POP JUMP JUMPDEST PUSH0 PUSH1 0xFF DUP3 AND SWAP1 POP SWAP2 SWAP1 POP JUMP JUMPDEST PUSH2 0x3DC3 DUP2 PUSH2 0x3DAE JUMP JUMPDEST DUP3 MSTORE POP POP JUMP JUMPDEST PUSH0 PUSH1 0x80 DUP3 ADD SWAP1 POP PUSH2 0x3DDC PUSH0 DUP4 ADD DUP8 PUSH2 0x2964 JUMP JUMPDEST PUSH2 0x3DE9 PUSH1 0x20 DUP4 ADD DUP7 PUSH2 0x3DBA JUMP JUMPDEST PUSH2 0x3DF6 PUSH1 0x40 DUP4 ADD DUP6 PUSH2 0x2964 JUMP JUMPDEST PUSH2 0x3E03 PUSH1 0x60 DUP4 ADD DUP5 PUSH2 0x2964 JUMP JUMPDEST SWAP6 SWAP5 POP POP POP POP POP JUMP INVALID LOG2 PUSH5 0x6970667358 0x22 SLT KECCAK256 0xC7 CHAINID 0xB3 BLOCKHASH EXTCODEHASH INVALID 0xCE SAR GAS STOP SAR PUSH13 0x7AFE231A8208B964D2D44BFF3F 0xD7 0xD5 SHR DUP4 STATICCALL RETURNDATASIZE 0xDF PUSH5 0x736F6C6343 STOP ADDMOD 0x1E STOP CALLER "
		},
		"gasEstimates": {
			"creation": {
				"codeDepositCost": "1444800",
				"executionCost": "infinite",
				"totalCost": "infinite"
			},
			"external": {
				"ACCOUNT_IMPLEMENTATION()": "infinite",
				"ENTRY_POINT()": "infinite",
				"acceptOwnership()": "54670",
				"addStake(uint32,uint256)": "infinite",
				"createAccount(address[],uint256)": "infinite",
				"createAccountSingle(address,uint256)": "infinite",
				"getAddress(address[],uint256)": "infinite",
				"owner()": "2559",
				"pendingOwner()": "2559",
				"renounceOwnership()": "infinite",
				"transferOwnership(address)": "infinite",
				"unlockStake()": "infinite",
				"withdraw(address,address,uint256)": "infinite",
				"withdrawStake(address)": "infinite"
			},
			"internal": {
				"_getCombinedSalt(address[] memory,uint256)": "infinite",
				"_validateOwnersArray(address[] memory)": "infinite"
			}
		},
		"methodIdentifiers": {
			"ACCOUNT_IMPLEMENTATION()": "290ab984",
			"ENTRY_POINT()": "94430fa5",
			"acceptOwnership()": "79ba5097",
			"addStake(uint32,uint256)": "fbb1c3d4",
			"createAccount(address[],uint256)": "b54c02f2",
			"createAccountSingle(address,uint256)": "2796c323",
			"getAddress(address[],uint256)": "94f7e8e0",
			"owner()": "8da5cb5b",
			"pendingOwner()": "e30c3978",
			"renounceOwnership()": "715018a6",
			"transferOwnership(address)": "f2fde38b",
			"unlockStake()": "bb9fe6bf",
			"withdraw(address,address,uint256)": "d9caed12",
			"withdrawStake(address)": "c23a5cea"
		}
	},
	"abi": [
		{
			"inputs": [
				{
					"internalType": "address",
					"name": "owner",
					"type": "address"
				},
				{
					"internalType": "contract IEntryPoint",
					"name": "entryPoint",
					"type": "address"
				}
			],
			"stateMutability": "nonpayable",
			"type": "constructor"
		},
		{
			"inputs": [
				{
					"internalType": "address",
					"name": "target",
					"type": "address"
				}
			],
			"name": "AddressEmptyCode",
			"type": "error"
		},
		{
			"inputs": [
				{
					"internalType": "address",
					"name": "account",
					"type": "address"
				}
			],
			"name": "AddressInsufficientBalance",
			"type": "error"
		},
		{
			"inputs": [],
			"name": "FailedInnerCall",
			"type": "error"
		},
		{
			"inputs": [],
			"name": "InvalidAction",
			"type": "error"
		},
		{
			"inputs": [
				{
					"internalType": "address",
					"name": "entryPoint",
					"type": "address"
				}
			],
			"name": "InvalidEntryPoint",
			"type": "error"
		},
		{
			"inputs": [],
			"name": "InvalidOwners",
			"type": "error"
		},
		{
			"inputs": [
				{
					"internalType": "address",
					"name": "owner",
					"type": "address"
				}
			],
			"name": "OwnableInvalidOwner",
			"type": "error"
		},
		{
			"inputs": [
				{
					"internalType": "address",
					"name": "account",
					"type": "address"
				}
			],
			"name": "OwnableUnauthorizedAccount",
			"type": "error"
		},
		{
			"inputs": [],
			"name": "OwnersArrayEmpty",
			"type": "error"
		},
		{
			"inputs": [],
			"name": "OwnersLimitExceeded",
			"type": "error"
		},
		{
			"inputs": [
				{
					"internalType": "address",
					"name": "token",
					"type": "address"
				}
			],
			"name": "SafeERC20FailedOperation",
			"type": "error"
		},
		{
			"inputs": [],
			"name": "TransferFailed",
			"type": "error"
		},
		{
			"inputs": [],
			"name": "ZeroAddressNotAllowed",
			"type": "error"
		},
		{
			"anonymous": false,
			"inputs": [
				{
					"indexed": true,
					"internalType": "address",
					"name": "previousOwner",
					"type": "address"
				},
				{
					"indexed": true,
					"internalType": "address",
					"name": "newOwner",
					"type": "address"
				}
			],
			"name": "OwnershipTransferStarted",
			"type": "event"
		},
		{
			"anonymous": false,
			"inputs": [
				{
					"indexed": true,
					"internalType": "address",
					"name": "previousOwner",
					"type": "address"
				},
				{
					"indexed": true,
					"internalType": "address",
					"name": "newOwner",
					"type": "address"
				}
			],
			"name": "OwnershipTransferred",
			"type": "event"
		},
		{
			"inputs": [],
			"name": "ACCOUNT_IMPLEMENTATION",
			"outputs": [
				{
					"internalType": "contract MultiOwnerCordylineAccount",
					"name": "",
					"type": "address"
				}
			],
			"stateMutability": "view",
			"type": "function"
		},
		{
			"inputs": [],
			"name": "ENTRY_POINT",
			"outputs": [
				{
					"internalType": "contract IEntryPoint",
					"name": "",
					"type": "address"
				}
			],
			"stateMutability": "view",
			"type": "function"
		},
		{
			"inputs": [],
			"name": "acceptOwnership",
			"outputs": [],
			"stateMutability": "nonpayable",
			"type": "function"
		},
		{
			"inputs": [
				{
					"internalType": "uint32",
					"name": "unstakeDelay",
					"type": "uint32"
				},
				{
					"internalType": "uint256",
					"name": "amount",
					"type": "uint256"
				}
			],
			"name": "addStake",
			"outputs": [],
			"stateMutability": "payable",
			"type": "function"
		},
		{
			"inputs": [
				{
					"internalType": "address[]",
					"name": "owners",
					"type": "address[]"
				},
				{
					"internalType": "uint256",
					"name": "salt",
					"type": "uint256"
				}
			],
			"name": "createAccount",
			"outputs": [
				{
					"internalType": "contract MultiOwnerCordylineAccount",
					"name": "account",
					"type": "address"
				}
			],
			"stateMutability": "nonpayable",
			"type": "function"
		},
		{
			"inputs": [
				{
					"internalType": "address",
					"name": "owner",
					"type": "address"
				},
				{
					"internalType": "uint256",
					"name": "salt",
					"type": "uint256"
				}
			],
			"name": "createAccountSingle",
			"outputs": [
				{
					"internalType": "contract MultiOwnerCordylineAccount",
					"name": "account",
					"type": "address"
				}
			],
			"stateMutability": "nonpayable",
			"type": "function"
		},
		{
			"inputs": [
				{
					"internalType": "address[]",
					"name": "owners",
					"type": "address[]"
				},
				{
					"internalType": "uint256",
					"name": "salt",
					"type": "uint256"
				}
			],
			"name": "getAddress",
			"outputs": [
				{
					"internalType": "address",
					"name": "",
					"type": "address"
				}
			],
			"stateMutability": "view",
			"type": "function"
		},
		{
			"inputs": [],
			"name": "owner",
			"outputs": [
				{
					"internalType": "address",
					"name": "",
					"type": "address"
				}
			],
			"stateMutability": "view",
			"type": "function"
		},
		{
			"inputs": [],
			"name": "pendingOwner",
			"outputs": [
				{
					"internalType": "address",
					"name": "",
					"type": "address"
				}
			],
			"stateMutability": "view",
			"type": "function"
		},
		{
			"inputs": [],
			"name": "renounceOwnership",
			"outputs": [],
			"stateMutability": "view",
			"type": "function"
		},
		{
			"inputs": [
				{
					"internalType": "address",
					"name": "newOwner",
					"type": "address"
				}
			],
			"name": "transferOwnership",
			"outputs": [],
			"stateMutability": "nonpayable",
			"type": "function"
		},
		{
			"inputs": [],
			"name": "unlockStake",
			"outputs": [],
			"stateMutability": "nonpayable",
			"type": "function"
		},
		{
			"inputs": [
				{
					"internalType": "address payable",
					"name": "to",
					"type": "address"
				},
				{
					"internalType": "address",
					"name": "token",
					"type": "address"
				},
				{
					"internalType": "uint256",
					"name": "amount",
					"type": "uint256"
				}
			],
			"name": "withdraw",
			"outputs": [],
			"stateMutability": "nonpayable",
			"type": "function"
		},
		{
			"inputs": [
				{
					"internalType": "address payable",
					"name": "to",
					"type": "address"
				}
			],
			"name": "withdrawStake",
			"outputs": [],
			"stateMutability": "nonpayable",
			"type": "function"
		},
		{
			"stateMutability": "payable",
			"type": "receive"
		}
	]
}