{
	"data": {
		"bytecode": {
			"linkReferences": {},
			"object": "61010a61004d600b8282823980515f1a6073146041577f4e487b71000000000000000000000000000000000000000000000000000000005f525f60045260245ffd5b305f52607381538281f3fe73000000000000000000000000000000000000000030146080604052600436106046575f3560e01c806325093e1b14604a578063b29a8ff4146064578063ede3150214607e575b5f5ffd5b60506098565b604051605b919060bd565b60405180910390f35b606a609d565b6040516075919060bd565b60405180910390f35b608460a2565b604051608f919060bd565b60405180910390f35b602481565b601481565b603481565b5f819050919050565b60b78160a7565b82525050565b5f60208201905060ce5f83018460b0565b9291505056fea26469706673582212205ddf66669b79d92cae0538a80b578c256b8c559fb106e2006ec30b1d3566b8f264736f6c634300081e0033",
			"opcodes": "PUSH2 0x10A PUSH2 0x4D PUSH1 0xB DUP3 DUP3 DUP3 CODECOPY DUP1 MLOAD PUSH0 BYTE PUSH1 0x73 EQ PUSH1 0x41 JUMPI PUSH32 0x4E487B7100000000000000000000000000000000000000000000000000000000 PUSH0 MSTORE PUSH0 PUSH1 0x4 MSTORE PUSH1 0x24 PUSH0 REVERT JUMPDEST ADDRESS PUSH0 MSTORE PUSH1 0x73 DUP2 MSTORE8 DUP3 DUP2 RETURN INVALID PUSH20 0x0 ADDRESS EQ PUSH1 0x80 PUSH1 0x40 MSTORE PUSH1 0x4 CALLDATASIZE LT PUSH1 0x46 JUMPI PUSH0 CALLDATALOAD PUSH1 0xE0 SHR DUP1 PUSH4 0x25093E1B EQ PUSH1 0x4A JUMPI DUP1 PUSH4 0xB29A8FF4 EQ PUSH1 0x64 JUMPI DUP1 PUSH4 0xEDE31502 EQ PUSH1 0x7E JUMPI JUMPDEST PUSH0 PUSH0 REVERT JUMPDEST PUSH1 0x50 PUSH1 0x98 JUMP JUMPDEST PUSH1 0x40 MLOAD PUSH1 0x5B SWAP2 SWAP1 PUSH1 0xBD JUMP JUMPDEST PUSH1 0x40 MLOAD DUP1 SWAP2 SUB SWAP1 RETURN JUMPDEST PUSH1 0x6A PUSH1 0x9D JUMP JUMPDEST PUSH1 0x40 MLOAD PUSH1 0x75 SWAP2 SWAP1 PUSH1 0xBD JUMP JUMPDEST PUSH1 0x40 MLOAD DUP1 SWAP2 SUB SWAP1 RETURN JUMPDEST PUSH1 0x84 PUSH1 0xA2 JUMP JUMPDEST PUSH1 0x40 MLOAD PUSH1 0x8F SWAP2 SWAP1 PUSH1 0xBD JUMP JUMPDEST PUSH1 0x40 MLOAD DUP1 SWAP2 SUB SWAP1 RETURN JUMPDEST PUSH1 0x24 DUP2 JUMP JUMPDEST PUSH1 0x14 DUP2 JUMP JUMPDEST PUSH1 0x34 DUP2 JUMP JUMPDEST PUSH0 DUP2 SWAP1 POP SWAP2 SWAP1 POP JUMP JUMPDEST PUSH1 0xB7 DUP2 PUSH1 0xA7 JUMP JUMPDEST DUP3 MSTORE POP POP JUMP JUMPDEST PUSH0 PUSH1 0x20 DUP3 ADD SWAP1 POP PUSH1 0xCE PUSH0 DUP4 ADD DUP5 PUSH1 0xB0 JUMP JUMPDEST SWAP3 SWAP2 POP POP JUMP INVALID LOG2 PUSH5 0x6970667358 0x22 SLT KECCAK256 TSTORE 0xDF PUSH7 0x669B79D92CAE05 CODESIZE 0xA8 SIGNEXTEND JUMPI DUP13 0x25 PUSH12 0x8C559FB106E2006EC30B1D35 PUSH7 0xB8F264736F6C63 NUMBER STOP ADDMOD 0x1E STOP CALLER "
		},
		"gasEstimates": {
			"creation": {
				"codeDepositCost": "53200",
				"executionCost": "128",
				"totalCost": "53328"
			},
			"external": {
				"PAYMASTER_DATA_OFFSET()": "331",
				"PAYMASTER_POSTOP_GAS_OFFSET()": "287",
				"PAYMASTER_VALIDATION_GAS_OFFSET()": "309"
			},
			"internal": {
				"encode(struct PackedUserOperation calldata,bytes32)": "infinite",
				"gasPrice(struct PackedUserOperation calldata)": "infinite",
				"hash(struct PackedUserOperation calldata,bytes32)": "infinite",
				"unpackCallGasLimit(struct PackedUserOperation calldata)": "infinite",
				"unpackHigh128(bytes32)": "infinite",
				"unpackLow128(bytes32)": "infinite",
				"unpackMaxFeePerGas(struct PackedUserOperation calldata)": "infinite",
				"unpackMaxPriorityFeePerGas(struct PackedUserOperation calldata)": "infinite",
				"unpackPaymasterStaticFields(bytes calldata)": "infinite",
				"unpackPaymasterVerificationGasLimit(struct PackedUserOperation calldata)": "infinite",
				"unpackPostOpGasLimit(struct PackedUserOperation calldata)": "infinite",
				"unpackUints(bytes32)": "infinite",
				"unpackVerificationGasLimit(struct PackedUserOperation calldata)": "infinite"
			}
		},
		"methodIdentifiers": {
			"PAYMASTER_DATA_OFFSET()": "ede31502",
			"PAYMASTER_POSTOP_GAS_OFFSET()": "25093e1b",
			"PAYMASTER_VALIDATION_GAS_OFFSET()": "b29a8ff4"
		}
	},
	"abi": [
		{
			"inputs": [],
			"name": "PAYMASTER_DATA_OFFSET",
			"outputs": [
				{
					"internalType": "uint256",
					"name": "",
					"type": "uint256"
				}
			],
			"stateMutability": "view",
			"type": "function"
		},
		{
			"inputs": [],
			"name": "PAYMASTER_POSTOP_GAS_OFFSET",
			"outputs": [
				{
					"internalType": "uint256",
					"name": "",
					"type": "uint256"
				}
			],
			"stateMutability": "view",
			"type": "function"
		},
		{
			"inputs": [],
			"name": "PAYMASTER_VALIDATION_GAS_OFFSET",
			"outputs": [
				{
					"internalType": "uint256",
					"name": "",
					"type": "uint256"
				}
			],
			"stateMutability": "view",
			"type": "function"
		}
	]
}